:1012D700EFF4F580E5A0541F4480F5A053A01F222A
:10122A00E4F580E5A0541F4480F5A053A01FE4F51F
:0D123A0080E5A0541F44A0F5A053A01F2282
:1012AD00758DFC758B18538EBF53890FC28FD2AFBE
:0512BD00D2ABD28E222D
:060C7B008B548A558956D6
:100C8100E4F55BF55AAB54AA55A956855A8275838A
:100C9100001205361206350CC3300CD4310CE53286
:100CA1000CF6330D07340D18350D28360D38370D78
:100CB10048380D58390D68430D78450D88480000B6
:100CC1000D98AB57AA58A959855B8275830074C0EA
:100CD100020DA6AB57AA58A959855B82758300748A
:100CE100F9020DA6AB57AA58A959855B82758300F5
:100CF10074A4020DA6AB57AA58A959855B827583C6
:100D01000074B0020DA6AB57AA58A959855B82752C
:100D110083007499020DA6AB57AA58A959855B8225
:100D21007583007492807EAB57AA58A959855B825E
:100D31007583007482806EAB57AA58A959855B826E
:100D410075830074F8805EAB57AA58A959855B82F8
:100D51007583007480804EAB57AA58A959855B8270
:100D61007583007490803EAB57AA58A959855B8260
:100D710075830074C6802EAB57AA58A959855B822A
:100D81007583007486801EAB57AA58A959855B826A
:100D91007583007489800EAB57AA58A959855B8267
:100DA10075830074FF120575055A055BE55B6408E0
:050DB1006003020C8646
:010DB600221A
:1010D7007580FFE5A0541F44E0F5A053A01F7401DD
:1010E700A805088002C333D8FCF580E5A0541F4447
:1010F700C0F5A053A01FAF058F8275830012053678
:0E110700F580E5A0541F44E0F5A053A01F2280
:021115008F58F1
:10111700E4F55CF55BF55AF559AF3BAE3AAD39AC42
:10112700388F5C8E5B8D5A8C59C3E53B955CFBE52C
:101137003A955BFAE539955AF9E5389559F8AF5874
:0A114700E4FCFDFEC31205F440DFD6
:01115100227B
:10000300E4F58053A01FEF60054380108003538005
:08001300EF43A0A053A01F223F
:100AF700C2C4D2C2D2B5D2B4E5B0540F755500F511
:100B070056D2C4C2C2C4F8540FC868FFE555C454CE
:100B1700F048FEE5B0540FFDEEF555EF4DF556D212
:100B2700C2C2B5C4F8540FC868FFE555C454F048AD
:100B3700FEE5B0540FFDEEF555EF4DF556D2B5C2B3
:100B4700B4C4F8540FC868FFE555C454F048FEE52F
:100B5700B0540FFDEEF555EF4DF556B4FF08E555CA
:100B6700B4FF037F00227F0A121115C2C4D2C2D27A
:100B7700B5D2B4E5B0540F7E00D2C4C2C2C4F85493
:100B87000FC868FFEEC454F048FEE5B0540FFDEF00
:100B97004DD2C2C2B5C4F8540FC868FFEEC454F0B2
:100BA70048FEE5B0540FFDEF4DD2B5C2B4C4F854BA
:100BB7000FC868FFEEC454F048FEE5B0540FFDEFD0
:100BC7004DFF65567003E5556E60037F0022EFF415
:100BD700FFEEF4FEEF8EF012065B0C7000010C6B5B
:100BE70000020C6600040C6100080C5C00100C5736
:100BF70000200C5200400C4D00800C4801000C43B3
:100C070002000C3E04000C3908000C3410000C2FB5
:100C170020000C2A40000C25800000000C75755739
:100C270004804E75570580497557068044755707E8
:100C3700803F755708803A755709803575570A8080
:100C47003075570B802B75570C802675570D8021F3
:100C570075570E801C75570F8017755710801275C2
:100C67005711800D75571280087557138003E4F5E7
:030C770057AF571D
:010C7A002257
:04126400D2A07F0590
:10126800000000000000000000000000000000AEC8
:06127800071FEE70EB22DF
:0F12E700D2A1121264C2A17F05121268C2A02206
:0C12F600C2A1121264D2A17F050212688E
:02118F00AD07AA
:10119100E4FCC2A07F05121268ED30E704D2A18001
:1011A10002C2A17F05121268D2A0ED25E0FD7F05E4
:0911B1001212680CBC08DBC2A09C
:0111BA002212
:10124700E4FC121264ED25E0FD30A103430501C261
:0C125700A07F051212680CBC08E8AF056F
:011263002268
:0312C20012118F77
:1012C500121264A2A1E433FDC2A07F05121268AF19
:0112D5000513
:0112D60022F5
:10127E00C2A0EF24FF92A17F05121268121264C25F
:08128E00A0D2A17F0502126845
:1011BB001212E77F901212C27F431212C21212E771
:1011CB007F9112118F1212C5121247AD077F0112B8
:0711DB00127E1212F6AF05AF
:0111E20022EA
:10120A0043606060606025303275004560606060F0
:10121A006025303275004860606060602532750074
:101093000A4831323334350000000000083E0000B6
:1010A300000000000000015200013C000132000179
:1010B3003D000137320131000433000000030147D2
:1010C30000014600015300042900000000042D0024
:0310D3000000001A
:1012960012122A1212AD120DB712103E121152126C
:0712A6000F87120FE680EF35
:10115200E53214600F1460142402701643470153E1
:1011620047F9800E4347025347FA80064347045328
:1011720047FCE53D6005434780800353477FE522F6
:0C11820065476008854722AF471212D76E
:01118E00223E
:100F8700E53C6049E4F53CE532146018146026241A
:100F970002703A7557FF75581275590A755A0085C8
:100FA700315B80207557FF755812755915755A00B2
:100FB70085375B800F7557FF755812755920853532
:100FC7005A85365B7B007A0079481206E47557002C
:0F0FD70075580075593E7B007A007948020C7BF3
:100DB700120AF78F54E52365547003020E60E55459
:100DC70024FB601B24FD601C14605424056003028F
:100DD7000E5D0532E53275F0038485F03280776366
:100DE7003DFF8072E532B4010874FB2537F5378083
:100DF70022E532B4021D783374FF120607E47B0143
:100E0700FAF9F8D31205F4400AE475360AF535F510
:100E170034F533E537C3941E503C75375A8037E5B0
:100E270032B4010874052537F5378020E532B4025E
:100E37001B7833120605E47B0AFAF9F8C31205F4A6
:100E4700500AE4753601F535F534F533E537D394B3
:090E57005A400375371E8554232F
:010E6000226F
:10103E00E5466050E4F5461211BBAC07E4120226F9
:10104E007B317ADB7905783F1201167B557A55791B
:10105E008578C112002512025A8F31E531C3940AE8
:10106E00500575310A800AE531D3945A4003753123
:10107E005AE524D395374009E5319537500375531A
:04108E000185312483
:01109200223B
:100FE600E53D6019E55360157F01120003853B2836
:100FF600853A27853926853825E4F55322E47FE8A6
:101006007E03FDFCAB36AA35A934A833120597A892
:1010160004A905AA06AB07C3E53B9528FFE53A9563
:1010260027FEE5399526FDE5389525FCC31205F41E
:071036005005E4FF12000366
:01103D002290
:03001B00020E6171
:100E6100C0E0C0F0C083C082C0D075D000C000C057
:0D0E710001C002C003C004C005C006C007D8
:100E7E00E53B2401F53BE4353AF53AE43539F539ED
:100E8E00E43538F5387829120605E47B0AFAF9F8C4
:100E9E00C31205F4700BF52CF52BF52AF529753CCC
:100EAE0001782D120605E47B64FAF9F8C31205F4F5
:100EBE00700BF530F52FF52EF52D7546017B007A6A
:100ECE0000793EAD521210D70552E552B4080375A3
:020EDE005200C0
:100EE000D007D006D005D004D003D002D001D00066
:0B0EF000D0D0D082D083D0F0D0E03210
:10001E000202C6E86480F8E933E83360110460F048
:10002E00ED33EC337009E8FCE9FDEAFEEBFF220448
:10003E0060DED3EB9FEA9EE99DE8C2E78CF0C2F743
:10004E0095F0400CE8CCF8E9CDF9EACEFAEBCFFB0F
:10005E0012029185D0F05804700320D5B3E80470D5
:10006E00075002B2D50202D092D5EC0460F7E4CC70
:10007E00C0E0C398F8603B94186008400DD0E0FBD8
:10008E000202A8E4FBFAC9FC8028E830E406E4C9C1
:10009E00FBE4CAFCE830E305E4C9CACBFCE854072C
:1000AE006010F8C3E913F9EA13FAEB13FBEC13FC37
:1000BE00D8F130F52FC3E49CFCEF9BFFEE9AFEEDDA
:1000CE0099FDD0E0FBEF4E4D4C701222DB03020285
:1000DE00CDEC2CFCEF33FFEE33FEED33FDED30E7D0
:1000EE00EB0202A8EF2BFFEE3AFEED39FDD0E0FB5E
:1000FE0050130BBB00030202D0ED13FDEE13FEEF07
:08010E0013FFEC13FC0202A830
:10011600EC4D6011E8497017ED33EC3304600DE4E3
:10012600FCFFFEFD22E933E8330470F80202C61232
:10013600029158046009E4CC248150062850090233
:1001460002D02840030202CDC0E0EB4A7044B980D9
:1001560006D0E0FB0202BCEF4E701CBD8008EBFF30
:10016600EAFEE9FD80EBE98DF0A4FEE5F00201FF71
:10017600E9CDF9EAFEEBFFEF89F0A4FCE5F0CE89C4
:10018600F0A42EFFE435F0CD89F0A42DFEE435F081
:100196008067EF4E7005BD80D780C3EF8BF0A4ACAF
:1001A600F0EE8BF0A42CFCE435F0F8EF8AF0A42CEA
:1001B600E5F038FCE433CB8DF0A42CFCE5F03BF8FD
:1001C600EE8AF0A42CFCE5F038F8E433CF89F0A4ED
:1001D6002CFCE5F038CF3400CE89F0A42FFFE5F0F3
:1001E6003EFEE433C98DF0A42EFEE5F039CD8AF04B
:1001F600A42FFFE5F03EFEE43DFD33D0E0FB5007C3
:100206000BBB000F0202D0EC2CFCEF33FFEE33FEEB
:06021600ED33FD0202A819
:10021C0075F020800E75F010800575F0087D007E5D
:10022C00007F003392D530D5031205E6EC33401035
:10023C00EF33FFEE33FEED33FDEC33FCD5F0ED2266
:0E024C00E5F0247EA2D513CC92E7CDCEFF22A2
:10025A00EDD2E7CD33EC3392D524814006E4FFFE9C
:10026A00FDFC22FCE4CFCECDCC24E0501174FF80FB
:10027A00EDC3CC13CCCD13CDCE13CECF13CF047098
:07028A00F030D5DE0205E6AD
:10068800E56B2457F8E6056B227854300702785753
:10069800E475F00112062502051D2000EB7F2ED21D
:1006A800008018EF540F2490D43440D4FF30040B4A
:1006B800EF24BFB41A0050032461FFE56C600215F3
:1006C8006C056FE56F7002056E30070D7854E475A0
:1006D800F001120625EF0205630211E37403D20745
:1006E8008003E4C207F56B8B548A558956E4F56C90
:1006F800F56EF56FE56C60077F201206C380F5750F
:100708006DFFC201C200C202C203C205C206C2080E
:10071800120691FF700D3007057F001206D4AF6FE7
:10072800AE6E22B4255FC2D5C204120691FF24D052
:10073800B40A00501A75F00A786C30D50508B6FF6F
:100748000106C6A426F620D5047002D20380D92457
:10075800CFB41A00EF5004C2E5D2040209C1D20195
:1007680080C6D20080C0D20280BCD2D580BAD20561
:1007780080B47F201206C32002077401B56C0040C4
:10078800F1120688FF1206C30206FCD208D20680C0
:1007980095120688FB120688FA120688F94A4B70E9
:1007A8000679B87A0A7BFF20022EE56C602A7E0063
:1007B8008E8275830012053660060EEE656D70F048
:1007C800C2D5EBC0E0EAC0E0E9C0E0EE120A21D0F1
:1007D800E0F9D0E0FAD0E0FB12051DFF60AAEBC0FB
:1007E800E0EAC0E0E9C0E01206C3D0E02401F9D095
:1007F800E03400FAD0E0FBE56D0460DCD56DD9800B
:1008080087D20280A2120A0460F7E56D7001041213
:1008180002DBA96D600DE56D600914F56D120AAB78
:10082800EF60F3EA30E702F404C3995077EAF4255D
:100838006D0430E701E404F56D800D120A0460C10F
:10084800EA056D256D1202DBEA786AF630E701E405
:10085800256D04D56D0420050114120A21E4C0E0B9
:10086800120AAB786AE6601320E70714F61206ABA3
:10087800802204F6D0E014C0E07F001206ABE56DDC
:1008880060071206A2156D800B3005031206A2D070
:10089800E00206FCD0E00480C5120A0460A0E56D01
:1008A800041202DB786AEAF6E56D200502600104AD
:0508B8002404120A21D6
:1008BD0074FF04C0E0120AAB1206ABE56D20050211
:1008CD0060031206A2D0E0B56DE87F451206B5783B
:1008DD006AE67F2B30E7047F2DF404C0E01206C3D7
:1008ED00D0E075F00A84C0F01206ACD0E01206AC70
:1008FD000206FC791080027908C206C2088008D26F
:10090D00D5790A8004790AC2D5E56D047002F56DBA
:10091D00E4FAFDFEFF120688FC7B08200113120687
:10092D0088FD7B1030000A120688FE120688FF7BB8
:10093D0020EC3382D592D55013C3E43000069FFFCF
:10094D00E49EFEE42001039DFDE49CFCE4CBF8C293
:10095D0001EC700CCFCECDCCE824F8F870F38017F5
:10096D00C3EF33FFEE33FEED33FDEC33FCEB33FB26
:10097D00994002FB0FD8E9EB300105F8D0E0C448EF
:10098D00B201C0E00AEC4D4E4F78207B0070C2EAF8
:10099D00B56D0040BCC0E0120A23D0F0D0E02001BC
:1009AD0004C4C0E0C4B201C0F01206ACD0F0D5F062
:1009BD00EB0206FC120635079953090058076A4CDD
:1009CD0007664209044F090C44090C49077F430986
:1009DD00125508434608A145080D470AD850076E21
:1009ED002D07722E07952B0776230793200AC12A10
:1009FD00072E480000078DE56DB4FF03756D0612D7
:100A0D000688FC120688FD120688FE120688FF78FD
:100A1D006302030A790AA2D5200314300509B9101F
:100A2D00020404B9080104A2D520060250010420D5
:100A3D0002689202B56C005034C0E07F203003197B
:100A4D007F30A20272067205500F120A7AC202C2DC
:100A5D0006C205C2087F30800F300503E9C0E012E1
:100A6D0006C3300503D0E0F9D0E0B56CCC300517E6
:100A7D007F30B9100C1206C37F583004077F788081
:100A8D0003B908031206C33002057F2D0206C37F8A
:100A9D00202008F87F2B2006F322920280CF7F00C2
:100AAD00B4070050052463F8E6FF22286E756C6CC0
:100ABD002900D2011206883001F8C201786C30D5B8
:100ACD000108F602072E2D504349581206882403BB
:100ADD00B405004001E4900AD3931206B4743A129F
:0A0AED0006B4D203756C0402090080
:10029100E9D2E7C933E833F892D5EDD2E7CD33ECB3
:0702A10033FC5002B2D5222C
:1002A800EC30E7100FBF000C0EBE00080DBD0004B7
:1002B8000BEB6014A2D5EB13FCED92E7FD2274FF63
:1002C800FCFDFEFF22E480F8A2D574FF13FC7D80BC
:0302D800E480EFD0
:1002DB00F920E72824F950037907E4F42402FB18EA
:1002EB00DBFDE624FB5014E9600DE4F618E604F69A
:0F02FB00B40A08E4F6D9F57401F60A22C2D52236
:10030A00ED33EC3392D5FA602AB4FF33EDC2E77BC2
:10031A00FF60067A03792FE4227A03793820D5041C
:10032A007A037933224E614E002B494E46002D49FD
:10033A004E4600E47A08F608DAFC7B00740722E8E5
:10034A00C0E0ECC0E0EDC0E0EEC0E0EFC0E0EA756E
:10035A00F010A4CAABF075F04DA42BFBE435F0FC09
:10036A00EA2410FAEB34C5FBEC34D9FCEDC2E7FF02
:10037A0075F056A4F42411C5F0F434C58FF0A42AFC
:10038A00E5F03BE43CF620E7141204DDD0E0FFD0B0
:10039A00E0FED0E0FDD0E0FC1204108014F4041258
:1003AA0004DDD0E0FFD0E0FED0E0FDD0E0FC120199
:1003BA0016D0E0F8E6FAEDD2E7CD33EC332482FB2F
:1003CA00E4C3CF33CFCE33CECD33CD33DBF37B078C
:1003DA0075F00A846004F6081B0AE5F0F6088FF047
:1003EA00740AA4FFACF08EF0740AA42CFEACF05090
:1003FA00010C8DF0740AA42CFDE435F0F608DBDE5E
:03040A0074072252
:10040D000202D0EC5D046005E8590470030202C6D7
:10041D00120291580460F6EC4860F2EC7004FDFE97
:10042D00FF22C860DB2481C85009C39860025006C2
:10043D000202CD9850CAF582E9294B4A7005AB826C
:10044D000202BC75F0007C1A7880C3EF9BEE9AED2A
:10045D0099400DC3EF9BFFEE9AFEED99FDE842F03A
:10046D00DC23ACF0D0E0FFD0E0FED0E0FDAB82208D
:10047D00E7101BEB60BAEC2CFCEF33FFEE33FEED17
:10048D0033FD0202A8E803F830E705C0F075F0006F
:10049D00EF2FFFEE33FEED33FD40B830E7C280AAFB
:1004AD003F8000004120000042C80000447A000057
:1004BD00461C400047C35000497424004B189680D9
:1004CD004CBEBC205A0E1BCA6753C21C749DC5AED0
:1004DD00FB60065407601C232312050BEB54386098
:1004ED00091204F7120506120116ECF8EDF9EEFAF1
:1004FD00EFCB22EB12050680F1543803241C900437
:10050D00ADFE93FC0EEE93FD0EEE930ECE93FF22F9
:03000000020EFBF2
:0C0EFB00787FE4F6D8FD75816F020F428D
:10051D00BB010689828A83E0225002E722BBFE02DC
:09052D00E32289828A83E493220F
:10053600BB010CE58229F582E5833AF583E022507A
:1005460006E92582F8E622BBFE06E92582F8E222C4
:0D055600E58229F582E5833AF583E49322DE
:10056300BB010689828A83F0225002F722BBFE0177
:02057300F32271
:10057500F8BB010DE58229F582E5833AF583E8F0BC
:10058500225006E92582C8F622BBFE05E92582C868
:02059500F22250
:10059700E88FF0A4CC8BF0A42CFCE98EF0A42CFC03
:1005A7008AF0EDA42CFCEA8EF0A4CDA8F08BF0A481
:1005B7002DCC3825F0FDE98FF0A42CCD35F0FCEBE0
:1005C7008EF0A4FEA9F0EB8FF0A4CFC5F02ECD39A5
:0F05D700FEE43CFCEAA42DCE35F0FDE43CFC2212
:0E05E600C3E49FFFE49EFEE49DFDE49CFC2226
:1005F400EB9FF5F0EA9E42F0E99D42F0E89C45F05D
:0106040022D3
:100605007401FF3395E0FEFDFC080808E62FFFF6B0
:1006150018E63EFEF618E63DFDF618E63CFCF62229
:10062500FAE6FB0808E6F925F0F618E6CA3AF622D6
:10063500D083D082F8E4937012740193700DA3A354
:1006450093F8740193F5828883E473740293686068
:06065500EFA3A3A380DF68
:10065B00D083D082F8E4937012740193700DA3A32E
:10066B0093F8740193F5828883E473740293B5F065
:0D067B00067403936860E9A3A3A3A380D8CD
:1011E300EFB40A07740D1211EE740A309811A8991E
:1011F300B8130CC2983098FDA899C298B811F6306C
:0712030099FDC299F5992243
:100F0700021296E493A3F8E493A34003F68001F258
:100F170008DFF48029E493A3F85407240CC8C333EB
:100F2700C4540F4420C8834004F456800146F6DFBA
:100F3700E4800B0102040810204080901093E47EA7
:100F4700019360BCA3FF543F30E509541FFEE493AF
:100F5700A360010ECF54C025E060A840B8E493A376
:100F6700FAE493A3F8E493A3C8C582C8CAC583CAA1
:100F7700F0A3C8C582C8CAC583CADFE9DEE780BE59
:0110D6000019
:00000001FF
