:1014E200EFF4F580E5A0541F4480F5A053A01F221D
:101419007580FFE5A0541F4480F5A053A01F758077
:0D14290040E5A0541F44A0F5A053A01F22D1
:1000030053890F538EBF758DFC758B18C28FD2AF7A
:05001300D2ABD28E22E9
:060B63008B628A638964C5
:100B6900E4F568F569AB62AA63A96485688275834F
:100B79000012062C1206CE0CD92D0CE92E0BBD3015
:100B89000BCE310BDF320BF0330C01340C12350C68
:100B990023360C34370C45380C56390C67410C7820
:100BA900420C89430C99440CA9450CB9460CC9550A
:100BB90000000D00AB65AA66A96785698275830087
:100BC90074C0020D0EAB65AA66A967856982758333
:100BD9000074F9020D0EAB65AA66A967856982756D
:100BE900830074A4020D0EAB65AA66A967856982A4
:100BF90075830074B0020D0EAB65AA66A967856995
:100C0900827583007499020D0EAB65AA66A9678582
:100C190069827583007492020D0EAB65AA66A96795
:100C29008569827583007482020D0EAB65AA66A977
:100C39006785698275830074F8020D0EAB65AA6633
:100C4900A9678569827583007480020D0EAB65AA58
:100C590066A9678569827583007490020D0EAB657C
:100C6900AA66A9678569827583007488020D0EAB2F
:100C790065AA66A9678569827583007483020D0E6A
:100C8900AB65AA66A96785698275830074C6807594
:100C9900AB65AA66A96785698275830074A18065B9
:100CA900AB65AA66A96785698275830074868055D4
:100CB900AB65AA66A967856982758300748E8045CC
:100CC900AB65AA66A96785698275830074C1803599
:100CD900AB65AA66A96785698275830074BF80259B
:100CE9001569AB65E5672569F9E43566FA120613F6
:100CF900547F1206598011AB65AA66A96785698276
:100D090075830074FF12066B05680569E569C3946C
:060D1900085003020B6EFE
:010D1F0022B1
:10126F007580FFE5A0541F44E0F5A053A01F740143
:10127F00A805088002C333D8FCF580E5A0541F44AD
:10128F00C0F5A053A01FAF058F8275830012062CE7
:0E129F00F580E5A0541F44E0F5A053A01F22E7
:0412E8008F828E83E0
:1012EC00AF3EAE3DAD3CAC3B8F678E668D658C647E
:1012FC00C3E53E9567FFE53D9566FEE53C9565FDCE
:10130C00E53B9564FCAB82AA83E4F9F8D31206ADF5
:02131C0050DEA1
:01131E0022AC
:10109000D2B4C2B5E5B0540FF562C2B4D2B5C454EF
:1010A000F0FFE5B0540F4FF562B4FF037F00227FDD
:1010B0000A7E001212E8D2B4C2B5E5B0540FC2B431
:1010C000D2B5C454F0FFE5B0540F4FFF6562600322
:1010D0007F0022EFF424FC601B24FC601224C86013
:1010E0000924C0701475630C801275630D800D7532
:0E10F000631080087563118003E4F563AF633D
:0110FE0022CF
:10143600E4F58053A01FEF600543801080035380BE
:0D144600EFE5A0541F44A0F5A053A01F2205
:1014BE00E4FEC297EF1392A3EFC313FFD2970EBEB3
:0214CE0008F024
:0114D00022F9
:0814530075F00A84EE25F0FD9E
:10145B00C29300C29700D293001214BEAF051214B0
:04146B00BEC2932248
:10135500E4FDC29300C29700D293001214BEE4FFCD
:10136500C297EDC313FD30A303430580D2970FBF8A
:1013750008EEC29300C29700D29700C2A300D2A381
:0313850000AF05B1
:011388002242
:1011D800E4FD7F8E12145B120613FF75F00A84C4B7
:1011E80054F0FEEF7F8412145390000112062CFF76
:1011F80075F00A84C454F0FEEF7F821214539000F5
:101208000212062CFF75F00A84C454F0FEEF75F044
:101218000A84EE25F0FD7F8012145B7D807F8E02AC
:02122800145B55
:10122A007F85121355EFC4540F75F00AA4FEEF54CC
:10123A000F2E1206597F83121355EFC4540F75F0FF
:10124A000AA4FEEF540F2E90000112066B7F811242
:10125A001355EFC4540F75F00AA4FEEF540F2E90E5
:05126A00000202066B0A
:1012AD00553160606025342E316600253032752D44
:1012BD00253032752D25303275005532602530328E
:1012CD00752D2530327500553360606060253032E4
:0B12DD0075004552524F52000A3B3290
:1010FF00014100013F000A513132333435300000D5
:10110F00000008480000000000000000015E000120
:10111F004400015D00015000043B00000000014746
:10112F000001420003380000000143000245001790
:10113F00025B0017014000012200042300000000A1
:10114F00042700000000012C00042D000000000403
:0E115F003100000000013500013600013700AC
:10131F00785F7C007D007BFF7A1279E57E007F038A
:10132F001205ED1214191200037B007A00795F1277
:10133F0011D8120DCD12101512146F12116E120E4C
:06134F0075120D2080EC78
:100DCD00E5447003020E63E4F544E55D14602C14F4
:100DDD0060612402706E7565FF7566127567ADAC46
:100DED005BAD5CE41202C1E4FBFA7920784112029A
:100DFD001F8F6B8E6A8D698C688052E542601D7500
:100E0D0065FF7566127567B8756800853869756A0E
:100E1D000085396B756C00853A6D80157565FF75AC
:100E2D0066127567C7756800853869756A008539FA
:100E3D006B801A7565FF7566127567D48545688573
:100E4D00466980097565FF7566127567DF7B007AE7
:100E5D000079511207507565007566007567487BFE
:080E6D00007A007951020B63C9
:100E7500E5436014853E26853D25853C24853B2339
:100E8500434101E4F5438025C3E53E9526FFE53D55
:100E95009525FEE53C9524FDE53B9523FCE47B8803
:100EA5007A13F9F8C31206AD50035341FEE55070AD
:100EB5000543410280035341FDE5406039C3E53EEA
:100EC500952AFFE53D9529FEE53C9528FDE53B95F1
:100ED50027FCE47B64FAF9F8C31206AD500F853E92
:100EE5002A853D29853C28853B27633FFFE53F60F3
:100EF5000543410480035341FBE5226541600885B4
:070F05004122AF411214E28A
:010F0C0022C2
:10101500121090EF652B60728F2BEF24F460121481
:10102500601B24FD602014603B2411705DE4F542D3
:1010350022055DE55D75F0038485F05D220550E5CB
:10104500505401F55022E55D6402703E0546E546C3
:1010550070020545D39463E5459400402D75450020
:1010650075460A22E55DB40219E546154670021576
:1010750045C3E546940AE545940050067545007557
:0A1085004663E55DB4010375420106
:01108F00223E
:10146F00E5476016E4F547FB7A00793812122AE552
:0B147F00397007E53A70037543012245
:100D2000E52C146020147003020DA8240260030255
:100D30000DCC1214D1853E30853D2F853C2E853B50
:100D40002D752C0122C3E53E9530FFE53D952FFE24
:100D5000E53C952EFDE53B952DFCE47B207A03F9DF
:100D6000F8C31206AD50651213D7AD07AC06EC12EE
:100D700002C1E4FBFA7980784112021F7BCD7ACC64
:100D8000794C783D120025E4FBFA79207841120174
:100D9000161202FA8E5B8F5C853E30853D2F853CB6
:100DA0002E853B2D752C0222C3E53E9530FFE53D97
:100DB000952FFEE53C952EFDE53B952DFCE47B054E
:0C0DC000FAF9F8C31206AD5003E4F52C5C
:010DCC002204
:10116E00E5507018AE45AF46FC7D0A12068DD3E5EC
:10117E005C9FE55B9E403C754001803AE543601103
:10118E00754001853E34853D33853C32853B31804B
:10119E0025C3E53E9534FFE53D9533FEE53C95329E
:1011AE00FDE53B9531FCE47B887A13F9F8C3120612
:1011BE00AD5003E4F540E5356540600DE540600453
:0911CE007F018002E4FF121436D7
:0111D70022F5
:03001B00020F9938
:100F9900C0E0C0F0C083C082C0D075D000C000C01E
:0D0FA90001C002C003C004C005C006C0079F
:100FB600E53E2401F53EE4353DF53DE4353CF53CA2
:100FC600E4353BF53B0536E536B40A06753600755D
:100FD60044010537E537B464067537007547017B6C
:100FE600007A007948AD5E12126F055EE55EB408C0
:040FF60003755E0021
:100FFA00D007D006D005D004D003D002D001D0004B
:0B100A00D0D0D082D083D0F0D0E032F4
:04148A007F057E005C
:10148E00EF1FAA0670011E4A600BE4FDEDC3940C1B
:05149E0050EE0D80F787
:0114A3002226
:0213FB00A90740
:1013FD00E4FBC294E913929412148AD294E9C313B4
:0C140D00F90BBB08ED7F057E0002148E79
:1014A400E4FBC294ECC313FCD29430940343048051
:0914B40012148A0BBB08EBAF0413
:0114BD00220C
:10138900C201D2947F0C7E0012148EC2947F507ECB
:101399000012148ED2947F0A7E0012148EA29492A7
:0613A9000112148AA201EA
:0113AF00221B
:1014D100C20012138992007FCC1213FB7F440213C6
:0114E100FB0F
:1013D700C20012138992007FCC1213FB7FBE121337
:1013E700FB1214A4A9071214A4EFFE7C00E429FF42
:0313F700EC3EFECB
:0113FA0022D0
:10001E00020366E86480F8E933E83360110460F0A7
:10002E00ED33EC337009E8FCE9FDEAFEEBFF220448
:10003E0060DED3EB9FEA9EE99DE8C2E78CF0C2F743
:10004E0095F0400CE8CCF8E9CDF9EACEFAEBCFFB0F
:10005E0012033185D0F05804700320D5B3E8047034
:10006E00075002B2D502037092D5EC0460F7E4CCCF
:10007E00C0E0C398F8603B94186008400DD0E0FBD8
:10008E00020348E4FBFAC9FC8028E830E406E4C920
:10009E00FBE4CAFCE830E305E4C9CACBFCE854072C
:1000AE006010F8C3E913F9EA13FAEB13FBEC13FC37
:1000BE00D8F130F52FC3E49CFCEF9BFFEE9AFEEDDA
:1000CE0099FDD0E0FBEF4E4D4C701222DB03020384
:1000DE006DEC2CFCEF33FFEE33FEED33FDED30E730
:1000EE00EB020348EF2BFFEE3AFEED39FDD0E0FBBD
:1000FE0050130BBB0003020370ED13FDEE13FEEF66
:08010E0013FFEC13FC0203488F
:10011600EC4D6011E8497017ED33EC3304600DE4E3
:10012600FCFFFEFD22E933E8330470F80203661291
:10013600033158046009E4CC248150062850090292
:10014600037028400302036DC0E0EB4A7044B98097
:1001560006D0E0FB02035CEF4E701CBD8008EBFF8F
:10016600EAFEE9FD80EBE98DF0A4FEE5F00201FF71
:10017600E9CDF9EAFEEBFFEF89F0A4FCE5F0CE89C4
:10018600F0A42EFFE435F0CD89F0A42DFEE435F081
:100196008067EF4E7005BD80D780C3EF8BF0A4ACAF
:1001A600F0EE8BF0A42CFCE435F0F8EF8AF0A42CEA
:1001B600E5F038FCE433CB8DF0A42CFCE5F03BF8FD
:1001C600EE8AF0A42CFCE5F038F8E433CF89F0A4ED
:1001D6002CFCE5F038CF3400CE89F0A42FFFE5F0F3
:1001E6003EFEE433C98DF0A42EFEE5F039CD8AF04B
:1001F600A42FFFE5F03EFEE43DFD33D0E0FB5007C3
:100206000BBB000F020370EC2CFCEF33FFEE33FE4A
:06021600ED33FD02034878
:10021C00020370EC5D046005E85904700302036688
:10022C00120331580460F6EC4860F2EC7004FDFEE9
:10023C00FF22C860DB2481C85009C39860025006B5
:10024C0002036D9850CAF582E9294B4A7005AB82BE
:10025C0002035C75F0007C1A7880C3EF9BEE9AED7C
:10026C0099400DC3EF9BFFEE9AFEED99FDE842F02D
:10027C00DC23ACF0D0E0FFD0E0FED0E0FDAB822080
:10028C00E7101BEB60BAEC2CFCEF33FFEE33FEED0A
:10029C0033FD020348E803F830E705C0F075F000C1
:1002AC00EF2FFFEE33FEED33FD40B830E7C280AAEE
:1002BC0075F020800E75F010800575F0087D007EBD
:1002CC00007F003392D530D50312069FEC334010DB
:1002DC00EF33FFEE33FEED33FDEC33FCD5F0ED22C6
:0E02EC00E5F0247EA2D513CC92E7CDCEFF2202
:1002FA00EDD2E7CD33EC3392D524814006E4FFFEFC
:10030A00FDFC22FCE4CFCECDCC24E0501174FF805A
:10031A00EDC3CC13CCCD13CDCE13CECF13CF0470F7
:07032A00F030D5DE02069F52
:1006F400E5792465F8E605792278623007027865A1
:10070400E475F0011206BE0206132000EB7F2ED220
:10071400008018EF540F2490D43440D4FF30040BDD
:10072400EF24BFB41A0050032461FFE57A60021578
:100734007A057DE57D7002057C30070D7862E475ED
:10074400F0011206BEEF0206590213B07403D20779
:100754008003E4C207F5798B628A638964E4F57ADD
:10076400F57CF57DE57A60077F2012072F80F5750B
:100774007BFFC201C200C202C203C205C206C20894
:100784001206FDFF700D3007057F00120740AF7D94
:10079400AE7C22B4255FC2D5C2041206FDFF24D06C
:1007A400B40A00501A75F00A787A30D50508B6FFF5
:1007B4000106C6A426F620D5047002D20380D924EB
:1007C400CFB41A00EF5004C2E5D204020A2DD201BC
:1007D40080C6D20080C0D20280BCD2D580BAD205F5
:1007E40080B47F2012072F2002077401B57A0040DD
:1007F400F11206F4FF12072F020768D208D206800E
:10080400951206F4FB1206F4FA1206F4F94A4B7038
:100814000679247A0B7BFF20022EE57A602A7E007B
:100824008E8275830012062C60060EEE657B70F0D6
:10083400C2D5EBC0E0EAC0E0E9C0E0EE120A8DD018
:10084400E0F9D0E0FAD0E0FB120613FF60AAEBC097
:10085400E0EAC0E0E9C0E012072FD0E02401F9D0BB
:10086400E03400FAD0E0FBE57B0460DCD57BD98082
:1008740087D20280A2120A7060F7E57B700104122D
:10088400037BA97B600DE57B600914F57B120B17D4
:10089400EF60F3EA30E702F404C3995077EAF425F1
:1008A4007B0430E701E404F57B800D120A7060C11B
:1008B400EA057B257B12037BEA7878F630E701E4CE
:1008C400257B04D57B0420050114120A8DE4C0E0C5
:1008D400120B177878E6601320E70714F61207174F
:1008E400802204F6D0E014C0E07F00120717E57BF5
:1008F400600712070E157B800B30050312070ED01C
:10090400E0020768D0E00480C5120A7060A0E57BAD
:100914000412037B7878EAF6E57B20050260010483
:050924002404120A8DFD
:1009290074FF04C0E0120B17120717E57B200502BC
:10093900600312070ED0E0B57BE87F4512072178E6
:1009490078E67F2B30E7047F2DF404C0E012072FEF
:10095900D0E075F00A84C0F0120718D0E012071829
:10096900020768791080027908C206C2088008D295
:10097900D5790A8004790AC2D5E57B047002F57B32
:10098900E4FAFDFEFF1206F4FC7B082001131206AF
:10099900F4FD7B1030000A1206F4FE1206F4FF7B08
:1009A90020EC3382D592D55013C3E43000069FFF63
:1009B900E49EFEE42001039DFDE49CFCE4CBF8C227
:1009C90001EC700CCFCECDCCE824F8F870F3801789
:1009D900C3EF33FFEE33FEED33FDEC33FCEB33FBBA
:1009E900994002FB0FD8E9EB300105F8D0E0C44883
:1009F900B201C0E00AEC4D4E4F78207B0070C2EA8C
:100A0900B57B0040BCC0E0120A8FD0F0D0E02001D5
:100A190004C4C0E0C4B201C0F0120718D0F0D5F088
:100A2900EB0207681206CE080553096C5807D64C25
:100A390007D24209704F09784409784907EB4309FD
:100A49007E5508AF46090D450879470B445007DA2A
:100A59002D07DE2E08012B07E22307FF200B2D2A85
:100A6900079A48000007F9E57BB4FF03757B061276
:100A790006F4FC1206F4FD1206F4FE1206F4FF78E1
:100A8900710203AA790AA2D5200314300509B91005
:100A9900020404B9080104A2D52006025001042069
:100AA90002689202B57A005034C0E07F2030031901
:100AB9007F30A20272067205500F120AE6C202C204
:100AC90006C205C2087F30800F300503E9C0E01275
:100AD900072F300503D0E0F9D0E0B57ACC300517FF
:100AE9007F30B9100C12072F7F583004077F7880A8
:100AF90003B9080312072F3002057F2D02072F7F44
:100B0900202008F87F2B2006F322920280CF7F0055
:100B1900B4070050052471F8E6FF22286E756C6C45
:100B29002900D2011206F43001F8C201787A30D5D1
:100B39000108F602079A2D504349581206F4240376
:100B4900B405004001E4900B3F93120720743A1258
:0A0B59000720D203757A0402096C2C
:10033100E9D2E7C933E833F892D5EDD2E7CD33EC12
:0703410033FC5002B2D5228B
:10034800EC30E7100FBF000C0EBE00080DBD000416
:100358000BEB6014A2D5EB13FCED92E7FD2274FFC2
:10036800FCFDFEFF22E480F8A2D574FF13FC7D801B
:03037800E480EF2F
:10037B00F920E72824F950037907E4F42402FB1849
:10038B00DBFDE624FB5014E9600DE4F618E604F6F9
:0F039B00B40A08E4F6D9F57401F60A22C2D52295
:1003AA00ED33EC3392D5FA602AB4FF33EDC2E77B22
:1003BA00FF60067A0379CFE4227A0379D820D5043C
:1003CA007A0379D3224E614E002B494E46002D49BD
:1003DA004E4600E47A08F608DAFC7B00740722E845
:1003EA00C0E0ECC0E0EDC0E0EEC0E0EFC0E0EA75CE
:1003FA00F010A4CAABF075F04DA42BFBE435F0FC69
:10040A00EA2410FAEB34C5FBEC34D9FCEDC2E7FF61
:10041A0075F056A4F42411C5F0F434C58FF0A42A5B
:10042A00E5F03BE43CF620E7141204DDD0E0FFD00F
:10043A00E0FED0E0FDD0E0FC12021F8014F40412AA
:10044A0004DDD0E0FFD0E0FED0E0FDD0E0FC1201F8
:10045A0016D0E0F8E6FAEDD2E7CD33EC332482FB8E
:10046A00E4C3CF33CFCE33CECD33CD33DBF37B07EB
:10047A0075F00A846004F6081B0AE5F0F6088FF0A6
:10048A00740AA4FFACF08EF0740AA42CFEACF050EF
:10049A00010C8DF0740AA42CFDE435F0F608DBDEBD
:0304AA00740722B2
:1004AD003F8000004120000042C80000447A000057
:1004BD00461C400047C35000497424004B189680D9
:1004CD004CBEBC205A0E1BCA6753C21C749DC5AED0
:1004DD00FB60065407601C232312050BEB54386098
:1004ED00091204F7120506120116ECF8EDF9EEFAF1
:1004FD00EFCB22EB12050680F1543803241C900437
:10050D00ADFE93FC0EEE93FD0EEE930ECE93FF22F9
:03000000020F0DDF
:0C0F0D00787FE4F6D8FD75817D020F545A
:10051D00E709F608DFFA8046E709F208DFFA803EC0
:10052D0088828C83E709F0A3DFFA8032E309F608AD
:10053D00DFFA8078E309F208DFFA807088828C8315
:10054D00E309F0A3DFFA806489828A83E0A3F608C9
:10055D00DFFA805889828A83E0A3F208DFFA804CA3
:10056D0080D280FA80C680D4806980F2803380107A
:10057D0080A680EA809A80A880DA80E280CA8033E3
:10058D0089828A83ECFAE493A3C8C582C8CCC5835B
:10059D00CCF0A3C8C582C8CCC583CCDFE9DEE7802B
:1005AD000D89828A83E493A3F608DFF9ECFAA9F0AA
:1005BD00EDFB2289828A83ECFAE0A3C8C582C8CC00
:1005CD00C583CCF0A3C8C582C8CCC583CCDFEADE19
:1005DD00E880DB89828A83E493A3F208DFF980CC7B
:1005ED0088F0EF60010E4E60C388F0ED2402B40474
:1005FD000050B9F582EB2402B4040050AF2323451B
:06060D00822390056D73CD
:10061300BB010689828A83E0225002E722BBFE02E5
:09062300E32289828A83E4932218
:10062C00BB010CE58229F582E5833AF583E0225083
:10063C0006E92582F8E622BBFE06E92582F8E222CD
:0D064C00E58229F582E5833AF583E49322E7
:10065900BB010689828A83F0225002F722BBFE0180
:02066900F3227A
:10066B00F8BB010DE58229F582E5833AF583E8F0C5
:10067B00225006E92582C8F622BBFE05E92582C871
:02068B00F22259
:10068D00EF8DF0A4A8F0CF8CF0A428CE8DF0A42E81
:02069D00FE223B
:0E069F00C3E49FFFE49EFEE49DFDE49CFC226C
:1006AD00EB9FF5F0EA9E42F0E99D42F0E89C45F0A3
:0106BD00221A
:1006BE00FAE6FB0808E6F925F0F618E6CA3AF6223D
:1006CE00D083D082F8E4937012740193700DA3A3BB
:1006DE0093F8740193F5828883E4737402936860CF
:0606EE00EFA3A3A380DFCF
:1013B000EFB40A07740D1213BB740A309811A89980
:1013C000B8130CC2983098FDA899C298B811F6309D
:0713D00099FDC299F5992275
:100F190002131FE493A3F8E493A34003F68001F2BC
:100F290008DFF48029E493A3F85407240CC8C333D9
:100F3900C4540F4420C8834004F456800146F6DFA8
:100F4900E4800B01020408102040809010FFE47E29
:100F5900019360BCA3FF543F30E509541FFEE4939D
:100F6900A360010ECF54C025E060A840B8E493A364
:100F7900FAE493A3F8E493A3C8C582C8CAC583CA8F
:100F8900F0A3C8C582C8CAC583CADFE9DEE780BE47
:01116D000081
:00000001FF
