:101F9800EFF4F580E5A0541F4480F5A053A01F225C
:101EAB007580FFE5A0541F4480F5A053A01FE4F5F7
:0D1EBB0080E5A0541F44A0F5A053A01F22F5
:101F360053890F538EBF758DFC758B18C28FD2AF28
:051F4600D2ABD28E2297
:101FA8005389F0538E7FE4F58CF58AC28DC28C225A
:10000300759850438E01438E0475D6FE75D7C7434A
:070013008E10D2AFD2AC2227
:0B1DCC00900035EBF0A3EAF0A3E9F073
:101DD700E4FF900035E0FBA3E0FAA3E0F98F8275FA
:101DE7008300120655600AF5993099FDC2990F8054
:011DF700E10A
:011DF80022C8
:0B0F8700900035EBF0A3EAF0A3E9F0C6
:100F9200E490003BF0A3F090003CE0FFC3940840D3
:100FA20003021204900035E0FBA3E0FAA3E0F990FB
:100FB200003BE0F58275830012065512076C11A002
:100FC2002D11B82E0FFD30101231102B3210443378
:100FD200105D34107635108F3610A83710C13810D6
:100FE200DA3910F341110C42112543113E441157D5
:100FF20045117046118855000011DE900038E0FB63
:10100200A3E0FAA3E0F98F8275830074C00211F4A1
:10101200900038E0FBA3E0FAA3E0F990003CE0F591
:101022008275830074F90211F4900038E0FBA3E0AA
:10103200FAA3E0F990003CE0F58275830074A40203
:1010420011F4900038E0FBA3E0FAA3E0F990003C31
:10105200E0F58275830074B00211F4900038E0FB71
:10106200A3E0FAA3E0F990003CE0F58275830074F6
:10107200990211F4900038E0FBA3E0FAA3E0F990A2
:10108200003CE0F58275830074920211F4900038FE
:10109200E0FBA3E0FAA3E0F990003CE0F58275835F
:1010A2000074820211F4900038E0FBA3E0FAA3E09E
:1010B200F990003CE0F58275830074F80211F49017
:1010C2000038E0FBA3E0FAA3E0F990003CE0F582EF
:1010D20075830074800211F4900038E0FBA3E0FAFB
:1010E200A3E0F990003CE0F5827583007490021150
:1010F200F4900038E0FBA3E0FAA3E0F990003CE0B2
:10110200F58275830074880211F4900038E0FBA325
:10111200E0FAA3E0F990003CE0F582758300748365
:101122000211F4900038E0FBA3E0FAA3E0F990008A
:101132003CE0F58275830074C60211F4900038E039
:10114200FBA3E0FAA3E0F990003CE0F5827583008E
:1011520074A10211F4900038E0FBA3E0FAA3E0F9D5
:1011620090003CE0F58275830074860211F49000D1
:1011720038E0FBA3E0FAA3E0F990003CE0F58275C9
:101182008300748E806C900038E0FBA3E0FAA3E049
:10119200F990003CE0F58275830074C180549000A0
:1011A20038E0FBA3E0FAA3E0F990003CE0F5827599
:1011B200830074BF803C90003CE014F0900038E063
:1011C200FBA3E0FAA3E0F990003CE0FFE92FF9E489
:1011D2003AFA12063C547F1206828019900038E0D7
:1011E200FBA3E0FAA3E0F990003CE0F582758300EE
:1011F20074FF12069490003BE004F0A3E004F002B6
:021202000F9942
:0112040022C7
:101D28007580FFE5A0541F44E0F5A053A01F74017F
:101D3800A805088002C333D8FCF580E5A0541F44E9
:101D4800C0F5A053A01FAF058F82758300120655FA
:0E1D5800F580E5A0541F44E0F5A053A01F2223
:081BFA00900037EEF0A3EFF0BC
:101C020090008BE0FCA3E0FDA3E0FEA3E0FF9000C8
:101C120039120720900039E0F8A3E0F9A3E0FAA313
:101C2200E0FB90008BE0FCA3E0FDA3E0FEA3E0C399
:101C32009BFBEE9AFAED99F9EC98F8900037E0FEEA
:0C1C4200A3E0FFE4FCFDC31206F540C85F
:011C4E002273
:101A9D00D2B4C2B5E5B0540F900035F0C2B4D2B592
:101AAD00E0C454F0FFE5B0540F4FF0E0B4FF037FF6
:101ABD0000227F0A7E00121BFAD2B4C2B5E5B054E3
:101ACD000FC2B4D2B5C454F0FFE5B0540F4FFF9020
:101ADD000035E06F60037F0022EFF424FC602424C6
:101AED00FC601824C8600C24C07020900036740C63
:101AFD00F0801D900036740DF08015900036741036
:101B0D00F0800D9000367411F08005E4900036F0F1
:051B1D00900036E0FF1E
:011B220022A0
:101EC800E4F58053A01FEF60054380108003538022
:0D1ED800EFE5A0541F44A0F5A053A01F2269
:101F4B00E4FEC297EF1392A3EFC313FFD2970EEEEB
:031F5B00B408EFD8
:011F5E002260
:081EE50075F00A84EE25F0FD02
:101EED00C29300C29700D29300121F4BAF05121F71
:041EFD004BC293221F
:101D6600E4FDC29300C29700D29300121F4BE4FF1A
:101D7600C297EDC313FD30A3034480FDD2970FEF46
:101D8600B408EDC29300C29700D29700C2A300D256
:041D9600A300AF05F2
:011D9A002226
:101C4F00E4FD7F8E121EED12063CFF75F00A84C470
:101C5F0054F0FEEF7F84121EE5900001120655FF2F
:101C6F0075F00A84C454F0FEEF7F82121EE59000D7
:101C7F0002120655FF75F00A84C454F0FEEF75F09A
:101C8F000A84EE25F0FD7F80121EED7D807F8E028F
:021C9F001EED38
:101CA1007F85121D66EFC4540F75F00AA4FEEF5430
:101CB1000F2E1206827F83121D66EFC4540F75F03A
:101CC1000AA4FEEF540F2E9000011206947F811298
:101CD1001D66EFC4540F75F00AA4FEEF540F2E9049
:051CE100000202069460
:101B9800553160606025342E316600253032752D50
:101BA800253032752D25303275005532602530329A
:101BB800752D2530327500553360606060253032F0
:101BC8007500553460253575004552524F52005303
:101BD80055434300444154415F45524F004E554DD3
:101BE8005F45524F00574425326425632563000A38
:021BF8003B327E
:1018360041009400410092004A00A531323334350C
:10184600300000000048009C00000000000000007E
:101856004100B200410098004100B1004100A400DF
:1018660044008B0000000041009B004100960043AD
:1018760000880000004100970042009900194200CC
:10188600AF00174100930041009500420090000010
:1018960041008F00410065004400660000000044DE
:1018A600006A0000000044006F0000000041007361
:1018B600004400740000000044007800000000416D
:1018C600007C0041007D0041007E0048007F000052
:0A18D6000000000000004100870040
:101CE60078327C007D017BFF7A1B79F77E007F03CB
:101CF600120616121EAB121F36121FA81200037B05
:101D0600017A007932121C4F12135C121205121E50
:101D16006B1218E112165F12156D121B23121D9B12
:021D260080E655
:10135C00900098E07003021462E4F09000B1E01485
:10136C00604014700302140D14700302142C240337
:10137C00600302144B90003874FFF0A3741BF0A3AD
:10138C007498F09000AFE0FCA3E0FDE41202C9E415
:10139C00FBFA7920784112022790003B12072002B9
:1013AC001459900096E0900038602F74FFF0A374ED
:1013BC001BF0A374A3F0900088E0FF90003BE4F0D6
:1013CC00A3EFF0900089E0FF90003DE4F0A3EFF074
:1013DC0090008AE0FF90003F802074FFF0A3741B04
:1013EC00F0A374B2F0900088E0FF90003BE4F0A30F
:1013FC00EFF0900089E0FF90003DE4F0A3EFF08067
:10140C004C90003874FFF0A3741BF0A374BFF090E1
:10141C000099E0FFA3E090003BCFF0A3EFF0802D0C
:10142C0090003874FFF0A3741BF0A374CAF0900002
:10143C0090E0FFA3E090003BCFF0A3EFF0800E9084
:10144C00003874FFF0A3741BF0A374D1F07B017A05
:10145C000079A512080F9000387401F0A37400F005
:0D146C00A3749CF07B017A0079A5020F8724
:10165F00900097E0602290008BE0FCA3E0FDA3E0F8
:10166F00FEA3E0FF900066120720900094E0440173
:10167F00F0E4900097F0803B900066E0F8A3E0F96B
:10168F00A3E0FAA3E0FB90008BE0FCA3E0FDA3E056
:10169F00FEA3E0C39BFFEE9AFEED99FDEC98FCE4F0
:1016AF007B887A13F9F8C31206F55007900094E07F
:1016BF0054FEF09000A4E09000947006E04402F015
:1016CF008004E054FDF0900093E0605C90006AE0CD
:1016DF00F8A3E0F9A3E0FAA3E0FB90008BE0FCA3F2
:1016EF00E0FDA3E0FEA3E0C39BFFEE9AFEED99FDA4
:1016FF00EC98FCE47B64FAF9F8C31206F5501A90E3
:10170F00008BE0FCA3E0FDA3E0FEA3E0FF90006AE6
:10171F00120720900092E0F4F0900092E090009475
:10172F006009E04404F08007900094E054FBF090CF
:10173F000094E0FF900065E06F6005EFF0121F98D6
:01174F002277
:10120500121A9DAB0790006EE06B70030212C89036
:10121500008BE0FCA3E0FDA3E0FEA3E0FF90006FE0
:10122500120720EB24F4601814602024FD602F14AD
:101235006059241160030212C3E4900096F0807E89
:101245009000B1E004F05403F080739000A4E070C6
:10125500047F0180027F009000A4EFF08060900081
:10126500B1E06402705890009AE004F070069000B6
:1012750099E004F0D390009AE09463900099E0948B
:1012850000403BE4F0A3740AF080339000B1E0FF26
:10129500B4022190009AE024FFF0900099E034FF19
:1012A500F0C3A3E0940A900099E094005006E4F09E
:1012B500A37463F0EFB401069000967401F09000FA
:1012C5006EEBF090006FE0F8A3E0F9A3E0FAA3E07D
:1012D500FB90008BE0FCA3E0FDA3E0FEA3E0C39B35
:1012E500FFEE9AFEED99FDEC98FCE47B207A03F97C
:1012F500F8C31206F5505F90006EE024EF602F04EE
:1013050070549000B1E06402704C90009AE004F0D3
:101315007006900099E004F0D390009AE0946390F1
:101325000099E09400402FE4F0A3740AF0229000A5
:10133500B1E0B4022190009AE024FFF0900099E01A
:1013450034FFF0C3A3E0940A900099E0940050069E
:06135500E4F0A37463F054
:01135B00226F
:101E6B0090009BE0601AE4F07B017A007988121CE9
:101E7B00A1900089E07009A3E0700590009704F031
:011E8B002234
:101B23007F04900095E0606CE4F0C28D758CFF75C6
:101B33008AF3D28CAE071FEE600C308DFDA290B3FA
:101B43009290C28D80EEC28CC28DE4F58CF58AD260
:101B53008C208D032091FAC28C308D0DC28D9000A4
:101B6300907404F0A3745AF022AF8CEFFEAD8A7C1C
:101B730000E42DFFEC3EFEAD07FCE41202C97B96A8
:101B83007A43798B783C12011E120302900090EE87
:041B9300F0A3EFF0DC
:011B9700222B
:10156D00900073E014602B147003021626240260A1
:10157D000302165E121F8790008BE0FCA3E0FDA313
:10158D00E0FEA3E0FF900074120720900073740139
:10159D00F022900074E0F8A3E0F9A3E0FAA3E0FBD9
:1015AD0090008BE0FCA3E0FDA3E0FEA3E0C39BFF56
:1015BD00EE9AFEED99FDEC98FCE47B207A03F9F8A8
:1015CD00C31206F5400302165E121E47AD07AC06A8
:1015DD00EC1202C9E4FBFA798078411202277BCD27
:1015ED007ACC794C783D12002DE4FBFA79207841C4
:1015FD0012011E1203029000AFEEF0A3EFF0900067
:10160D008BE0FCA3E0FDA3E0FEA3E0FF90007412CD
:10161D0007209000737402F022900074E0F8A3E0AC
:10162D00F9A3E0FAA3E0FB90008BE0FCA3E0FDA39F
:10163D00E0FEA3E0C39BFFEE9AFEED99FDEC98FC56
:10164D00E47B05FAF9F8C31206F55005E490007332
:01165D00F09C
:01165E002269
:1018E1009000A4E07024900099E0FEA3E0FF7C004A
:1018F1007D0A1206B6D39000B0E09F9000AFE09E43
:10190100405E9000937401F0805B900097E0601C52
:101911009000937401F090008BE0FCA3E0FDA3E044
:10192100FEA3E0FF9000781207208039900078E054
:10193100F8A3E0F9A3E0FAA3E0FB90008BE0FCA39D
:10194100E0FDA3E0FEA3E0C39BFFEE9AFEED99FD4F
:10195100EC98FCE47B887A13F9F8C31206F550057C
:10196100E4900093F0900093E0FF90007CE06F60C2
:0D1971000CEF60047F018002E4FF121EC82D
:01197E002246
:101D9B0090008FE0FF602924FE600F146014240272
:101DAB0070197BFF7A1B79D7800E7BFF7A1B79DC4E
:101DBB0080067BFF7A1B79E5121DCCE490008FF037
:011DCB0022F5
:03001B0002197F48
:10197F00C0E0C0F0C083C082C0D075D000C000C02E
:0D198F0001C002C003C004C005C006C007AF
:10199C0090008BE0FCA3E0FDA3E0FEA3E02401FF9C
:1019AC00E43EFEE43DFDE43CFC90008B12072090ED
:1019BC00007DE004F0B40A07E4F090009804F09085
:1019CC00007EE004F0B4640BE4F090009B04F09013
:1019DC000095F07B017A00799C9000B2E0FD121D1D
:0A19EC00289000B2E004F05407F068
:1019F600D007D006D005D004D003D002D001D00045
:0B1A0600D0D0D082D083D0F0D0E032EE
:030023000214794B
:10147900C0E0C0F0C083C082C0D075D000C000C039
:0D14890001C002C003C004C005C006C007BA
:10149600209803021552C298900087E0FF04F0746A
:1014A6007F2FF582E43400F583E599F0900087E01C
:1014B600FF247FF582E43400F583E4F0EF640660F0
:1014C6000302155290000774FFF0A3741BF0A37477
:1014D600EDF0A37401F0A37400F0A37400F0A374FC
:1014E60001F0A37400F0A37402F0A37401F0A374D6
:1014F60000F0A37403F07B017A00797F120CB6EF3B
:1015060064034E703C900002E0B40D2DA3E0B40AD3
:1015160028900000E0FEA3E0FFD39400EE94004084
:1015260018EF9463EE94005010900099EEF0A3EF3C
:10153600F090008F7401F0800E90008F7402F0809E
:0C1546000690008F7403F0900087E4F022
:10155200D007D006D005D004D003D002D001D000ED
:0B156200D0D0D082D083D0F0D0E03297
:041F1C007F057E00BF
:101F2000EF1FAA0670011E4A600BE4FDEDC3940C7E
:051F300050EE0D80F7EA
:011F35002289
:021E8C00A907A4
:101E8E00E4FBC294E9139294121F1CD294E9C3137B
:0D1E9E00F90BEBB408EC7F057E00021F205D
:101F0100E4FBC294ECC313FCD2943094034480FCF0
:0A1F1100121F1C0BEBB408EAAF042A
:011F1B0022A3
:101DF900C20CD2947F0C7E00121F20C2947F507EA9
:101E090000121F20D2947F0A7E00121F20A29492F2
:061E19000C121F1CA20CBC
:011E1F0022A0
:101F8700C20B121DF9920B7FCC121E8C7F44021ECE
:011F97008CBD
:101E4700C20B121DF9920B7FCC121E8C7FBE121E85
:101E57008C121F01A907121F01EFFE7C00E429FF66
:031E6700EC3EFE50
:011E6A002255
:1000260002036EE86480F8E933E83360110460F097
:10003600ED33EC337009E8FCE9FDEAFEEBFF220440
:1000460060DED3EB9FEA9EE99DE8C2E78CF0C2F73B
:1000560095F0400CE8CCF8E9CDF9EACEFAEBCFFB07
:1000660012033985D0F05804700320D5B3E8047024
:10007600075002B2D502037892D5EC0460F7E4CCBF
:10008600C0E0C398F8603B94186008400DD0E0FBD0
:10009600020350E4FBFAC9FC8028E830E406E4C910
:1000A600FBE4CAFCE830E305E4C9CACBFCE8540724
:1000B6006010F8C3E913F9EA13FAEB13FBEC13FC2F
:1000C600D8F130F52FC3E49CFCEF9BFFEE9AFEEDD2
:1000D60099FDD0E0FBEF4E4D4C701222DB0302037C
:1000E60075EC2CFCEF33FFEE33FEED33FDED30E720
:1000F600EB020350EF2BFFEE3AFEED39FDD0E0FBAD
:1001060050130BBB0003020378ED13FDEE13FEEF55
:0801160013FFEC13FC0203507F
:10011E00EC4D6011E8497017ED33EC3304600DE4DB
:10012E00FCFFFEFD22E933E8330470F802036E1281
:10013E00033958046009E4CC248150062850090282
:10014E000378284003020375C0E0EB4A7044B9807F
:10015E0006D0E0FB020364EF4E701CBD8008EBFF7F
:10016E00EAFEE9FD80EBE98DF0A4FEE5F002020760
:10017E00E9CDF9EAFEEBFFEF89F0A4FCE5F0CE89BC
:10018E00F0A42EFFE435F0CD89F0A42DFEE435F079
:10019E008067EF4E7005BD80D780C3EF8BF0A4ACA7
:1001AE00F0EE8BF0A42CFCE435F0F8EF8AF0A42CE2
:1001BE00E5F038FCE433CB8DF0A42CFCE5F03BF8F5
:1001CE00EE8AF0A42CFCE5F038F8E433CF89F0A4E5
:1001DE002CFCE5F038CF3400CE89F0A42FFFE5F0EB
:1001EE003EFEE433C98DF0A42EFEE5F039CD8AF043
:1001FE00A42FFFE5F03EFEE43DFD33D0E0FB5007BB
:10020E000BBB000F020378EC2CFCEF33FFEE33FE3A
:06021E00ED33FD02035068
:10022400020378EC5D046005E85904700302036E70
:10023400120339580460F6EC4860F2EC7004FDFED9
:10024400FF22C860DB2481C85009C39860025006AD
:100254000203759850CAF582E9294B4A7005AB82AE
:1002640002036475F0007C1A7880C3EF9BEE9AED6C
:1002740099400DC3EF9BFFEE9AFEED99FDE842F025
:10028400DC23ACF0D0E0FFD0E0FED0E0FDAB822078
:10029400E7101BEB60BAEC2CFCEF33FFEE33FEED02
:1002A40033FD020350E803F830E705C0F075F000B1
:1002B400EF2FFFEE33FEED33FD40B830E7C280AAE6
:1002C40075F020800E75F010800575F0087D007EB5
:1002D400007F003392D530D5031206E7EC3340108B
:1002E400EF33FFEE33FEED33FDEC33FCD5F0ED22BE
:0E02F400E5F0247EA2D513CC92E7CDCEFF22FA
:10030200EDD2E7CD33EC3392D524814006E4FFFEF3
:10031200FDFC22FCE4CFCECDCC24E0501174FF8052
:10032200EDC3CC13CCCD13CDCE13CECF13CF0470EF
:07033200F030D5DE0206E702
:1007AA00E5132438F582E43400F583E0051322903A
:1007BA000035301203900038E475F0011207350253
:1007CA00063C200BE97F2ED20B8018EF540F2490A1
:1007DA00D43440D4FF300F0BEF24BFB41A005003B7
:1007EA002461FFE514600215140517E51770020568
:1007FA001630120E900035E475F001120735EF023B
:10080A000682021E207403D2128003E4C212F51378
:10081A00900035120763E4F514F516F517E5146030
:10082A00077F201207ED80F57515FFC20CC20BC2B7
:10083A000DC20EC210C211C2131207B9FF700D30D9
:10084A0012057F001207FEAF17AE1622B4255FC24B
:10085A00D5C20F1207B9FF24D0B40A00501A75F096
:10086A000A781430D50508B6FF0106C6A426F62074
:10087A00D5047002D20E80D924CFB41A00EF5004E6
:10088A00C2E5D20F020AF0D20C80C6D20B80C0D2C7
:10089A000D80BCD2D580BAD21080B47F201207ED69
:1008AA00200D077401B5140040F11207AAFF1207C0
:1008BA00ED020827D213D21180951207AAFB12075C
:1008CA00AAFA1207AAF94A4B700679EE7A0B7BFF4D
:1008DA00200D2EE514602A7E008E82758300120692
:1008EA005560060EEE651570F0C2D5EBC0E0EAC0A1
:1008FA00E0E9C0E0EE120B51D0E0F9D0E0FAD0E026
:10090A00FB12063CFF60AAEBC0E0EAC0E0E9C0E0E7
:10091A001207EDD0E02401F9D0E03400FAD0E0FB70
:10092A00E5150460DCD515D98087D20D80A2120B9B
:10093A003360F7E515700104120383A915600DE50C
:10094A0015600914F515120BDBEF60F3EA30E702C4
:10095A00F404C3995079EAF425150430E701E40454
:10096A00F515800D120B3360C1EA05152515120322
:10097A0083EA900064F030E701E4251504D51504F4
:10098A0020100114120B51E4C0E0120BDB9000643A
:10099A00E0601320E70714F01207D5802204F0D094
:1009AA00E014C0E07F001207D5E51560071207CCF6
:1009BA001515800B3010031207CCD0E0020827D09F
:1009CA00E00480C4120B33609EE515041203839081
:1009DA000064EAF0E5152010026001042404120BF9
:0109EA0051BB
:1009EB0074FF04C0E0120BDB1207D5E515201002D3
:1009FB0060031207CCD0E0B515E87F451207DF90F6
:100A0B000064E07F2B30E7047F2DF404C0E0120775
:100A1B00EDD0E075F00A84C0F01207D6D0E01207D3
:100A2B00D6020827791080027908C211C2138008F8
:100A3B00D2D5790A8004790AC2D5E515047002F57E
:100A4B0015E4FAFDFEFF1207AAFC7B08200C13121B
:100A5B0007AAFD7B10300B0A1207AAFE1207AAFF8A
:100A6B007B20EC3382D592D55013C3E4300B069F19
:100A7B00FFE49EFEE4200C039DFDE49CFCE4CBF81C
:100A8B00C20CEC700CCFCECDCCE824F8F870F38010
:100A9B0017C3EF33FFEE33FEED33FDEC33FCEB33DB
:100AAB00FB994002FB0FD8E9EB300C05F8D0E0C402
:100ABB0048B20CC0E00AEC4D4E4F78207B0070C260
:100ACB00EAB5150040BCC0E0120B53D0F0D0E020CB
:100ADB000C04C4C0E0C4B20CC0F01207D6D0F0D5E1
:100AEB00F0EB02082712076C08C4530A2F5808951D
:100AFB004C0891420A334F0A3B440A3B4908AA432C
:100B0B000A4155096E4609CE450938470C0E500867
:100B1B00992D089D2E08C02B08A12308BE200BF78A
:100B2B002A085948000008B8E515B4FF03751506E7
:100B3B001207AAFC1207AAFD1207AAFE1207AAFFA8
:100B4B0090005D0203C0790AA2D5200E1430100963
:100B5B00B910020404B9080104A2D52011025001F6
:100B6B0004200D68920DB514005034C0E07F203086
:100B7B000E197F30A20D72117210500F120BAAC2F8
:100B8B000DC211C210C2137F30800F301003E9C0A9
:100B9B00E01207ED301003D0E0F9D0E0B514CC3003
:100BAB0010177F30B9100C1207ED7F58300F077FED
:100BBB00788003B908031207ED300D057F2D02076E
:100BCB00ED7F202013F87F2B2011F322920D80CF85
:100BDB007F00B40700500B245DF582E43400F583ED
:100BEB00E0FF22286E756C6C2900D20C1207AA301C
:100BFB000CF8C20C781430D50108F60208592D50A8
:100C0B004349581207AA2403B405004001E4900C91
:100C1B0009931207DE743A1207DED20E7514040222
:020C2B000A2F8E
:100C2D00E50830030104F823282407F582E4340095
:100C3D00F58322900004300303900007E475F00162
:100C4D0012073502063C60EAC50C7002150B14C57F
:100C5D000C200304FF021FC290000474FFF5F00284
:100C6D00074CFF021F73E5096006D509037F0022BB
:100C7D0020030F121F5FEF6008050CE50C700205D5
:100C8D000B2290000412072C12063CFF60E8900026
:100C9D0004E475F00112073580DC120C7DEFC0E025
:100CAD00120C6FD0E040F3809DD2038002C20390FE
:100CBD000004120763E4F50AF508F50BF50C750948
:100CCD0000C202C200C201C204120C40FF7005AF87
:100CDD000A7E0022B42530120C40FF24D0B40A0045
:100CED00500C75F00AC509A42509F50980E924CF32
:100CFD00B41A00EF5002C2E5020F53D20180D8D2D0
:100D0D000080D4D20480D0EF120C6F5008120CA7C3
:100D1D00EF600E80A9EFC0E0120C7DD0E06F609EF9
:100D2D00EF6074120C5380A7120C7DEF6069E5091A
:100D3D00700705098003120C7DEF601420040E125C
:100D4D000C2DE475F001120735EF120682D509E678
:100D5D002004040508050A80BA120C73EFC0E012D6
:100D6D000C6FD0E05004120C53E4FF20040E120C53
:100D7D002DE475F001120735EF120682EF70DA20BF
:100D8D0004040508050A808BE50960020509120CAB
:100D9D00A7120C73EF70C6300304E4120C53E50A6E
:100DAD006003020CDC7EFF7FFF22E509600205096E
:100DBD00120CA7D206D205120C73EF30060260D7C3
:100DCD00C0E0120C53D0E0AC0DAD0EAE0FAF101253
:100DDD0017638C0D8D0E8E0F8F105007120C7DC268
:100DED000580D4200410200502050A120C2D1207CF
:030DFD002C0508BA
:100E0000120706020CCBD0E0809A7900800A791094
:100E1000800679088002790AD205E5096002050991
:100E2000E9C0E0120CA7EF60DD120C7DBF2D04D2EB
:100E3000028003BF2B09120CA7EF60CA120C73D0FB
:100E4000E0B40A028033B40802802EBF302770025B
:100E50007408C205C0E0120C73D0E0BF78028003B2
:100E6000BF58160509D509028007D50904D20580A7
:100E70000B741080197002740ABF000AEFF8E4FCCA
:100E8000FDFEFF020F06C0E0EF120C53D0E0F9E4C4
:100E9000FCFDFEFFE9C0E0ECC0E0EDC0E0EEC0E02C
:100EA000EFC0E0120C73EFF8D0E0FFD0E0FED0E02E
:100EB000FDD0E0FCD0F0E8604DB461004007B47BA9
:100EC000005002C2E524D0503DFA24F6500724F920
:100ED0005034240AFAEAB5F000502BCFA9F0A42F21
:100EE000FF92D5E9C5F0CEA4A2D53EFE92D5E9C5C4
:100EF000F0CDA4A2D53DFD92D5E9C5F0CCA4A2D5F4
:100F00003CFCC205808EE8C0E020042A20050805CC
:100F10000A3002031206E7120C2D12072C050820D6
:100F2000000B20010DEE8FF01206C8800912070693
:100F30008004EF120682D0E0120C53020CCB200486
:100F400010120C2D12072C0508E50B850CF012066B
:100F5000C880E812076C0D95530E0E580D0C4C0D01
:100F600008420CE4480E124F0E16440D35430E0A8B
:100F7000490E16550DB7460DB7450DB7470D102A4A
:070F80000F3E4E00000D14AE
:10033900E9D2E7C933E833F892D5EDD2E7CD33EC0A
:0703490033FC5002B2D52283
:10035000EC30E7100FBF000C0EBE00080DBD00040E
:100360000BEB6014A2D5EB13FCED92E7FD2274FFBA
:10037000FCFDFEFF22E480F8A2D574FF13FC7D8013
:03038000E480EF27
:10038300F920E73624F950037907E4F42402FBE566
:1003930082158270021583DBF6E024FB501BE960B3
:1003A30014E4F0E582158270021583E004F0B40AC8
:0D03B30008E4F0D9EE7401F00A22C2D52250
:1003C000ED33EC3392D5FA602AB4FF33EDC2E77B0C
:1003D000FF60067A0379E5E4227A0379EE20D504FA
:1003E0007A0379E9224E614E002B494E46002D4991
:1003F0004E4600E47A08F0A3DAFC7B00740722C0C2
:1004000083C082ECC0E0EDC0E0EEC0E0EFC0E0EA07
:1004100075F010A4CAABF075F04DA42BFBE435F0D9
:10042000FCEA2410FAEB34C5FBEC34D9FCEDC2E74E
:10043000FF75F056A4F42411C5F0F434C58FF0A470
:100440002AE5F03BE43CF020E714120506D0E0FF7B
:10045000D0E0FED0E0FDD0E0FC1202278014F404CE
:10046000120506D0E0FFD0E0FED0E0FDD0E0FC12A7
:10047000011ED082D083E0FAEDD2E7CD33EC3324F5
:1004800082FBE4C3CF33CFCE33CECD33CD33DBF3DA
:100490007B0775F00A846004F0A31B0AE5F0F0A363
:1004A0008FF0740AA4FFACF08EF0740AA42CFEAC9A
:1004B000F050010C8DF0740AA42CFDE435F0F0A38B
:0504C000DBDE740722E1
:10175000C207C208C209C20AF9E4F511F512FCFD7C
:10176000FEFFE91006EA20090CB42D04D209D322A9
:10177000B42B02D32224D0504794095041240A307C
:101780000A15F88512F0740AA42872E74051C5F0D2
:10179000704D85F012D322D208C0E0E4FBFA792024
:1017A000784112011EECF8EDF9EEFAEFFBD0E0FC07
:1017B000E41202CE12002D3007B41511D322240AF0
:1017C000200A20B4FE0720071AD207D32224EB6098
:1017D0000424E0700EA2099207D20AC209D322C3E0
:1017E00002036EE4300A0BE512300902F404A2078A
:1017F00092093008EA251120D2E5A2E7920A5002A8
:10180000F404B4260050D8CCC0E0EDC0E0EEC0E057
:10181000EFC0E0EC120506D0E0FFD0E0FED0E0FD26
:10182000D0E0FC200A0512011E80031202273009B5
:06183000031204C5C322EF
:1004C500ED33EC33600A047003BD8004ECB2E7FC45
:0104D5002204
:1004D6003F8000004120000042C80000447A00002E
:1004E600461C400047C35000497424004B189680B0
:1004F6004CBEBC205A0E1BCA6753C21C749DC5AEA7
:10050600FB60065407601C2323120534EB54386045
:100516000912052012052F12011EECF8EDF9EEFA6C
:10052600EFCB22EB12052F80F1543803241C9004E4
:10053600D6FE93FC0EEE93FD0EEE930ECE93FF22A7
:03000000021A11D0
:0C1A1100787FE4F6D8FD758122021A5897
:10054600E709F608DFFA8046E709F208DFFA803E97
:1005560088828C83E709F0A3DFFA8032E309F60884
:10056600DFFA8078E309F208DFFA807088828C83EC
:10057600E309F0A3DFFA806489828A83E0A3F608A0
:10058600DFFA805889828A83E0A3F208DFFA804C7A
:1005960080D280FA80C680D4806980F28033801051
:1005A60080A680EA809A80A880DA80E280CA8033BA
:1005B60089828A83ECFAE493A3C8C582C8CCC58332
:1005C600CCF0A3C8C582C8CCC583CCDFE9DEE78002
:1005D6000D89828A83E493A3F608DFF9ECFAA9F081
:1005E600EDFB2289828A83ECFAE0A3C8C582C8CCD7
:1005F600C583CCF0A3C8C582C8CCC583CCDFEADEF0
:10060600E880DB89828A83E493A3F208DFF980CC51
:1006160088F0EF60010E4E60C388F0ED2402B4044A
:100626000050B9F582EB2402B4040050AF232345F1
:060636008223900596737B
:10063C00BB010689828A83E0225002E722BBFE02BC
:09064C00E32289828A83E49322EF
:10065500BB010CE58229F582E5833AF583E022505A
:1006650006E92582F8E622BBFE06E92582F8E222A4
:0D067500E58229F582E5833AF583E49322BE
:10068200BB010689828A83F0225002F722BBFE0157
:02069200F32251
:10069400F8BB010DE58229F582E5833AF583E8F09C
:1006A400225006E92582C8F622BBFE05E92582C848
:0206B400F22230
:1006B600EF8DF0A4A8F0CF8CF0A428CE8DF0A42E58
:0206C600FE2212
:1006C800BB010A89828A83F0E5F0A3F0225006F77D
:0F06D80009A7F01922BBFE06F3E5F009F319227A
:0E06E700C3E49FFFE49EFEE49DFDE49CFC2224
:1006F500EB9FF5F0EA9E42F0E99D42F0E89C45F05B
:0107050022D1
:10070600BB010789828A830207205005E9F80207A0
:0A07160092BBFE05E9F802079E22DF
:0C072000ECF0A3EDF0A3EEF0A3EFF0224C
:09072C00E0FBA3E0FAA3E0F922CE
:10073500F8E0FBA3A3E0F925F0F0E582158270024D
:070745001583E0FA38F022F1
:10074C00F8E0FBA3A3E025F0F9F0E5821582700236
:07075C001583E038FAF022DA
:09076300EBF0A3EAF0A3E9F02297
:10076C00D083D082F8E4937012740193700DA3A31C
:10077C0093F8740193F5828883E473740293686030
:06078C00EFA3A3A380DF30
:101E2000EFB40A07740D121E2B740A309811A8998A
:101E3000B8130CC2983098FDA899C298B811F63022
:071E400099FDC299F59922FA
:101F5F0010140B121FB8BF0D027F0A021E20900033
:041F6F00B3E0FF22BA
:081FC2009000B3EFF0D21422ED
:101F7300EFC394094005EF940E4004EFB42003D35C
:041F83008001C322F4
:101A1D00021CE6E493A3F8E493A34003F68001F2DD
:101A2D0008DFF48029E493A3F85407240CC8C333CA
:101A3D00C4540F4420C8834004F456800146F6DF99
:101A4D00E4800B0102040810204080901836E47EDB
:101A5D00019360BCA3FF543F30E509541FFEE4938E
:101A6D00A360010ECF54C025E060A840B8E493A355
:101A7D00FAE493A3F8E493A3C8C582C8CAC583CA80
:101A8D00F0A3C8C582C8CAC583CADFE9DEE780BE38
:0118E0000007
:0C079200ECF608EDF608EEF608EFF62293
:0C079E00ECF208EDF208EEF208EFF22297
:0A1FB8003098FDAF99C2987E002218
:00000001FF
