:1019E500EFF4F580E5A0541F4480F5A053A01F2215
:101935007580FFE5A0541F4480F5A053A01F758056
:0D19450040E5A0541F44A0F5A053A01F22B0
:1000030053890F538EBF758DFC758B18C28FD2AF7A
:05001300D2ABD28E22E9
:1019F5005389F0538E7FE4F58CF58AC28DC28C2213
:0B0BA30090004DEBF0A3EAF0A3E9F096
:100BAE00E4900053F0A3F0900054E0FFC39408408B
:100BBE0003020E2090004DE0FBA3E0FAA3E0F990B3
:100BCE000053E0F58275830012063C1206FA0DBC46
:100BDE002D0DD42E0C19300C2E310C47320C6033E7
:100BEE000C79340C92350CAB360CC4370CDD380C4A
:100BFE00F6390D0F410D28420D41430D5A440D7328
:100C0E00450D8C460DA45500000DFA900050E0FBEA
:100C1E00A3E0FAA3E0F98F8275830074C0020E1070
:100C2E00900050E0FBA3E0FAA3E0F9900054E0F549
:100C3E008275830074F9020E10900050E0FBA3E061
:100C4E00FAA3E0F9900054E0F58275830074A402D3
:100C5E000E10900050E0FBA3E0FAA3E0F9900054D0
:100C6E00E0F58275830074B0020E10900050E0FB28
:100C7E00A3E0FAA3E0F9900054E0F58275830074C6
:100C8E0099020E10900050E0FBA3E0FAA3E0F99059
:100C9E000054E0F5827583007492020E109000509D
:100CAE00E0FBA3E0FAA3E0F9900054E0F58275832F
:100CBE00007482020E10900050E0FBA3E0FAA3E055
:100CCE00F9900054E0F58275830074F8020E1090CE
:100CDE000050E0FBA3E0FAA3E0F9900054E0F582A7
:100CEE007583007480020E10900050E0FBA3E0FAB2
:100CFE00A3E0F9900054E0F5827583007490020E23
:100D0E0010900050E0FBA3E0FAA3E0F9900054E04D
:100D1E00F5827583007488020E10900050E0FBA3DC
:100D2E00E0FAA3E0F9900054E0F582758300748335
:100D3E00020E10900050E0FBA3E0FAA3E0F9900041
:100D4E0054E0F58275830074C6020E10900050E0D8
:100D5E00FBA3E0FAA3E0F9900054E0F5827583005E
:100D6E0074A1020E10900050E0FBA3E0FAA3E0F98C
:100D7E00900054E0F5827583007486020E10900088
:100D8E0050E0FBA3E0FAA3E0F9900054E0F5827581
:100D9E008300748E806C900050E0FBA3E0FAA3E019
:100DAE00F9900054E0F58275830074C18054900070
:100DBE0050E0FBA3E0FAA3E0F9900054E0F5827551
:100DCE00830074BF803C900054E014F0900050E01B
:100DDE00FBA3E0FAA3E0F9900054E0FFE92FF9E459
:100DEE003AFA120623547F1206698019900050E0D9
:100DFE00FBA3E0FAA3E0F9900054E0F582758300BE
:100E0E0074FF12067B900053E004F0A3E004F0029E
:020E1E000BB512
:010E200022AF
:1017D4007580FFE5A0541F44E0F5A053A01F7401D9
:1017E400A805088002C333D8FCF580E5A0541F4443
:1017F400C0F5A053A01FAF058F8275830012063C6D
:0E180400F580E5A0541F44E0F5A053A01F227C
:0816A600900050EEF0A3EFF0FC
:1016AE00900022E0FCA3E0FDA3E0FEA3E0FF90008B
:1016BE00521206CE900052E0F8A3E0F9A3E0FAA38E
:1016CE00E0FB900022E0FCA3E0FDA3E0FEA3E0C35C
:1016DE009BFBEE9AFAED99F9EC98F8900050E0FE2B
:0C16EE00A3E0FFE4FCFDC31206BD40C8F1
:0116FA0022CD
:1015AB00D2B4C2B5E5B0540F90004EF0C2B4D2B570
:1015BB00E0C454F0FFE5B0540F4FF0E0B4FF037FED
:1015CB0000227F0A7E001216A6D2B4C2B5E5B05433
:1015DB000FC2B4D2B5C454F0FFE5B0540F4FFF9017
:1015EB00004EE06F60037F0022EFF424FC602424A4
:1015FB00FC601824C8600C24C0702090004F740C41
:10160B00F0801D90004F740DF0801590004F7410FA
:10161B00F0800D90004F7411F08005E490004FF0B6
:05162B0090004FE0FFFC
:011630002297
:10195200E4F58053A01FEF6005438010800353809D
:0D196200EFE5A0541F44A0F5A053A01F22E4
:1019C000E4FEC297EF1392A3EFC313FFD2970EEE7C
:0319D000B408EF69
:0119D30022F1
:08196F0075F00A84EE25F0FD7D
:10197700C29300C29700D293001219C0AF05121983
:04198700C0C2932225
:10184E00E4FDC29300C29700D293001219C0E4FFC8
:10185E00C297EDC313FD30A3034480FDD2970FEF63
:10186E00B408EDC29300C29700D29700C2A300D273
:04187E00A300AF050F
:011882002243
:1016FB00E4FD7F8E121977120623FF75F00A84C45E
:10170B0054F0FEEF7F8412196F90000112063CFF1C
:10171B0075F00A84C454F0FEEF7F8212196F9000AB
:10172B000212063CFF75F00A84C454F0FEEF75F00C
:10173B000A84EE25F0FD7F801219777D807F8E0263
:02174B0019770C
:10174D007F8512184EEFC4540F75F00AA4FEEF54A6
:10175D000F2E1206697F8312184EEFC4540F75F0C9
:10176D000AA4FEEF540F2E90000112067B7F81120A
:10177D00184EEFC4540F75F00AA4FEEF540F2E90BF
:05178D00000202067BD2
:10179200553160606025342E316600253032752D5A
:1017A200253032752D2530327500553260253032A4
:1017B200752D2530327500553360606060253032FA
:1017C2007500553460253575004552524F52000A56
:0217D2003B32A8
:1013460041002A00410028004A003C31323334353E
:1013560030000000004800330000000000000000DC
:101366004100490041002E004100480041003B0079
:10137600440022000000004100320041002C0043DE
:10138600001F00000041002D0042002F00194200FE
:10139600460017410029004100310041002B004260
:1013A6000026000041000000440001000000004447
:1013B60000050000000044000A0000000044000E82
:1013C6000000000041001200410013004400140018
:1013D6000000004400180000000041001C0041000D
:0613E6001D0041001E0085
:10181200784A7C007D017BFF7A1779D17E007F03B5
:101822001205FD1219351200031219F57B017A0017
:10183200794A1216FB121033120E211218F51213E6
:0C184200ED12115012125412163180E900
:1010330090002EE07003021139E4F0900048E014B0
:1010430060401470030210E41470030211032403BC
:10105300600302112290005074FFF0A37417F0A3F1
:101063007492F0900046E0FCA3E0FDE41202C1E4B8
:10107300FBFA7920784112021F9000531206CE0228
:10108300113090002CE0900050602F74FFF0A37497
:1010930017F0A3749DF090001FE0FF900053E4F05D
:1010A300A3EFF0900020E0FF900055E4F0A3EFF0F1
:1010B300900021E0FF900057802074FFF0A3741785
:1010C300F0A374ACF090001FE0FF900053E4F0A392
:1010D300EFF0900020E0FF900055E4F0A3EFF080E4
:1010E3004C90005074FFF0A37417F0A374B9F09000
:1010F300002FE0FFA3E0900053CFF0A3EFF0802D8B
:1011030090005074FFF0A37417F0A374C4F0900020
:1011130026E0FFA3E0900053CFF0A3EFF0800E9002
:10112300005074FFF0A37417F0A374CBF07B017A23
:1011330000793C1207859000507401F0A37400F00D
:0D114300A37433F07B017A00793C020BA30A
:1011500090002DE06022900022E0FCA3E0FDA3E0DF
:10116000FEA3E0FF9000011206CE90002AE04401A9
:10117000F0E490002DF0803B900001E0F8A3E0F94E
:10118000A3E0FAA3E0FB900022E0FCA3E0FDA3E0D3
:10119000FEA3E0C39BFFEE9AFEED99FDEC98FCE404
:1011A0007B887A13F9F8C31206BD500790002AE035
:1011B00054FEF090003BE090002A7006E04402F0FC
:1011C0008004E054FDF0900029E0605C900005E0B0
:1011D000F8A3E0F9A3E0FAA3E0FB900022E0FCA36F
:1011E000E0FDA3E0FEA3E0C39BFFEE9AFEED99FDB8
:1011F000EC98FCE47B64FAF9F8C31206BD501A902F
:101200000022E0FCA3E0FDA3E0FEA3E0FF900005C8
:101210001206CE900028E0F4F0900028E090002A1A
:101220006009E04404F0800790002AE054FBF0904D
:101230000031E090002A6006E04408F08004E054A9
:10124000F7F090002AE0FF900000E06F6005EFF0FB
:031250001219E58B
:011253002278
:100E21001215AB90004DEFF0900009E0FB6F7003DD
:100E3100020F4E900022E0FCA3E0FDA3E0FEA3E040
:100E4100FF90000A1206CE90004DE024F4603714A2
:100E5100604024FD7003020EE3147003020F10249E
:100E6100116003020F43EBB40D14900022E0FCA3C8
:100E7100E0FDA3E0FEA3E0FF90000E1206CEE49099
:100E8100002CF0020F43900048E004F05403F002FC
:100E91000F439000127401F090000AE0F8A3E0F90A
:100EA100A3E0FAA3E0FBA3E0FCA3E0FDA3E0FEA323
:100EB100E0C39BFFEE9AFEED99FDEC98FCE47BE824
:100EC1007A03F9F8C31206BD4078900031E070044E
:100ED1007F0180027F00900031EFF0E4900012F07A
:100EE1008060900048E064027058900030E004F0A7
:100EF100700690002FE004F0D3900030E0946390EE
:100F0100002FE09400403BE4F0A3740AF08033909A
:100F11000048E0FFB40221900030E024FFF090008F
:100F21002FE034FFF0C3A3E0940A90002FE0940077
:100F31005006E4F0A37463F0EFB4010690002C7442
:100F410001F090004DE0900009F0020FE290000ADC
:100F5100E0F8A3E0F9A3E0FAA3E0FB900022E0FCB3
:100F6100A3E0FDA3E0FEA3E0C39BFFEE9AFEED9993
:100F7100FDEC98FCE47B207A03F9F8C31206BD501E
:100F81006090004DE024EF6030047055900048E01F
:100F91006402704D900030E004F0700690002FE084
:100FA10004F0D3900030E0946390002FE09400406F
:100FB10030E4F0A3740AF08028900048E0B40221E4
:100FC100900030E024FFF090002FE034FFF0C3A345
:100FD100E0940A90002FE094005006E4F0A37463BB
:100FE100F0900012E0604A90000EE0F8A3E0F9A34F
:100FF100E0FAA3E0FB900022E0FCA3E0FDA3E0FE09
:10100100A3E0C39BFFEE9AFEED99FDEC98FCE47B17
:10101100E87A03F9F8C31206BD501690003BE07060
:10102100047F0180027F0090003BEFF0E49000120A
:01103100F0CE
:01103200229B
:1018F500900032E0601AE4F07B017A00791F12173C
:101905004D900020E07009A3E0700590002D04F0D3
:0119150022AF
:101631007F0490002BE0606CE4F0C28D758CFF7527
:101641008AF3D28CAE071FEE600C308DFDA290B3F1
:101651009290C28D80EEC28CC28DE4F58CF58AD257
:101661008C208D032091FAC28C308D0DC28D90009B
:10167100267404F0A3745AF022AF8CEFFEAD8A7C7D
:1016810000E42DFFEC3EFEAD07FCE41202C17B96A7
:101691007A43798B783C1201161202FA900026EEF9
:0416A100F0A3EFF0D3
:0116A5002222
:10125400900013E014602B14700302130D24026039
:10126400030213451219D4900022E0FCA3E0FDA36D
:10127400E0FEA3E0FF9000141206CE900013740168
:10128400F022900014E0F8A3E0F9A3E0FAA3E0FB55
:10129400900022E0FCA3E0FDA3E0FEA3E0C39BFFDB
:1012A400EE9AFEED99FDEC98FCE47B207A03F9F8C4
:1012B400C31206BD40030213451218D1AD07AC0694
:1012C400EC1202C1E4FBFA7980784112021F7BCD53
:1012D4007ACC794C783D120025E4FBFA79207841E8
:1012E4001201161202FA900046EEF0A3EFF09000FD
:1012F40022E0FCA3E0FDA3E0FEA3E0FF90001412B3
:1013040006CE9000137402F022900014E0F8A3E0DB
:10131400F9A3E0FAA3E0FB900022E0FCA3E0FDA324
:10132400E0FEA3E0C39BFFEE9AFEED99FDEC98FC72
:10133400E47B05FAF9F8C31206BD5005E4900013E6
:01134400F0B8
:011345002285
:1013ED0090003BE0702490002FE0FEA3E0FF7C0016
:1013FD007D0A12069DD3900047E09F900046E09E27
:10140D00405E9000297401F0805B90002DE0601C1F
:10141D009000297401F0900022E0FCA3E0FDA3E010
:10142D00FEA3E0FF9000181206CE8039900018E060
:10143D00F8A3E0F9A3E0FAA3E0FB900022E0FCA3FF
:10144D00E0FDA3E0FEA3E0C39BFFEE9AFEED99FD48
:10145D00EC98FCE47B887A13F9F8C31206BD5005AD
:10146D00E4900029F0900029E0FF90001CE06F60EF
:0D147D000CEF60047F018002E4FF121952A1
:01148A00223F
:03001B0002148B41
:10148B00C0E0C0F0C083C082C0D075D000C000C027
:0D149B0001C002C003C004C005C006C007A8
:1014A800900022E0FCA3E0FDA3E0FEA3E02401FFFE
:1014B800E43EFEE43DFDE43CFC9000221206CE90A2
:1014C800001DE004F0B40A07E4F090002E04F09048
:1014D800001EE004F0B4640BE4F090003204F090D5
:1014E800002BF07B017A007933900049E0FD121758
:0C14F800D4900049E004F0B40802E4F0D5
:10150400D007D006D005D004D003D002D001D0003B
:0B151400D0D0D082D083D0F0D0E032E5
:0419A6007F057E003B
:1019AA00EF1FAA0670011E4A600BE4FDEDC3940CFA
:0519BA0050EE0D80F766
:0119BF002205
:02191600A9071F
:10191800E4FBC294E91392941219A6D294E9C31372
:0D192800F90BEBB408EC7F057E000219AA54
:10198B00E4FBC294ECC313FCD2943094034480FC6C
:0A199B001219A60BEBB408EAAF0422
:0119A500221F
:10188300C201D2947F0C7E001219AAC2947F507EAB
:10189300001219AAD2947F0A7E001219AAA2949266
:0618A300011219A6A201CA
:0118A900221C
:1019D400C20012188392007FCC1219167F44021998
:0119E40016EC
:1018D100C20012188392007FCC1219167FBE121912
:1018E1001612198BA90712198BEFFE7C00E429FF50
:0318F100EC3EFECC
:0118F40022D1
:10001E00020366E86480F8E933E83360110460F0A7
:10002E00ED33EC337009E8FCE9FDEAFEEBFF220448
:10003E0060DED3EB9FEA9EE99DE8C2E78CF0C2F743
:10004E0095F0400CE8CCF8E9CDF9EACEFAEBCFFB0F
:10005E0012033185D0F05804700320D5B3E8047034
:10006E00075002B2D502037092D5EC0460F7E4CCCF
:10007E00C0E0C398F8603B94186008400DD0E0FBD8
:10008E00020348E4FBFAC9FC8028E830E406E4C920
:10009E00FBE4CAFCE830E305E4C9CACBFCE854072C
:1000AE006010F8C3E913F9EA13FAEB13FBEC13FC37
:1000BE00D8F130F52FC3E49CFCEF9BFFEE9AFEEDDA
:1000CE0099FDD0E0FBEF4E4D4C701222DB03020384
:1000DE006DEC2CFCEF33FFEE33FEED33FDED30E730
:1000EE00EB020348EF2BFFEE3AFEED39FDD0E0FBBD
:1000FE0050130BBB0003020370ED13FDEE13FEEF66
:08010E0013FFEC13FC0203488F
:10011600EC4D6011E8497017ED33EC3304600DE4E3
:10012600FCFFFEFD22E933E8330470F80203661291
:10013600033158046009E4CC248150062850090292
:10014600037028400302036DC0E0EB4A7044B98097
:1001560006D0E0FB02035CEF4E701CBD8008EBFF8F
:10016600EAFEE9FD80EBE98DF0A4FEE5F00201FF71
:10017600E9CDF9EAFEEBFFEF89F0A4FCE5F0CE89C4
:10018600F0A42EFFE435F0CD89F0A42DFEE435F081
:100196008067EF4E7005BD80D780C3EF8BF0A4ACAF
:1001A600F0EE8BF0A42CFCE435F0F8EF8AF0A42CEA
:1001B600E5F038FCE433CB8DF0A42CFCE5F03BF8FD
:1001C600EE8AF0A42CFCE5F038F8E433CF89F0A4ED
:1001D6002CFCE5F038CF3400CE89F0A42FFFE5F0F3
:1001E6003EFEE433C98DF0A42EFEE5F039CD8AF04B
:1001F600A42FFFE5F03EFEE43DFD33D0E0FB5007C3
:100206000BBB000F020370EC2CFCEF33FFEE33FE4A
:06021600ED33FD02034878
:10021C00020370EC5D046005E85904700302036688
:10022C00120331580460F6EC4860F2EC7004FDFEE9
:10023C00FF22C860DB2481C85009C39860025006B5
:10024C0002036D9850CAF582E9294B4A7005AB82BE
:10025C0002035C75F0007C1A7880C3EF9BEE9AED7C
:10026C0099400DC3EF9BFFEE9AFEED99FDE842F02D
:10027C00DC23ACF0D0E0FFD0E0FED0E0FDAB822080
:10028C00E7101BEB60BAEC2CFCEF33FFEE33FEED0A
:10029C0033FD020348E803F830E705C0F075F000C1
:1002AC00EF2FFFEE33FEED33FD40B830E7C280AAEE
:1002BC0075F020800E75F010800575F0087D007EBD
:1002CC00007F003392D530D5031206AFEC334010CB
:1002DC00EF33FFEE33FEED33FDEC33FCD5F0ED22C6
:0E02EC00E5F0247EA2D513CC92E7CDCEFF2202
:1002FA00EDD2E7CD33EC3392D524814006E4FFFEFC
:10030A00FDFC22FCE4CFCECDCC24E0501174FF805A
:10031A00EDC3CC13CCCD13CDCE13CECF13CF0470F7
:07032A00F030D5DE0206AF42
:10072000E5082450F582E43400F583E005082290C2
:10073000004D300703900050E475F0011206DA0214
:1007400006232000E97F2ED2008018EF540F24905A
:10075000D43440D4FF30040BEF24BFB41A0050034C
:100760002461FFE50960021509050CE50C7002051E
:100770000B30070E90004DE475F0011206DAEF021F
:1007800006690218AA7403D2078003E4C207F508B9
:1007900090004D1206F1E4F509F50BF50CE5096042
:1007A000077F2012076380F5750AFFC201C200C2ED
:1007B00002C203C205C206C20812072FFF700D3025
:1007C00007057F00120774AF0CAE0B22B4255FC281
:1007D000D5C20412072FFF24D0B40A00501A75F0B6
:1007E0000A780930D50508B6FF0106C6A426F6200A
:1007F000D5047002D20380D924CFB41A00EF50047C
:10080000C2E5D204020A66D20180C6D20080C0D2FC
:100810000280BCD2D580BAD20580B47F2012076393
:100820002002077401B5090040F1120720FF1207EA
:100830006302079DD208D2068095120720FB12079B
:1008400020FA120720F94A4B700679647A0B7BFF75
:1008500020022EE509602A7E008E82758300120632
:100860003C60060EEE650A70F0C2D5EBC0E0EAC04F
:10087000E0E9C0E0EE120AC7D0E0F9D0E0FAD0E03B
:10088000FB120623FF60AAEBC0E0EAC0E0E9C0E08B
:10089000120763D0E02401F9D0E03400FAD0E0FB85
:1008A000E50A0460DCD50AD98087D20280A2120A48
:1008B000A960F7E50A70010412037BA90A600DE53F
:1008C0000A600914F50A120B51EF60F3EA30E702EF
:1008D000F404C3995079EAF4250A0430E701E404EA
:1008E000F50A800D120AA960C1EA050A250A120359
:1008F0007BEA90007CF030E701E4250A04D50A0485
:1009000020050114120AC7E4C0E0120B5190007CCC
:10091000E0601320E70714F012074B802204F0D0A8
:10092000E014C0E07F0012074BE50A60071207429F
:10093000150A800B300503120742D0E002079DD054
:10094000E00480C4120AA9609EE50A0412037B90A9
:10095000007CEAF0E50A2005026001042404120A82
:01096000C7CF
:1009610074FF04C0E0120B5112074BE50A20050287
:100971006003120742D0E0B50AE87F45120755909F
:10098100007CE07F2B30E7047F2DF404C0E01207E8
:1009910063D0E075F00A84C0F012074CD0E0120772
:1009A1004C02079D791080027908C206C2088008AE
:1009B100D2D5790A8004790AC2D5E50A047002F514
:1009C1000AE4FAFDFEFF120720FC7B082001131246
:1009D1000720FD7B1030000A120720FE120720FFBE
:1009E1007B20EC3382D592D55013C3E43000069FAF
:1009F100FFE49EFEE42001039DFDE49CFCE4CBF8B2
:100A0100C201EC700CCFCECDCCE824F8F870F380A5
:100A110017C3EF33FFEE33FEED33FDEC33FCEB3365
:100A2100FB994002FB0FD8E9EB300105F8D0E0C497
:100A310048B201C0E00AEC4D4E4F78207B0070C2F5
:100A4100EAB50A0040BCC0E0120AC9D0F0D0E020EB
:100A51000104C4C0E0C4B201C0F012074CD0F0D50B
:100A6100F0EB02079D1206FA083A5309A558080B44
:100A71004C08074209A94F09B14409B1490820436B
:100A810009B75508E44609444508AE470B845008A8
:100A91000F2D08132E08362B0817230834200B6D51
:100AA1002A07CF480000082EE50AB4FF03750A069D
:100AB100120720FC120720FD120720FE120720FF5B
:100AC1009000750203B8790AA2D5200314300509F4
:100AD100B910020404B9080104A2D520060250018C
:100AE100042002689202B509005034C0E07F203032
:100AF10003197F30A20272067205500F120B20C239
:100B010002C206C205C2087F30800F300503E9C06A
:100B1100E0120763300503D0E0F9D0E0B509CC302D
:100B210005177F30B9100C1207637F583004077F17
:100B3100788003B908031207633002057F2D02078D
:100B4100637F202008F87F2B2006F322920280CFBA
:100B51007F00B40700500B2475F582E43400F5835F
:100B6100E0FF22286E756C6C2900D201120720303B
:100B710001F8C201780930D50108F60207CF2D50DE
:100B81004349581207202403B405004001E4900BA7
:100B91007F93120754743A120754D2037509040261
:020BA10009A5A4
:10033100E9D2E7C933E833F892D5EDD2E7CD33EC12
:0703410033FC5002B2D5228B
:10034800EC30E7100FBF000C0EBE00080DBD000416
:100358000BEB6014A2D5EB13FCED92E7FD2274FFC2
:10036800FCFDFEFF22E480F8A2D574FF13FC7D801B
:03037800E480EF2F
:10037B00F920E73624F950037907E4F42402FBE56E
:10038B0082158270021583DBF6E024FB501BE960BB
:10039B0014E4F0E582158270021583E004F0B40AD0
:0D03AB0008E4F0D9EE7401F00A22C2D52258
:1003B800ED33EC3392D5FA602AB4FF33EDC2E77B14
:1003C800FF60067A0379DDE4227A0379E620D50412
:1003D8007A0379E1224E614E002B494E46002D49A1
:1003E8004E4600E47A08F0A3DAFC7B00740722C0CA
:1003F80083C082ECC0E0EDC0E0EEC0E0EFC0E0EA10
:1004080075F010A4CAABF075F04DA42BFBE435F0E1
:10041800FCEA2410FAEB34C5FBEC34D9FCEDC2E756
:10042800FF75F056A4F42411C5F0F434C58FF0A478
:100438002AE5F03BE43CF020E7141204EDD0E0FF9D
:10044800D0E0FED0E0FDD0E0FC12021F8014F404DE
:100458001204EDD0E0FFD0E0FED0E0FDD0E0FC12C9
:100468000116D082D083E0FAEDD2E7CD33EC332405
:1004780082FBE4C3CF33CFCE33CECD33CD33DBF3E2
:100488007B0775F00A846004F0A31B0AE5F0F0A36B
:100498008FF0740AA4FFACF08EF0740AA42CFEACA2
:1004A800F050010C8DF0740AA42CFDE435F0F0A393
:0504B800DBDE740722E9
:1004BD003F8000004120000042C80000447A000047
:1004CD00461C400047C35000497424004B189680C9
:1004DD004CBEBC205A0E1BCA6753C21C749DC5AEC0
:1004ED00FB60065407601C232312051BEB54386078
:1004FD0009120507120516120116ECF8EDF9EEFAC0
:10050D00EFCB22EB12051680F1543803241C900416
:10051D00BDFE93FC0EEE93FD0EEE930ECE93FF22D9
:0300000002151FC7
:0C151F00787FE4F6D8FD75812102156686
:10052D00E709F608DFFA8046E709F208DFFA803EB0
:10053D0088828C83E709F0A3DFFA8032E309F6089D
:10054D00DFFA8078E309F208DFFA807088828C8305
:10055D00E309F0A3DFFA806489828A83E0A3F608B9
:10056D00DFFA805889828A83E0A3F208DFFA804C93
:10057D0080D280FA80C680D4806980F2803380106A
:10058D0080A680EA809A80A880DA80E280CA8033D3
:10059D0089828A83ECFAE493A3C8C582C8CCC5834B
:1005AD00CCF0A3C8C582C8CCC583CCDFE9DEE7801B
:1005BD000D89828A83E493A3F608DFF9ECFAA9F09A
:1005CD00EDFB2289828A83ECFAE0A3C8C582C8CCF0
:1005DD00C583CCF0A3C8C582C8CCC583CCDFEADE09
:1005ED00E880DB89828A83E493A3F208DFF980CC6B
:1005FD0088F0EF60010E4E60C388F0ED2402B40464
:10060D000050B9F582EB2402B4040050AF2323450A
:06061D00822390057D73AD
:10062300BB010689828A83E0225002E722BBFE02D5
:09063300E32289828A83E4932208
:10063C00BB010CE58229F582E5833AF583E0225073
:10064C0006E92582F8E622BBFE06E92582F8E222BD
:0D065C00E58229F582E5833AF583E49322D7
:10066900BB010689828A83F0225002F722BBFE0170
:02067900F3226A
:10067B00F8BB010DE58229F582E5833AF583E8F0B5
:10068B00225006E92582C8F622BBFE05E92582C861
:02069B00F22249
:10069D00EF8DF0A4A8F0CF8CF0A428CE8DF0A42E71
:0206AD00FE222B
:0E06AF00C3E49FFFE49EFEE49DFDE49CFC225C
:1006BD00EB9FF5F0EA9E42F0E99D42F0E89C45F093
:0106CD00220A
:0C06CE00ECF0A3EDF0A3EEF0A3EFF0229F
:1006DA00F8E0FBA3A3E0F925F0F0E58215827002A9
:0706EA001583E0FA38F0224D
:0906F100EBF0A3EAF0A3E9F0220A
:1006FA00D083D082F8E4937012740193700DA3A38F
:10070A0093F8740193F5828883E4737402936860A2
:06071A00EFA3A3A380DFA2
:1018AA00EFB40A07740D1218B5740A309811A89982
:1018BA00B8130CC2983098FDA899C298B811F6309E
:0718CA0099FDC299F5992276
:10152B00021812E493A3F8E493A34003F68001F2AC
:10153B0008DFF48029E493A3F85407240CC8C333C1
:10154B00C4540F4420C8834004F456800146F6DF90
:10155B00E4800B0102040810204080901346E47EC7
:10156B00019360BCA3FF543F30E509541FFEE49385
:10157B00A360010ECF54C025E060A840B8E493A34C
:10158B00FAE493A3F8E493A3C8C582C8CAC583CA77
:10159B00F0A3C8C582C8CAC583CADFE9DEE780BE2F
:0113EC000000
:00000001FF
