:101F8100EFF4F580E5A0541F4480F5A053A01F2273
:101E94007580FFE5A0541F4480F5A053A01F7580F2
:0D1EA40040E5A0541F44A0F5A053A01F224C
:101F1F0053890F538EBF758DFC758B18C28FD2AF3F
:051F2F00D2ABD28E22AE
:101F91005389F0538E7FE4F58CF58AC28DC28C2271
:10000300759850438E01438E0475D6FE75D7C7434A
:070013008E10D2AFD2AC2227
:0B1DB500900034EBF0A3EAF0A3E9F08B
:101DC000E4FF900034E0FBA3E0FAA3E0F98F827512
:101DD0008300120655600AF5993099FDC2990F806B
:011DE000E121
:011DE10022DF
:0B0F8700900034EBF0A3EAF0A3E9F0C7
:100F9200E490003AF0A3F090003BE0FFC3940840D5
:100FA20003021204900034E0FBA3E0FAA3E0F990FC
:100FB200003AE0F58275830012065512076C11A003
:100FC2002D11B82E0FFD30101231102B3210443378
:100FD200105D34107635108F3610A83710C13810D6
:100FE200DA3910F341110C42112543113E441157D5
:100FF20045117046118855000011DE900037E0FB64
:10100200A3E0FAA3E0F98F8275830074C00211F4A1
:10101200900037E0FBA3E0FAA3E0F990003BE0F593
:101022008275830074F90211F4900037E0FBA3E0AB
:10103200FAA3E0F990003BE0F58275830074A40204
:1010420011F4900037E0FBA3E0FAA3E0F990003B33
:10105200E0F58275830074B00211F4900037E0FB72
:10106200A3E0FAA3E0F990003BE0F58275830074F7
:10107200990211F4900037E0FBA3E0FAA3E0F990A3
:10108200003BE0F58275830074920211F490003700
:10109200E0FBA3E0FAA3E0F990003BE0F582758360
:1010A2000074820211F4900037E0FBA3E0FAA3E09F
:1010B200F990003BE0F58275830074F80211F49018
:1010C2000037E0FBA3E0FAA3E0F990003BE0F582F1
:1010D20075830074800211F4900037E0FBA3E0FAFC
:1010E200A3E0F990003BE0F5827583007490021151
:1010F200F4900037E0FBA3E0FAA3E0F990003BE0B4
:10110200F58275830074880211F4900037E0FBA326
:10111200E0FAA3E0F990003BE0F582758300748366
:101122000211F4900037E0FBA3E0FAA3E0F990008B
:101132003BE0F58275830074C60211F4900037E03B
:10114200FBA3E0FAA3E0F990003BE0F5827583008F
:1011520074A10211F4900037E0FBA3E0FAA3E0F9D6
:1011620090003BE0F58275830074860211F49000D2
:1011720037E0FBA3E0FAA3E0F990003BE0F58275CB
:101182008300748E806C900037E0FBA3E0FAA3E04A
:10119200F990003BE0F58275830074C180549000A1
:1011A20037E0FBA3E0FAA3E0F990003BE0F582759B
:1011B200830074BF803C90003BE014F0900037E065
:1011C200FBA3E0FAA3E0F990003BE0FFE92FF9E48A
:1011D2003AFA12063C547F1206828019900037E0D8
:1011E200FBA3E0FAA3E0F990003BE0F582758300EF
:1011F20074FF12069490003AE004F0A3E004F002B7
:021202000F9942
:0112040022C7
:101D11007580FFE5A0541F44E0F5A053A01F740196
:101D2100A805088002C333D8FCF580E5A0541F4400
:101D3100C0F5A053A01FAF058F8275830012065511
:0E1D4100F580E5A0541F44E0F5A053A01F223A
:081BE300900036EEF0A3EFF0D4
:101BEB0090008AE0FCA3E0FDA3E0FEA3E0FF9000E1
:101BFB0038120720900038E0F8A3E0F9A3E0FAA32D
:101C0B00E0FB90008AE0FCA3E0FDA3E0FEA3E0C3B1
:101C1B009BFBEE9AFAED99F9EC98F8900036E0FE02
:0C1C2B00A3E0FFE4FCFDC31206F540C876
:011C3700228A
:101A8600D2B4C2B5E5B0540F900034F0C2B4D2B5AA
:101A9600E0C454F0FFE5B0540F4FF0E0B4FF037F0D
:101AA60000227F0A7E00121BE3D2B4C2B5E5B05411
:101AB6000FC2B4D2B5C454F0FFE5B0540F4FFF9037
:101AC6000034E06F60037F0022EFF424FC602424DE
:101AD600FC601824C8600C24C07020900035740C7B
:101AE600F0801D900035740DF0801590003574104F
:101AF600F0800D9000357411F08005E4900035F00B
:051B0600900035E0FF36
:011B0B0022B7
:101EB100E4F58053A01FEF60054380108003538039
:0D1EC100EFE5A0541F44A0F5A053A01F2280
:101F3400E4FEC297EF1392A3EFC313FFD2970EEE02
:031F4400B408EFEF
:011F47002277
:081ECE0075F00A84EE25F0FD19
:101ED600C29300C29700D29300121F34AF05121F9F
:041EE60034C293224D
:101D4F00E4FDC29300C29700D29300121F34E4FF48
:101D5F00C297EDC313FD30A3034480FDD2970FEF5D
:101D6F00B408EDC29300C29700D29700C2A300D26D
:041D7F00A300AF0509
:011D8300223D
:101C3800E4FD7F8E121ED612063CFF75F00A84C49E
:101C480054F0FEEF7F84121ECE900001120655FF5D
:101C580075F00A84C454F0FEEF7F82121ECE900005
:101C680002120655FF75F00A84C454F0FEEF75F0B1
:101C78000A84EE25F0FD7F80121ED67D807F8E02BD
:021C88001ED666
:101C8A007F85121D4FEFC4540F75F00AA4FEEF545E
:101C9A000F2E1206827F83121D4FEFC4540F75F068
:101CAA000AA4FEEF540F2E9000011206947F8112AF
:101CBA001D4FEFC4540F75F00AA4FEEF540F2E9077
:051CCA00000202069477
:101B8100553160606025342E316600253032752D67
:101B9100253032752D2530327500553260253032B1
:101BA100752D253032750055336060606025303207
:101BB1007500553460253575004552524F5200531A
:101BC10055434300444154415F45524F004E554DEA
:101BD1005F45524F00574425326425632563000A4F
:021BE1003B3295
:10181D0041009300410091004A00A4313233343528
:10182D00300000000048009B000000000000000098
:10183D004100B100410097004100B0004100A300FC
:10184D0044008A0000000041009A004100950043C9
:10185D0000870000004100960042009800194200E8
:10186D00AE0017410092004100940042008F00002D
:10187D0041008E00410064004400650000000044FA
:10188D0000690000000044006E000000004100727D
:10189D000044007300000000440077000000004188
:1018AD00007B0041007C0041007D0048007E00006F
:0A18BD00000000000000410086005A
:101CCF0078317C007D017BFF7A1B79E07E007F03FA
:101CDF00120616121E94121F1F121F911200037B61
:101CEF00017A007931121C3812135C121205121E80
:101CFF00541218C812156B121479121B0C121D8472
:021D0F0080E66C
:10135C00900097E07003021462E4F09000B0E01487
:10136C00604014700302140D14700302142C240337
:10137C00600302144B90003774FFF0A3741BF0A3AE
:10138C007481F09000AEE0FCA3E0FDE41202C9E42D
:10139C00FBFA7920784112022790003A12072002BA
:1013AC001459900095E0900037602F74FFF0A374EF
:1013BC001BF0A3748CF0900087E0FF90003AE4F0EF
:1013CC00A3EFF0900088E0FF90003CE4F0A3EFF076
:1013DC00900089E0FF90003E802074FFF0A3741B06
:1013EC00F0A3749BF0900087E0FF90003AE4F0A328
:1013FC00EFF0900088E0FF90003CE4F0A3EFF08069
:10140C004C90003774FFF0A3741BF0A374A8F090F9
:10141C000098E0FFA3E090003ACFF0A3EFF0802D0E
:10142C0090003774FFF0A3741BF0A374B3F090001A
:10143C008FE0FFA3E090003ACFF0A3EFF0800E9086
:10144C00003774FFF0A3741BF0A374BAF07B017A1D
:10145C000079A412080F9000377401F0A37400F007
:0D146C00A3749BF07B017A0079A4020F8726
:10156B00900096E0602290008AE0FCA3E0FDA3E0EF
:10157B00FEA3E0FF900065120720900093E044016A
:10158B00F0E4900096F0803B900065E0F8A3E0F962
:10159B00A3E0FAA3E0FB90008AE0FCA3E0FDA3E04C
:1015AB00FEA3E0C39BFFEE9AFEED99FDEC98FCE4E5
:1015BB007B887A13F9F8C31206F55007900093E075
:1015CB0054FEF09000A3E09000937006E04402F00C
:1015DB008004E054FDF0900092E0605C900069E0C4
:1015EB00F8A3E0F9A3E0FAA3E0FB90008AE0FCA3E8
:1015FB00E0FDA3E0FEA3E0C39BFFEE9AFEED99FD99
:10160B00EC98FCE47B64FAF9F8C31206F5501A90D7
:10161B00008AE0FCA3E0FDA3E0FEA3E0FF900069DD
:10162B00120720900091E0F4F0900091E09000936D
:10163B006009E04404F08007900093E054FBF090C5
:10164B000093E0FF900064E06F6005EFF0121F81E4
:01165B00226C
:10120500121A86AB0790006DE06B70030212C8904E
:10121500008AE0FCA3E0FDA3E0FEA3E0FF90006EE2
:10122500120720EB24F4601814602024FD602F14AD
:101235006059241160030212C3E4900095F0807E8A
:101245009000B0E004F05403F080739000A3E070C8
:10125500047F0180027F009000A3EFF08060900082
:10126500B0E064027058900099E004F070069000B8
:1012750098E004F0D3900099E09463900098E0948E
:1012850000403BE4F0A3740AF080339000B0E0FF27
:10129500B40221900099E024FFF0900098E034FF1B
:1012A500F0C3A3E0940A900098E094005006E4F09F
:1012B500A37463F0EFB401069000957401F09000FB
:1012C5006DEBF090006EE0F8A3E0F9A3E0FAA3E07F
:1012D500FB90008AE0FCA3E0FDA3E0FEA3E0C39B36
:1012E500FFEE9AFEED99FDEC98FCE47B207A03F97C
:1012F500F8C31206F5505F90006DE024EF602F04EF
:1013050070549000B0E06402704C900099E004F0D5
:101315007006900098E004F0D3900099E0946390F3
:101325000098E09400402FE4F0A3740AF0229000A6
:10133500B0E0B40221900099E024FFF0900098E01D
:1013450034FFF0C3A3E0940A900098E0940050069F
:06135500E4F0A37463F054
:01135B00226F
:101E540090009AE0601AE4F07B017A007987121C02
:101E64008A900088E07009A3E0700590009604F061
:011E7400224B
:101B0C007F04900094E0606CE4F0C28D758CFF75DE
:101B1C008AF3D28CAE071FEE600C308DFDA290B311
:101B2C009290C28D80EEC28CC28DE4F58CF58AD277
:101B3C008C208D032091FAC28C308D0DC28D9000BB
:101B4C008F7404F0A3745AF022AF8CEFFEAD8A7C34
:101B5C0000E42DFFEC3EFEAD07FCE41202C97B96BF
:101B6C007A43798B783C12011E12030290008FEE9F
:041B7C00F0A3EFF0F3
:011B80002242
:10147900900072E014602B1470030215322402608C
:101489000302156A121F7090008AE0FCA3E0FDA315
:10149900E0FEA3E0FF900073120720900072740130
:1014A900F022900073E0F8A3E0F9A3E0FAA3E0FBCF
:1014B90090008AE0FCA3E0FDA3E0FEA3E0C39BFF4C
:1014C900EE9AFEED99FDEC98FCE47B207A03F9F89D
:1014D900C31206F5400302156A121E30AD07AC06A9
:1014E900EC1202C9E4FBFA798078411202277BCD1C
:1014F9007ACC794C783D12002DE4FBFA79207841B9
:1015090012011E1203029000AEEEF0A3EFF090005C
:101519008AE0FCA3E0FDA3E0FEA3E0FF90007312C4
:1015290007209000727402F022900073E0F8A3E0A3
:10153900F9A3E0FAA3E0FB90008AE0FCA3E0FDA395
:10154900E0FEA3E0C39BFFEE9AFEED99FDEC98FC4B
:10155900E47B05FAF9F8C31206F55005E490007228
:01156900F091
:01156A00225E
:1018C8009000A3E07024900098E0FEA3E0FF7C0065
:1018D8007D0A1206B6D39000AFE09F9000AEE09E5E
:1018E800405E9000927401F0805B900096E0601C6E
:1018F8009000927401F090008AE0FCA3E0FDA3E060
:10190800FEA3E0FF9000771207208039900077E06F
:10191800F8A3E0F9A3E0FAA3E0FB90008AE0FCA3B7
:10192800E0FDA3E0FEA3E0C39BFFEE9AFEED99FD68
:10193800EC98FCE47B887A13F9F8C31206F5500595
:10194800E4900092F0900092E0FF90007BE06F60DE
:0D1958000CEF60047F018002E4FF121EB15D
:01196500225F
:101D840090008EE0FF602924FE600F14601424028A
:101D940070197BFF7A1B79C0800E7BFF7A1B79C593
:101DA40080067BFF7A1B79CE121DB5E490008EF07D
:011DB400220C
:03001B0002196661
:10196600C0E0C0F0C083C082C0D075D000C000C047
:0D19760001C002C003C004C005C006C007C8
:1019830090008AE0FCA3E0FDA3E0FEA3E02401FFB6
:10199300E43EFEE43DFDE43CFC90008A1207209007
:1019A300007CE004F0B40A07E4F090009704F090A0
:1019B300007DE004F0B4640BE4F090009A04F0902E
:1019C3000094F07B017A00799B9000B1E0FD121D39
:0C19D300119000B1E004F0B40802E4F050
:1019DF00D007D006D005D004D003D002D001D0005C
:0B19EF00D0D0D082D083D0F0D0E03206
:030023000217427F
:10174200C0E0C0F0C083C082C0D075D000C000C06D
:0D17520001C002C003C004C005C006C007EE
:10175F00209803021802C298900086E0FF04F074EC
:10176F007E2FF582E43400F583E599F0900086E052
:10177F00FF247EF582E43400F583E4F0EF64067015
:10178F00727B0190000604F0A37400F0A37400F0C4
:10179F00A3EBF0A37400F0A37401F0A3EBF0A37418
:1017AF0000F0A37402F07BFF7A1B79D6120CB6EF10
:1017BF0064034E7033900001E0B40D24A3E0B40A2B
:1017CF001F900000E0FFD394004015EF946350107A
:1017DF00900098E4F0A3EFF090008E7401F0800E6B
:1017EF0090008E7402F0800690008E7403F09000CB
:0317FF0086E4F08D
:10180200D007D006D005D004D003D002D001D0003A
:0B181200D0D0D082D083D0F0D0E032E4
:041F05007F057E00D6
:101F0900EF1FAA0670011E4A600BE4FDEDC3940C95
:051F190050EE0D80F701
:011F1E0022A0
:021E7500A907BB
:101E7700E4FBC294E9139294121F05D294E9C313A9
:0D1E8700F90BEBB408EC7F057E00021F098B
:101EEA00E4FBC294ECC313FCD2943094034480FC08
:0A1EFA00121F050BEBB408EAAF0459
:011F040022BA
:101DE200C20CD2947F0C7E00121F09C2947F507ED7
:101DF20000121F09D2947F0A7E00121F09A2949238
:061E02000C121F05A20CEA
:011E080022B7
:101F7000C20B121DE2920B7FCC121E757F44021E13
:011F800075EB
:101E3000C20B121DE2920B7FCC121E757FBE121ECA
:101E400075121EEAA907121EEAEFFE7C00E429FFC4
:031E5000EC3EFE67
:011E5300226C
:1000260002036EE86480F8E933E83360110460F097
:10003600ED33EC337009E8FCE9FDEAFEEBFF220440
:1000460060DED3EB9FEA9EE99DE8C2E78CF0C2F73B
:1000560095F0400CE8CCF8E9CDF9EACEFAEBCFFB07
:1000660012033985D0F05804700320D5B3E8047024
:10007600075002B2D502037892D5EC0460F7E4CCBF
:10008600C0E0C398F8603B94186008400DD0E0FBD0
:10009600020350E4FBFAC9FC8028E830E406E4C910
:1000A600FBE4CAFCE830E305E4C9CACBFCE8540724
:1000B6006010F8C3E913F9EA13FAEB13FBEC13FC2F
:1000C600D8F130F52FC3E49CFCEF9BFFEE9AFEEDD2
:1000D60099FDD0E0FBEF4E4D4C701222DB0302037C
:1000E60075EC2CFCEF33FFEE33FEED33FDED30E720
:1000F600EB020350EF2BFFEE3AFEED39FDD0E0FBAD
:1001060050130BBB0003020378ED13FDEE13FEEF55
:0801160013FFEC13FC0203507F
:10011E00EC4D6011E8497017ED33EC3304600DE4DB
:10012E00FCFFFEFD22E933E8330470F802036E1281
:10013E00033958046009E4CC248150062850090282
:10014E000378284003020375C0E0EB4A7044B9807F
:10015E0006D0E0FB020364EF4E701CBD8008EBFF7F
:10016E00EAFEE9FD80EBE98DF0A4FEE5F002020760
:10017E00E9CDF9EAFEEBFFEF89F0A4FCE5F0CE89BC
:10018E00F0A42EFFE435F0CD89F0A42DFEE435F079
:10019E008067EF4E7005BD80D780C3EF8BF0A4ACA7
:1001AE00F0EE8BF0A42CFCE435F0F8EF8AF0A42CE2
:1001BE00E5F038FCE433CB8DF0A42CFCE5F03BF8F5
:1001CE00EE8AF0A42CFCE5F038F8E433CF89F0A4E5
:1001DE002CFCE5F038CF3400CE89F0A42FFFE5F0EB
:1001EE003EFEE433C98DF0A42EFEE5F039CD8AF043
:1001FE00A42FFFE5F03EFEE43DFD33D0E0FB5007BB
:10020E000BBB000F020378EC2CFCEF33FFEE33FE3A
:06021E00ED33FD02035068
:10022400020378EC5D046005E85904700302036E70
:10023400120339580460F6EC4860F2EC7004FDFED9
:10024400FF22C860DB2481C85009C39860025006AD
:100254000203759850CAF582E9294B4A7005AB82AE
:1002640002036475F0007C1A7880C3EF9BEE9AED6C
:1002740099400DC3EF9BFFEE9AFEED99FDE842F025
:10028400DC23ACF0D0E0FFD0E0FED0E0FDAB822078
:10029400E7101BEB60BAEC2CFCEF33FFEE33FEED02
:1002A40033FD020350E803F830E705C0F075F000B1
:1002B400EF2FFFEE33FEED33FD40B830E7C280AAE6
:1002C40075F020800E75F010800575F0087D007EB5
:1002D400007F003392D530D5031206E7EC3340108B
:1002E400EF33FFEE33FEED33FDEC33FCD5F0ED22BE
:0E02F400E5F0247EA2D513CC92E7CDCEFF22FA
:10030200EDD2E7CD33EC3392D524814006E4FFFEF3
:10031200FDFC22FCE4CFCECDCC24E0501174FF8052
:10032200EDC3CC13CCCD13CDCE13CECF13CF0470EF
:07033200F030D5DE0206E702
:1007AA00E5132437F582E43400F583E0051322903B
:1007BA000034301203900037E475F0011207350255
:1007CA00063C200BE97F2ED20B8018EF540F2490A1
:1007DA00D43440D4FF300F0BEF24BFB41A005003B7
:1007EA002461FFE514600215140517E51770020568
:1007FA001630120E900034E475F001120735EF023C
:10080A000682021E097403D2128003E4C212F5138F
:10081A00900034120763E4F514F516F517E5146031
:10082A00077F201207ED80F57515FFC20CC20BC2B7
:10083A000DC20EC210C211C2131207B9FF700D30D9
:10084A0012057F001207FEAF17AE1622B4255FC24B
:10085A00D5C20F1207B9FF24D0B40A00501A75F096
:10086A000A781430D50508B6FF0106C6A426F62074
:10087A00D5047002D20E80D924CFB41A00EF5004E6
:10088A00C2E5D20F020AF0D20C80C6D20B80C0D2C7
:10089A000D80BCD2D580BAD21080B47F201207ED69
:1008AA00200D077401B5140040F11207AAFF1207C0
:1008BA00ED020827D213D21180951207AAFB12075C
:1008CA00AAFA1207AAF94A4B700679EE7A0B7BFF4D
:1008DA00200D2EE514602A7E008E82758300120692
:1008EA005560060EEE651570F0C2D5EBC0E0EAC0A1
:1008FA00E0E9C0E0EE120B51D0E0F9D0E0FAD0E026
:10090A00FB12063CFF60AAEBC0E0EAC0E0E9C0E0E7
:10091A001207EDD0E02401F9D0E03400FAD0E0FB70
:10092A00E5150460DCD515D98087D20D80A2120B9B
:10093A003360F7E515700104120383A915600DE50C
:10094A0015600914F515120BDBEF60F3EA30E702C4
:10095A00F404C3995079EAF425150430E701E40454
:10096A00F515800D120B3360C1EA05152515120322
:10097A0083EA900063F030E701E4251504D51504F5
:10098A0020100114120B51E4C0E0120BDB9000633B
:10099A00E0601320E70714F01207D5802204F0D094
:1009AA00E014C0E07F001207D5E51560071207CCF6
:1009BA001515800B3010031207CCD0E0020827D09F
:1009CA00E00480C4120B33609EE515041203839081
:1009DA000063EAF0E5152010026001042404120BFA
:0109EA0051BB
:1009EB0074FF04C0E0120BDB1207D5E515201002D3
:1009FB0060031207CCD0E0B515E87F451207DF90F6
:100A0B000063E07F2B30E7047F2DF404C0E0120776
:100A1B00EDD0E075F00A84C0F01207D6D0E01207D3
:100A2B00D6020827791080027908C211C2138008F8
:100A3B00D2D5790A8004790AC2D5E515047002F57E
:100A4B0015E4FAFDFEFF1207AAFC7B08200C13121B
:100A5B0007AAFD7B10300B0A1207AAFE1207AAFF8A
:100A6B007B20EC3382D592D55013C3E4300B069F19
:100A7B00FFE49EFEE4200C039DFDE49CFCE4CBF81C
:100A8B00C20CEC700CCFCECDCCE824F8F870F38010
:100A9B0017C3EF33FFEE33FEED33FDEC33FCEB33DB
:100AAB00FB994002FB0FD8E9EB300C05F8D0E0C402
:100ABB0048B20CC0E00AEC4D4E4F78207B0070C260
:100ACB00EAB5150040BCC0E0120B53D0F0D0E020CB
:100ADB000C04C4C0E0C4B20CC0F01207D6D0F0D5E1
:100AEB00F0EB02082712076C08C4530A2F5808951D
:100AFB004C0891420A334F0A3B440A3B4908AA432C
:100B0B000A4155096E4609CE450938470C0E500867
:100B1B00992D089D2E08C02B08A12308BE200BF78A
:100B2B002A085948000008B8E515B4FF03751506E7
:100B3B001207AAFC1207AAFD1207AAFE1207AAFFA8
:100B4B0090005C0203C0790AA2D5200E1430100964
:100B5B00B910020404B9080104A2D52011025001F6
:100B6B0004200D68920DB514005034C0E07F203086
:100B7B000E197F30A20D72117210500F120BAAC2F8
:100B8B000DC211C210C2137F30800F301003E9C0A9
:100B9B00E01207ED301003D0E0F9D0E0B514CC3003
:100BAB0010177F30B9100C1207ED7F58300F077FED
:100BBB00788003B908031207ED300D057F2D02076E
:100BCB00ED7F202013F87F2B2011F322920D80CF85
:100BDB007F00B40700500B245CF582E43400F583EE
:100BEB00E0FF22286E756C6C2900D20C1207AA301C
:100BFB000CF8C20C781430D50108F60208592D50A8
:100C0B004349581207AA2403B405004001E4900C91
:100C1B0009931207DE743A1207DED20E7514040222
:020C2B000A2F8E
:100C2D00E50830030104F823282406F582E4340096
:100C3D00F58322900003300303900006E475F00164
:100C4D0012073502063C60EAC50C7002150B14C57F
:100C5D000C200304FF021FAB90000374FFF5F0029C
:100C6D00074CFF021F5CE5096006D509037F0022D2
:100C7D0020030F121F48EF6008050CE50C700205EC
:100C8D000B2290000312072C12063CFF60E8900027
:100C9D0003E475F00112073580DC120C7DEFC0E026
:100CAD00120C6FD0E040F3809DD2038002C20390FE
:100CBD000003120763E4F50AF508F50BF50C750949
:100CCD0000C202C200C201C204120C40FF7005AF87
:100CDD000A7E0022B42530120C40FF24D0B40A0045
:100CED00500C75F00AC509A42509F50980E924CF32
:100CFD00B41A00EF5002C2E5020F53D20180D8D2D0
:100D0D000080D4D20480D0EF120C6F5008120CA7C3
:100D1D00EF600E80A9EFC0E0120C7DD0E06F609EF9
:100D2D00EF6074120C5380A7120C7DEF6069E5091A
:100D3D00700705098003120C7DEF601420040E125C
:100D4D000C2DE475F001120735EF120682D509E678
:100D5D002004040508050A80BA120C73EFC0E012D6
:100D6D000C6FD0E05004120C53E4FF20040E120C53
:100D7D002DE475F001120735EF120682EF70DA20BF
:100D8D0004040508050A808BE50960020509120CAB
:100D9D00A7120C73EF70C6300304E4120C53E50A6E
:100DAD006003020CDC7EFF7FFF22E509600205096E
:100DBD00120CA7D206D205120C73EF30060260D7C3
:100DCD00C0E0120C53D0E0AC0DAD0EAE0FAF101253
:100DDD00166F8C0D8D0E8E0F8F105007120C7DC25D
:100DED000580D4200410200502050A120C2D1207CF
:030DFD002C0508BA
:100E0000120706020CCBD0E0809A7900800A791094
:100E1000800679088002790AD205E5096002050991
:100E2000E9C0E0120CA7EF60DD120C7DBF2D04D2EB
:100E3000028003BF2B09120CA7EF60CA120C73D0FB
:100E4000E0B40A028033B40802802EBF302770025B
:100E50007408C205C0E0120C73D0E0BF78028003B2
:100E6000BF58160509D509028007D50904D20580A7
:100E70000B741080197002740ABF000AEFF8E4FCCA
:100E8000FDFEFF020F06C0E0EF120C53D0E0F9E4C4
:100E9000FCFDFEFFE9C0E0ECC0E0EDC0E0EEC0E02C
:100EA000EFC0E0120C73EFF8D0E0FFD0E0FED0E02E
:100EB000FDD0E0FCD0F0E8604DB461004007B47BA9
:100EC000005002C2E524D0503DFA24F6500724F920
:100ED0005034240AFAEAB5F000502BCFA9F0A42F21
:100EE000FF92D5E9C5F0CEA4A2D53EFE92D5E9C5C4
:100EF000F0CDA4A2D53DFD92D5E9C5F0CCA4A2D5F4
:100F00003CFCC205808EE8C0E020042A20050805CC
:100F10000A3002031206E7120C2D12072C050820D6
:100F2000000B20010DEE8FF01206C8800912070693
:100F30008004EF120682D0E0120C53020CCB200486
:100F400010120C2D12072C0508E50B850CF012066B
:100F5000C880E812076C0D95530E0E580D0C4C0D01
:100F600008420CE4480E124F0E16440D35430E0A8B
:100F7000490E16550DB7460DB7450DB7470D102A4A
:070F80000F3E4E00000D14AE
:10033900E9D2E7C933E833F892D5EDD2E7CD33EC0A
:0703490033FC5002B2D52283
:10035000EC30E7100FBF000C0EBE00080DBD00040E
:100360000BEB6014A2D5EB13FCED92E7FD2274FFBA
:10037000FCFDFEFF22E480F8A2D574FF13FC7D8013
:03038000E480EF27
:10038300F920E73624F950037907E4F42402FBE566
:1003930082158270021583DBF6E024FB501BE960B3
:1003A30014E4F0E582158270021583E004F0B40AC8
:0D03B30008E4F0D9EE7401F00A22C2D52250
:1003C000ED33EC3392D5FA602AB4FF33EDC2E77B0C
:1003D000FF60067A0379E5E4227A0379EE20D504FA
:1003E0007A0379E9224E614E002B494E46002D4991
:1003F0004E4600E47A08F0A3DAFC7B00740722C0C2
:1004000083C082ECC0E0EDC0E0EEC0E0EFC0E0EA07
:1004100075F010A4CAABF075F04DA42BFBE435F0D9
:10042000FCEA2410FAEB34C5FBEC34D9FCEDC2E74E
:10043000FF75F056A4F42411C5F0F434C58FF0A470
:100440002AE5F03BE43CF020E714120506D0E0FF7B
:10045000D0E0FED0E0FDD0E0FC1202278014F404CE
:10046000120506D0E0FFD0E0FED0E0FDD0E0FC12A7
:10047000011ED082D083E0FAEDD2E7CD33EC3324F5
:1004800082FBE4C3CF33CFCE33CECD33CD33DBF3DA
:100490007B0775F00A846004F0A31B0AE5F0F0A363
:1004A0008FF0740AA4FFACF08EF0740AA42CFEAC9A
:1004B000F050010C8DF0740AA42CFDE435F0F0A38B
:0504C000DBDE740722E1
:10165C00C207C208C209C20AF9E4F511F512FCFD71
:10166C00FEFFE91006EA20090CB42D04D209D3229E
:10167C00B42B02D32224D0504794095041240A3071
:10168C000A15F88512F0740AA42872E74051C5F0C7
:10169C00704D85F012D322D208C0E0E4FBFA792019
:1016AC00784112011EECF8EDF9EEFAEFFBD0E0FCFC
:1016BC00E41202CE12002D3007B41511D322240AE5
:1016CC00200A20B4FE0720071AD207D32224EB608D
:1016DC000424E0700EA2099207D20AC209D322C3D5
:1016EC0002036EE4300A0BE512300902F404A2077F
:1016FC0092093008EA251120D2E5A2E7920A50029D
:10170C00F404B4260050D8CCC0E0EDC0E0EEC0E04C
:10171C00EFC0E0EC120506D0E0FFD0E0FED0E0FD1B
:10172C00D0E0FC200A0512011E80031202273009AA
:06173C00031204C5C322E4
:1004C500ED33EC33600A047003BD8004ECB2E7FC45
:0104D5002204
:1004D6003F8000004120000042C80000447A00002E
:1004E600461C400047C35000497424004B189680B0
:1004F6004CBEBC205A0E1BCA6753C21C749DC5AEA7
:10050600FB60065407601C2323120534EB54386045
:100516000912052012052F12011EECF8EDF9EEFA6C
:10052600EFCB22EB12052F80F1543803241C9004E4
:10053600D6FE93FC0EEE93FD0EEE930ECE93FF22A7
:030000000219FAE8
:0C19FA00787FE4F6D8FD758122021A41C6
:10054600E709F608DFFA8046E709F208DFFA803E97
:1005560088828C83E709F0A3DFFA8032E309F60884
:10056600DFFA8078E309F208DFFA807088828C83EC
:10057600E309F0A3DFFA806489828A83E0A3F608A0
:10058600DFFA805889828A83E0A3F208DFFA804C7A
:1005960080D280FA80C680D4806980F28033801051
:1005A60080A680EA809A80A880DA80E280CA8033BA
:1005B60089828A83ECFAE493A3C8C582C8CCC58332
:1005C600CCF0A3C8C582C8CCC583CCDFE9DEE78002
:1005D6000D89828A83E493A3F608DFF9ECFAA9F081
:1005E600EDFB2289828A83ECFAE0A3C8C582C8CCD7
:1005F600C583CCF0A3C8C582C8CCC583CCDFEADEF0
:10060600E880DB89828A83E493A3F208DFF980CC51
:1006160088F0EF60010E4E60C388F0ED2402B4044A
:100626000050B9F582EB2402B4040050AF232345F1
:060636008223900596737B
:10063C00BB010689828A83E0225002E722BBFE02BC
:09064C00E32289828A83E49322EF
:10065500BB010CE58229F582E5833AF583E022505A
:1006650006E92582F8E622BBFE06E92582F8E222A4
:0D067500E58229F582E5833AF583E49322BE
:10068200BB010689828A83F0225002F722BBFE0157
:02069200F32251
:10069400F8BB010DE58229F582E5833AF583E8F09C
:1006A400225006E92582C8F622BBFE05E92582C848
:0206B400F22230
:1006B600EF8DF0A4A8F0CF8CF0A428CE8DF0A42E58
:0206C600FE2212
:1006C800BB010A89828A83F0E5F0A3F0225006F77D
:0F06D80009A7F01922BBFE06F3E5F009F319227A
:0E06E700C3E49FFFE49EFEE49DFDE49CFC2224
:1006F500EB9FF5F0EA9E42F0E99D42F0E89C45F05B
:0107050022D1
:10070600BB010789828A830207205005E9F80207A0
:0A07160092BBFE05E9F802079E22DF
:0C072000ECF0A3EDF0A3EEF0A3EFF0224C
:09072C00E0FBA3E0FAA3E0F922CE
:10073500F8E0FBA3A3E0F925F0F0E582158270024D
:070745001583E0FA38F022F1
:10074C00F8E0FBA3A3E025F0F9F0E5821582700236
:07075C001583E038FAF022DA
:09076300EBF0A3EAF0A3E9F02297
:10076C00D083D082F8E4937012740193700DA3A31C
:10077C0093F8740193F5828883E473740293686030
:06078C00EFA3A3A380DF30
:101E0900EFB40A07740D121E14740A309811A899B8
:101E1900B8130CC2983098FDA899C298B811F63039
:071E290099FDC299F5992211
:101F480010140B121FA1BF0D027F0A021E09900078
:041F5800B2E0FF22D2
:081FAB009000B2EFF0D2142205
:101F5C00EFC394094005EF940E4004EFB42003D373
:041F6C008001C3220B
:101A0600021CCFE493A3F8E493A34003F68001F20B
:101A160008DFF48029E493A3F85407240CC8C333E1
:101A2600C4540F4420C8834004F456800146F6DFB0
:101A3600E4800B010204081020408090181DE47E0B
:101A4600019360BCA3FF543F30E509541FFEE493A5
:101A5600A360010ECF54C025E060A840B8E493A36C
:101A6600FAE493A3F8E493A3C8C582C8CAC583CA97
:101A7600F0A3C8C582C8CAC583CADFE9DEE780BE4F
:0118C7000020
:0C079200ECF608EDF608EEF608EFF62293
:0C079E00ECF208EDF208EEF208EFF22297
:0A1FA1003098FDAF99C2987E00222F
:00000001FF
