:10110700253375253564004620202020204C4C00CF
:1011170050312020253475005032202025346400BA
:10112700253032752D253032752D25303275004822
:1011370046202535750048412530327525303275F2
:051147002530327500A7
:100F480041003400410030004100310044000900F4
:100F5800000000420011000041002C004100140074
:100F6800410039004100380041000D0041000E00E9
:100F78004100130042000200004A0022313233349B
:100F880035363738390048001700000000000000E7
:100F98000041000400420005000042000700004232
:100FA800000F07D0420015000043002D0A141E410F
:100FB8000033004100325043001F09000043003550
:0B0FC8000A141E41000000410001005F
:101263001212D012136A1213A37F7812133F7B0159
:101273007A00791F1210B512093A1207D9120E0912
:08128300120A4812135580EF16
:10093A00120B51AD07900000E06F7003020A47EFF7
:10094A0024FE603024FD60401470030209EE240581
:10095A006003020A42900030E004F05403F0E0FF22
:10096A0064016008EF64036003020A42E490003104
:10097A00F0020A42900031E070047F0180027F0099
:10098A00900031EFF0020A42900030E06401600307
:10099A00020A42A3E07027900010E024E8F09000D9
:1009AA000FE03403F0D3A3E0942890000FE09423DF
:1009BA005003020A427423F0A37428F0807A90004C
:1009CA0016E02464F0900015E03400F0D3A3E0941C
:1009DA0084900015E064809483405D7403F0A374EE
:1009EA0084F08054900030E06401704CA3E07024DD
:1009FA00900010E02418F090000FE034FCF0C3A33C
:100A0A00E094E890000FE09403502D7403F0A3746F
:100A1A00E8F08024900016E0249CF0900015E03461
:100A2A00FFF0C3A3E0947C900015E06480947C50AE
:0D0A3A000774FCF0A3747CF0900000EDF058
:010A4700228C
:1007D900900030E014607C147003020891147003D7
:1007E9000208C724036003020923900005E0FEA361
:1007F900E0FBAA06900015E0FEA3E0FFEE3395E0CA
:10080900FDFCEB2FFFEA3EFEE43DFDE43CFC3390AA
:10081900003D74FF4032F0A37411F0A37407F09007
:100829000033E0FF900040E4F0A3EFF0900015E002
:10083900FEA3E0FF900006E02FFF900005E03E9048
:100849000042F0A3EF020919F0A37411F0A3740E8A
:10085900020919900031E090003D701074FFF0A377
:100869007411F0A37417F090000F800E74FFF0A3B9
:100879007411F0A3741FF0900015E0FFA3E090003D
:1008890040CFF0A3EF02091990003D74FFF0A37463
:1008990011F0A37427F0900035E0FF900040E4F0D8
:1008A900A3EFF0900036E0FF900042E4F0A3EFF0F0
:1008B900900037E0FF900044E4F0A3EF80529000ED
:1008C90031E090003D701874FFF0A37411F0A37427
:1008D90036F0900007E0FFA3E0900040CF802E742F
:1008E900FFF0A37411F0A3743DF090002DE0FF9088
:1008F9000040E4F0A3EFF090002EE0FF900042E406
:10090900F0A3EFF090002FE0FF900044E4F0A3EF94
:10091900F07B017A00792212008390003D7401F086
:10092900A37400F0A37417F07B017A007922020303
:01093900833A
:03001B00020C4D87
:100C4D00C0E0C0F0C083C082C0D075D000C000C06D
:100C5D0001C002C003C004C005C006C00790000952
:100C6D00E0FCA3E0FDA3E0FEA3E02401FFE43EFED3
:100C7D00E43DFDE43CFC90000912075A900014E09D
:100C8D0004F0B40A07E4F090003904F0900038E065
:100C9D0004F0B4C809E4F090000D04F0A3F0900046
:100CAD0011E475F00112071DFEE5F064E87003EE26
:100CBD0064037030900011F0A3F090002C04F090BC
:100CCD000002E4F0A3F0AF8CEFFEAD8A7C00E42DC2
:100CDD00FFEC3E900005F0A3EFF0C28C758C007513
:100CED008A00D28C900002E475F00112071DFEE51A
:100CFD00F064FA4E700590001304F07B017A0079D0
:100D0D0017900004E0FD121191900004E004F0B47E
:100D1D000802E4F0D007D006D005D004D003D002ED
:0F0D2D00D001D000D0D0D082D083D0F0D0E0322F
:10135500900039E0600EE4900039F07B017A007965
:051365003512114C22BD
:100A480090002CE07003020B3FE4F0900005E0FEFC
:100A5800A3E0FBAA06900015E0FEA3E0FFEE3395A5
:100A6800E0FDFCEB2FEA3EFEE43DFDE43CFC3350A8
:100A780003020B32900015E0FEA3E0FF900006E0B1
:100A88002FFF900005E03EFEC3900008E09F900015
:100A980007E09E501DEEF0A3EFF0900035E09000C7
:100AA8002DF0900036E090002EF0900037E0900096
:100AB8002FF0900015E0FEA3E0FF900006E02FFF66
:100AC800900005E03EFEC3900010E09F90000FE00C
:100AD8009E500890003274FFF08054C3EF94F4EEF7
:100AE800940150089000327433F08043EF240CFFD7
:100AF800EE34FEFEEF7802C333CE33CED8F9FF9042
:100B08000010E0240CFD90000FE034FEFC1206C833
:100B1800EF2401FFE43EFE7C007DFF1206B67D0552
:100B28001206C8900032EFF08005E4900032F09091
:100B38000032E0FF12133F900013E0600BE4F0FF77
:090B4800121204900033EFF022B8
:100E0900900030E0701190000DE06012E4F0900065
:100E190034E06401F08007900034E054FEF0900063
:100E290005E0FEA3E0FBAA06900015E0FEA3E0FFA3
:100E3900EE3395E0FDFCEB2FFFEA3EFEE43DFDE4D9
:100E49003CFC90003A12075A90003AE0FCA3E0FDFE
:100E5900A3E0FEEC335009900034E04402F08037FF
:100E690090000FE0FEA3E0FFE4FCFD90003AE0F8FB
:100E7900A3E0F9A3E0FAA3E0FBD3120733401190F2
:100E8900000EE06012E4F0900034E06402F08007A4
:100E9900900034E054FDF0900001E0FF900034E050
:0C0EA9006F6009E0FF900001F01213934D
:010EB500221A
:10139300EFF4F580E5A0541F4480F5A053A01F226D
:1012D0007580FFE5A0541F4480F5A053A01FE4F5DE
:0D12E00080E5A0541F44A0F5A053A01F22DC
:10136A00758DFC758B1853890F538EBFC28FD2AB04
:05137A00D2AFD28E226B
:1013A300538E7F438904E4F58AF58CC28DD28C2257
:0810600090003DEEF0A3EFF05B
:10106800900009E0FCA3E0FDA3E0FEA3E0FF9000F0
:101078003F12075A90003FE0F8A3E0F9A3E0FAA373
:10108800E0FB900009E0FCA3E0FDA3E0FEA3E0C3C1
:101098009BFBEE9AFAED99F9EC98F890003DE0FE8A
:0C10A800A3E0FFE4FCFDC312074940C8B0
:0110B4002219
:0B03830090003AEBF0A3EAF0A3E9F0D1
:10038E00E4900040F0A3F0900041E0FFC3940840D9
:10039E000302063B90003AE0FBA3E0FAA3E0F990DB
:1003AE000040E0F58275830012065512076605A718
:1003BE0020058E2D05BF2E04023004173104303275
:1003CE00044933046234047B3504943604AD370497
:1003DE00C63804DF3904F841051142052A430543A6
:1003EE0044055C4505754605E54806154C05FD506A
:1003FE00000005A790003DE0FBA3E0FAA3E0F98F13
:10040E008275830074C002062B90003DE0FBA3E0D2
:10041E00FAA3E0F9900041E0F58275830074F902C9
:10042E00062B90003DE0FBA3E0FAA3E0F99000411B
:10043E00E0F58275830074A402062B90003DE0FB6C
:10044E00A3E0FAA3E0F9900041E0F5827583007411
:10045E00B002062B90003DE0FBA3E0FAA3E0F9907A
:10046E000041E0F582758300749902062B90003DE1
:10047E00E0FBA3E0FAA3E0F9900041E0F58275837A
:10048E0000749202062B90003DE0FBA3E0FAA3E07D
:10049E00F9900041E0F582758300748202062B907C
:1004AE00003DE0FBA3E0FAA3E0F9900041E0F58205
:1004BE0075830074F802062B90003DE0FBA3E0FA72
:1004CE00A3E0F9900041E0F5827583007480020686
:1004DE002B90003DE0FBA3E0FAA3E0F9900041E091
:1004EE00F582758300749002062B90003DE0FBA30D
:1004FE00E0FAA3E0F9900041E0F58275830074887C
:10050E0002062B90003DE0FBA3E0FAA3E0F9900079
:10051E0041E0F582758300748302062B90003DE066
:10052E00FBA3E0FAA3E0F9900041E0F582758300A9
:10053E0074C602062B90003DE0FBA3E0FAA3E0F99F
:10054E00900041E0F58275830074A102062B9000A5
:10055E003DE0FBA3E0FAA3E0F9900041E0F58275DF
:10056E008300748602062B90003DE0FBA3E0FAA305
:10057E00E0F9900041E0F582758300748E02062B3F
:10058E0090003DE0FBA3E0FAA3E0F9900041E0F516
:10059E008275830074BF02062B90003DE0FBA3E042
:1005AE00FAA3E0F9900041E0F58275830074FF80B4
:1005BE006C900041E014F090003DE0FBA3E0FAA344
:1005CE00E0F9900041E0FFE92FF9E43AFA12063C17
:1005DE00547F120682804990003DE0FBA3E0FAA30F
:1005EE00E0F9900041E0F5827583007489802E90C9
:1005FE00003DE0FBA3E0FAA3E0F9900041E0F582B4
:10060E00758300748C801690003DE0FBA3E0FAA386
:10061E00E0F9900041E0F58275830074C7120694EC
:0D062E00900040E004F0A3E004F00203950A
:01063B00229C
:101191007580FFE5A0541F44E0F5A053A01F740122
:1011A100A805088002C333D8FCF580E5A0541F448C
:1011B100C0F5A053A01FAF058F827583001206559D
:0E11C100F580E5A0541F44E0F5A053A01F22C6
:100B5100E490003CF0C2C4D2C2E5B0540FFF900053
:100B61003AE4F0A3EFF0D2C4C2C2E0C4F8540FC813
:100B710068FF90003AE0C454F048FEE5B0540FFD20
:100B8100EF4DFFEEF0A3EFF090003AE07003A3E029
:100B9100F47002FF227F0A7E00121060C2C4D2C22A
:100BA100E5B0540F7E00D2C4C2C2C4F8540FC86865
:100BB100FFEEC454F048FEE5B0540FFDEF4DFF9039
:100BC100003AE0FCA3E0FD6F7002EC6E60037F0071
:100BD10022EDF4FFECF4FEEF8EF012078C0C3AFFDD
:100BE100010C32FF020C2AFF040C22FF080C1AFF31
:100BF100100C12FF200C0AFF400C02FF8000000CB9
:100C01004290003C7401F0803D90003C7402F08001
:100C11003590003C7403F0802D90003C7404F0800A
:100C21002590003C7405F0801D90003C7406F08016
:100C31001590003C7407F0800D90003C7408F08022
:0B0C410005E490003CF090003CE0FF58
:010C4C002285
:0E0D3C00900062EBF0A3EAF0A3E9F0A3EDF063
:100D4A00E4A3F0900065E024FEFFA3E0D39F4003F4
:100D5A00020DE9E4A3F0900065E024FEFFA3E0FEA3
:100D6A00C3EF9EFFA3E0D39F506CE0FF2401FDE494
:100D7A0033FC900062E0FBA3E0FAA3E0F98D828CD9
:100D8A0083120655FE8F82758300120655D39E4044
:100D9A003D900067E07E002401FDEE33FC8D828CDD
:100DAA0083120655900068F0900067E0F58275831B
:100DBA00001206558F828E83A3120694900068E073
:100DCA00FF900067E0F582758300EF1206949000A9
:100DDA0067E004F08080900066E004F0020D4D9018
:100DEA000065E0C313FF900062E0FBA3E0FAA3E012
:0E0DFA00F98F82758300120655FF900068F095
:010E080022C7
:0E0EB600900069EBF0A3EAF0A3E9F0A3EDF0E1
:100EC400E4FF90006CE024FEFEEFD39E5056EF0446
:100ED400FE90006CE014FDEED39D5045900069E057
:100EE400FBA3E0FAA3E0F98E82758300120655FD98
:100EF4008F82758300120655FCD39D402190006DAE
:100F0400ECF08E827583001206558F827583001271
:100F1400069490006DE08E827583001206940E8014
:100F2400B00F809E90006CE0C313FF900069E0FB5B
:100F3400A3E0FAA3E0F98F82758300120655FF90AF
:030F4400006DF04D
:010F47002287
:10137F00E4FEC297EF1392A3EFC313FFD2970EEEC3
:03138F00B408EFB0
:011392002238
:0812ED0075F00A84EE25F0FD06
:1012F500C29300C29700D2930012137FAF05121359
:041305007FC29322EE
:1011CF00E4FDC29300C29700D2930012137FE4FF95
:1011DF00C297EDC313FD30A3034480FDD2970FEFE9
:1011EF00B408EDC29300C29700D29700C2A300D2F9
:0411FF00A300AF0595
:0112030022C8
:1010B500E4FD7F8E1212F5900002120655FF75F0C1
:1010C5000A84C454F0FEEF7F801212ED90000112E5
:1010D5000655FF75F00A84C454F0FEEF7F821212A4
:1010E500ED12063CFF75F00A84C454F0FEEF75F06E
:1010F5000A84EE25F0FD7F841212F57D807F8E0235
:0211050012F5E1
:10114C007F811211CFEFC4540F75F00AA4FEEF5437
:10115C000F2E9000021206947F831211CFEFC4540D
:10116C000F75F00AA4FEEF540F2E90000112069496
:10117C007F851211CFEFC4540F75F00AA4FEEF5403
:05118C000F2E02068297
:04132500D2A07F05CE
:10132900000000000000000000000000000000AE06
:06133900071FEE70EB221D
:0F13B300D2A1121325C2A17F05121329C2A022B5
:0C13C200C2A1121325D2A17F050213293D
:02123600AD0702
:10123800E4FCC2A07F05121329ED30E704D2A18097
:1012480002C2A17F05121329D2A0ED25E0FD7F057A
:0A1258001213290CECB408DAC2A04E
:011262002269
:1012B200E4FC121325ED25E0FD30A1034401FDC23B
:0D12C200A07F051213290CECB408E7AF055E
:0112CF0022FC
:0A130900AB071213B37F90121236E7
:10131300121325A2A1E433FDC2A07F05121329AF46
:0113230005C4
:0113240022A6
:10000300C2A0EF24FF92A17F05121329121325C268
:08001300A0D2A17F0502132910
:10120400121309EB2440FF1212361213131213B3F4
:101214007F911212361213131212B2AD07E4FF12A9
:1012240000031212B2AD077F011200031213C2AF02
:0112340005B4
:011235002296
:10133F001213097F40121236121313AF0312123613
:06134F001213130213C289
:03000000020FD418
:0C0FD400787FE4F6D8FD75812102101B27
:10063C00BB010689828A83E0225002E722BBFE02BC
:09064C00E32289828A83E49322EF
:10065500BB010CE58229F582E5833AF583E022505A
:1006650006E92582F8E622BBFE06E92582F8E222A4
:0D067500E58229F582E5833AF583E49322BE
:10068200BB010689828A83F0225002F722BBFE0157
:02069200F32251
:10069400F8BB010DE58229F582E5833AF583E8F09C
:1006A400225006E92582C8F622BBFE05E92582C848
:0206B400F22230
:1006B600EF8DF0A4A8F0CF8CF0A428CE8DF0A42E58
:0206C600FE2212
:1006C800BC000BBE0029EF8DF084FFADF022E4CC16
:1006D800F875F008EF2FFFEE33FEEC33FCEE9DECDF
:1006E800984005FCEE9DFE0FD5F0E9E4CEFD22ED25
:1006F800F8F5F0EE8420D21CFEADF075F008EF2F6F
:10070800FFED33FD4007985006D5F0F222C398FD5F
:050718000FD5F0EA22FC
:10071D00C5F0F8A3E028F0C5F0F8E5821582700267
:06072D001583E038F02204
:10073300EB9FF5F0EA9E42F0E99D42F0EC6480C83D
:0607430064809845F022DD
:10074900EB9FF5F0EA9E42F0E99D42F0E89C45F006
:01075900227D
:0C075A00ECF0A3EDF0A3EEF0A3EFF02212
:10076600D083D082F8E4937012740193700DA3A322
:1007760093F8740193F5828883E473740293686036
:06078600EFA3A3A380DF36
:10078C00D083D082F8E4937012740193700DA3A3FC
:10079C0093F8740193F5828883E473740293B5F033
:0D07AC00067403936860E9A3A3A3A380D89B
:10001E00E508243DF582E43400F583E005082290DE
:10002E00003A30070390003DE475F0011207B90263
:10003E00063C2000E97F2ED2008018EF540F24904A
:10004E00D43440D4FF30040BEF24BFB41A00500355
:10005E002461FFE50960021509050CE50C70020527
:10006E000B30070E90003AE475F0011207B9EF025B
:10007E00068202128B7403D2078003E4C207F508CE
:10008E0090003A1207D0E4F509F50BF50CE509607E
:10009E00077F2012006180F5750AFFC201C200C2FF
:1000AE0002C203C205C206C20812002DFF700D3037
:1000BE0007057F00120072AF0CAE0B22B4255FC293
:1000CE00D5C20412002DFF24D0B40A00501A75F0C8
:1000DE000A780930D50508B6FF0106C6A426F62013
:1000EE00D5047002D20380D924CFB41A00EF500485
:1000FE00C2E5D204020273D20180C6D20080C0D201
:10010E000280BCD2D580BAD20580B47F20120061A5
:10011E002002077401B5090040F112001EFF120003
:10012E006102009BD208D206809512001EFB1200BF
:10013E001EFA12001EF94A4B700679447A037BFFB1
:10014E0020022EE509602A7E008E8275830012063B
:10015E005560060EEE650A70F0C2D5EBC0E0EAC03F
:10016E00E0E9C0E0EE1202BAD0E0F9D0E0FAD0E059
:10017E00FB12063CFF60AAEBC0E0EAC0E0E9C0E07B
:10018E00120061D0E02401F9D0E03400FAD0E0FB97
:10019E00E50A0460DCD50AD980877BFF7A0279B63E
:1001AE00D202809C791080027908C206C2088008AB
:1001BE00D2D5790A8004790AC2D5E50A047002F50F
:1001CE000AE4FAFDFEFF12001EFC7B08200113124A
:1001DE00001EFD7B1030000A12001EFE12001EFFD4
:1001EE007B20EC3382D592D55013C3E43000069FAA
:1001FE00FFE49EFEE42001039DFDE49CFCE4CBF8AD
:10020E00C201EC700CCFCECDCCE824F8F870F380A0
:10021E0017C3EF33FFEE33FEED33FDEC33FCEB3360
:10022E00FB994002FB0FD8E9EB300105F8D0E0C492
:10023E0048B201C0E00AEC4D4E4F78207B0070C2F0
:10024E00EAB50A0040BCC0E01202BCD0F0D0E020FB
:10025E000104C4C0E0C4B201C0F012004AD0F0D50F
:10026E00F0EB02009B12076601385301B2580109E8
:10027E004C01054201B64F01BE4401BE49011E4369
:08028E0001C45501A84601A8B6
:100296004501A847036450010D2D01112E01342B91
:1002A600011523013220034D2A00CD480000012C00
:1002B6003F3F3F00790AA2D5200314300509B91043
:1002C600020404B9080104A2D52006025001042044
:1002D60002689202B509005034C0E07F203003194D
:1002E6007F30A20272067205500F120313C202C2B9
:1002F60006C205C2087F30800F300503E9C0E01250
:100306000061300503D0E0F9D0E0B509CC3005171F
:100316007F30B9100C1200617F583004077F788057
:1003260003B908031200613002057F2D0200617FC8
:10033600202008F87F2B2006F322920280CF286E19
:10034600756C6C2900D20112001E3001F8C20178CA
:100356000930D50108F60200CD2D50434958120048
:100366001E2403B405004001E490035F931200527B
:0D037600743A120052D2037509040201B25C
:100FE000021263E493A3F8E493A34003F68001F2B2
:100FF00008DFF48029E493A3F85407240CC8C33312
:10100000C4540F4420C8834004F456800146F6DFE0
:10101000E4800B0102040810204080900F48E47E19
:10102000019360BCA3FF543F30E509541FFEE493D5
:10103000A360010ECF54C025E060A840B8E493A39C
:10104000FAE493A3F8E493A3C8C582C8CAC583CAC7
:10105000F0A3C8C582C8CAC583CADFE9DEE780BE7F
:010FD300001D
:1007B900F8E0FBA3A3E0F925F0F0E58215827002C9
:0707C9001583E0FA38F0226D
:0907D000EBF0A3EAF0A3E9F0222A
:10128B00EFB40A07740D121296740A309811A899CC
:10129B00B8130CC2983098FDA899C298B811F630C3
:0712AB0099FDC299F599229B
:00000001FF
