:10154100552020202025342E3266005020202020D6
:1015510025342E3266004E202020202025327500B1
:10133400015E00015A00015D00014200043D00000D
:101344000000043800000000023400000A4B31326F
:1013540033343536373800000843000000000000FD
:101364000000013700013600013C00015500014135
:1013740000045600000000042200000000012600C2
:10138400042700000000012B00022C0000042E00A2
:0313940000000056
:1014230012157F1215D37B007A00795F756401E48E
:10143300FD121398E55FD394324003E4F55FE55F53
:1014430075F00AA485F032F5331210291210F51243
:0714530011971212C580F28F
:10102900120DCB8F61E561652670030210F48540CE
:1010390062E56124F6603B24FD604C146079240567
:1010490060030210F1055AE55A75F0038485F05AD8
:10105900E55AB4021BAE32AF337C007D0A12059704
:101069008F607B007A007960756701E4FD12149145
:101079008037E55AB40205E4F536805A053CE53C6B
:10108900C394034063805EE55AB40120743225336A
:10109900F533E43532F532D3E53394F4E53264803F
:1010A90094814005E4F532F533E4802A053CE53CBA
:1010B900C394034033802EE55AB4012074CE2533FE
:1010C900F53374FF3532F532C36480948050067568
:1010D90032017533F4E4F53CF555800C053CE53CEB
:0B10E900C39403400375550185612688
:0110F40022D9
:1010F500AF3BAE3AAD39AC38AB2AAA29A928A82707
:10110500C31206A97003021196853B2A853A2985E3
:101115003928853827E55A70247563FF7564157578
:101125006541AC5BAD5C1202C1E4FBFA79C878425B
:1011350012021F8F698E688D678C668039E55AB4F7
:1011450001257563FF75641575654CAC32AD33ECDF
:101155001202C1E4FBFA79C8784212021F8F698E28
:10116500688D678C66800F7563FF756415756557A7
:101175007566008536677B007A00794B1207CE7558
:1011850063007564007565437B007A00794B120B2B
:01119500E178
:011196002236
:03001B00020F547D
:100F5400C0E0C0F0C083C082C0D075D000C000C063
:0D0F640001C002C003C004C005C006C007E4
:100F7100E5402401F540E4353FF53FE4353EF53EDB
:100F8100E4353DF53DE47B0AFAF9F8AF40AE3FADFB
:100F91003EAC3D120609AC00AD01AE02AF03E4FB6D
:100FA100FAF9F8C31206A97015E53B2401F53BE4F3
:100FB100353AF53AE43539F539E43538F538055D32
:100FC100E55DB46406755D00754201E47BE87A0372
:100FD100F9F8AF40AE3FAD3EAC3D120609AC00ADF5
:100FE10001AE02AF03E4FBFAF9F8C31206A97008D7
:100FF1000535E535700205347B007A007943AD375C
:0D1001001213E50537E537B4080375370015
:10100E00D007D006D005D004D003D002D001D00036
:0B101E00D0D0D082D083D0F0D0E032E0
:10119700E5427003021238E4F542121561AC07E428
:1011A7001202C6E4FBFA79A07840120116E4FBFAB2
:1011B700797F784312021F8F638E628D618C60E4A2
:1011C700FFFE7DC87C42AB63AA62A961A8601201D9
:1011D70016E4FBFAF9783F1200251202FA8E5B8FAC
:1011E7005CD3E52D9533E52C9532400DD3E55C9521
:1011F70033E55B953250020536C3E52D9533E52C73
:1012070095324019E55C9533E55B9532500F754192
:1012170001854059853F58853E57853D56C3E55C56
:101227009533E55B95324003E4F541855B2C855C9E
:011237002D89
:011238002293
:1012C500AF3BAE3AAD39AC38AB31AA30A92FA82E19
:1012D500C31206A96058853B31853A3085392F857B
:1012E500382EE5416027C3E5409559FFE53F955800
:1012F500FEE53E9557FDE53D9556FCE47B887A1362
:10130500F9F8D31206A95005435E018003535EFE2A
:10131500E53630E005435E028003535EFDE555602A
:0E13250005435E048003535EFBAF5E1215E8C5
:011333002297
:1015E800EFF4F580E5A0541F4480F5A053A01F2216
:10157F007580FFE5A0541F4480F5A053A01FE4F52C
:0D158F0080E5A0541F44A0F5A053A01F222A
:1015D300758DFC758B1853890F538EBFC28FD2AB99
:0515E300D2AFD28E2200
:04145A008F828E836C
:10145E00AF00AE00AD00AC008F698E688D678C66F4
:10146E00C3E5009569FFE5009568FEE5009567FD0B
:10147E00E5009566FCAB82AA83E4F9F8D31206A9BF
:02148E0050DE2E
:011490002239
:060BE1008B608A6189624D
:100BE700E4F566F567AB60AA61A9628566827583DD
:100BF700001205361206CA0D92200D822D0DA22E67
:100C07000C44300C55310C66320C77330C88340C9D
:100C170099350CAA360CBB370CCC380CDD390CEEE9
:100C2700410CFF420D10430D21440D32450D424644
:100C37000D724E0D62500D525500000D92AB63AA16
:100C470064A96585678275830074C0020DB9AB63BB
:100C5700AA64A96585678275830074F9020DB9AB2B
:100C670063AA64A96585678275830074A4020DB9B8
:100C7700AB63AA64A96585678275830074B0020DAA
:100C8700B9AB63AA64A96585678275830074990205
:100C97000DB9AB63AA64A9658567827583007492F1
:100CA700020DB9AB63AA64A9658567827583007471
:100CB70082020DB9AB63AA64A96585678275830053
:100CC70074F8020DB9AB63AA64A965856782758359
:100CD700007480020DB9AB63AA64A9658567827544
:100CE70083007490020DB9AB63AA64A96585678216
:100CF7007583007488020DB9AB63AA64A96585671B
:100D0700827583007483020DB9AB63AA64A96585F4
:100D1700678275830074C6020DB9AB63AA64A965BF
:100D270085678275830074A1020DB9AB63AA64A9B4
:100D37006585678275830074868077AB63AA64A92B
:100D470065856782758300748E8067AB63AA64A923
:100D57006585678275830074C18057AB63AA64A9F0
:100D670065856782758300748C8047AB63AA64A925
:100D77006585678275830074AB8037AB63AA64A906
:100D87006585678275830074BF8027AB63AA64A9F2
:100D97006585678275830074FF80171567AB63E508
:100DA700652567F9E43564FA12051D547F1205635A
:100DB700800312057505660567E567C39408500348
:030DC700020BEC30
:010DCA002206
:1013E5007580FFE5A0541F44E0F5A053A01F7401CC
:1013F500A805088002C333D8FCF580E5A0541F4436
:10140500C0F5A053A01FAF058F8275830012053666
:0E141500F580E5A0541F44E0F5A053A01F226F
:100DCB00E4F565C2C4D2C2D2B5D2B4E5B0540F7546
:100DDB006300F564D2C4C2C2C4F8540FC868FFE5FF
:100DEB0063C454F048FEE5B0540FFDEEF563EF4DD0
:100DFB00F564D2C2C2B5C4F8540FC868FFE563C42A
:100E0B0054F048FEE5B0540FFDEEF563EF4DF5647D
:100E1B00D2B5C2B4C4F8540FC868FFE563C454F02C
:100E2B0048FEE5B0540FFDEEF563EF4DF564B4FFEE
:100E3B0008E563B4FF037F00227F0A7E0012145A79
:100E4B00C2C4D2C2D2B5D2B4E5B0540F7E00D2C464
:100E5B00C2C2C4F8540FC868FFEEC454F048FEE594
:100E6B00B0540FFDEF4DD2C2C2B5C4F8540FC868D1
:100E7B00FFEEC454F048FEE5B0540FFDEF4DD2B574
:100E8B00C2B4C4F8540FC868FFEEC454F048FEE572
:100E9B00B0540FFDEF4DFF65647003E5636E6003A7
:100EAB007F0022EFF4FFEEF4FEEF8EF01206F00F50
:100EBB004900010F4400020F3F00040F3A00080FD6
:100ECB003500100F3000200F2B00400F2600800F35
:100EDB002101000F1C02000F1704000F1208000F56
:100EEB000D10000F0820000F0340000EFE800000C5
:100EFB00000F4E756501804E75650280497565035F
:100F0B008044756504803F756505803A756506807C
:100F1B00357565078030756508802B7565098026EA
:100F2B0075650A802175650B801C75650C801775BE
:100F3B00650D801275650E800D75650F80087565E2
:080F4B00108003E4F565AF65B9
:010F5300227B
:0415B900D2A07F0538
:1015BD00000000000000000000000000000000AE70
:0615CD00071FEE70EB2287
:0F160800D2A11215B9C2A17F051215BDC2A02231
:0C161700C2A11215B9D2A17F050215BDB9
:0714C500AB051216087FA021
:0214CC00AD076A
:1014CE00E4FCC2A07F051215BDED30E704D2A18069
:1014DE0002C2A17F051215BDD2A0ED25E0FD7F054C
:0914EE001215BD0CBC08DBC2A004
:0114F70022D2
:10159C00E4FC1215B9ED25E0FD30A103430501C2B1
:0C15AC00A07F051215BD0CBC08E8AF05BF
:0115B8002210
:10151F001216087F901214CC12152F7F431214CC81
:10152F001215B9A2A1E433FDC2A07F051215BDAFFC
:01153F0005A6
:011540002288
:10000300C2A0EF24FF92A17F051215BD1215B9C23C
:08001300A0D2A17F050215BD7A
:101491008B638A6489651214C512152FAF038019F5
:1014A100AF671567EF601AAB630565E565AA647000
:1014B10002056414F912051DFF1214CC12152F80B8
:0414C100DF02161719
:101398008B608A6189621214C512152FAF0312146B
:1013A800CC12152F1216087FA11214CC12152FAFCC
:1013B800641564EF602412159CAB600562E562AAAF
:1013C800617002056114F9EF120563E5646004E4D5
:0D13D800FF80027F0112000380D50216176E
:1015610012151F1216087F911214CC12152F121585
:0D1571009CAD077F01120003121617AF0595
:01157E00224A
:1015F800AB0712151FAF031214CC12152F021617C2
:10001E00020366E86480F8E933E83360110460F0A7
:10002E00ED33EC337009E8FCE9FDEAFEEBFF220448
:10003E0060DED3EB9FEA9EE99DE8C2E78CF0C2F743
:10004E0095F0400CE8CCF8E9CDF9EACEFAEBCFFB0F
:10005E0012033185D0F05804700320D5B3E8047034
:10006E00075002B2D502037092D5EC0460F7E4CCCF
:10007E00C0E0C398F8603B94186008400DD0E0FBD8
:10008E00020348E4FBFAC9FC8028E830E406E4C920
:10009E00FBE4CAFCE830E305E4C9CACBFCE854072C
:1000AE006010F8C3E913F9EA13FAEB13FBEC13FC37
:1000BE00D8F130F52FC3E49CFCEF9BFFEE9AFEEDDA
:1000CE0099FDD0E0FBEF4E4D4C701222DB03020384
:1000DE006DEC2CFCEF33FFEE33FEED33FDED30E730
:1000EE00EB020348EF2BFFEE3AFEED39FDD0E0FBBD
:1000FE0050130BBB0003020370ED13FDEE13FEEF66
:08010E0013FFEC13FC0203488F
:10011600EC4D6011E8497017ED33EC3304600DE4E3
:10012600FCFFFEFD22E933E8330470F80203661291
:10013600033158046009E4CC248150062850090292
:10014600037028400302036DC0E0EB4A7044B98097
:1001560006D0E0FB02035CEF4E701CBD8008EBFF8F
:10016600EAFEE9FD80EBE98DF0A4FEE5F00201FF71
:10017600E9CDF9EAFEEBFFEF89F0A4FCE5F0CE89C4
:10018600F0A42EFFE435F0CD89F0A42DFEE435F081
:100196008067EF4E7005BD80D780C3EF8BF0A4ACAF
:1001A600F0EE8BF0A42CFCE435F0F8EF8AF0A42CEA
:1001B600E5F038FCE433CB8DF0A42CFCE5F03BF8FD
:1001C600EE8AF0A42CFCE5F038F8E433CF89F0A4ED
:1001D6002CFCE5F038CF3400CE89F0A42FFFE5F0F3
:1001E6003EFEE433C98DF0A42EFEE5F039CD8AF04B
:1001F600A42FFFE5F03EFEE43DFD33D0E0FB5007C3
:100206000BBB000F020370EC2CFCEF33FFEE33FE4A
:06021600ED33FD02034878
:10021C00020370EC5D046005E85904700302036688
:10022C00120331580460F6EC4860F2EC7004FDFEE9
:10023C00FF22C860DB2481C85009C39860025006B5
:10024C0002036D9850CAF582E9294B4A7005AB82BE
:10025C0002035C75F0007C1A7880C3EF9BEE9AED7C
:10026C0099400DC3EF9BFFEE9AFEED99FDE842F02D
:10027C00DC23ACF0D0E0FFD0E0FED0E0FDAB822080
:10028C00E7101BEB60BAEC2CFCEF33FFEE33FEED0A
:10029C0033FD020348E803F830E705C0F075F000C1
:1002AC00EF2FFFEE33FEED33FD40B830E7C280AAEE
:1002BC0075F020800E75F010800575F0087D007EBD
:1002CC00007F003392D530D50312069BEC334010DF
:1002DC00EF33FFEE33FEED33FDEC33FCD5F0ED22C6
:0E02EC00E5F0247EA2D513CC92E7CDCEFF2202
:1002FA00EDD2E7CD33EC3392D524814006E4FFFEFC
:10030A00FDFC22FCE4CFCECDCC24E0501174FF805A
:10031A00EDC3CC13CCCD13CDCE13CECF13CF0470F7
:07032A00F030D5DE02069B56
:10077200E5772463F8E6057722786030070278632C
:10078200E475F0011206BA02051D2000EB7F2ED29D
:10079200008018EF540F2490D43440D4FF30040B5F
:1007A200EF24BFB41A0050032461FFE578600215FC
:1007B20078057BE57B7002057A30070D7860E47579
:1007C200F0011206BAEF0205630214F87403D207AD
:1007D2008003E4C207F5778B608A618962E4F57869
:1007E200F57AF57BE57860077F201207AD80F57515
:1007F20079FFC201C200C202C203C205C206C20818
:1008020012077BFF700D3007057F001207BEAF7B1A
:10081200AE7A22B4255FC2D5C20412077BFF24D070
:10082200B40A00501A75F00A787830D50508B6FF78
:100832000106C6A426F620D5047002D20380D9246C
:10084200CFB41A00EF5004C2E5D204020AABD201BF
:1008520080C6D20080C0D20280BCD2D580BAD20576
:1008620080B47F201207AD2002077401B5780040E2
:10087200F1120772FF1207AD0207E6D208D2068014
:1008820095120772FB120772FA120772F94A4B703D
:100892000679A27A0B7BFF20022EE578602A7E0081
:1008A2008E8275830012053660060EEE657970F051
:1008B200C2D5EBC0E0EAC0E0E9C0E0EE120B0BD01B
:1008C200E0F9D0E0FAD0E0FB12051DFF60AAEBC010
:1008D200E0EAC0E0E9C0E01207ADD0E02401F9D0BF
:1008E200E03400FAD0E0FBE5790460DCD579D98008
:1008F20087D20280A2120AEE60F7E5797001041233
:10090200037BA979600DE579600914F579120B95DD
:10091200EF60F3EA30E702F404C3995077EAF42572
:10092200790430E701E404F579800D120AEE60C122
:10093200EA0579257912037BEA7876F630E701E455
:10094200257904D5790420050114120B0BE4C0E0CB
:10095200120B957876E6601320E70714F6120795D6
:10096200802204F6D0E014C0E07F00120795E579FA
:10097200600712078C1579800B30050312078CD0A3
:10098200E00207E6D0E00480C5120AEE60A0E57935
:100992000412037B7876EAF6E57920050260010409
:0509A2002404120B0B00
:1009A70074FF04C0E0120B95120795E57920050244
:1009B700600312078CD0E0B579E87F4512079F786E
:1009C70076E67F2B30E7047F2DF404C0E01207ADF5
:1009D700D0E075F00A84C0F0120796D0E0120796AF
:1009E7000207E6791080027908C206C2088008D299
:1009F700D5790A8004790AC2D5E579047002F579B8
:100A0700E4FAFDFEFF120772FC7B082001131207B0
:100A170072FD7B1030000A120772FE120772FF7B0D
:100A270020EC3382D592D55013C3E43000069FFFE4
:100A3700E49EFEE42001039DFDE49CFCE4CBF8C2A8
:100A470001EC700CCFCECDCCE824F8F870F380170A
:100A5700C3EF33FFEE33FEED33FDEC33FCEB33FB3B
:100A6700994002FB0FD8E9EB300105F8D0E0C44804
:100A7700B201C0E00AEC4D4E4F78207B0070C2EA0D
:100A8700B5790040BCC0E0120B0DD0F0D0E02001DA
:100A970004C4C0E0C4B201C0F0120796D0F0D5F08C
:100AA700EB0207E61206CA08835309EA5808544CB2
:100AB70008504209EE4F09F64409F6490869430907
:100AC700FC55092D46098B4508F7470BC2500858B6
:100AD7002D085C2E087F2B086023087D200BAB2A8E
:100AE70008184800000877E579B4FF0375790612FE
:100AF7000772FC120772FD120772FE120772FF7867
:100B07006F0203AA790AA2D5200314300509B91088
:100B1700020404B9080104A2D520060250010420EA
:100B270002689202B578005034C0E07F2030031984
:100B37007F30A20272067205500F120B64C202C206
:100B470006C205C2087F30800F300503E9C0E012F6
:100B570007AD300503D0E0F9D0E0B578CC30051704
:100B67007F30B9100C1207AD7F583004077F7880AB
:100B770003B908031207AD3002057F2D0207AD7FC9
:100B8700202008F87F2B2006F322920280CF7F00D7
:100B9700B407005005246FF8E6FF22286E756C6CC9
:100BA7002900D2011207723001F8C201787830D5D6
:100BB7000108F60208182D504349581207722403FA
:100BC700B405004001E4900BBD9312079E743A12DE
:0A0BD700079ED2037578040209EAB4
:10033100E9D2E7C933E833F892D5EDD2E7CD33EC12
:0703410033FC5002B2D5228B
:10034800EC30E7100FBF000C0EBE00080DBD000416
:100358000BEB6014A2D5EB13FCED92E7FD2274FFC2
:10036800FCFDFEFF22E480F8A2D574FF13FC7D801B
:03037800E480EF2F
:10037B00F920E72824F950037907E4F42402FB1849
:10038B00DBFDE624FB5014E9600DE4F618E604F6F9
:0F039B00B40A08E4F6D9F57401F60A22C2D52295
:1003AA00ED33EC3392D5FA602AB4FF33EDC2E77B22
:1003BA00FF60067A0379CFE4227A0379D820D5043C
:1003CA007A0379D3224E614E002B494E46002D49BD
:1003DA004E4600E47A08F608DAFC7B00740722E845
:1003EA00C0E0ECC0E0EDC0E0EEC0E0EFC0E0EA75CE
:1003FA00F010A4CAABF075F04DA42BFBE435F0FC69
:10040A00EA2410FAEB34C5FBEC34D9FCEDC2E7FF61
:10041A0075F056A4F42411C5F0F434C58FF0A42A5B
:10042A00E5F03BE43CF620E7141204DDD0E0FFD00F
:10043A00E0FED0E0FDD0E0FC12021F8014F40412AA
:10044A0004DDD0E0FFD0E0FED0E0FDD0E0FC1201F8
:10045A0016D0E0F8E6FAEDD2E7CD33EC332482FB8E
:10046A00E4C3CF33CFCE33CECD33CD33DBF37B07EB
:10047A0075F00A846004F6081B0AE5F0F6088FF0A6
:10048A00740AA4FFACF08EF0740AA42CFEACF050EF
:10049A00010C8DF0740AA42CFDE435F0F608DBDEBD
:0304AA00740722B2
:1004AD003F8000004120000042C80000447A000057
:1004BD00461C400047C35000497424004B189680D9
:1004CD004CBEBC205A0E1BCA6753C21C749DC5AED0
:1004DD00FB60065407601C232312050BEB54386098
:1004ED00091204F7120506120116ECF8EDF9EEFAF1
:1004FD00EFCB22EB12050680F1543803241C900437
:10050D00ADFE93FC0EEE93FD0EEE930ECE93FF22F9
:03000000021239B0
:0C123900787FE4F6D8FD75817B021280FE
:10051D00BB010689828A83E0225002E722BBFE02DC
:09052D00E32289828A83E493220F
:10053600BB010CE58229F582E5833AF583E022507A
:1005460006E92582F8E622BBFE06E92582F8E222C4
:0D055600E58229F582E5833AF583E49322DE
:10056300BB010689828A83F0225002F722BBFE0177
:02057300F32271
:10057500F8BB010DE58229F582E5833AF583E8F0BC
:10058500225006E92582C8F622BBFE05E92582C868
:02059500F22250
:10059700C2D5EC30E709B2D5E4C39DFDE49CFCEE7F
:1005A70030E715B2D5E4C39FFFE49EFE12071DC3D3
:1005B700E49DFDE49CFC800312071D30D507C3E4CE
:0605C7009FFFE49EFE22EE
:1005CD0075F008758200EF2FFFEE33FECD33CDCCE5
:1005DD0033CCC58233C5829BED9AEC99E582984068
:1005ED000CF582EE9BFEED9AFDEC99FC0FD5F0D645
:1005FD00E4CEFBE4CDFAE4CCF9A88222B800C1B96F
:10060D000059BA002DEC8BF084CFCECDFCE5F0CBAC
:10061D00F97818EF2FFFEE33FEED33FDEC33FCEBE5
:10062D0033FB10D703994004EB99FB0FD8E5E4F9A0
:10063D00FA227818EF2FFFEE33FEED33FDEC33FC8D
:10064D00C933C910D7059BE99A4007EC9BFCE99A81
:10065D00F90FD8E0E4C9FAE4CCFB2275F010EF2FC6
:10066D00FFEE33FEED33FDCC33CCC833C810D707C6
:10067D009BEC9AE899400AED9BFDEC9AFCE899F801
:0E068D000FD5F0DAE4CDFBE4CCFAE4C8F92294
:0E069B00C3E49FFFE49EFEE49DFDE49CFC2270
:1006A900EB9FF5F0EA9E42F0E99D42F0E89C45F0A7
:0106B900221E
:1006BA00FAE6FB0808E6F925F0F618E6CA3AF62241
:1006CA00D083D082F8E4937012740193700DA3A3BF
:1006DA0093F8740193F5828883E4737402936860D3
:0606EA00EFA3A3A380DFD3
:1006F000D083D082F8E4937012740193700DA3A399
:1007000093F8740193F5828883E473740293B5F0CF
:0D071000067403936860E9A3A3A3A380D837
:1014F800EFB40A07740D121503740A309811A899ED
:10150800B8130CC2983098FDA899C298B811F63053
:0715180099FDC299F599222B
:10124500021423E493A3F8E493A34003F68001F288
:1012550008DFF48029E493A3F85407240CC8C333AA
:10126500C4540F4420C8834004F456800146F6DF79
:10127500E4800B0102040810204080901334E47EC2
:10128500019360BCA3FF543F30E509541FFEE4936E
:10129500A360010ECF54C025E060A840B8E493A335
:1012A500FAE493A3F8E493A3C8C582C8CAC583CA60
:1012B500F0A3C8C582C8CAC583CADFE9DEE780BE18
:011397000055
:10071D00BC000BBE0029EF8DF084FFADF022E4CCC0
:10072D00F875F008EF2FFFEE33FEEC33FCEE9DEC89
:10073D00984005FCEE9DFE0FD5F0E9E4CEFD22EDCF
:10074D00F8F5F0EE8420D21CFEADF075F008EF2F19
:10075D00FFED33FD4007985006D5F0F222C398FD0A
:05076D000FD5F0EA22A7
:00000001FF
