:102097007580FFE5A0541F4480F5A053A01FE4F509
:0D20A70080E5A0541F44A0F5A053A01F2207
:10216400EFF4F580E5A0541F4480F5A053A01F228E
:1020FF0053890F538EBF758DFC758B18C28FD2AF5E
:05210F00D2ABD28E22CC
:10217400438904538E7FE4F58CF58AC28DD28C2278
:1020E800759850438E01438E0475D7C775D6FE4345
:0720F8008E10D2ACD2AF2222
:0B1FA800900071EBF0A3EAF0A3E9F059
:101FB300E4FF900071E0FBA3E0FAA3E0F98F8275E0
:101FC3008300120655600AF5993099FD0FC2998076
:011FD300E12C
:011FD40022EA
:051ECE00900056EFF04A
:101ED300900029E0FCA3E0FDA3E0FEA3E0FF900057
:101EE30057120761900057E0F8A3E0F9A3E0FAA3C3
:101EF300E0FB900029E0FCA3E0FDA3E0FEA3E0C328
:101F03009BFBEE9AFAED99F9EC98F8900056E0FFF6
:0A1F1300E4FCFDFEC31206F540CA0F
:011F1D0022A1
:0B102600900053EBF0A3EAF0A3E9F008
:10103100E490005AF0900059F090005AE0FFC394F8
:1010410008400302123B900053E0FBA3E0FAA3E047
:10105100F9900059E0F5827583001206551207DEFA
:1010610011D12D11E92E10923010A73110C032107C
:10107100D93310F234110B35112436113D37115685
:1010810038116F3911A14511884C11B95000001266
:1010910015900056E0FBA3E0FAA3E0F98F82758377
:1010A1000074C002122B900056E0FBA3E0FAA3E00B
:1010B100F990005AE0F58275830074F902122B90C1
:1010C1000056E0FBA3E0FAA3E0F990005AE0F582B4
:1010D10075830074A402122B900056E0FBA3E0FA82
:1010E100A3E0F990005AE0F58275830074B0021212
:1010F1002B900056E0FBA3E0FAA3E0F990005AE040
:10110100F582758300749902122B900056E0FBA3BF
:10111100E0FAA3E0F990005AE0F582758300749239
:1011210002122B900056E0FBA3E0FAA3E0F9900035
:101131005AE0F582758300748202122B900056E00A
:10114100FBA3E0FAA3E0F990005AE0F58275830071
:1011510074F802122B900056E0FBA3E0FAA3E0F929
:1011610090005AE0F582758300748002122B900082
:1011710056E0FBA3E0FAA3E0F990005AE0F582758E
:101181008300749002122B900056E0FBA3E0FAA3B7
:10119100E0F990005AE0F58275830074C702122BC2
:1011A100900056E0FBA3E0FAA3E0F990005AE0F5C5
:1011B1008275830074868072900056E0FBA3E0FA8A
:1011C100A3E0F990005AE0F582758300748C805A8F
:1011D100900056E0FBA3E0FAA3E0F990005AE0F595
:1011E1008275830074BF804290005AE0D39400401E
:1011F10003E014F0900056E0FBA3E0FAA3E0F990BD
:10120100005AE0FFE92FF9E43AFA12063C547F1242
:1012110006828019900056E0FBA3E0FAA3E0F99062
:10122100005AE0F58275830074FF1206949000590C
:0A123100E004F0A3E004F002103A1C
:01123B002290
:101F6A007580FFE5A0541F44E0F5A053A01F74013B
:101F7A00A805088002C333D8FCF580E5A0541F44A5
:101F8A00C0F5A053A01FAF058F82758300120655B6
:0E1F9A00F580E5A0541F44E0F5A053A01F22DF
:10159100E4900053F0A3F0FDFCA3F0C2C4D2C2D288
:1015A100B5E5B0540FFF900053E4F0A3EFF0D2C4BF
:1015B100C2C2D2B5E0C4F8540FC868FF900053E02E
:1015C100C454F048FEE5B0540FFBEF4BFFEEF0A31F
:1015D100EFF0D2C4D2C2C2B5E0C4F8540FC868FF5C
:1015E100900053E0C454F048FEE5B0540FFBEF4BBC
:1015F100FFEEF0A3EFF0900053E0B40F08A3E0B4C6
:10160100FF037F00227F0A121ECEC2C4D2C2D2B50E
:10161100E5B0540F7C00D2C4C2C2D2B5C4F8540F95
:10162100C868FFECC454F048FEE5B0540FFDEEFC71
:10163100EF4DD2C4D2C2C2B5C4F8540FC868FFEC92
:10164100C454F048FEE5B0540FFDEEFCEF4DFD90A3
:101651000053E06C7003A3E06D705DEDF4FFECF4FA
:10166100FEEF8EF012080416ACF00416A4F0081672
:101671009CF0401694F080168CF4001684F800005B
:101681000016B49000557404F0802D900055740537
:10169100F080259000557408F0801D900055740964
:1016A100F08015900055740CF0800D900055740D6C
:0D16B100F08005E4900055F0900055E0FF3A
:0116BE002209
:1020B400E4F580EF600543801080035380EFE5A0D2
:0A20C400541F44A0F5A053A01F22F2
:0420CE00D2A07F0A13
:1020D200000000000000000000000000000000AE50
:0620E200071FEE70EB2267
:0F218400D2A11220CEC2A17F0A1220D2C2A02265
:0C219300C2A11220CED2A17F0A0220D2ED
:021FD500AD0756
:101FD700E4FCC2A07F0A1220D2ED30E704D2A18030
:101FE70002C2A17F0A1220D2D2A0ED25E0FD7F0A0E
:0A1FF7001220D20CECB408DAC2A0EC
:0120010022BC
:10207900E4FC1220CEED25E0FD30A1034401FDC2B0
:0D208900A07F0A1220D20CECB408E7AF05CE
:012096002227
:03211400121FD5C2
:102117001220CEA2A1E433FDC2A07F0A1220D2AFC3
:0121270005B2
:012128002294
:10000300C2A0EF24FF92A17F0A1220D21220CEC2F7
:08001300A0D2A17F0A0220D255
:10200200E4FD1221847F901221147F011221141207
:1020120021847F91121FD5122117122079AD077FDB
:0920220001120003122193AF0525
:01202B002292
:101E21004C2533752D253375004532602D2D2D2D13
:101E31002D0045316025362E31660045336025354C
:101E41007500506025322E316660253364002825E7
:101E5100752C257529005355434345004572726F12
:101E6100720049646C650042757379005761697449
:0B1E7100000000000000000000000066
:101BC600440029000000004A004132313300000081
:101BD600000000004800370000000000000000413F
:101BE600004D0041004C004100230041002400410B
:101BF60000520041003F004A0015000000000000AE
:101C0600000000004100200041001F004400310098
:101C160000000044002D0000000041004F0041007C
:101C2600400041004E0041004B0A41003600420090
:101C3600500000420021000041003500410028010B
:101C4600420025000041002700410001004100023A
:101C56000042000300004400050000000044000D9F
:0B1C660000000000440011000000001E
:102053001220971220FF1221741220E81213F41297
:102063001E7C122151121DAA1216BF12123C121904
:062073000F1217EC80E6DD
:1017EC00900023E014605B1470030218B9240260AB
:1017FC00030218F890004EE0900074701F74FFF014
:10180C00A3741EF0A37421F0900031E0FFA3E090CC
:10181C000077CFF0A3EFF0900033801D74FFF0A39E
:10182C00741EF0A37421F090002DE0FFA3E0900053
:10183C0077CFF0A3EFF090002FE0FFA3E0900079BA
:10184C00806490004EE0146019146042240260031E
:10185C000218F890007474FFF0A3741EF0A3742A9D
:10186C00804890007474FFF0A3741EF0A37433F0DE
:10187C00900050E0FCA3E0FDE41202C9E4FBFA790D
:10188C002078411202279000771207618055900052
:10189C007474FFF0A3741EF0A3743CF0900021E06C
:1018AC00FFA3E0900077CFF0A3EFF08036900074A8
:1018BC0074FFF0A3741EF0A37443F090004BE0FC93
:1018CC00E41202CEE4FBFA79207841120227900050
:1018DC0077120761900036E0FE3395E090007BF0C4
:1018EC00A3CEF07B017A0079411208AE90005674B9
:1018FC0001F0A37400F0A37437F07B017A007941F6
:03190C00021026A0
:1016BF00121591900000E06F70030217EBEF24FBFF
:1016CF00605024FD606214607924FD700302176D71
:1016DF001470030217A7240960030217E690001F76
:1016EF00E0600690004EE0600D90004FE0701290A9
:1016FF00004EE0B4020B90004E7401F0E490001F16
:10170F00F090004EE0640160030217E67402F002ED
:10171F0017E690004EE060030217E6900031F0A349
:10172F00F0A3F0A3F00217E6900023E0B40103E466
:10173F00A3F0900023E004F075F00384E5F0F002CD
:10174F0017E6900023E0640260030217E6A3E0703F
:10175F00047E0180027E00900024EEF080799000DC
:10176F0023E064027071A3E0601B900036E0FED3AB
:10177F00648094D540047E5A8004EE2405FE9000C8
:10178F0036EEF0805290004BE0FED3941340047E6F
:10179F0014803FEE04FE803A900023E0640270371D
:1017AF00A3E0601D900036E0FEC36480942B5004CC
:1017BF007DA68006EEFDED24FBFD900036EDF0805A
:1017CF001690004BE0FEC3940B50047E0A8003EE8C
:0C17DF0014FE90004BEEF0900000EFF0C4
:0117EB0022DB
:10215100E490004EE0B401047E0180027E00AF06EF
:032161000220B4A5
:10190F00E4900053F0900005E0F8A3E0F9A3E0FAAB
:10191F00A3E0FB900029E0FCA3E0FDA3E0FEA3E021
:10192F00C39BFFEE9AFEED99FDEC98FCE47B64FA05
:10193F00F9F8C31206F55039900029E0FCA3E0FD39
:10194F00A3E0FEA3E0FF900005120761900002E004
:10195F0070047F0180027F00900002EFF090002062
:10196F00E0600E900004E004F07006900003E004C5
:10197F00F090004EE01460101460262402703C902A
:10198F000053E054FEF08030900053E04401F0909B
:10199F000028E09000536003E0801DE04402F080D7
:1019AF001A900002E09000536006E04401F08004BA
:1019BF00E054FEF0900053E054FDF0900020E06002
:1019CF0020C3900004E0942C900003E094014008A1
:1019DF00E4F0A3F0900020F0900053E04404F08076
:1019EF0007900053E054FBF0900001E0FF9000538C
:0D19FF00E06F6009E0FF900001F01221642C
:011A0C0022B7
:101DAA007F04E4FDFC900027E0606BE4F075F9F431
:101DBA0075E9FFC2DFD2DEAE071FEE601230DFFD2B
:101DCA00C2DF75F9F475E9FFA290B3929080E8C278
:101DDA00DEE4F5F9F5E9C2DFD2DE20DF032091FA6D
:101DEA00C2DE30DF0DC2DF9000217404F0A3745A02
:101DFA00F022AFF9EFADE9FCEDAE04FFE41202C93F
:101E0A007B967A43798B783C12011E12030290006A
:061E1A0021EEF0A3EFF041
:011E2000229F
:10123C0090002DE0FEA3E0FF900031E0FCA3E0FD68
:10124C006F7002EC6E70030212ED90002FE0FEA3A3
:10125C00E0FF900033E06E7003A3E06F70030212A6
:10126C00EDC390002EE09DFF90002DE09CFE12211E
:10127C009F900053EEF0A3EFF0900033E0FEA3E05C
:10128C00FFC3900030E09FFF90002FE09EFE1221E4
:10129C009FAD07AC061206B6AC06AD07E41202C948
:1012AC00C004C005C006C007900053E0FCA3E0FDDD
:1012BC00FFAE041206B6AC06AD07E41202C9D003A9
:1012CC00D002D001D00012002D121C76E4FBFA796A
:1012DC0020784112011E120302900009EEF0A3EFD8
:1012EC00F0900021E0FEA3E0FFD3941EEE9400509A
:1012FC001090004EE0B40109A37401F090004E046C
:10130C00F0D3EF941EEE9400400A90004EE0B4022D
:10131C0003E4A3F090004EE0640160030213F39029
:10132C00004BE0FCE41202CE7BC37AF5794878409E
:10133C0012011EC004C005C006C007900025E0FCC9
:10134C00A3E0FDE41202C9D003D002D001D00012F8
:10135C00011EE4FBFA79C87842120227C004C005CA
:10136C00C006C007900036E0FC1202CEE4FBFA790E
:10137C0020784112011ED003D002D001D0001200FF
:10138C002D120302900050EEF0A3EFF0900040E01D
:10139C006055E4F090000BE0FEA3E0FFD390000A50
:1013AC00E09F900009E09E4015900050E0FEA3E005
:1013BC00FF90000CE02FF090000BE03EF02290002C
:1013CC002DE0FFA3E0900031CFF0A3EFF090002FC1
:1013DC00E0FFA3E0900033CFF0A3EFF09000207477
:0713EC0001F0E490004EF057
:0113F30022D7
:101E7C00E4FF900035E06049E4F0122002AC07E486
:101E8C001202CEE4FBFA79A0784012011EE4FBFAB0
:101E9C00797F78431202277BCD7ACC794C783D122E
:101EAC00002DE4FBFA7920784112011E120302EF97
:101EBC00C3940C40079000287401F022E490002891
:011ECC00F025
:011ECD0022F2
:1013F400E4900053F078547C007D017BFF7A1E79E1
:1014040063FE7F0F12061678637C007D017BFF7AF2
:101414001E79727E007F0A120616E490006DF0A316
:10142400F0A3F0A3F0900052E0700302157F900047
:1014340029A3A3A3E05401FFE4FEFDFCFBFAF9F8A1
:10144400C31206F5600302157F900052F090003F2E
:10145400E0640160030214E3900015E0643F703619
:1014640090004EE075F005A42454F9740035F0FAA8
:101474000B121FA890007474FFF0A3741EF0A374E1
:101484004FF090002DE0FFA3E0900077CFF0A3EFA2
:10149400F090002F802B900015E064236003021568
:1014A4007F90007474FFF0A3741EF0A3744FF09047
:1014B4000031E0FFA3E0900077CFF0A3EFF09000BD
:1014C40033E0FFA3E0900079CFF0A3EFF07B017A43
:1014D4000079631208AE7B017A00796302157C906F
:1014E400007474FFF0A3741EF0A3744FF090006DA9
:1014F400E0FFA3E0900077CFF0A3EFF090006FE05F
:10150400FFA3E0900079CFF0A3EFF07B017A00799C
:1015140015120D55900053EFF06402705590006D54
:10152400E0FEA3E0FFC3EE94004047EF94E8EE949E
:1015340003503FA3E0FEA3E0FFC3EE94004033EF6B
:1015440094E8EE9403502B90006DE0FFA3E090002C
:101554002DCFF0A3EFF090006FA3E0FF90002FEEEB
:10156400F0A3EFF090001F7401F07BFF7A1E79570F
:1015740080067BFF7A1E795D121FA8E490003FF07D
:0C158400E02415F582E43400F583E4F067
:011590002238
:03002300021F1E9B
:101F1E00C0E0C083C082C0D075D000C007309831F9
:101F2E00C2989000527401F090003FE0C3940950A3
:101F3E0020E0FF04F074152FF582E43400F583E5FC
:101F4E0099F090003FE02415F582E43400F583E427
:0C1F5E00F0D007D0D0D082D083D0E03289
:03001B00021AF3D3
:101AF300C0E0C0F0C083C082C0D075D000C000C0B9
:0D1B030001C002C003C004C005C006C00739
:101B1000900029E0FCA3E0FDA3E0FEA3E02401FF88
:101B2000E43EFEE43DFDE43CFC9000291207619098
:101B3000000D12072CE47B64FAF9F8C31206F57065
:101B40001890000D12076D0000000090002774012E
:101B5000F0900035F0900040F090001112072CE456
:101B60007BE87A03F9F8C31206F570289000111289
:101B7000076D00000000AF8CEFFEAD8A7C00E42D05
:101B8000FFEC3E900025F0A3EFF0C28C758C007541
:101B90008A00D28C7B017A00793790004DE0FD12EB
:0B1BA0001F6A90004DE004F05407F0B5
:101BAB00D007D006D005D004D003D002D001D0008E
:0B1BBB00D0D0D082D083D0F0D0E03238
:1000260002036EE86480F8E933E83360110460F097
:10003600ED33EC337009E8FCE9FDEAFEEBFF220440
:1000460060DED3EB9FEA9EE99DE8C2E78CF0C2F73B
:1000560095F0400CE8CCF8E9CDF9EACEFAEBCFFB07
:1000660012033985D0F05804700320D5B3E8047024
:10007600075002B2D502037892D5EC0460F7E4CCBF
:10008600C0E0C398F8603B94186008400DD0E0FBD0
:10009600020350E4FBFAC9FC8028E830E406E4C910
:1000A600FBE4CAFCE830E305E4C9CACBFCE8540724
:1000B6006010F8C3E913F9EA13FAEB13FBEC13FC2F
:1000C600D8F130F52FC3E49CFCEF9BFFEE9AFEEDD2
:1000D60099FDD0E0FBEF4E4D4C701222DB0302037C
:1000E60075EC2CFCEF33FFEE33FEED33FDED30E720
:1000F600EB020350EF2BFFEE3AFEED39FDD0E0FBAD
:1001060050130BBB0003020378ED13FDEE13FEEF55
:0801160013FFEC13FC0203507F
:10011E00EC4D6011E8497017ED33EC3304600DE4DB
:10012E00FCFFFEFD22E933E8330470F802036E1281
:10013E00033958046009E4CC248150062850090282
:10014E000378284003020375C0E0EB4A7044B9807F
:10015E0006D0E0FB020364EF4E701CBD8008EBFF7F
:10016E00EAFEE9FD80EBE98DF0A4FEE5F002020760
:10017E00E9CDF9EAFEEBFFEF89F0A4FCE5F0CE89BC
:10018E00F0A42EFFE435F0CD89F0A42DFEE435F079
:10019E008067EF4E7005BD80D780C3EF8BF0A4ACA7
:1001AE00F0EE8BF0A42CFCE435F0F8EF8AF0A42CE2
:1001BE00E5F038FCE433CB8DF0A42CFCE5F03BF8F5
:1001CE00EE8AF0A42CFCE5F038F8E433CF89F0A4E5
:1001DE002CFCE5F038CF3400CE89F0A42FFFE5F0EB
:1001EE003EFEE433C98DF0A42EFEE5F039CD8AF043
:1001FE00A42FFFE5F03EFEE43DFD33D0E0FB5007BB
:10020E000BBB000F020378EC2CFCEF33FFEE33FE3A
:06021E00ED33FD02035068
:10022400020378EC5D046005E85904700302036E70
:10023400120339580460F6EC4860F2EC7004FDFED9
:10024400FF22C860DB2481C85009C39860025006AD
:100254000203759850CAF582E9294B4A7005AB82AE
:1002640002036475F0007C1A7880C3EF9BEE9AED6C
:1002740099400DC3EF9BFFEE9AFEED99FDE842F025
:10028400DC23ACF0D0E0FFD0E0FED0E0FDAB822078
:10029400E7101BEB60BAEC2CFCEF33FFEE33FEED02
:1002A40033FD020350E803F830E705C0F075F000B1
:1002B400EF2FFFEE33FEED33FD40B830E7C280AAE6
:1002C40075F020800E75F010800575F0087D007EB5
:1002D400007F003392D530D5031206E7EC3340108B
:1002E400EF33FFEE33FEED33FDEC33FCD5F0ED22BE
:0E02F400E5F0247EA2D513CC92E7CDCEFF22FA
:10030200EDD2E7CD33EC3392D524814006E4FFFEF3
:10031200FDFC22FCE4CFCECDCC24E0501174FF8052
:10032200EDC3CC13CCCD13CDCE13CECF13CF0470EF
:07033200F030D5DE0206E702
:10084900E5082474F582E43400F583E00508229074
:100859000071300703900074E475F0011207A702D4
:10086900063C2000E97F2ED2008018EF540F249017
:10087900D43440D4FF30040BEF24BFB41A00500322
:100889002461FFE50960021509050CE50C700205F4
:100899000B30070E900071E475F0011207A7EF0203
:1008A900068202202C7403D2078003E4C207F508EC
:1008B9009000711207D5E4F509F50BF50CE509600F
:1008C900077F2012088C80F5750AFFC201C200C299
:1008D90002C203C205C206C208120858FF700D30D1
:1008E90007057F0012089DAF0CAE0B22B4255FC22D
:1008F900D5C204120858FF24D0B40A00501A75F062
:100909000A780930D50508B6FF0106C6A426F620DF
:10091900D5047002D20380D924CFB41A00EF500451
:10092900C2E5D204020B8FD20180C6D20080C0D2A8
:100939000280BCD2D580BAD20580B47F2012088C3F
:100949002002077401B5090040F1120849FF120895
:100959008C0208C6D208D2068095120849FB1208F3
:1009690049FA120849F94A4B7006798D7A0C7BFFCE
:1009790020022EE509602A7E008E82758300120608
:100989005560060EEE650A70F0C2D5EBC0E0EAC00C
:10099900E0E9C0E0EE120BF0D0E0F9D0E0FAD0E0E7
:1009A900FB12063CFF60AAEBC0E0EAC0E0E9C0E048
:1009B90012088CD0E02401F9D0E03400FAD0E0FB31
:1009C900E50A0460DCD50AD98087D20280A2120B1D
:1009D900D260F7E50A700104120383A90A600DE5E4
:1009E9000A600914F50A120C7AEF60F3EA30E7029B
:1009F900F404C3995079EAF4250A0430E701E404C0
:100A0900F50A800D120BD260C1EA050A250A120304
:100A190083EA9000A0F030E701E4250A04D50A042E
:100A290020050114120BF0E4C0E0120C7A9000A02A
:100A3900E0601320E70714F0120874802204F0D054
:100A4900E014C0E07F00120874E50A600712086B21
:100A5900150A800B30050312086BD0E00208C6D0D6
:100A6900E00480C4120BD2609EE50A04120383904D
:100A790000A0EAF0E50A2005026001042404120B33
:010A8900F07C
:100A8A0074FF04C0E0120C7A120874E50A20050209
:100A9A00600312086BD0E0B50AE87F4512087E9021
:100AAA0000A0E07F2B30E7047F2DF404C0E0120899
:100ABA008CD0E075F00A84C0F0120875D0E01208F4
:100ACA00750208C6791080027908C206C208800831
:100ADA00D2D5790A8004790AC2D5E50A047002F5EA
:100AEA000AE4FAFDFEFF120849FC7B0820011312F2
:100AFA000849FD7B1030000A120849FE120849FF16
:100B0A007B20EC3382D592D55013C3E43000069F84
:100B1A00FFE49EFEE42001039DFDE49CFCE4CBF887
:100B2A00C201EC700CCFCECDCCE824F8F870F3807B
:100B3A0017C3EF33FFEE33FEED33FDEC33FCEB333B
:100B4A00FB994002FB0FD8E9EB300105F8D0E0C46D
:100B5A0048B201C0E00AEC4D4E4F78207B0070C2CB
:100B6A00EAB50A0040BCC0E0120BF2D0F0D0E02097
:100B7A000104C4C0E0C4B201C0F0120875D0F0D5B7
:100B8A00F0EB0208C61207DE0963530ACE5809348D
:100B9A004C0930420AD24F0ADA440ADA490949436F
:100BAA000AE0550A0D460A6D4509D7470CAD5009AA
:100BBA00382D093C2E095F2B094023095D200C962C
:100BCA002A08F84800000957E50AB4FF03750A061F
:100BDA00120849FC120849FD120849FE120849FF89
:100BEA009000990203C0790AA2D52003143005099E
:100BFA00B910020404B9080104A2D5200602500162
:100C0A00042002689202B509005034C0E07F203007
:100C1A0003197F30A20272067205500F120C49C2E4
:100C2A0002C206C205C2087F30800F300503E9C040
:100C3A00E012088C300503D0E0F9D0E0B509CC30D9
:100C4A0005177F30B9100C12088C7F583004077FC3
:100C5A00788003B9080312088C3002057F2D020838
:100C6A008C7F202008F87F2B2006F322920280CF67
:100C7A007F00B40700500B2499F582E43400F58311
:100C8A00E0FF22286E756C6C2900D20112084930E7
:100C9A0001F8C201780930D50108F60208F82D508A
:100CAA004349581208492403B405004001E4900C52
:100CBA00A89312087D743A12087DD20375090402BA
:020CCA000ACE50
:100CCC00E50830030104F823282474F582E4340089
:100CDC00F58322900071300303900074E475F001E9
:100CEC001207A702063C60EAC50C7002150B14C56E
:100CFC000C200304FF0221B590007174FFF5F00283
:100D0C0007BEFF02213DE5096006D509037F0022DD
:100D1C0020030F122129EF6008050CE50C70020569
:100D2C000B2290007112079E12063CFF60E89000A7
:100D3C0071E475F0011207A780DC120D1CEFC0E006
:100D4C00120D0ED0E040F3809DD2038002C20390BE
:100D5C0000711207D5E4F50AF508F50BF50C7509C9
:100D6C0000C202C200C201C204120CDFFF7005AF48
:100D7C000A7E0022B42530120CDFFF24D0B40A0006
:100D8C00500C75F00AC509A42509F50980E924CF92
:100D9C00B41A00EF5002C2E5020FF2D20180D8D291
:100DAC000080D4D20480D0EF120D0E5008120D46E4
:100DBC00EF600E80A9EFC0E0120D1CD0E06F609EBA
:100DCC00EF6074120CF280A7120D1CEF6069E5093C
:100DDC00700705098003120D1CEF601420040E121D
:100DEC000CCCE475F0011207A7EF120682D509E6C8
:100DFC002004040508050A80BA120D12EFC0E01297
:100E0C000D0ED0E05004120CF2E4FF20040E120C74
:100E1C00CCE475F0011207A7EF120682EF70DA200E
:100E2C0004040508050A808BE50960020509120D0A
:100E3C0046120D12EF70C6300304E4120CF2E50AF0
:100E4C006003020D7B7EFF7FFF22E509600205092E
:100E5C00120D46D206D205120D12EF30060260D7E3
:100E6C00C0E0120CF2D0E0AC0DAD0EAE0FAF101214
:100E7C001A208C0D8D0E8E0F8F105007120D1CC268
:100E8C000580D4200410200502050A120CCC120790
:030E9C009E0508A8
:100E9F00120706020D6AD0E0809A7900800A791055
:100EAF00800679088002790AD205E50960020509F2
:100EBF00E9C0E0120D46EF60DD120D1CBF2D04D20C
:100ECF00028003BF2B09120D46EF60CA120D12D01C
:100EDF00E0B40A028033B40802802EBF30277002BC
:100EEF007408C205C0E0120D12D0E0BF7802800373
:100EFF00BF58160509D509028007D50904D2058008
:100F0F000B741080197002740ABF000AEFF8E4FC2A
:100F1F00FDFEFF020FA5C0E0EF120CF2D0E0F9E4E6
:100F2F00FCFDFEFFE9C0E0ECC0E0EDC0E0EEC0E08C
:100F3F00EFC0E0120D12EFF8D0E0FFD0E0FED0E0EE
:100F4F00FDD0E0FCD0F0E8604DB461004007B47B09
:100F5F00005002C2E524D0503DFA24F6500724F980
:100F6F005034240AFAEAB5F000502BCFA9F0A42F81
:100F7F00FF92D5E9C5F0CEA4A2D53EFE92D5E9C524
:100F8F00F0CDA4A2D53DFD92D5E9C5F0CCA4A2D554
:100F9F003CFCC205808EE8C0E020042A200508052D
:100FAF000A3002031206E7120CCC12079E05082026
:100FBF00000B20010DEE8FF01206C88009120706F4
:100FCF008004EF120682D0E0120CF2020D6A2004A8
:100FDF0010120CCC12079E0508E50B850CF01206BB
:100FEF00C880E81207DE0E34530EAD580DAB4C0D12
:100FFF00A7420D83480EB14F0EB5440DD4430EA931
:10100F00490EB5550E56460E56450E56470DAF2A8C
:07101F000FDD4E00000DB3D0
:101C720002036E22EDA2E7D2E7F9EC3340F260F301
:101C8200B4FF08ED547F70E8020378F82481C2E0C3
:101C9200C0E0F40428FAC313FCED92E7FD9000556E
:101CA200120761EEA2E7E9BA7F02C313340094007F
:101CB200FA75F091A4E5F013F494FE8AF0A433E5EA
:101CC200F033248CD313FDE492E7FE7F007C3F7552
:101CD2008302ECC0E0F8EDC0E0F9EEC0E0FAEFC03C
:101CE200E0FB8583F090005512072085F0831202F5
:101CF20027D0E0FBD0E0FAD0E0F9D0E0F812002DD6
:101D0200ED6480FD30E7011CD583C7ED33CC33F899
:0C1D1200D0E0A2E71328C313CC13FD227D
:10033900E9D2E7C933E833F892D5EDD2E7CD33EC0A
:0703490033FC5002B2D52283
:10035000EC30E7100FBF000C0EBE00080DBD00040E
:100360000BEB6014A2D5EB13FCED92E7FD2274FFBA
:10037000FCFDFEFF22E480F8A2D574FF13FC7D8013
:03038000E480EF27
:10038300F920E73624F950037907E4F42402FBE566
:1003930082158270021583DBF6E024FB501BE960B3
:1003A30014E4F0E582158270021583E004F0B40AC8
:0D03B30008E4F0D9EE7401F00A22C2D52250
:1003C000ED33EC3392D5FA602AB4FF33EDC2E77B0C
:1003D000FF60067A0379E5E4227A0379EE20D504FA
:1003E0007A0379E9224E614E002B494E46002D4991
:1003F0004E4600E47A08F0A3DAFC7B00740722C0C2
:1004000083C082ECC0E0EDC0E0EEC0E0EFC0E0EA07
:1004100075F010A4CAABF075F04DA42BFBE435F0D9
:10042000FCEA2410FAEB34C5FBEC34D9FCEDC2E74E
:10043000FF75F056A4F42411C5F0F434C58FF0A470
:100440002AE5F03BE43CF020E714120506D0E0FF7B
:10045000D0E0FED0E0FDD0E0FC1202278014F404CE
:10046000120506D0E0FFD0E0FED0E0FDD0E0FC12A7
:10047000011ED082D083E0FAEDD2E7CD33EC3324F5
:1004800082FBE4C3CF33CFCE33CECD33CD33DBF3DA
:100490007B0775F00A846004F0A31B0AE5F0F0A363
:1004A0008FF0740AA4FFACF08EF0740AA42CFEAC9A
:1004B000F050010C8DF0740AA42CFDE435F0F0A38B
:0504C000DBDE740722E1
:101A0D00C207C208C209C20AF9E4F511F512FCFDBC
:101A1D00FEFFE91006EA20090CB42D04D209D322E9
:101A2D00B42B02D32224D0504794095041240A30BC
:101A3D000A15F88512F0740AA42872E74051C5F012
:101A4D00704D85F012D322D208C0E0E4FBFA792064
:101A5D00784112011EECF8EDF9EEFAEFFBD0E0FC47
:101A6D00E41202CE12002D3007B41511D322240A30
:101A7D00200A20B4FE0720071AD207D32224EB60D8
:101A8D000424E0700EA2099207D20AC209D322C320
:101A9D0002036EE4300A0BE512300902F404A207CA
:101AAD0092093008EA251120D2E5A2E7920A5002E8
:101ABD00F404B4260050D8CCC0E0EDC0E0EEC0E098
:101ACD00EFC0E0EC120506D0E0FFD0E0FED0E0FD67
:101ADD00D0E0FC200A0512011E80031202273009F6
:061AED00031204C5C32230
:1004C500ED33EC33600A047003BD8004ECB2E7FC45
:0104D5002204
:1004D6003F8000004120000042C80000447A00002E
:1004E600461C400047C35000497424004B189680B0
:1004F6004CBEBC205A0E1BCA6753C21C749DC5AEA7
:10050600FB60065407601C2323120534EB54386045
:100516000912052012052F12011EECF8EDF9EEFA6C
:10052600EFCB22EB12052F80F1543803241C9004E4
:10053600D6FE93FC0EEE93FD0EEE930ECE93FF22A7
:03000000021D1EC0
:0C1D1E00787FE4F6D8FD758121021D6578
:10054600E709F608DFFA8046E709F208DFFA803E97
:1005560088828C83E709F0A3DFFA8032E309F60884
:10056600DFFA8078E309F208DFFA807088828C83EC
:10057600E309F0A3DFFA806489828A83E0A3F608A0
:10058600DFFA805889828A83E0A3F208DFFA804C7A
:1005960080D280FA80C680D4806980F28033801051
:1005A60080A680EA809A80A880DA80E280CA8033BA
:1005B60089828A83ECFAE493A3C8C582C8CCC58332
:1005C600CCF0A3C8C582C8CCC583CCDFE9DEE78002
:1005D6000D89828A83E493A3F608DFF9ECFAA9F081
:1005E600EDFB2289828A83ECFAE0A3C8C582C8CCD7
:1005F600C583CCF0A3C8C582C8CCC583CCDFEADEF0
:10060600E880DB89828A83E493A3F208DFF980CC51
:1006160088F0EF60010E4E60C388F0ED2402B4044A
:100626000050B9F582EB2402B4040050AF232345F1
:060636008223900596737B
:10063C00BB010689828A83E0225002E722BBFE02BC
:09064C00E32289828A83E49322EF
:10065500BB010CE58229F582E5833AF583E022505A
:1006650006E92582F8E622BBFE06E92582F8E222A4
:0D067500E58229F582E5833AF583E49322BE
:10068200BB010689828A83F0225002F722BBFE0157
:02069200F32251
:10069400F8BB010DE58229F582E5833AF583E8F09C
:1006A400225006E92582C8F622BBFE05E92582C848
:0206B400F22230
:1006B600EF8DF0A4A8F0CF8CF0A428CE8DF0A42E58
:0206C600FE2212
:1006C800BB010A89828A83F0E5F0A3F0225006F77D
:0F06D80009A7F01922BBFE06F3E5F009F319227A
:0E06E700C3E49FFFE49EFEE49DFDE49CFC2224
:1006F500EB9FF5F0EA9E42F0E99D42F0E89C45F05B
:0107050022D1
:10070600BB010789828A830207615005E9F802085E
:0A07160031BBFE05E9F802083D22A0
:0C072000E0FCA3E0FDA3E0FEA3E0FF224C
:10072C007401FF3395E0FEFDFCA3A3A3E02FFFF0C3
:10073C00E582158270021583E03EFEF0E58215829B
:10074C0070021583E03DFDF0E58215827002158381
:05075C00E03CFCF0226E
:0C076100ECF0A3EDF0A3EEF0A3EFF0220B
:10076D00A8828583F0D083D0821207841207841269
:10077D000784120784E473E493A3C583C5F0C5838E
:10078D00C8C582C8F0A3C583C5F0C583C8C582C8D6
:01079D002239
:09079E00E0FBA3E0FAA3E0F9225C
:1007A700F8E0FBA3A3E0F925F0F0E58215827002DB
:0707B7001583E0FA38F0227F
:1007BE00F8E0FBA3A3E025F0F9F0E58215827002C4
:0707CE001583E038FAF02268
:0907D500EBF0A3EAF0A3E9F02225
:1007DE00D083D082F8E4937012740193700DA3A3AA
:1007EE0093F8740193F5828883E4737402936860BE
:0607FE00EFA3A3A380DFBE
:10080400D083D082F8E4937012740193700DA3A383
:1008140093F8740193F5828883E473740293B5F0BA
:0D082400067403936860E9A3A3A3A380D822
:10202C00EFB40A07740D122037740A309811A8996E
:10203C00B8130CC2983098FDA899C298B811F63014
:07204C0099FDC299F59922EC
:10212900100B0B1221ABBF0D027F0A02202C90006D
:04213900A1E0FF2200
:0821B5009000A1EFF0D20B2213
:10213D00EFC394094005EF940E4004EFB42003D390
:04214D008001C32228
:0C219F00EE30E707C3E49FFFE49EFE2241
:101D2A00022053E493A3F8E493A34003F68001F25C
:101D3A0008DFF48029E493A3F85407240CC8C333BA
:101D4A00C4540F4420C8834004F456800146F6DF89
:101D5A00E4800B0102040810204080901BC6E47E38
:101D6A00019360BCA3FF543F30E509541FFEE4937E
:101D7A00A360010ECF54C025E060A840B8E493A345
:101D8A00FAE493A3F8E493A3C8C582C8CAC583CA70
:101D9A00F0A3C8C582C8CAC583CADFE9DEE780BE28
:011C71000072
:0C083100ECF608EDF608EEF608EFF622F3
:0C083D00ECF208EDF208EEF208EFF222F7
:0A21AB003098FDAF99C2987E002223
:00000001FF
