:10153800552020202025342E3266005020202020DF
:1015480025342E3266004E202020202025327500BA
:10133100015A00015600015900013E000439000024
:101341000000043400000000023000000A4731327E
:101351003334353637380000083F00000000000004
:101361000000013300013200013800015100013D4C
:1013710000045200000000012200042300000000CC
:0D13810001270002280000042A00000000DF
:10141A001215761215CA7B007A00795B756001E4B1
:10142A00FD12138FE55BD394324003E4F55BE55B71
:10143A0075F00AA485F02EF52F1210291210F21257
:07144A0011941212C280F29E
:10102900120DCB8F5DE55D652270030210F1E55D60
:1010390024F6603B24FD604C1460792405600302AA
:1010490010EE0556E55675F0038485F056E556B45D
:10105900021BAE2EAF2F7C007D0A1205978F5C7B99
:10106900007A00795C756201E4FD1214888037E525
:1010790056B40205E4F532805A0538E538C39403BD
:101089004063805EE556B401207432252FF52FE4C4
:10109900352EF52ED3E52F94F4E52E648094814006
:1010A90005E4F52EF52FE4802A0538E538C39403C5
:1010B9004033802EE556B4012074CE252FF52F74C8
:1010C900FF352EF52EC3648094805006752E017568
:1010D9002FF4E4F538F551800C0538E538C394034D
:0810E9004003755101855D22F1
:0110F10022DC
:1010F200AF37AE36AD35AC34AB26AA25A924A8232A
:10110200C31206A9700302119385372685362585F9
:101112003524853423E5567024755FFF7560157597
:101122006138AC57AD581202C1E4FBFA79C8784273
:1011320012021F8F658E648D638C628039E556B40E
:101142000125755FFF756015756143AC2EAD2FECFF
:101152001202C1E4FBFA79C8784212021F8F658E2F
:10116200648D638C62800F755FFF75601575614ECB
:101172007562008532637B007A0079471207CE756B
:101182005F0075600075613F7B007A007947120B42
:01119200E17B
:011193002239
:03001B00020F547D
:100F5400C0E0C0F0C083C082C0D075D000C000C063
:0D0F640001C002C003C004C005C006C007E4
:100F7100E53C2401F53CE4353BF53BE4353AF53AF3
:100F8100E43539F539E47B0AFAF9F8AF3CAE3BAD0B
:100F91003AAC39120609AC00AD01AE02AF03E4FB75
:100FA100FAF9F8C31206A97015E5372401F537E4FB
:100FB1003536F536E43535F535E43534F53405594E
:100FC100E559B46406755900753E01E47BE87A037E
:100FD100F9F8AF3CAE3BAD3AAC39120609AC00AD05
:100FE10001AE02AF03E4FBFAF9F8C31206A97008D7
:100FF1000531E531700205307B007A00793FAD3370
:0D1001001213DC0533E533B408037533002A
:10100E00D007D006D005D004D003D002D001D00036
:0B101E00D0D0D082D083D0F0D0E032E0
:10119400E53E7003021235E4F53E121558AC07E43F
:1011A4001202C6E4FBFA79A07840120116E4FBFAB5
:1011B400797F784312021F8F5F8E5E8D5D8C5CE4B5
:1011C400FFFE7DC87C42AB5FAA5EA95DA85C1201EC
:1011D40016E4FBFAF9783F1200251202FA8E578FB3
:1011E40058D3E529952FE528952E400DD3E558953C
:1011F4002FE557952E50020532C3E529952FE52892
:10120400952E4019E558952FE557952E500F753DAD
:1012140001853C55853B54853A53853952C3E5587D
:10122400952FE557952E4003E4F53D8557288558BD
:011234002990
:011235002296
:1012C200AF37AE36AD35AC34AB2DAA2CA92BA82A3C
:1012D200C31206A9605885372D85362C85352B8596
:1012E200342AE53D6027C3E53C9555FFE53B95541F
:1012F200FEE53A9553FDE5399552FCE47B887A1375
:10130200F9F8D31206A95005435A018003535AFE35
:10131200E53230E005435A028003535AFDE551603D
:0E13220005435A048003535AFBAF5A1215DFDD
:01133000229A
:1015DF00EFF4F580E5A0541F4480F5A053A01F221F
:101576007580FFE5A0541F4480F5A053A01FE4F535
:0D15860080E5A0541F44A0F5A053A01F2233
:1015CA00758DFC758B1853890F538EBFC28FD2ABA2
:0515DA00D2AFD28E2209
:041451008F828E8375
:10145500AF00AE00AD00AC008F648E638D628C6111
:10146500C3E5009564FFE5009563FEE5009562FD23
:10147500E5009561FCAB82AA83E4F9F8D31206A9CD
:0214850050DE37
:011487002242
:060BE1008B5C8A5D895E59
:100BE700E4F562F563AB5CAA5DA95E8562827583F5
:100BF700001205361206CA0D92200D822D0DA22E67
:100C07000C44300C55310C66320C77330C88340C9D
:100C170099350CAA360CBB370CCC380CDD390CEEE9
:100C2700410CFF420D10430D21440D32450D424644
:100C37000D724E0D62500D525500000D92AB5FAA1A
:100C470060A96185638275830074C0020DB9AB5FCB
:100C5700AA60A96185638275830074F9020DB9AB37
:100C67005FAA60A96185638275830074A4020DB9C8
:100C7700AB5FAA60A96185638275830074B0020DBA
:100C8700B9AB5FAA60A96185638275830074990215
:100C97000DB9AB5FAA60A961856382758300749201
:100CA700020DB9AB5FAA60A9618563827583007481
:100CB70082020DB9AB5FAA60A96185638275830063
:100CC70074F8020DB9AB5FAA60A961856382758369
:100CD700007480020DB9AB5FAA60A9618563827554
:100CE70083007490020DB9AB5FAA60A96185638226
:100CF7007583007488020DB9AB5FAA60A96185632B
:100D0700827583007483020DB9AB5FAA60A9618500
:100D1700638275830074C6020DB9AB5FAA60A961CF
:100D270085638275830074A1020DB9AB5FAA60A9C0
:100D37006185638275830074868077AB5FAA60A93B
:100D470061856382758300748E8067AB5FAA60A933
:100D57006185638275830074C18057AB5FAA60A900
:100D670061856382758300748C8047AB5FAA60A935
:100D77006185638275830074AB8037AB5FAA60A916
:100D87006185638275830074BF8027AB5FAA60A902
:100D97006185638275830074FF80171563AB5FE518
:100DA700612563F9E43560FA12051D547F12056366
:100DB700800312057505620563E563C39408500354
:030DC700020BEC30
:010DCA002206
:1013DC007580FFE5A0541F44E0F5A053A01F7401D5
:1013EC00A805088002C333D8FCF580E5A0541F443F
:1013FC00C0F5A053A01FAF058F8275830012053670
:0E140C00F580E5A0541F44E0F5A053A01F2278
:100DCB00E4F560C2C4D2C2D2B5D2B4E5B0540F754B
:100DDB005E00F55FD2C4C2C2C4F8540FC868FFE509
:100DEB005EC454F048FEE5B0540FFDEEF55EEF4DDA
:100DFB00F55FD2C2C2B5C4F8540FC868FFE55EC434
:100E0B0054F048FEE5B0540FFDEEF55EEF4DF55F87
:100E1B00D2B5C2B4C4F8540FC868FFE55EC454F031
:100E2B0048FEE5B0540FFDEEF55EEF4DF55FB4FFF8
:100E3B0008E55EB4FF037F00227F0A7E0012145187
:100E4B00C2C4D2C2D2B5D2B4E5B0540F7E00D2C464
:100E5B00C2C2C4F8540FC868FFEEC454F048FEE594
:100E6B00B0540FFDEF4DD2C2C2B5C4F8540FC868D1
:100E7B00FFEEC454F048FEE5B0540FFDEF4DD2B574
:100E8B00C2B4C4F8540FC868FFEEC454F048FEE572
:100E9B00B0540FFDEF4DFF655F7003E55E6E6003B1
:100EAB007F0022EFF4FFEEF4FEEF8EF01206F00F50
:100EBB004900010F4400020F3F00040F3A00080FD6
:100ECB003500100F3000200F2B00400F2600800F35
:100EDB002101000F1C02000F1704000F1208000F56
:100EEB000D10000F0820000F0340000EFE800000C5
:100EFB00000F4E756001804E75600280497560036E
:100F0B008044756004803F756005803A756006808B
:100F1B00357560078030756008802B7560098026F9
:100F2B0075600A802175600B801C75600C801775CD
:100F3B00600D801275600E800D75600F80087560F6
:080F4B00108003E4F560AF60C3
:010F5300227B
:0415B000D2A07F0541
:1015B400000000000000000000000000000000AE79
:0615C400071FEE70EB2290
:0F15FF00D2A11215B0C2A17F051215B4C2A0224D
:0C160E00C2A11215B0D2A17F050215B4D4
:0714BC00AB051215FF7FA034
:0214C300AD0773
:1014C500E4FCC2A07F051215B4ED30E704D2A1807B
:1014D50002C2A17F051215B4D2A0ED25E0FD7F055E
:0914E5001215B40CBC08DBC2A016
:0114EE0022DB
:10159300E4FC1215B0ED25E0FD30A103430501C2C3
:0C15A300A07F051215B40CBC08E8AF05D1
:0115AF002219
:101516001215FF7F901214C31215267F431214C3AF
:101526001215B0A2A1E433FDC2A07F051215B4AF17
:0115360005AF
:011537002291
:10000300C2A0EF24FF92A17F051215B41215B0C24E
:08001300A0D2A17F050215B483
:101488008B5E8A5F89601214BC121526AF0380191F
:10149800AF621562EF601AAB5E0560E560AA5F7027
:1014A80002055F14F912051DFF1214C312152680D8
:0414B800DF02160E2B
:10138F008B5C8A5D895E1214BC121526AF03121492
:10139F00C31215261215FF7FA11214C3121526AF03
:1013AF00601560EF6024121593AB5C055EE55EAAD5
:1013BF005D7002055D14F9EF120563E5606004E4EA
:0D13CF00FF80027F0112000380D502160E80
:101558001215161215FF7F911214C31215261215B3
:0D15680093AD077F0112000312160EAF05B0
:011575002253
:1015EF00AB07121516AF031214C312152602160EEF
:10001E00020366E86480F8E933E83360110460F0A7
:10002E00ED33EC337009E8FCE9FDEAFEEBFF220448
:10003E0060DED3EB9FEA9EE99DE8C2E78CF0C2F743
:10004E0095F0400CE8CCF8E9CDF9EACEFAEBCFFB0F
:10005E0012033185D0F05804700320D5B3E8047034
:10006E00075002B2D502037092D5EC0460F7E4CCCF
:10007E00C0E0C398F8603B94186008400DD0E0FBD8
:10008E00020348E4FBFAC9FC8028E830E406E4C920
:10009E00FBE4CAFCE830E305E4C9CACBFCE854072C
:1000AE006010F8C3E913F9EA13FAEB13FBEC13FC37
:1000BE00D8F130F52FC3E49CFCEF9BFFEE9AFEEDDA
:1000CE0099FDD0E0FBEF4E4D4C701222DB03020384
:1000DE006DEC2CFCEF33FFEE33FEED33FDED30E730
:1000EE00EB020348EF2BFFEE3AFEED39FDD0E0FBBD
:1000FE0050130BBB0003020370ED13FDEE13FEEF66
:08010E0013FFEC13FC0203488F
:10011600EC4D6011E8497017ED33EC3304600DE4E3
:10012600FCFFFEFD22E933E8330470F80203661291
:10013600033158046009E4CC248150062850090292
:10014600037028400302036DC0E0EB4A7044B98097
:1001560006D0E0FB02035CEF4E701CBD8008EBFF8F
:10016600EAFEE9FD80EBE98DF0A4FEE5F00201FF71
:10017600E9CDF9EAFEEBFFEF89F0A4FCE5F0CE89C4
:10018600F0A42EFFE435F0CD89F0A42DFEE435F081
:100196008067EF4E7005BD80D780C3EF8BF0A4ACAF
:1001A600F0EE8BF0A42CFCE435F0F8EF8AF0A42CEA
:1001B600E5F038FCE433CB8DF0A42CFCE5F03BF8FD
:1001C600EE8AF0A42CFCE5F038F8E433CF89F0A4ED
:1001D6002CFCE5F038CF3400CE89F0A42FFFE5F0F3
:1001E6003EFEE433C98DF0A42EFEE5F039CD8AF04B
:1001F600A42FFFE5F03EFEE43DFD33D0E0FB5007C3
:100206000BBB000F020370EC2CFCEF33FFEE33FE4A
:06021600ED33FD02034878
:10021C00020370EC5D046005E85904700302036688
:10022C00120331580460F6EC4860F2EC7004FDFEE9
:10023C00FF22C860DB2481C85009C39860025006B5
:10024C0002036D9850CAF582E9294B4A7005AB82BE
:10025C0002035C75F0007C1A7880C3EF9BEE9AED7C
:10026C0099400DC3EF9BFFEE9AFEED99FDE842F02D
:10027C00DC23ACF0D0E0FFD0E0FED0E0FDAB822080
:10028C00E7101BEB60BAEC2CFCEF33FFEE33FEED0A
:10029C0033FD020348E803F830E705C0F075F000C1
:1002AC00EF2FFFEE33FEED33FD40B830E7C280AAEE
:1002BC0075F020800E75F010800575F0087D007EBD
:1002CC00007F003392D530D50312069BEC334010DF
:1002DC00EF33FFEE33FEED33FDEC33FCD5F0ED22C6
:0E02EC00E5F0247EA2D513CC92E7CDCEFF2202
:1002FA00EDD2E7CD33EC3392D524814006E4FFFEFC
:10030A00FDFC22FCE4CFCECDCC24E0501174FF805A
:10031A00EDC3CC13CCCD13CDCE13CECF13CF0470F7
:07032A00F030D5DE02069B56
:10077200E573245FF8E6057322785C300702785F40
:10078200E475F0011206BA02051D2000EB7F2ED29D
:10079200008018EF540F2490D43440D4FF30040B5F
:1007A200EF24BFB41A0050032461FFE57460021500
:1007B200740577E5777002057630070D785CE4758D
:1007C200F0011206BAEF0205630214EF7403D207B6
:1007D2008003E4C207F5738B5C8A5D895EE4F5747D
:1007E200F576F577E57460077F201207AD80F57521
:1007F20075FFC201C200C202C203C205C206C2081C
:1008020012077BFF700D3007057F001207BEAF771E
:10081200AE7622B4255FC2D5C20412077BFF24D074
:10082200B40A00501A75F00A787430D50508B6FF7C
:100832000106C6A426F620D5047002D20380D9246C
:10084200CFB41A00EF5004C2E5D204020AABD201BF
:1008520080C6D20080C0D20280BCD2D580BAD20576
:1008620080B47F201207AD2002077401B5740040E6
:10087200F1120772FF1207AD0207E6D208D2068014
:1008820095120772FB120772FA120772F94A4B703D
:100892000679A27A0B7BFF20022EE574602A7E0085
:1008A2008E8275830012053660060EEE657570F055
:1008B200C2D5EBC0E0EAC0E0E9C0E0EE120B0BD01B
:1008C200E0F9D0E0FAD0E0FB12051DFF60AAEBC010
:1008D200E0EAC0E0E9C0E01207ADD0E02401F9D0BF
:1008E200E03400FAD0E0FBE5750460DCD575D98010
:1008F20087D20280A2120AEE60F7E5757001041237
:10090200037BA975600DE575600914F575120B95E9
:10091200EF60F3EA30E702F404C3995077EAF42572
:10092200750430E701E404F575800D120AEE60C12A
:10093200EA0575257512037BEA7872F630E701E461
:10094200257504D5750420050114120B0BE4C0E0D3
:10095200120B957872E6601320E70714F6120795DA
:10096200802204F6D0E014C0E07F00120795E575FE
:10097200600712078C1575800B30050312078CD0A7
:10098200E00207E6D0E00480C5120AEE60A0E57539
:100992000412037B7872EAF6E57520050260010411
:0509A2002404120B0B00
:1009A70074FF04C0E0120B95120795E57520050248
:1009B700600312078CD0E0B575E87F4512079F7872
:1009C70072E67F2B30E7047F2DF404C0E01207ADF9
:1009D700D0E075F00A84C0F0120796D0E0120796AF
:1009E7000207E6791080027908C206C2088008D299
:1009F700D5790A8004790AC2D5E575047002F575C0
:100A0700E4FAFDFEFF120772FC7B082001131207B0
:100A170072FD7B1030000A120772FE120772FF7B0D
:100A270020EC3382D592D55013C3E43000069FFFE4
:100A3700E49EFEE42001039DFDE49CFCE4CBF8C2A8
:100A470001EC700CCFCECDCCE824F8F870F380170A
:100A5700C3EF33FFEE33FEED33FDEC33FCEB33FB3B
:100A6700994002FB0FD8E9EB300105F8D0E0C44804
:100A7700B201C0E00AEC4D4E4F78207B0070C2EA0D
:100A8700B5750040BCC0E0120B0DD0F0D0E02001DE
:100A970004C4C0E0C4B201C0F0120796D0F0D5F08C
:100AA700EB0207E61206CA08835309EA5808544CB2
:100AB70008504209EE4F09F64409F6490869430907
:100AC700FC55092D46098B4508F7470BC2500858B6
:100AD7002D085C2E087F2B086023087D200BAB2A8E
:100AE70008184800000877E575B4FF037575061206
:100AF7000772FC120772FD120772FE120772FF7867
:100B07006B0203AA790AA2D5200314300509B9108C
:100B1700020404B9080104A2D520060250010420EA
:100B270002689202B574005034C0E07F2030031988
:100B37007F30A20272067205500F120B64C202C206
:100B470006C205C2087F30800F300503E9C0E012F6
:100B570007AD300503D0E0F9D0E0B574CC30051708
:100B67007F30B9100C1207AD7F583004077F7880AB
:100B770003B908031207AD3002057F2D0207AD7FC9
:100B8700202008F87F2B2006F322920280CF7F00D7
:100B9700B407005005246BF8E6FF22286E756C6CCD
:100BA7002900D2011207723001F8C201787430D5DA
:100BB7000108F60208182D504349581207722403FA
:100BC700B405004001E4900BBD9312079E743A12DE
:0A0BD700079ED2037574040209EAB8
:10033100E9D2E7C933E833F892D5EDD2E7CD33EC12
:0703410033FC5002B2D5228B
:10034800EC30E7100FBF000C0EBE00080DBD000416
:100358000BEB6014A2D5EB13FCED92E7FD2274FFC2
:10036800FCFDFEFF22E480F8A2D574FF13FC7D801B
:03037800E480EF2F
:10037B00F920E72824F950037907E4F42402FB1849
:10038B00DBFDE624FB5014E9600DE4F618E604F6F9
:0F039B00B40A08E4F6D9F57401F60A22C2D52295
:1003AA00ED33EC3392D5FA602AB4FF33EDC2E77B22
:1003BA00FF60067A0379CFE4227A0379D820D5043C
:1003CA007A0379D3224E614E002B494E46002D49BD
:1003DA004E4600E47A08F608DAFC7B00740722E845
:1003EA00C0E0ECC0E0EDC0E0EEC0E0EFC0E0EA75CE
:1003FA00F010A4CAABF075F04DA42BFBE435F0FC69
:10040A00EA2410FAEB34C5FBEC34D9FCEDC2E7FF61
:10041A0075F056A4F42411C5F0F434C58FF0A42A5B
:10042A00E5F03BE43CF620E7141204DDD0E0FFD00F
:10043A00E0FED0E0FDD0E0FC12021F8014F40412AA
:10044A0004DDD0E0FFD0E0FED0E0FDD0E0FC1201F8
:10045A0016D0E0F8E6FAEDD2E7CD33EC332482FB8E
:10046A00E4C3CF33CFCE33CECD33CD33DBF37B07EB
:10047A0075F00A846004F6081B0AE5F0F6088FF0A6
:10048A00740AA4FFACF08EF0740AA42CFEACF050EF
:10049A00010C8DF0740AA42CFDE435F0F608DBDEBD
:0304AA00740722B2
:1004AD003F8000004120000042C80000447A000057
:1004BD00461C400047C35000497424004B189680D9
:1004CD004CBEBC205A0E1BCA6753C21C749DC5AED0
:1004DD00FB60065407601C232312050BEB54386098
:1004ED00091204F7120506120116ECF8EDF9EEFAF1
:1004FD00EFCB22EB12050680F1543803241C900437
:10050D00ADFE93FC0EEE93FD0EEE930ECE93FF22F9
:03000000021236B3
:0C123600787FE4F6D8FD75817702127D08
:10051D00BB010689828A83E0225002E722BBFE02DC
:09052D00E32289828A83E493220F
:10053600BB010CE58229F582E5833AF583E022507A
:1005460006E92582F8E622BBFE06E92582F8E222C4
:0D055600E58229F582E5833AF583E49322DE
:10056300BB010689828A83F0225002F722BBFE0177
:02057300F32271
:10057500F8BB010DE58229F582E5833AF583E8F0BC
:10058500225006E92582C8F622BBFE05E92582C868
:02059500F22250
:10059700C2D5EC30E709B2D5E4C39DFDE49CFCEE7F
:1005A70030E715B2D5E4C39FFFE49EFE12071DC3D3
:1005B700E49DFDE49CFC800312071D30D507C3E4CE
:0605C7009FFFE49EFE22EE
:1005CD0075F008758200EF2FFFEE33FECD33CDCCE5
:1005DD0033CCC58233C5829BED9AEC99E582984068
:1005ED000CF582EE9BFEED9AFDEC99FC0FD5F0D645
:1005FD00E4CEFBE4CDFAE4CCF9A88222B800C1B96F
:10060D000059BA002DEC8BF084CFCECDFCE5F0CBAC
:10061D00F97818EF2FFFEE33FEED33FDEC33FCEBE5
:10062D0033FB10D703994004EB99FB0FD8E5E4F9A0
:10063D00FA227818EF2FFFEE33FEED33FDEC33FC8D
:10064D00C933C910D7059BE99A4007EC9BFCE99A81
:10065D00F90FD8E0E4C9FAE4CCFB2275F010EF2FC6
:10066D00FFEE33FEED33FDCC33CCC833C810D707C6
:10067D009BEC9AE899400AED9BFDEC9AFCE899F801
:0E068D000FD5F0DAE4CDFBE4CCFAE4C8F92294
:0E069B00C3E49FFFE49EFEE49DFDE49CFC2270
:1006A900EB9FF5F0EA9E42F0E99D42F0E89C45F0A7
:0106B900221E
:1006BA00FAE6FB0808E6F925F0F618E6CA3AF62241
:1006CA00D083D082F8E4937012740193700DA3A3BF
:1006DA0093F8740193F5828883E4737402936860D3
:0606EA00EFA3A3A380DFD3
:1006F000D083D082F8E4937012740193700DA3A399
:1007000093F8740193F5828883E473740293B5F0CF
:0D071000067403936860E9A3A3A3A380D837
:1014EF00EFB40A07740D1214FA740A309811A89900
:1014FF00B8130CC2983098FDA899C298B811F6305D
:07150F0099FDC299F5992234
:1012420002141AE493A3F8E493A34003F68001F294
:1012520008DFF48029E493A3F85407240CC8C333AD
:10126200C4540F4420C8834004F456800146F6DF7C
:10127200E4800B0102040810204080901331E47EC8
:10128200019360BCA3FF543F30E509541FFEE49371
:10129200A360010ECF54C025E060A840B8E493A338
:1012A200FAE493A3F8E493A3C8C582C8CAC583CA63
:1012B200F0A3C8C582C8CAC583CADFE9DEE780BE1B
:01138E00005E
:10071D00BC000BBE0029EF8DF084FFADF022E4CCC0
:10072D00F875F008EF2FFFEE33FEEC33FCEE9DEC89
:10073D00984005FCEE9DFE0FD5F0E9E4CEFD22EDCF
:10074D00F8F5F0EE8420D21CFEADF075F008EF2F19
:10075D00FFED33FD4007985006D5F0F222C398FD0A
:05076D000FD5F0EA22A7
:00000001FF
