:102449007580FFE5A0541F4480F5A053A01FE4F553
:0D24590080E5A0541F44A0F5A053A01F2251
:1024EA0053890F538EBF758DFC758B18D2AFD2AB43
:0524FA00C28FD28E220A
:102584005389F0538E7FE4F58CF58AC28DC28C2278
:10259400EFF4F580E5A0541F4480F5A053A01F225A
:0520C2009000A3EFF007
:1020C700900060E0FCA3E0FDA3E0FEA3E0FF90002A
:1020D700A41206999000A4E0F8A3E0F9A3E0FAA3FC
:1020E700E0FB900060E0FCA3E0FDA3E0FEA3E0C3FB
:1020F7009BFBEE9AFAED99F9EC98F89000A3E0FFB4
:0A210700E4FCFDFEC312063940CAD5
:0121110022AB
:0B0F86009000A0EBF0A3EAF0A3E9F05C
:100F9100E49000A7F09000A6F09000A6E0FFC394B3
:100FA1000840030211B39000A0E0FBA3E0FAA3E024
:100FB100F99000A7E0F58275830012055F1207160C
:100FC10010DC2D11632E0FF830100D31102432106A
:100FD1003B3310523410693510803610973710AEFC
:100FE1003810C53911374110F346112148114D4CC4
:100FF100110A500000118D9000A3E0FBA3E0FAA3B9
:10100100E0F98F8275830074C00211A19000A3E002
:10101100FBA3E0FAA3E0F9A3E0F58275830074F97C
:101021000211A19000A3E0FBA3E0FAA3E0F9A3E081
:10103100F58275830074A40211A19000A3E0FBA3C3
:10104100E0FAA3E0F9A3E0F58275830074B0021120
:10105100A19000A3E0FBA3E0FAA3E0F9A3E0F582ED
:1010610075830074990211A19000A3E0FBA3E0FA3B
:10107100A3E0F9A3E0F58275830074920211A190B7
:1010810000A3E0FBA3E0FAA3E0F9A3E0F5827583F6
:101091000074820211A19000A3E0FBA3E0FAA3E097
:1010A100F9A3E0F58275830074F80211A19000A301
:1010B100E0FBA3E0FAA3E0F9A3E0F58275830074F5
:1010C100800211A19000A3E0FBA3E0FAA3E0F9A341
:1010D100E0F58275830074900211A19000A3E0FBFA
:1010E100A3E0FAA3E0F9A3E0F58275830074BF02DF
:1010F10011A19000A3E0FBA3E0FAA3E0F9A3E0F5BE
:1011010082758300748E0211A19000A3E0FBA3E01D
:10111100FAA3E0F9A3E0F582758300748C0211A1B2
:101121009000A3E0FBA3E0FAA3E0F9A3E0F5827548
:1011310083007489806A9000A3E0FBA3E0FAA3E036
:10114100F9A3E0F582758300748880549000A3E0D0
:10115100FBA3E0FAA3E0F9A3E0F58275830074C76D
:10116100803E9000A6E0D394004003E014F090008C
:10117100A3E0FBA3E0FAA3E0F9A3E0FFE92FF9E480
:101181003AFA120546547F12058C80179000A3E0AD
:10119100FBA3E0FAA3E0F9A3E0F58275830074FFF5
:1011A10012059E9000A7E004F09000A6E004F00272
:0211B1000F9A93
:0111B3002219
:1021E2007580FFE5A0541F44E0F5A053A01F7401C1
:1021F200A805088002C333D8FCF580E5A0541F442B
:10220200C0F5A053A01FAF058F8275830012055F32
:0E221200F580E5A0541F44E0F5A053A01F2264
:101E1C00E49000A1F0FDA3F0D2C2C2C4E5B0540F0F
:101E2C009000A1F0C2C2D2C4E0C454F0FFE5B0549B
:101E3C000F4FF0E0B4FF037F00227F141220C2D2B8
:101E4C00C2C2C4E5B0540FC2C2D2C4C454F0FFE540
:101E5C00B0540F4FFD9000A1E06D60037F0022EDA8
:101E6C00F414605314604824FE603C24FC6030245D
:101E7C00F8602424F0601824E0600C24C0704090BA
:101E8C0000A27404F0803D9000A27405F08035909F
:101E9C0000A27406F0802D9000A27407F0802590AB
:101EAC0000A27408F0801D9000A27409F0801590B7
:101EBC0000A2740AF0800D9000A2740BF08005E46F
:091ECC009000A2F09000A2E0FFDA
:011ED50022EA
:1025620075985075D76475D6FF438E15D2AFD2AC2D
:012572002246
:0B231C009000A0EBF0A3EAF0A3E9F0B2
:10232700E4FF9000A0E0FBA3E0FAA3E0F98F827539
:10233700830012055F600AF5993099FDC2990F80F5
:01234700E1B4
:012348002272
:10234900E4F58053A01FEF600DED60054380108018
:10235900105380EF800BED6005438080800353802C
:0D2369007FE5A0541F44A0F5A053A01F2243
:10251400E4FEC297EF1392A3EFC313FFD2970EEE1C
:03252400B408EF09
:012527002291
:0824660075F00A84EE25F0FD7B
:10246E00C29300C29700D29300122514AF05122515
:04247E0014C29322CF
:10222000E4FDC29300C29700D29300122514E4FF8C
:10223000C297EDC313FD30A3034480FDD2970FEF87
:10224000B408EDC29300C29700D29700C2A300D297
:04225000A300AF0533
:012254002267
:10207000E4FD7F8E12246E90000212055FFF75F062
:102080000A84C454F0FEEF7F80122466900001128F
:10209000055FFF75F00A84C454F0FEEF7F821224BE
:1020A00066120546FF75F00A84C454F0FEEF75F021
:1020B0000A84EE25F0FD7F8412246E7D807F8E02DF
:0220C000246E8C
:10215A007F81122220EFC4540F75F00AA4FEEF54B7
:10216A000F2E90000212059E7F83122220EFC45484
:10217A000F75F00AA4FEEF540F2E90000112059E6F
:10218A007F85122220EFC4540F75F00AA4FEEF5483
:05219A000F2E02058C70
:04249D00D2A07F0545
:1024A100000000000000000000000000000000AE7D
:0624B100071FEE70EB2294
:0624FF0012225C1223D63C
:0F250500D2A112249DC2A17F051224A1C2A0223F
:0C25A400C2A112249DD2A17F050224A137
:07225500AB071225057F9085
:02225C00AD07CC
:10225E00E4FCC2A07F051224A1ED30E704D2A180D8
:10226E0002C2A17F051224A1D2A0ED25E0FD7F05BB
:0A227E001224A10CECB408DAC2A08F
:012288002233
:10242B00E4FC12249DED25E0FD30A1034401FDC227
:0D243B00A07F051224A10CECB408E7AF054A
:012448002271
:1023C400EBF0A3EAF0A3E9F0AB051225057FA01218
:0223D400225C89
:1023D60012249DA2A1E433FDC2A07F051224A1AF61
:0123E60005F1
:0123E70022D3
:10000300C2A0EF24FF92A17F051224A112249DC256
:08001300A0D2A17F050224A187
:1022ED001222551223D6EB4440FF1224FF7F911288
:1022FD00225C1223D612242BAD07E4FF1200031229
:0E230D00242BAD077F011200031225A4AF059B
:01231B00229F
:1024D1001222551223D67F4312225C1223D6AF0358
:0924E10012225C1223D60225A48C
:102289009000A11223C4AF03801E9000A5E0FF14A3
:10229900F0EF601C9000A1E0FBA3E475F0011205CA
:1022A900F6A9F0FA120546FF12225C1223D680DA4B
:0322B9000225A457
:102112009000A01223C4AF031224FF7FA112225CFD
:102122001223D69000A4E0FF14F0EF602812242BB3
:102132009000A0E0FBA3E475F0011205F6A9F0FA05
:10214200EF12058C9000A4E06004E4FF80027F019E
:0821520012000380CE0225A457
:0424B7007F057E001F
:1024BB00EF1FAA0670011E4A600BE4FDEDC3940CDE
:0524CB0050EE0D80F74A
:0124D00022E9
:02240C00A9071E
:10240E00E4FBC294E91392941224B7D294E9C31355
:0D241E00F90BEBB408EC7F057E000224BB37
:10248200E4FBC294ECC313FCD2943094034480FC6A
:0A2492001224B70BEBB408EAAF0404
:01249C00221D
:10237600C20CD2947F0C7E001224BBC2947F507E86
:10238600001224BBD2947F0A7E001224BBA2949230
:062396000C1224B7A20C9A
:01239C00221E
:10257300C20B122376920B7FCC12240C7F440224CD
:012583000C4B
:1023E800C20B122376920B7FCC12240C7FBE1224D0
:1023F8000C122482A907122482EFFE7C00E429FF34
:03240800EC3EFEA9
:01240B0022AE
:101F62004625332E316660253375004625332E31E2
:101F720066604C4C004625332E326625322E316681
:101F820025322E31660050316060253464005032B3
:101F9200606025346400253032752D253032752D70
:101FA200253032750048466060602533750048412F
:101FB200253275253275253275004572726F725F52
:101FC20044004572726F725F4C004F4B0050574D88
:101FD200253264256325630050313A2533642C5041
:0A1FE200323A2533642563256300BD
:101D46004100360041005F00410067004100680025
:101D5600440060000000004C004931323334343214
:101D660000000000000048003E00000000000000E7
:101D76000041005B00410059004100300041003A3B
:101D8600004100310041002D00410069004200463B
:101D96000064420037000042002E0000420034007A
:101DA600184100480041002C0046002300000000B6
:101DB600000043003B0000004300290000004300F0
:101DC600640C3B2D41005C004100390041005A0083
:101DD60041005D0041005E004400550000000042E5
:101DE60000320000410005004100070044000900E0
:101DF60000000050000D0000000000000000000080
:101E060000000000000041001D0041001E004400CB
:051E16001F00000000A8
:101FEC001224491224EA1225841225627B017A00FC
:101FFC0079641220707B017A0079329000A474020B
:10200C00F07D01122112900032E0FFD3943C400F7E
:10201C00EF94C8500A900046E4F0A3EFF0800990CA
:10202C000046E4F0A37464F0900033E0FFD394E234
:10203C007480947F4008EF941E5003E08005E49078
:10204C000033F0900069F0121735122550121A7FE8
:10205C0012159B12187E1211B4121B701222BC1294
:04206C00219F80E34D
:1011B400900059E070030213A7E4F0900030E014AB
:1011C40070030212BC1470030212FD1470030213A4
:1011D400342403600302139090003AE07075D390B6
:1011E4000038E09400900037E0648094809000A37D
:1011F40074FF4037F0A3741FF0A37462F0900034BE
:10120400E0FCA3E0FDE41202C9E4FBFA7920784192
:101214001202279000A6120699900037E0FFA3E07F
:101224009000AACFF0A3EFF0021387F0A3741FF08D
:10123400A3746DF0900034E0FCA3E0FDE41202C955
:10124400E4FBFA792078411202279000A61206994D
:101254000213879000A374FFF0A3741FF0A37477A4
:10126400F0900023E0FCA3E0FDE41202C9E4FBFAE1
:1012740079C878421202279000A612069990002598
:10128400E0FCA3E0FDE41202C9E4FBFA79C8784269
:101294001202279000AA120699900027E0FCA3E00E
:1012A400FDE41202C9E4FBFA79C8784212022790DD
:1012B40000AE120699021387900031E09000A370EB
:1012C4001B74FFF0A3741FF0A37488F0900046E031
:1012D400FFA3E09000A6CFF0A3EF801974FFF0A362
:1012E400741FF0A37490F0900069E0FE3395E090D1
:1012F40000A6F0A3CEF00213879000A374FFF0A31E
:10130400741FF0A37498F090003BE0FF9000A6E4F3
:10131400F0A3EFF090003CE0FF9000A8E4F0A3EF0E
:10132400F090003DE0FF9000AAE4F0A3EFF08053BA
:1013340090002DE09000A3701874FFF0A3741FF0C8
:10134400A374A7F090002EE0FFA3E09000A6CF8046
:101354002E74FFF0A3741FF0A374B0F0900029E082
:10136400FF9000A6E4F0A3EFF090002AE0FF9000C5
:10137400A8E4F0A3EFF090002BE0FF9000AAE4F0C3
:10138400A3EFF07B017A00794912080E9000A37450
:1013940001F0A37400F0A3743EF07B017A00794954
:0413A400120F86227C
:10173500121E1C9000A0EFF0900000E06F700302F5
:10174500187D9000A0E024FB604A24FD7003021779
:10175500E714700302182F24056003021875900022
:1017650030E004F05403F0E0640260030218759061
:101775000046A3E0900032F0900069E0900033F05D
:101785007B017A0079329000A57402F07D01122266
:1017950089021875900030E014601F24FE602F2424
:1017A50003600302187590003AE070047F0180021F
:1017B5007F0090003AEFF0021875900031E0700458
:1017C5007F0180027F00900031EFF00218759000D4
:1017D5002DE070047F0180027F0090002DEFF00264
:1017E5001875900030E0B4011BA3E0600990006912
:1017F500E0240AF0800E900047E02414F0900046A3
:10180500E03400F0D3900047E094C8900046E064CF
:101815008094804006E4F0A374C8F0900069E0D39A
:101825006480949E404AE4F08046900030E0B40124
:101835001BA3E06009900069E024F6F0800E90009B
:1018450047E024ECF0900046E034FFF0C3900047F9
:10185500E0943C900046E0648094805006E4F0A358
:10186500743CF0900069E0C3648094625002E4F037
:081875009000A0E0900000F0DB
:01187D002248
:1025500090005CE0600BE4F07B017A00793B122193
:022560005A22FD
:101A7F00900005E014602B147003021B37240260E2
:101A8F0003021B6F122573900060E0FCA3E0FDA31F
:101A9F00E0FEA3E0FF90000112069990000574018B
:101AAF00F022900001E0F8A3E0F9A3E0FAA3E0FB35
:101ABF00900060E0FCA3E0FDA3E0FEA3E0C39BFF6A
:101ACF00EE9AFEED99FDEC98FCE47B207A03F9F891
:101ADF00C31206394003021B6F1223E8AD07AC0691
:101AEF00EC1202C9E4FBFA798078411202277BCD10
:101AFF007ACC794C783D12002DE4FBFA79207841AD
:101B0F0012011E120302900034EEF0A3EFF09000CA
:101B1F00057402F0900060E0FCA3E0FDA3E0FEA3DB
:101B2F00E0FF900001020699900001E0F8A3E0F9B0
:101B3F00A3E0FAA3E0FB900060E0FCA3E0FDA3E0CC
:101B4F00FEA3E0C39BFFEE9AFEED99FDEC98FCE43B
:101B5F007B05FAF9F8C31206395005E4900005F039
:011B6F002253
:10159B00900048E0606FE4F0900007E0FF90002CB3
:1015AB00B402057403F08002EFF090002CE0FF1200
:1015BB0022EDAC07E41202CEE4FBFA79A0784012DC
:1015CB00011EE4FBFA797F78431202277B0A7AD754
:1015DB0079A3783B12002DE4FBFA79C8784212010B
:1015EB001E120302900007E025E02423F582E43469
:1015FB0000F583EEF0A3EFF0900007E004F075F038
:10160B000384E5F0F0C3900026E09464900025E09D
:10161B009400500890005F7401F08005E490005F27
:10162B00F0900037E0FEA3E0FFD39400EE648094CB
:10163B00805003021734D3EF9428EE6480948050CB
:10164B00099000067433F002172C900046E0FEA3BD
:10165B00E0FF900037E0FCA3E0FDC39FEE6480F851
:10166B00EC648098400990000674FFF002172CEC94
:10167B001202C9E4FBFA7980784012011EC004C043
:10168B0005C006C007900047E024D8FD900046E057
:10169B0034FFFC1202C9A804A905AA06AB07D007A0
:1016AB00D006D005D004120227C004C005C006C066
:1016BB0007900047E024D8FD900046E034FFFC1271
:1016CB0002C9A804A905AA06AB07E4FFFE7D207C8E
:1016DB0043120227A804A905AA06AB07D007D00618
:1016EB00D005D004120029E4FBFA7980783F120070
:1016FB002D9000A0120699E4FFFE7D7F7C439000A5
:10170B00A0E0F8A3E0F9A3E0FAA3E0FB12011EE4CA
:10171B00FBFA79A07840120227120302900006EF21
:09172B00F0900006E0FF1224D149
:011734002292
:10187E007F0490005EE07003021984E4F0C28C7560
:10188E008AF3758CFFC28DD28CAE071FEE600C30C2
:10189E008DFDC28DA290B3929080EEC28CE4F58A3B
:1018AE00F58CC28DD28C208D032091FAC28C308D96
:1018BE001A900069E0FF3395E0FEEF24FFFFE43E4F
:1018CE00900037F0A3EFF0C28D8046AF8CEFFEADE7
:1018DE008A7C00E42DFFEC3EFEAD07FCE41202C94B
:1018EE007B967A43798B783C12011EC004C005C0EA
:1018FE0006C007900069E0FC1202CED003D002D0E1
:10190E0001D00012002D120302900037EEF0A3EF6B
:10191E00F0D3900038E094FF900037E0648094801C
:10192E004006E4F0A374FFF0C3900037E0648094A7
:10193E0080500774FFF0A374F6F090002EE0FEA323
:10194E00E0FF900037E0FCA3E0FDD39FEE6480F84B
:10195E00EC648098402090002EECF0A3EDF0900007
:10196E003BE0900029F090003CE090002AF09000BF
:06197E003DE090002BF09B
:011984002240
:101B700090005FE09000366006E04480F08004E072
:101B8000547FF0900009E0F8A3E0F9A3E0FAA3E0A5
:101B9000FB900060E0FCA3E0FDA3E0FEA3E0C39B9C
:101BA000FFEE9AFEED99FDEC98FCE47BC8FAF9F89B
:101BB000C31206395034900060E0FCA3E0FDA3E0BE
:101BC000FEA3E0FF900009120699900067E0700400
:101BD0007F0180027F00900067EFF0A3E070047F38
:101BE0000180027F00900068EFF0900030E0600517
:101BF000900036800F900067E09000366006E04469
:101C000001F08004E054FEF0900037E0FCA3E0FD1A
:101C1000C3EC648094805005900036802390004689
:101C2000E0FEA3E0FFD3ED9FEE6480F8EC648098C3
:101C30005005900036800F900068E09000366006F6
:101C4000E04402F08004E054FDF0900008E0FF90D2
:0F1C50000036E06F6009E0FF900008F012259465
:011C5F002262
:10219F0090005FE0603C900046E0FEA3E0FFD3902C
:1021AF000038E09FEE6480F8900037E0648098403C
:1021BF00047D018002E4FD7F01122349C3900037A3
:1021CF00E06480948050057D01E48002E4FDFF12FD
:0321DF002349226F
:1022BC00900039E0FF602924FE600F1460142402A2
:1022CC0070197BFF7A1F79BC800E7BFF7A1F79C453
:1022DC0080067BFF7A1F79CC12231CE4900039F026
:0122EC0022CF
:030023000213A81D
:1013A800C0E0C0F0C083C082C0D075D000C000C00B
:0D13B80001C002C003C004C005C006C0078C
:1013C500209803021580C29890001DE0FF04F07478
:1013D5000D2FF582E43400F583E599F090001DE0CA
:1013E500FF240DF582E43400F583E4F0EF64076033
:1013F5000302149D90007574FFF0A3741FF0A3748D
:10140500CFF0A37401F0A37400F0A3746EF0A3747D
:1014150001F0A37400F0A3746CF0A37401F0A3743D
:1014250000F0A3746DF07B017A00790D120CB59074
:10143500006AEEF0A3EFF064034E6003021580A38B
:10144500E0640D7050A3E0640A704AA3E0FEA3E0D7
:10145500FFD39400EE64809480403A7C007D0A12AC
:1014650005C0ED4C702F90005D04F0900060E0FC2D
:10147500A3E0FDA3E0FEA3E0FF90005512069990BE
:10148500006EE0FEA3E0FF7C007D0A1205C090001F
:101495005AEF02155702156590001DE0640F6003B1
:1014A50002156C90007574FFF0A3741FF0A374DA35
:1014B500F0A37401F0A37400F0A3746EF0A374019B
:1014C500F0A37400F0A37470F0A37401F0A374008A
:1014D500F0A3746CF0A37401F0A37400F0A3746D11
:1014E500F07B017A00790D120CB590006AEEF0A33D
:1014F500EFF064044E6003021580A3E0640D706094
:10150500A3E0640A705AA3E0FEA3E0FFC3943CEE97
:1015150064809480404AD3EF94C8EE6480948050F0
:101525003FA3E0FEA3E0FF941EEE6480948050305C
:10153500C3EF94E2EE6480947F402590006EE0FF57
:10154500A3E0900046CFF0A3EFF0900070A3E090E9
:101555000069F090001DE4F09000397403F0801BE1
:101565009000397401800E90001DE0D3940F400B5C
:0B1575009000397402F090001DE4F0BB
:10158000D007D006D005D004D003D002D001D000BF
:0B159000D0D0D082D083D0F0D0E03269
:03001B0002198542
:10198500C0E0C0F0C083C082C0D075D000C000C028
:0D19950001C002C003C004C005C006C007A9
:1019A200900060E0FCA3E0FDA3E0FEA3E02401FFC1
:1019B200E43EFEE43DFDE43CFC900060120699909A
:1019C200001F120664E47B64FAF9F8C31206397048
:1019D2001C90001F1206A50000000090005974011F
:1019E200F0900048F090005CF090005EF090005D96
:1019F200E06058900055E0F8A3E0F9A3E0FAA3E014
:101A0200FB900060E0FCA3E0FDA3E0FEA3E0C39B2B
:101A1200FFEE9AFEED99FDEC98FCE47B887A13F9CF
:101A2200F8D3120639401F90001EE004F0B40A06F3
:101A3200E4F0C2B4801590005AE0FF90001EE0B5B9
:101A42000709D2B4800590005DE4F07B017A007949
:101A52003E90005BE0FD1221E290005BE004F05456
:021A620007F08B
:101A6400D007D006D005D004D003D002D001D000D6
:0B1A7400D0D0D082D083D0F0D0E03280
:1000260002036EE86480F8E933E83360110460F097
:10003600ED33EC337009E8FCE9FDEAFEEBFF220440
:1000460060DED3EB9FEA9EE99DE8C2E78CF0C2F73B
:1000560095F0400CE8CCF8E9CDF9EACEFAEBCFFB07
:1000660012033985D0F05804700320D5B3E8047024
:10007600075002B2D502037892D5EC0460F7E4CCBF
:10008600C0E0C398F8603B94186008400DD0E0FBD0
:10009600020350E4FBFAC9FC8028E830E406E4C910
:1000A600FBE4CAFCE830E305E4C9CACBFCE8540724
:1000B6006010F8C3E913F9EA13FAEB13FBEC13FC2F
:1000C600D8F130F52FC3E49CFCEF9BFFEE9AFEEDD2
:1000D60099FDD0E0FBEF4E4D4C701222DB0302037C
:1000E60075EC2CFCEF33FFEE33FEED33FDED30E720
:1000F600EB020350EF2BFFEE3AFEED39FDD0E0FBAD
:1001060050130BBB0003020378ED13FDEE13FEEF55
:0801160013FFEC13FC0203507F
:10011E00EC4D6011E8497017ED33EC3304600DE4DB
:10012E00FCFFFEFD22E933E8330470F802036E1281
:10013E00033958046009E4CC248150062850090282
:10014E000378284003020375C0E0EB4A7044B9807F
:10015E0006D0E0FB020364EF4E701CBD8008EBFF7F
:10016E00EAFEE9FD80EBE98DF0A4FEE5F002020760
:10017E00E9CDF9EAFEEBFFEF89F0A4FCE5F0CE89BC
:10018E00F0A42EFFE435F0CD89F0A42DFEE435F079
:10019E008067EF4E7005BD80D780C3EF8BF0A4ACA7
:1001AE00F0EE8BF0A42CFCE435F0F8EF8AF0A42CE2
:1001BE00E5F038FCE433CB8DF0A42CFCE5F03BF8F5
:1001CE00EE8AF0A42CFCE5F038F8E433CF89F0A4E5
:1001DE002CFCE5F038CF3400CE89F0A42FFFE5F0EB
:1001EE003EFEE433C98DF0A42EFEE5F039CD8AF043
:1001FE00A42FFFE5F03EFEE43DFD33D0E0FB5007BB
:10020E000BBB000F020378EC2CFCEF33FFEE33FE3A
:06021E00ED33FD02035068
:10022400020378EC5D046005E85904700302036E70
:10023400120339580460F6EC4860F2EC7004FDFED9
:10024400FF22C860DB2481C85009C39860025006AD
:100254000203759850CAF582E9294B4A7005AB82AE
:1002640002036475F0007C1A7880C3EF9BEE9AED6C
:1002740099400DC3EF9BFFEE9AFEED99FDE842F025
:10028400DC23ACF0D0E0FFD0E0FED0E0FDAB822078
:10029400E7101BEB60BAEC2CFCEF33FFEE33FEED02
:1002A40033FD020350E803F830E705C0F075F000B1
:1002B400EF2FFFEE33FEED33FD40B830E7C280AAE6
:1002C40075F020800E75F010800575F0087D007EB5
:1002D400007F003392D530D50312062BEC33401047
:1002E400EF33FFEE33FEED33FDEC33FCD5F0ED22BE
:0E02F400E5F0247EA2D513CC92E7CDCEFF22FA
:10030200EDD2E7CD33EC3392D524814006E4FFFEF3
:10031200FDFC22FCE4CFCECDCC24E0501174FF8052
:10032200EDC3CC13CCCD13CDCE13CECF13CF0470EF
:07033200F030D5DE02062BBE
:1007A900E51324A3F582E43400F583E005132290D0
:1007B90000A03012039000A3E475F0011206DF02D5
:1007C9000546200BE97F2ED20B8018EF540F249099
:1007D900D43440D4FF300F0BEF24BFB41A005003B8
:1007E9002461FFE514600215140517E51770020569
:1007F9001630120E9000A0E475F0011206DFEF0228
:10080900058C02239D7403D2128003E4C212F513EE
:100819009000A012070DE4F514F516F517E514601C
:10082900077F201207EC80F57515FFC20CC20BC2B9
:100839000DC20EC210C211C2131207B8FF700D30DB
:1008490012057F001207FDAF17AE1622B4255FC24D
:10085900D5C20F1207B8FF24D0B40A00501A75F098
:100869000A781430D50508B6FF0106C6A426F62075
:10087900D5047002D20E80D924CFB41A00EF5004E7
:10088900C2E5D20F020AEFD20C80C6D20B80C0D2C9
:100899000D80BCD2D580BAD21080B47F201207EC6B
:1008A900200D077401B5140040F11207A9FF1207C2
:1008B900EC020826D213D21180951207A9FB120760
:1008C900A9FA1207A9F94A4B700679ED7A0B7BFF51
:1008D900200D2EE514602A7E008E82758300120594
:1008E9005F60060EEE651570F0C2D5EBC0E0EAC098
:1008F900E0E9C0E0EE120B50D0E0F9D0E0FAD0E028
:10090900FB120546FF60AAEBC0E0EAC0E0E9C0E0DF
:100919001207ECD0E02401F9D0E03400FAD0E0FB72
:10092900E5150460DCD515D98087D20D80A2120B9C
:100939003260F7E515700104120383A915600DE50E
:1009490015600914F515120BDAEF60F3EA30E702C6
:10095900F404C3995079EAF425150430E701E40455
:10096900F515800D120B3260C1EA05152515120324
:1009790083EA9000CFF030E701E4251504D515048A
:1009890020100114120B50E4C0E0120BDA9000CFD2
:10099900E0601320E70714F01207D4802204F0D096
:1009A900E014C0E07F001207D4E51560071207CBF9
:1009B9001515800B3010031207CBD0E0020826D0A2
:1009C900E00480C4120B32609EE515041203839083
:1009D90000CFEAF0E5152010026001042404120B8F
:0109E90050BD
:1009EA0074FF04C0E0120BDA1207D4E515201002D6
:1009FA0060031207CBD0E0B515E87F451207DE90F9
:100A0A0000CFE07F2B30E7047F2DF404C0E012070B
:100A1A00ECD0E075F00A84C0F01207D5D0E01207D6
:100A2A00D5020826791080027908C211C2138008FB
:100A3A00D2D5790A8004790AC2D5E515047002F57F
:100A4A0015E4FAFDFEFF1207A9FC7B08200C13121D
:100A5A0007A9FD7B10300B0A1207A9FE1207A9FF8E
:100A6A007B20EC3382D592D55013C3E4300B069F1A
:100A7A00FFE49EFEE4200C039DFDE49CFCE4CBF81D
:100A8A00C20CEC700CCFCECDCCE824F8F870F38011
:100A9A0017C3EF33FFEE33FEED33FDEC33FCEB33DC
:100AAA00FB994002FB0FD8E9EB300C05F8D0E0C403
:100ABA0048B20CC0E00AEC4D4E4F78207B0070C261
:100ACA00EAB5150040BCC0E0120B52D0F0D0E020CD
:100ADA000C04C4C0E0C4B20CC0F01207D5D0F0D5E3
:100AEA00F0EB02082612071608C3530A2E58089478
:100AFA004C0890420A324F0A3A440A3A4908A94332
:100B0A000A4055096D4609CD450937470C0D50086D
:100B1A00982D089C2E08BF2B08A02308BD200BF691
:100B2A002A085848000008B7E515B4FF03751506EA
:100B3A001207A9FC1207A9FD1207A9FE1207A9FFAD
:100B4A009000C80203C0790AA2D5200E14301009F9
:100B5A00B910020404B9080104A2D52011025001F7
:100B6A0004200D68920DB514005034C0E07F203087
:100B7A000E197F30A20D72117210500F120BA9C2FA
:100B8A000DC211C210C2137F30800F301003E9C0AA
:100B9A00E01207EC301003D0E0F9D0E0B514CC3005
:100BAA0010177F30B9100C1207EC7F58300F077FEF
:100BBA00788003B908031207EC300D057F2D020770
:100BCA00EC7F202013F87F2B2011F322920D80CF87
:100BDA007F00B40700500B24C8F582E43400F58383
:100BEA00E0FF22286E756C6C2900D20C1207A9301E
:100BFA000CF8C20C781430D50108F60208582D50AA
:100C0A004349581207A92403B405004001E4900C93
:100C1A0008931207DD743A1207DDD20E7514040226
:020C2A000A2E90
:100C2C00E50830030104F823282475F582E4340028
:100C3C00F58322900072300303900075E475F00187
:100C4C001206DF02054660EAC50C7002150B14C5CE
:100C5C000C200304FF0225BA90007274FFF5F00219
:100C6C0006F6FF02253CE5096006D509037F002244
:100C7C0020030F122528EF6008050CE50C70020507
:100C8C000B229000721206D6120546FF60E8900007
:100C9C0072E475F0011206DF80DC120C7CEFC0E010
:100CAC00120C6ED0E040F3809DD2038002C2039000
:100CBC00007212070DE4F50AF508F50BF50C750931
:100CCC0000C202C200C201C204120C3FFF7005AF89
:100CDC000A7E0022B42530120C3FFF24D0B40A0047
:100CEC00500C75F00AC509A42509F50980E924CF33
:100CFC00B41A00EF5002C2E5020F52D20180D8D2D2
:100D0C000080D4D20480D0EF120C6E5008120CA6C6
:100D1C00EF600E80A9EFC0E0120C7CD0E06F609EFB
:100D2C00EF6074120C5280A7120C7CEF6069E5091D
:100D3C00700705098003120C7CEF601420040E125E
:100D4C000C2CE475F0011206DFEF12058CD509E6C8
:100D5C002004040508050A80BA120C72EFC0E012D8
:100D6C000C6ED0E05004120C52E4FF20040E120C56
:100D7C002CE475F0011206DFEF12058CEF70DA200F
:100D8C0004040508050A808BE50960020509120CAC
:100D9C00A6120C72EF70C6300304E4120C52E50A72
:100DAC006003020CDB7EFF7FFF22E5096002050970
:100DBC00120CA6D206D205120C72EF30060260D7C6
:100DCC00C0E0120C52D0E0AC0DAD0EAE0FAF101255
:100DDC001C738C0D8D0E8E0F8F105007120C7CC255
:100DEC000580D4200410200502050A120C2C1206D2
:030DFC00D6050811
:100DFF0012064A020CCAD0E0809A7900800A791054
:100E0F00800679088002790AD205E5096002050992
:100E1F00E9C0E0120CA6EF60DD120C7CBF2D04D2EE
:100E2F00028003BF2B09120CA6EF60CA120C72D0FE
:100E3F00E0B40A028033B40802802EBF302770025C
:100E4F007408C205C0E0120C72D0E0BF78028003B4
:100E5F00BF58160509D509028007D50904D20580A8
:100E6F000B741080197002740ABF000AEFF8E4FCCB
:100E7F00FDFEFF020F05C0E0EF120C52D0E0F9E4C7
:100E8F00FCFDFEFFE9C0E0ECC0E0EDC0E0EEC0E02D
:100E9F00EFC0E0120C72EFF8D0E0FFD0E0FED0E030
:100EAF00FDD0E0FCD0F0E8604DB461004007B47BAA
:100EBF00005002C2E524D0503DFA24F6500724F921
:100ECF005034240AFAEAB5F000502BCFA9F0A42F22
:100EDF00FF92D5E9C5F0CEA4A2D53EFE92D5E9C5C5
:100EEF00F0CDA4A2D53DFD92D5E9C5F0CCA4A2D5F5
:100EFF003CFCC205808EE8C0E020042A20050805CE
:100F0F000A30020312062B120C2C1206D6050820EB
:100F1F00000B20010DEE8FF012060C800912064A0D
:100F2F008004EF12058CD0E0120C52020CCA200480
:100F3F0010120C2C1206D60508E50B850CF01206C4
:100F4F000C80E81207160D94530E0D580D0B4C0D17
:100F5F0007420CE3480E114F0E15440D34430E0992
:100F6F00490E15550DB6460DB6450DB6470D0F2A50
:070F7F000F3D4E00000D13B1
:10033900E9D2E7C933E833F892D5EDD2E7CD33EC0A
:0703490033FC5002B2D52283
:10035000EC30E7100FBF000C0EBE00080DBD00040E
:100360000BEB6014A2D5EB13FCED92E7FD2274FFBA
:10037000FCFDFEFF22E480F8A2D574FF13FC7D8013
:03038000E480EF27
:10038300F920E73624F950037907E4F42402FBE566
:1003930082158270021583DBF6E024FB501BE960B3
:1003A30014E4F0E582158270021583E004F0B40AC8
:0D03B30008E4F0D9EE7401F00A22C2D52250
:1003C000ED33EC3392D5FA602AB4FF33EDC2E77B0C
:1003D000FF60067A0379E5E4227A0379EE20D504FA
:1003E0007A0379E9224E614E002B494E46002D4991
:1003F0004E4600E47A08F0A3DAFC7B00740722C0C2
:1004000083C082ECC0E0EDC0E0EEC0E0EFC0E0EA07
:1004100075F010A4CAABF075F04DA42BFBE435F0D9
:10042000FCEA2410FAEB34C5FBEC34D9FCEDC2E74E
:10043000FF75F056A4F42411C5F0F434C58FF0A470
:100440002AE5F03BE43CF020E714120506D0E0FF7B
:10045000D0E0FED0E0FDD0E0FC1202278014F404CE
:10046000120506D0E0FFD0E0FED0E0FDD0E0FC12A7
:10047000011ED082D083E0FAEDD2E7CD33EC3324F5
:1004800082FBE4C3CF33CFCE33CECD33CD33DBF3DA
:100490007B0775F00A846004F0A31B0AE5F0F0A363
:1004A0008FF0740AA4FFACF08EF0740AA42CFEAC9A
:1004B000F050010C8DF0740AA42CFDE435F0F0A38B
:0504C000DBDE740722E1
:101C6000C207C208C209C20AF9E4F511F512FCFD67
:101C7000FEFFE91006EA20090CB42D04D209D32294
:101C8000B42B02D32224D0504794095041240A3067
:101C90000A15F88512F0740AA42872E74051C5F0BD
:101CA000704D85F012D322D208C0E0E4FBFA79200F
:101CB000784112011EECF8EDF9EEFAEFFBD0E0FCF2
:101CC000E41202CE12002D3007B41511D322240ADB
:101CD000200A20B4FE0720071AD207D32224EB6083
:101CE0000424E0700EA2099207D20AC209D322C3CB
:101CF00002036EE4300A0BE512300902F404A20775
:101D000092093008EA251120D2E5A2E7920A500292
:101D1000F404B4260050D8CCC0E0EDC0E0EEC0E042
:101D2000EFC0E0EC120506D0E0FFD0E0FED0E0FD11
:101D3000D0E0FC200A0512011E80031202273009A0
:061D4000031204C5C322DA
:1004C500ED33EC33600A047003BD8004ECB2E7FC45
:0104D5002204
:1004D6003F8000004120000042C80000447A00002E
:1004E600461C400047C35000497424004B189680B0
:1004F6004CBEBC205A0E1BCA6753C21C749DC5AEA7
:10050600FB60065407601C2323120534EB54386045
:100516000912052012052F12011EECF8EDF9EEFA6C
:10052600EFCB22EB12052F80F1543803241C9004E4
:10053600D6FE93FC0EEE93FD0EEE930ECE93FF22A7
:03000000021ED607
:0C1ED600787FE4F6D8FD758122021F1D04
:10054600BB010689828A83E0225002E722BBFE02B3
:09055600E32289828A83E49322E6
:10055F00BB010CE58229F582E5833AF583E0225051
:10056F0006E92582F8E622BBFE06E92582F8E2229B
:0D057F00E58229F582E5833AF583E49322B5
:10058C00BB010689828A83F0225002F722BBFE014E
:02059C00F32248
:10059E00F8BB010DE58229F582E5833AF583E8F093
:1005AE00225006E92582C8F622BBFE05E92582C83F
:0205BE00F22227
:1005C000C2D5EC30E709B2D5E4C39DFDE49CFCEE56
:1005D00030E715B2D5E4C39FFFE49EFE12073CC38B
:1005E000E49DFDE49CFC800312073C30D507C3E486
:0605F0009FFFE49EFE22C5
:1005F600A3F8E0C5F025F0F0E582158270021583B8
:06060600E0C838F0E82214
:10060C00BB010A89828A83F0E5F0A3F0225006F739
:0F061C0009A7F01922BBFE06F3E5F009F3192236
:0E062B00C3E49FFFE49EFEE49DFDE49CFC22E0
:10063900EB9FF5F0EA9E42F0E99D42F0E89C45F017
:01064900228E
:10064A00BB010789828A830206995005E9F80207E5
:0A065A0091BBFE05E9F802079D229E
:100664007401FF3395E0FEFDFCA3A3A3E02FFFF08C
:10067400E582158270021583E03EFEF0E582158264
:1006840070021583E03DFDF0E5821582700215834A
:05069400E03CFCF02237
:0C069900ECF0A3EDF0A3EEF0A3EFF022D4
:1006A500A8828583F0D083D0821206BC1206BC12C4
:1006B50006BC1206BCE473E493A3C583C5F0C583E9
:1006C500C8C582C8F0A3C583C5F0C583C8C582C89F
:0106D5002202
:0906D600E0FBA3E0FAA3E0F92225
:1006DF00F8E0FBA3A3E0F925F0F0E58215827002A4
:0706EF001583E0FA38F02248
:1006F600F8E0FBA3A3E025F0F9F0E582158270028D
:070706001583E038FAF02230
:09070D00EBF0A3EAF0A3E9F022ED
:10071600D083D082F8E4937012740193700DA3A372
:1007260093F8740193F5828883E473740293686086
:06073600EFA3A3A380DF86
:10239D00EFB40A07740D1223A8740A309811A89986
:1023AD00B8130CC2983098FDA899C298B811F630A0
:0723BD0099FDC299F5992278
:1025280010140B1225B0BF0D027F0A02239D9000E4
:04253800D0E0FF22CE
:0825BA009000D0EFF0D21422D2
:10253C00EFC394094005EF940E4004EFB42003D38D
:04254C008001C32225
:101EE200021FECE493A3F8E493A34003F68001F20B
:101EF20008DFF48029E493A3F85407240CC8C33301
:101F0200C4540F4420C8834004F456800146F6DFCF
:101F1200E4800B0102040810204080901D46E47EFC
:101F2200019360BCA3FF543F30E509541FFEE493C4
:101F3200A360010ECF54C025E060A840B8E493A38B
:101F4200FAE493A3F8E493A3C8C582C8CAC583CAB6
:101F5200F0A3C8C582C8CAC583CADFE9DEE780BE6E
:011E1B0000C6
:10073C00BC000BBE0029EF8DF084FFADF022E4CCA1
:10074C00F875F008EF2FFFEE33FEEC33FCEE9DEC6A
:10075C00984005FCEE9DFE0FD5F0E9E4CEFD22EDB0
:10076C00F8F5F0EE8420D21CFEADF075F008EF2FFA
:10077C00FFED33FD4007985006D5F0F222C398FDEB
:05078C000FD5F0EA2288
:0C079100ECF608EDF608EEF608EFF62294
:0C079D00ECF208EDF208EEF208EFF22298
:0A25B0003098FDAF99C2987E00221A
:00000001FF
