:10226F004520202532752D4141004520202532750E
:10227F002D25327500253032752D253032752D25DF
:10228F0030327500432020202020202000432025BD
:10229F003032752D25342E31660048202020202025
:1022AF002020004820253032752D25342E31660030
:1022BF004630302020202020004625303275253032
:1022CF0032752D25303275005020202020202530EA
:1022DF003275004E756D0D0A00436C720D0A005079
:1022EF00617261253264256325630025750D0A002F
:1022FF004F4B0D0A004552520D0A0002030508000C
:07230F0000000000000000C7
:101E21004100D0004100CB004100CE004100CF0075
:101E31004400A80000000042009200004100B000F0
:101E41004100D8004100D400410091004100B5009B
:101E51004A00C1313233343536373839004800B69B
:101E61000000000000000000410099004100CD0089
:101E710042009C0000420095000042009700004291
:101E8100009A00004400AC0000000042009E0000E7
:101E91004200A000004400B1000000004200A60082
:101EA100004100CC1E410094004200D600004300D6
:101EB100BE0A141E4300D10A141E4100D500410080
:101EC1006E0044006F000000004100730041007487
:101ED10000410075004400760000000041007A00D6
:101EE10045007B00000000004100800041008200AD
:101EF100440083000000004900870000000000004A
:071F01000000004100900008
:1025990012282212290812297A1228DC7B017A00D2
:1025A90079BE1224FC9000397401F0A37400F0A3E1
:1025B90074B6F07B017A0079C1121291121B2612AE
:1025C900152E121FEF12178A1228F31220CD12248A
:0625D9003412266280E6C8
:101B2600121C3AAB0790006EE06B7003021BB49078
:101B360000A8E0FCA3E0FDA3E0FEA3E0FF90006F99
:101B46001208319000CFE07060EB24FE602324FD84
:101B56006036146049240570509000CBE004F0759F
:101B6600F00384E5F0F0E06401703E9000CEF08072
:101B7600389000CBE0640170309000CEE004F07540
:101B8600F00384E5F0F080219000CBE0B4021AA3C4
:101B9600E004F0E0D3946340107463F0800B90008F
:101BA600CBE0B40204A3E014F090006EEBF09000DA
:101BB600A8E0F8A3E0F9A3E0FAA3E0FB90006FE049
:101BC600FCA3E0FDA3E0FEA3E0C39BFFEE9AFEEDBF
:101BD60099FDEC98FCE47BD07A07F9F8D312080655
:101BE600505190006EE024FA70499000CBE0B401A9
:101BF600429000CEE0B4023BE4900094F09000B135
:101C060012083D00000000E49000A6F0A3F090004A
:101C16009EF0A3F0A3F0A3F09000AC12083D0000E4
:101C26000000E490009AF0A3F0900095F0A3F0A3D2
:031C3600F0A3F028
:011C39002288
:10152E009000CFE06074900095E0FEA3E0FF64B6FB
:10153E007003EE64036006EF64324E702290004139
:10154E0074FFF0A37422F0A3746FF090009EE0FE7F
:10155E00A3E0FF7C007D0A1206B69000448037900F
:10156E00004174FFF0A37422F0A37479F090009EF2
:10157E00E0FEA3E0FF7C007D0A1206B6900044EE6A
:10158E00F0A3EFF0900095E0FEA3E0FF7C007D0A53
:10159E001206B6900046EE0217669000CBE014607D
:1015AE004114700302174F24026003021773900058
:1015BE004174FFF0A37422F0A37484F09000D1E084
:1015CE00FF900044E4F0A3EFF09000D2E0FF900013
:1015DE0046E4F0A3EFF09000D3E0FF900048E40261
:1015EE0017669000CEE0600302167B900094E090A8
:1015FE000041700E74FFF0A37422F0A37493F002F6
:10160E00176A74FFF0A37422F0A3749CF09000A6E6
:10161E00E0FEA3E0FF7C007D0A1206B6900044EEC9
:10162E00F0A3EFF09000B1E0FCA3E0FDA3E0FEA379
:10163E00E0FFE41202C4E4FBFA792078411202279B
:10164E00C004C005C006C007900094E0FCE412027E
:10165E00CEA804A905AA06AB07D007D006D005D0A0
:10166E000412022790004612083102176A9000CE2B
:10167E00E064016003021706900094E09000417050
:10168E000D74FFF0A37422F0A374A9F0806874FFA8
:10169E00F0A37422F0A374B2F090009AE0FEA3E0DF
:1016AE00FF7C007D0A1206B6900044EEF0A3EFF028
:1016BE009000ACE0FCA3E0FDA3E0FEA3E0FFE4128B
:1016CE0002C4E4FBFA79207841120227C004C00557
:1016DE00C006C007900094E0FCE41202CEA804A954
:1016EE0005AA06AB07D007D006D005D004120227F4
:1016FE009000461208318064900094E09000417092
:10170E000C74FFF0A37422F0A374BF803174FFF049
:10171E00A37422F0A374C8F0900094E0FF900044EC
:10172E00E4F0A3EFF09000D6E0FF900046E4F0A3C3
:10173E00EFF09000D7E0FF900048E4F0A3EFF080C8
:10174E001B90004174FFF0A37422F0A374D7F090A5
:10175E0000CCE0FF900044E4F0A3EFF07B017A00B0
:10176E0079C1120B199000397401F0A37400F0A323
:0C177E0074B6F07B017A0079C102129170
:101FEF009000CFE0600AA3E054F8F04404F08022A0
:101FFF009000D0E054F8F09000CBE0FD7009900015
:10200F00D0E04401F0800BEDB401079000D0E04424
:10201F0002F09000CCE075F00AA4FF90009EE0FC67
:10202F00A3E0FDD39FEC95F040189000B5E0600B56
:10203F00E4F09000D0E06408F080079000D0E05406
:10204F00F7F0900095E0FEA3E0FFC39464EE9400D8
:10205F004012D3EF9484EE940350099000D0E054D3
:10206F00EFF080079000D0E04410F0900094E0D3A0
:10207F009401402D9000A0E0FEA3E0FFD3ED9FEC74
:10208F009E401E900097E0FEA3E0FFD3900096E0E5
:10209F009F900095E09E40099000D0E04420F08092
:1020AF00079000D0E054DFF0900073E0FF9000D075
:0D20BF00E06F6009E0FF900073F012296AE5
:0120CC0022F1
:102662009000CDE0C3943250089000367401F0809F
:1026720005E4900036F0900074E0FF900036E0FE32
:102682006F6014EE60047F018002E4FF12287690EE
:072692000036E0900074F037
:01269900221E
:03001B00021D368D
:101D3600C0E0C0F0C083C082C0D075D000C000C073
:101D460001C002C003C004C005C006C0079000A8B9
:101D5600E0FCA3E0FDA3E0FEA3E02401FFE43EFED9
:101D6600E43DFDE43CFC9000A81208319000B0E090
:101D760004F0B40A07E4F09000D804F09000D4E030
:101D860004F0B4640BE4F090009104F09000B5F018
:101D9600E47BE87A03F9F89000A8E0FCA3E0FDA351
:101DA600E0FEA3E0FF120766AC00AD01AE02AF0392
:101DB600E4FBFAF9F8C3120806702C900093E004CD
:101DC600F07006900092E004F0AF8CEFFEAD8A7CD6
:101DD60000E42DFFEC3E90009CF0A3EFF0C28C7562
:101DE6008C00758A00D28C7B017A0079B6900099B6
:101DF600E0FD122624900099E004F0B40802E4F015
:101E0600D007D006D005D004D003D002D001D00030
:0B1E1600D0D0D082D083D0F0D0E032DA
:03000B0002254E7D
:10254E00C0E0C0F0C083C082C0D075D000C000C053
:0D255E0001C002C003C004C005C006C007D4
:10256B0078007C007D017BFF7A23790A7E007F0453
:03257B001206162F
:10257E00D007D006D005D004D003D002D001D000B1
:0B258E00D0D0D082D083D0F0D0E0325B
:1028F3009000D8E0600EE49000D8F07B017A007974
:05290300D11225DF22C6
:1020CD0090007AE014602B147003022169240260E1
:1020DD00030221A11229599000A8E0FCA3E0FDA361
:1020ED00E0FEA3E0FF90007612083190007A7401B3
:1020FD00F022900076E0F8A3E0F9A3E0FAA3E0FB6C
:10210D009000A8E0FCA3E0FDA3E0FEA3E0C39BFFCD
:10211D00EE9AFEED99FDEC98FCE47BF87A02F9F865
:10212D00C3120806506E12279FAD07AC06EC1202C3
:10213D00C9E4FBFA798078411202279000A21208B7
:10214D00319000A8E0FCA3E0FDA3E0FEA3E0FF902A
:10215D00007612083190007A7402F022900076E039
:10216D00F8A3E0F9A3E0FAA3E0FB9000A8E0FCA33C
:10217D00E0FDA3E0FEA3E0C39BFFEE9AFEED99FD0B
:10218D00EC98FCE47B05FAF9F8C31208065005E457
:04219D0090007AF044
:0121A100221B
:10178A009000CFE06039900083E0F8A3E0F9A3E08D
:10179A00FAA3E0FB9000A8E0FCA3E0FDA3E0FEA30F
:1017AA00E0C39BFFEE9AFEED99FDEC98FCE47BB852
:1017BA007A0BF9F8D31208065005E49000CFF0909E
:1017CA000091E070030219D7E4F0122729900081F2
:1017DA00EFF0900080E0FE04F0747B2EF582E43492
:1017EA0000F583EFF0900080E0640560030219D7EA
:1017FA00F07B017A00797B7D051223169000CDEFEC
:10180A00F0C39432400F9000367401F09000D0E09B
:10181A004480F0800CE4900036F09000D0E0547FD1
:10182A00F09000D0E0FF12296A9000CFE060030236
:10183A0019CF900082E070030219CF900036E06061
:10184A00030219CF9000CF04F09000A8E0FCA3E0B7
:10185A00FDA3E0FEA3E0FF90008312083190009EF2
:10186A00E0FFA3E0A3CFF0A3EFF0E4FFFE7D207C2E
:10187A0041A3E0F8A3E0F9A3E0FAA3E0FB12011EFA
:10188A0012030290009EEEF0A3EFF090009CE0FE9F
:10189A00A3E0FFC394C8EE940050030219AED3EF3D
:1018AA0094D0EE940740030219AE900095E0FFA38E
:1018BA00E0A3CFF0A3EFF090009DE02438FD900064
:1018CA009CE034FFFCE41202C9E4FBFA79A07842F6
:1018DA0012011EE4FBFA79E17844120227E4FBFACA
:1018EA007920784112002DE4FBFA7920784112011F
:1018FA001E120302900095EEF0A3EFF0C390009B36
:10190A00E09F90009AE09E500F900095E0FFA3E0C0
:10191A0090009ACFF0A3EFF09000ACE0F8A3E0F9C2
:10192A00A3E0FAA3E0FB900095E0FEA3E0FFE4FC4D
:10193A00FDEB2FFFEA3EFEED39FDEC38FC9000ACE2
:10194A001208319000A6E0FEA3E0FF90009EE0FCA2
:10195A00A3E0FDD39FEC9E40089000A6ECF0A3ED17
:10196A00F09000B1E0F8A3E0F9A3E0FAA3E0FB905D
:10197A00009EE0FEA3E0FFE4FCFDEB2FFFEA3EFE43
:10198A00ED39FDEC38FC9000B1120831900094E07A
:10199A0004F09000D1E09000D6F09000D2E09000E0
:1019AA00D7F08021D390009DE094D090009CE094E1
:1019BA000790009540097403F0A374B6F08006E41A
:0D19CA00F0A37432F0900036E0900082F03F
:0119D70022ED
:030023000219D8E7
:1019D800C0E0C0F0C083C082C0D075D000C000C0D5
:0D19E80001C002C003C004C005C006C00756
:1019F500209803021B0BC298900090E0FF04F0743E
:101A0500872FF582E43400F583E599F0900090E0A6
:101A15002487F582E43400F583E4F078877C007D43
:101A2500017BFF7A2279E2120A7FEF70069000D5DA
:101A350004805178877C007D017BFF7A2279E8124A
:101A45000A7FEF7042900094F09000B112083D00BB
:101A55000000009000A6E4F0A3F090009EF0A3F033
:101A6500A3F0A3F09000AC12083D00000000900028
:101A75009AE4F0A3F0900095F0A3F0A3F0A3F09002
:101A850000D57402F0807A900090E0640870779039
:101A9500000B74FFF0A37422F0A374EEF0A374019D
:101AA500F0A37400F0A37406F0A37401F0A374000E
:101AB500F0A37404F0A37401F0A37400F0A37405FB
:101AC500F07B017A007987120FC0EF64034E702B0B
:101AD500900006E0FEA3E0FFD39400EE9400401BC7
:101AE500900004E0B40D12A3E0B40A0D9000CCEF11
:101AF500F09000D57402F0800880009000D5740342
:061B0500F0900090E4F0F6
:101B0B00D007D006D005D004D003D002D001D0002E
:0B1B1B00D0D0D082D083D0F0D0E032D8
:1024340078367C007D017BFF7A23790E7E007F084D
:102444001206169000D5E024FE602314602F2402A7
:10245400704B90004174FFF0A37422F0A374FAF05F
:10246400900094E0FF900044E4F0A3EF801C9000FF
:102474004174FFF0A37422F0A374FF800D90004117
:1024840074FFF0A37423F0A37404F07B017A007941
:1024940036120B197B017A0079361226CFE49000AC
:0224A400D5F071
:0124A6002213
:10296A00EFF4F580E5A0541F4480F5A053A01F2280
:102822007580FFE5A0541F4480F5A053A01FE4F576
:0D28320080E5A0541F44A0F5A053A01F2274
:10287600E4F580EF600543801080035380EFE5A008
:0A288600541F44A0F5A053A01F2228
:10290800758DFC758B1853890F538EBFC28FD2AB50
:05291800D2AFD28E22B7
:10297A00538E7F438904E4F58AF58CC28DD28C226A
:0824A700900039EEF0A3EFF004
:1024AF009000A8E0FCA3E0FDA3E0FEA3E0FF9000F6
:1024BF003B12083190003BE0F8A3E0F9A3E0FAA348
:1024CF00E0FB9000A8E0FCA3E0FDA3E0FEA3E0C3C7
:1024DF009BFBEE9AFAED99F9EC98F8900039E0FE33
:0C24EF00A3E0FFE4FCFDC312080640C897
:0124FB0022BE
:0B129100900036EBF0A3EAF0A3E9F0B8
:10129C00E490003CF0A3F090003DE0FFC3940840C4
:1012AC000302152D900036E0FBA3E0FAA3E0F990C1
:1012BC00003CE0F5827583001206551208AE14B19D
:1012CC002014992D14C92E130D30132231133B32D7
:1012DC00135433136D34138635139F3613B83713E9
:1012EC00D13813EA39140341141C42143543144EFB
:1012FC004414674514804614EF4815075000001439
:10130C00B1900039E0FBA3E0FAA3E0F98F8275837A
:10131C000074C002151D900039E0FBA3E0FAA3E0B5
:10132C00F990003DE0F58275830074F902151D906B
:10133C000039E0FBA3E0FAA3E0F990003DE0F58270
:10134C0075830074A402151D900039E0FBA3E0FA2C
:10135C00A3E0F990003DE0F58275830074B00215AE
:10136C001D900039E0FBA3E0FAA3E0F990003DE00A
:10137C00F582758300749902151D900039E0FBA36A
:10138C00E0FAA3E0F990003DE0F5827583007492D9
:10139C0002151D900039E0FBA3E0FAA3E0F99000E0
:1013AC003DE0F582758300748202151D900039E0D2
:1013BC00FBA3E0FAA3E0F990003DE0F58275830011
:1013CC0074F802151D900039E0FBA3E0FAA3E0F9D4
:1013DC0090003DE0F582758300748002151D90002D
:1013EC0039E0FBA3E0FAA3E0F990003DE0F582754B
:1013FC008300749002151D900039E0FBA3E0FAA362
:10140C00E0F990003DE0F582758300748802151DAB
:10141C00900039E0FBA3E0FAA3E0F990003DE0F581
:10142C0082758300748302151D900039E0FBA3E0E4
:10143C00FAA3E0F990003DE0F58275830074C602D2
:10144C00151D900039E0FBA3E0FAA3E0F990003DF4
:10145C00E0F58275830074A102151D900039E0FB44
:10146C00A3E0FAA3E0F990003DE0F58275830074E7
:10147C008602151D900039E0FBA3E0FAA3E0F99079
:10148C00003DE0F582758300748E02151D900039C5
:10149C00E0FBA3E0FAA3E0F990003DE0F582758350
:1014AC000074BF806C900039E0FBA3E0FAA3E0F974
:1014BC0090003DE0F58275830074FF805490003DF0
:1014CC00E014F0900039E0FBA3E0FAA3E0F99000FF
:1014DC003DE0FFE92FF9E43AFA12063C547F12067C
:1014EC00828031900039E0FBA3E0FAA3E0F9900090
:1014FC003DE0F58275830074898016900039E0FB1D
:10150C00A3E0FAA3E0F990003DE0F5827583007446
:10151C008C12069490003CE004F0A3E004F002125C
:01152C00A31B
:01152D00229B
:102624007580FFE5A0541F44E0F5A053A01F74017A
:10263400A805088002C333D8FCF580E5A0541F44E4
:10264400C0F5A053A01FAF058F82758300120655F5
:0E265400F580E5A0541F44E0F5A053A01F221E
:101C3A00E4900038F0C2C4D2C2E5B0540FFF90005D
:101C4A0036E4F0A3EFF0D2C4C2C2E0C4F8540FC81D
:101C5A0068FF900036E0C454F048FEE5B0540FFD2A
:101C6A00EF4DFFEEF0A3EFF0900036E07003A3E033
:101C7A00F47002FF227F0A7E001224A7C2C4D2C2D5
:101C8A00E5B0540F7E00D2C4C2C2C4F8540FC8686B
:101C9A00FFEEC454F048FEE5B0540FFDEF4DFF903F
:101CAA000036E0FCA3E0FD6F7002EC6E60037F007B
:101CBA0022EDF4FFECF4FEEF8EF01208D41D23FFA0
:101CCA00011D1BFF021D13FF041D0BFF081D03FF4F
:101CDA00101CFBFF201CF3FF401CEBFF8000001DC3
:101CEA002B9000387401F0803D9000387402F08027
:101CFA00359000387403F0802D9000387404F08019
:101D0A00259000387405F0801D9000387406F08024
:101D1A00159000387407F0800D9000387408F08030
:0B1D2A0005E4900038F0900038E0FF66
:011D3500228B
:0E21A2009000D9EBF0A3EAF0A3E9F0A3EDF072
:1021B000E4A3F09000DCE024FEFFA3E0D39F400303
:1021C00002224FE4A3F09000DCE024FEFFA3E0FE37
:1021D000C3EF9EFFA3E0D39F506CE0FF2401FDE41A
:1021E00033FC9000D9E0FBA3E0FAA3E0F98D828CE8
:1021F00083120655FE8F82758300120655D39E40CA
:102200003D9000DEE07E002401FDEE33FC8D828CEB
:10221000831206559000DFF09000DEE0F5827583B2
:10222000001206558F828E83A31206949000DFE081
:10223000FF9000DEE0F582758300EF1206949000B7
:10224000DEE004F080809000DDE004F00221B39035
:1022500000DCE0C313FF9000D9E0FBA3E0FAA3E0A9
:0E226000F98F82758300120655FF9000DFF0A3
:01226E00224D
:0E231600900037EBF0A3EAF0A3E9F0A3EDF09E
:10232400E4FF90003AE024FEFEEFD39E5056EF0403
:10233400FE90003AE014FDEED39D5045900037E046
:10234400FBA3E0FAA3E0F98E82758300120655FD23
:102354008F82758300120655FCD39D402190003B6B
:10236400ECF08E827583001206558F8275830012FD
:10237400069490003BE08E827583001206940E80D2
:10238400B00F809E90003AE0C313FF900037E0FB4B
:10239400A3E0FAA3E0F98F82758300120655FF903B
:0323A400003BF00B
:0123A7002213
:1028DC00759850438E01438E0475D7C775D6FE4349
:0728EC008E10D2ACD2AF2226
:0B26CF0090003EEBF0A3EAF0A3E9F05E
:1026DA00E4FF90003EE0FBA3E0FAA3E0F98F8275E5
:1026EA008300120655600AF5990F3099FDC2998048
:0126FA00E1FE
:0126FB0022BC
:10291D00E4FEC297EF1392A3EFC313FFD2970EEE0F
:03292D00B408EFFC
:012930002284
:08283F0075F00A84EE25F0FD9E
:10284700C29300C29700D2930012291DAF05122927
:042857001DC29322E9
:10269A00E4FDC29300C29700D2930012291DE4FF01
:1026AA00C297EDC313FD30A3034480FDD2970FEF09
:1026BA00B408EDC29300C29700D29700C2A300D219
:0426CA00A300AF05B5
:0126CE0022E9
:1024FC00E4FD7F8E12284712063CFF75F00A84C457
:10250C0054F0FEEF7F8412283F900001120655FF15
:10251C0075F00A84C454F0FEEF7F8212283F9000BD
:10252C0002120655FF75F00A84C454F0FEEF75F0E4
:10253C000A84EE25F0FD7F801228477D807F8E0275
:02254C0028471E
:1025DF007F8512269AEFC4540F75F00AA4FEEF54AC
:1025EF000F2E1206827F8312269AEFC4540F75F0B6
:1025FF000AA4FEEF540F2E9000011206947F811251
:10260F00269AEFC4540F75F00AA4FEEF540F2E90C4
:05261F00000202069418
:04289000D2A07F054E
:10289400000000000000000000000000000000AE86
:0628A400071FEE70EB229D
:0F299A00D2A1122890C2A17F05122894C2A022B8
:0C000E00C2A1122890D2A17F0502289404
:0226FC00AD0728
:1026FE00E4FCC2A07F05122894ED30E704D2A1803D
:10270E0002C2A17F05122894D2A0ED25E0FD7F051F
:0A271E001228940CECB408DAC2A0F3
:01272800228E
:10280400E4FC122890ED25E0FD30A1034401FDC253
:0D281400A07F051228940CECB408E7AF0576
:012821002294
:1027C30012299A7F901226FC1227D37F411226FCEE
:1027D300122890A2A1E433FDC2A07F05122894AF72
:0127E30005F0
:0127E40022D2
:1028C400C2A0EF24FF92A17F05122894122890C27F
:0828D400A0D2A17F05022894A7
:102729001227C312299A7F911226FC1227D3122845
:1027390004AD07E4FF1228C4122804AD077F011273
:0727490028C412000EAF05C9
:012750002266
:10298A00AB071227C3AF031226FC1227D302000E8D
:0428AA007F057E0028
:1028AE00EF1FAA0670011E4A600BE4FDEDC3940CE7
:0528BE0050EE0D80F753
:0128C30022F2
:0227E500A90742
:1027E700E4FBC294E91392941228AAD294E9C31382
:0D27F700F90BEBB408EC7F057E000228AE64
:10285B00E4FBC294ECC313FCD2943094034480FC8D
:0A286B001228AA0BEBB408EAAF0430
:012875002240
:10275100C20CD2947F0C7E001228AEC2947F2D7ED3
:10276100001228AED2947F087E001228AEA2949265
:062771000C1228AAA20CC4
:01277700223F
:10295900C20B122751920B7FCC1227E57F44022725
:01296900E588
:10279F00C20B122751920B7FCC1227E57FBE122757
:1027AF00E512285BA90712285BEFFE7C00E429FFE6
:0327BF00EC3EFEEF
:0127C20022F4
:1000260002036EE86480F8E933E83360110460F097
:10003600ED33EC337009E8FCE9FDEAFEEBFF220440
:1000460060DED3EB9FEA9EE99DE8C2E78CF0C2F73B
:1000560095F0400CE8CCF8E9CDF9EACEFAEBCFFB07
:1000660012033985D0F05804700320D5B3E8047024
:10007600075002B2D502037892D5EC0460F7E4CCBF
:10008600C0E0C398F8603B94186008400DD0E0FBD0
:10009600020350E4FBFAC9FC8028E830E406E4C910
:1000A600FBE4CAFCE830E305E4C9CACBFCE8540724
:1000B6006010F8C3E913F9EA13FAEB13FBEC13FC2F
:1000C600D8F130F52FC3E49CFCEF9BFFEE9AFEEDD2
:1000D60099FDD0E0FBEF4E4D4C701222DB0302037C
:1000E60075EC2CFCEF33FFEE33FEED33FDED30E720
:1000F600EB020350EF2BFFEE3AFEED39FDD0E0FBAD
:1001060050130BBB0003020378ED13FDEE13FEEF55
:0801160013FFEC13FC0203507F
:10011E00EC4D6011E8497017ED33EC3304600DE4DB
:10012E00FCFFFEFD22E933E8330470F802036E1281
:10013E00033958046009E4CC248150062850090282
:10014E000378284003020375C0E0EB4A7044B9807F
:10015E0006D0E0FB020364EF4E701CBD8008EBFF7F
:10016E00EAFEE9FD80EBE98DF0A4FEE5F002020760
:10017E00E9CDF9EAFEEBFFEF89F0A4FCE5F0CE89BC
:10018E00F0A42EFFE435F0CD89F0A42DFEE435F079
:10019E008067EF4E7005BD80D780C3EF8BF0A4ACA7
:1001AE00F0EE8BF0A42CFCE435F0F8EF8AF0A42CE2
:1001BE00E5F038FCE433CB8DF0A42CFCE5F03BF8F5
:1001CE00EE8AF0A42CFCE5F038F8E433CF89F0A4E5
:1001DE002CFCE5F038CF3400CE89F0A42FFFE5F0EB
:1001EE003EFEE433C98DF0A42EFEE5F039CD8AF043
:1001FE00A42FFFE5F03EFEE43DFD33D0E0FB5007BB
:10020E000BBB000F020378EC2CFCEF33FFEE33FE3A
:06021E00ED33FD02035068
:10022400020378EC5D046005E85904700302036E70
:10023400120339580460F6EC4860F2EC7004FDFED9
:10024400FF22C860DB2481C85009C39860025006AD
:100254000203759850CAF582E9294B4A7005AB82AE
:1002640002036475F0007C1A7880C3EF9BEE9AED6C
:1002740099400DC3EF9BFFEE9AFEED99FDE842F025
:10028400DC23ACF0D0E0FFD0E0FED0E0FDAB822078
:10029400E7101BEB60BAEC2CFCEF33FFEE33FEED02
:1002A40033FD020350E803F830E705C0F075F000B1
:1002B400EF2FFFEE33FEED33FD40B830E7C280AAE6
:1002C40075F020800E75F010800575F0087D007EB5
:1002D400007F003392D530D5031207F8EC33401079
:1002E400EF33FFEE33FEED33FDEC33FCD5F0ED22BE
:0E02F400E5F0247EA2D513CC92E7CDCEFF22FA
:10030200EDD2E7CD33EC3392D524814006E4FFFEF3
:10031200FDFC22FCE4CFCECDCC24E0501174FF8052
:10032200EDC3CC13CCCD13CDCE13CECF13CF0470EF
:07033200F030D5DE0207F8F0
:100AB400E5132441F582E43400F583E00513229024
:100AC400003E301203900041E475F00112087702F1
:100AD400063C200BE97F2ED20B8018EF540F249094
:100AE400D43440D4FF300F0BEF24BFB41A005003AA
:100AF4002461FFE514600215140517E5177002055B
:100B04001630120E90003EE475F001120877EF02E1
:100B140006820227787403D2128003E4C212F5130A
:100B240090003E1208A5E4F514F516F517E51460D7
:100B3400077F20120AF780F57515FFC20CC20BC29D
:100B44000DC20EC210C211C213120AC3FF700D30BF
:100B540012057F00120B08AF17AE1622B4255FC230
:100B6400D5C20F120AC3FF24D0B40A00501A75F07C
:100B74000A781430D50508B6FF0106C6A426F62067
:100B8400D5047002D20E80D924CFB41A00EF5004D9
:100B9400C2E5D20F020DFAD20C80C6D20B80C0D2AD
:100BA4000D80BCD2D580BAD21080B47F20120AF74F
:100BB400200D077401B5140040F1120AB4FF120AA3
:100BC400F7020B31D213D2118095120AB4FB120A28
:100BD400B4FA120AB4F94A4B700679F87A0E7BFF1C
:100BE400200D2EE514602A7E008E82758300120685
:100BF4005560060EEE651570F0C2D5EBC0E0EAC094
:100C0400E0E9C0E0EE120E5BD0E0F9D0E0FAD0E00B
:100C1400FB12063CFF60AAEBC0E0EAC0E0E9C0E0DA
:100C2400120AF7D0E02401F9D0E03400FAD0E0FB56
:100C3400E5150460DCD515D98087D20D80A2120E8B
:100C44003D60F7E515700104120383A915600DE5F5
:100C540015600914F515120EE5EF60F3EA30E702AA
:100C6400F404C3995079EAF425150430E701E40447
:100C7400F515800D120E3D60C1EA05152515120308
:100C840083EA90006DF030E701E4251504D51504DE
:100C940020100114120E5BE4C0E0120EE590006D0A
:100CA400E0601320E70714F0120ADF802204F0D07A
:100CB400E014C0E07F00120ADFE5156007120AD6CF
:100CC4001515800B301003120AD6D0E0020B31D078
:100CD400E00480C4120E3D609EE515041203839067
:100CE400006DEAF0E5152010026001042404120EE0
:010CF4005BA4
:100CF50074FF04C0E0120EE5120ADFE515201002AC
:100D05006003120AD6D0E0B515E87F45120AE990CE
:100D1500006DE07F2B30E7047F2DF404C0E0120A5C
:100D2500F7D0E075F00A84C0F0120AE0D0E0120AAC
:100D3500E0020B31791080027908C211C2138008D4
:100D4500D2D5790A8004790AC2D5E515047002F571
:100D550015E4FAFDFEFF120AB4FC7B08200C131201
:100D65000AB4FD7B10300B0A120AB4FE120AB4FF56
:100D75007B20EC3382D592D55013C3E4300B069F0C
:100D8500FFE49EFEE4200C039DFDE49CFCE4CBF80F
:100D9500C20CEC700CCFCECDCCE824F8F870F38003
:100DA50017C3EF33FFEE33FEED33FDEC33FCEB33CE
:100DB500FB994002FB0FD8E9EB300C05F8D0E0C4F5
:100DC50048B20CC0E00AEC4D4E4F78207B0070C253
:100DD500EAB5150040BCC0E0120E5DD0F0D0E020B1
:100DE5000C04C4C0E0C4B20CC0F0120AE0D0F0D5C7
:100DF500F0EB020B311208AE0BCE530D39580B9F99
:100E05004C0B9B420D3D4F0D45440D45490BB443DD
:100E15000D4B550C78460CD8450C42470F18500B16
:100E2500A32D0BA72E0BCA2B0BAB230BC8200F0131
:100E35002A0B634800000BC2E515B4FF03751506C0
:100E4500120AB4FC120AB4FD120AB4FE120AB4FF67
:100E55009000660203C0790AA2D5200E143010094D
:100E6500B910020404B9080104A2D52011025001E9
:100E750004200D68920DB514005034C0E07F203079
:100E85000E197F30A20D72117210500F120EB4C2DE
:100E95000DC211C210C2137F30800F301003E9C09C
:100EA500E0120AF7301003D0E0F9D0E0B514CC30E9
:100EB50010177F30B9100C120AF77F58300F077FD3
:100EC500788003B90803120AF7300D057F2D020A51
:100ED500F77F202013F87F2B2011F322920D80CF6E
:100EE5007F00B40700500B2466F582E43400F583D7
:100EF500E0FF22286E756C6C2900D20C120AB43002
:100F05000CF8C20C781430D50108F6020B632D508D
:100F1500434958120AB42403B405004001E4900F74
:100F25001393120AE8743A120AE8D20E75140402F1
:020F35000D3974
:100F3700E50830030104F82328240BF582E4340084
:100F4700F5832290000830030390000BE475F0014D
:100F570012087702063C60EAC50C7002150B14C52F
:100F67000C200304FF02000390000874FFF5F00251
:100F7700088EFF022945E5096006D509037F00228F
:100F870020030F122931EF6008050CE50C700205EC
:100F97000B2290000812086E12063CFF60E89000D2
:100FA70008E475F00112087780DC120F87EFC0E0C4
:100FB700120F79D0E040F3809DD2038002C20390E4
:100FC70000081208A5E4F50AF508F50BF50C7509F4
:100FD70000C202C200C201C204120F4AFF7005AF6D
:100FE7000A7E0022B42530120F4AFF24D0B40A002B
:100FF700500C75F00AC509A42509F50980E924CF25
:10100700B41A00EF5002C2E502125DD20180D8D2B5
:101017000080D4D20480D0EF120F795008120FB19C
:10102700EF600E80A9EFC0E0120F87D0E06F609EDF
:10103700EF6074120F5D80A7120F87EF6069E509F3
:10104700700705098003120F87EF601420040E1242
:101057000F37E475F001120877EF120682D509E61B
:101067002004040508050A80BA120F7DEFC0E012BC
:101077000F79D0E05004120F5DE4FF20040E120F29
:1010870037E475F001120877EF120682EF70DA2065
:1010970004040508050A808BE50960020509120F9B
:1010A700B1120F7DEF70C6300304E4120F5DE50A3D
:1010B7006003020FE67EFF7FFF22E5096002050954
:1010C700120FB1D206D205120F7DEF30060260D79C
:1010D700C0E0120F5DD0E0AC0DAD0EAE0FAF101239
:1010E7001F1C8C0D8D0E8E0F8F105007120F87C28D
:1010F7000580D4200410200502050A120F371208B4
:031107006E05086A
:10110A00120817020FD5D0E0809A7900800A791068
:10111A00800679088002790AD205E5096002050984
:10112A00E9C0E0120FB1EF60DD120F87BF2D04D2C4
:10113A00028003BF2B09120FB1EF60CA120F7DD0D4
:10114A00E0B40A028033B40802802EBF302770024E
:10115A007408C205C0E0120F7DD0E0BF7802800398
:10116A00BF58160509D509028007D50904D205809A
:10117A000B741080197002740ABF000AEFF8E4FCBD
:10118A00FDFEFF021210C0E0EF120F5DD0E0F9E49D
:10119A00FCFDFEFFE9C0E0ECC0E0EDC0E0EEC0E01F
:1011AA00EFC0E0120F7DEFF8D0E0FFD0E0FED0E014
:1011BA00FDD0E0FCD0F0E8604DB461004007B47B9C
:1011CA00005002C2E524D0503DFA24F6500724F913
:1011DA005034240AFAEAB5F000502BCFA9F0A42F14
:1011EA00FF92D5E9C5F0CEA4A2D53EFE92D5E9C5B7
:1011FA00F0CDA4A2D53DFD92D5E9C5F0CCA4A2D5E7
:10120A003CFCC205808EE8C0E020042A20050805BF
:10121A000A3002031207F8120F3712086E05082067
:10122A00000B20010DEE8FF012070B800912081730
:10123A008004EF120682D0E0120F5D020FD520045F
:10124A0010120F3712086E0508E50B850CF012070D
:10125A000B80E81208AE109F5311185810164C1044
:10126A0012420FEE48111C4F112044103F43111433
:10127A004911205510C14610C14510C147101A2AFC
:07128A0012484E0000101E87
:10033900E9D2E7C933E833F892D5EDD2E7CD33EC0A
:0703490033FC5002B2D52283
:10035000EC30E7100FBF000C0EBE00080DBD00040E
:100360000BEB6014A2D5EB13FCED92E7FD2274FFBA
:10037000FCFDFEFF22E480F8A2D574FF13FC7D8013
:03038000E480EF27
:10038300F920E73624F950037907E4F42402FBE566
:1003930082158270021583DBF6E024FB501BE960B3
:1003A30014E4F0E582158270021583E004F0B40AC8
:0D03B30008E4F0D9EE7401F00A22C2D52250
:1003C000ED33EC3392D5FA602AB4FF33EDC2E77B0C
:1003D000FF60067A0379E5E4227A0379EE20D504FA
:1003E0007A0379E9224E614E002B494E46002D4991
:1003F0004E4600E47A08F0A3DAFC7B00740722C0C2
:1004000083C082ECC0E0EDC0E0EEC0E0EFC0E0EA07
:1004100075F010A4CAABF075F04DA42BFBE435F0D9
:10042000FCEA2410FAEB34C5FBEC34D9FCEDC2E74E
:10043000FF75F056A4F42411C5F0F434C58FF0A470
:100440002AE5F03BE43CF020E714120506D0E0FF7B
:10045000D0E0FED0E0FDD0E0FC1202278014F404CE
:10046000120506D0E0FFD0E0FED0E0FDD0E0FC12A7
:10047000011ED082D083E0FAEDD2E7CD33EC3324F5
:1004800082FBE4C3CF33CFCE33CECD33CD33DBF3DA
:100490007B0775F00A846004F0A31B0AE5F0F0A363
:1004A0008FF0740AA4FFACF08EF0740AA42CFEAC9A
:1004B000F050010C8DF0740AA42CFDE435F0F0A38B
:0504C000DBDE740722E1
:101F0900C207C208C209C20AF9E4F511F512FCFDBB
:101F1900FEFFE91006EA20090CB42D04D209D322E8
:101F2900B42B02D32224D0504794095041240A30BB
:101F39000A15F88512F0740AA42872E74051C5F011
:101F4900704D85F012D322D208C0E0E4FBFA792063
:101F5900784112011EECF8EDF9EEFAEFFBD0E0FC46
:101F6900E41202CE12002D3007B41511D322240A2F
:101F7900200A20B4FE0720071AD207D32224EB60D7
:101F89000424E0700EA2099207D20AC209D322C31F
:101F990002036EE4300A0BE512300902F404A207C9
:101FA90092093008EA251120D2E5A2E7920A5002E7
:101FB900F404B4260050D8CCC0E0EDC0E0EEC0E097
:101FC900EFC0E0EC120506D0E0FFD0E0FED0E0FD66
:101FD900D0E0FC200A0512011E80031202273009F5
:061FE900031204C5C3222F
:1004C500ED33EC33600A047003BD8004ECB2E7FC45
:0104D5002204
:1004D6003F8000004120000042C80000447A00002E
:1004E600461C400047C35000497424004B189680B0
:1004F6004CBEBC205A0E1BCA6753C21C749DC5AEA7
:10050600FB60065407601C2323120534EB54386045
:100516000912052012052F12011EECF8EDF9EEFA6C
:10052600EFCB22EB12052F80F1543803241C9004E4
:10053600D6FE93FC0EEE93FD0EEE930ECE93FF22A7
:030000000223A830
:0C23A800787FE4F6D8FD7581220223EF57
:10054600E709F608DFFA8046E709F208DFFA803E97
:1005560088828C83E709F0A3DFFA8032E309F60884
:10056600DFFA8078E309F208DFFA807088828C83EC
:10057600E309F0A3DFFA806489828A83E0A3F608A0
:10058600DFFA805889828A83E0A3F208DFFA804C7A
:1005960080D280FA80C680D4806980F28033801051
:1005A60080A680EA809A80A880DA80E280CA8033BA
:1005B60089828A83ECFAE493A3C8C582C8CCC58332
:1005C600CCF0A3C8C582C8CCC583CCDFE9DEE78002
:1005D6000D89828A83E493A3F608DFF9ECFAA9F081
:1005E600EDFB2289828A83ECFAE0A3C8C582C8CCD7
:1005F600C583CCF0A3C8C582C8CCC583CCDFEADEF0
:10060600E880DB89828A83E493A3F208DFF980CC51
:1006160088F0EF60010E4E60C388F0ED2402B4044A
:100626000050B9F582EB2402B4040050AF232345F1
:060636008223900596737B
:10063C00BB010689828A83E0225002E722BBFE02BC
:09064C00E32289828A83E49322EF
:10065500BB010CE58229F582E5833AF583E022505A
:1006650006E92582F8E622BBFE06E92582F8E222A4
:0D067500E58229F582E5833AF583E49322BE
:10068200BB010689828A83F0225002F722BBFE0157
:02069200F32251
:10069400F8BB010DE58229F582E5833AF583E8F09C
:1006A400225006E92582C8F622BBFE05E92582C848
:0206B400F22230
:1006B600BC000BBE0029EF8DF084FFADF022E4CC28
:1006C600F875F008EF2FFFEE33FEEC33FCEE9DECF1
:1006D600984005FCEE9DFE0FD5F0E9E4CEFD22ED37
:1006E600F8F5F0EE8420D21CFEADF075F008EF2F81
:1006F600FFED33FD4007985006D5F0F222C398FD72
:050706000FD5F0EA220E
:10070B00BB010A89828A83F0E5F0A3F0225006F739
:0F071B0009A7F01922BBFE06F3E5F009F3192236
:10072A0075F008758200EF2FFFEE33FECD33CDCC86
:10073A0033CCC58233C5829BED9AEC99E582984009
:10074A000CF582EE9BFEED9AFDEC99FC0FD5F0D6E6
:10075A00E4CEFBE4CDFAE4CCF9A88222B800C1B910
:10076A000059BA002DEC8BF084CFCECDFCE5F0CB4E
:10077A00F97818EF2FFFEE33FEED33FDEC33FCEB87
:10078A0033FB10D703994004EB99FB0FD8E5E4F942
:10079A00FA227818EF2FFFEE33FEED33FDEC33FC2F
:1007AA00C933C910D7059BE99A4007EC9BFCE99A23
:1007BA00F90FD8E0E4C9FAE4CCFB2275F010EF2F68
:1007CA00FFEE33FEED33FDCC33CCC833C810D70768
:1007DA009BEC9AE899400AED9BFDEC9AFCE899F8A3
:0E07EA000FD5F0DAE4CDFBE4CCFAE4C8F92236
:0E07F800C3E49FFFE49EFEE49DFDE49CFC2212
:10080600EB9FF5F0EA9E42F0E99D42F0E89C45F048
:0108160022BF
:10081700BB010789828A830208315005E9F8020A79
:0A0827009CBBFE05E9F8020AA822B6
:0C083100ECF0A3EDF0A3EEF0A3EFF0223A
:10083D00A8828583F0D083D08212085412085412F6
:10084D000854120854E473E493A3C583C5F0C5831B
:10085D00C8C582C8F0A3C583C5F0C583C8C582C805
:01086D002268
:09086E00E0FBA3E0FAA3E0F9228B
:10087700F8E0FBA3A3E0F925F0F0E582158270020A
:070887001583E0FA38F022AE
:10088E00F8E0FBA3A3E025F0F9F0E58215827002F3
:07089E001583E038FAF02297
:0908A500EBF0A3EAF0A3E9F02254
:1008AE00D083D082F8E4937012740193700DA3A3D9
:1008BE0093F8740193F5828883E4737402936860ED
:0608CE00EFA3A3A380DFED
:1008D400D083D082F8E4937012740193700DA3A3B3
:1008E40093F8740193F5828883E473740293B5F0EA
:0D08F400067403936860E9A3A3A3A380D852
:10277800EFB40A07740D122783740A309811A899C8
:10278800B8130CC2983098FDA899C298B811F630C1
:0727980099FDC299F5992299
:1029310010140B1229A9BF0D027F0A0227789000FB
:04294100E0E0FF22B1
:080003009000E0EFF0D214229E
:10294500EFC394094005EF940E4004EFB42003D380
:042955008001C32218
:10090100E3F5F009E208B5F06D606B80F3E3F5F013
:1009110009E608B5F060605E80F387F009E608B586
:10092100F054605280F487F009E208B5F04860465F
:1009310080F488828C8387F009E0A3B5F0386036B3
:1009410080F488828C8387F009E493A3B5F0276053
:100951002580F388828C83E3F5F009E0A3B5F016D6
:10096100601480F388828C83E3F5F009E493A3B5E6
:10097100F004600280F2020A2C808580E7808E807C
:10098100D2803C8015806C807E809B80B5808B807E
:10099100A1804F8070803A020A3889828A83ECFAFA
:1009A100E493F5F0A3C8C582C8CCC583CCE493A376
:1009B100C8C582C8CCC583CCB5F070606E80E189B2
:1009C100828A83E493F5F0A3E208B5F05E605C806F
:1009D100F289828A83E0F5F0A3E608B5F04D604B19
:1009E10080F389828A83E0F5F0A3E208B5F03C60E8
:1009F1003A80F389828A83E493F5F0A3E608B5F09F
:100A01002A602880F2805389828A83ECFAE493F584
:100A1100F0A3C8C582C8CCC583CCE0A3C8C582C831
:100A2100CCC583CCB5F004600280E27FFFB5F00253
:100A31000F2240027F012289828A83ECFAE0F5F0DD
:100A4100A3C8C582C8CCC583CCE0A3C8C582C8CC25
:100A5100C583CCB5F0D560D380E389828A83ECFA73
:100A6100E0F5F0A3C8C582C8CCC583CCE493A3C884
:100A7100C582C8CCC583CCB5F0B160AF80E288F047
:100A8100ED2402B4040050A3F582EB2402B4040067
:0B0A91005099232345822390097A73BB
:1023B400022599E493A3F8E493A34003F68001F281
:1023C40008DFF48029E493A3F85407240CC8C3332A
:1023D400C4540F4420C8834004F456800146F6DFF9
:1023E400E4800B0102040810204080901E21E47E4A
:1023F400019360BCA3FF543F30E509541FFEE493EE
:10240400A360010ECF54C025E060A840B8E493A3B4
:10241400FAE493A3F8E493A3C8C582C8CAC583CADF
:10242400F0A3C8C582C8CAC583CADFE9DEE780BE97
:011F080000D8
:0C0A9C00ECF608EDF608EEF608EFF62286
:0C0AA800ECF208EDF208EEF208EFF2228A
:0A29A9003098FDAF99C2987E00221D
:00000001FF
