:0E085A0080828486888A8C81838587898B8D35
:070888007B007A00791A22BF
:1007F400E4FEC297EF1392A3EFC313FFD2970EBE8A
:0208040008F0FA
:0108060022CF
:1007E000C29300C29700D293001207F4AF0512071C
:0407F000F4C293229A
:1006BA00E4FDC29300C29700D293001207F4E4FF4C
:1006CA00C297EDC313FD30A303430580D2970FBF32
:1006DA0008EEC29300C293C29700D29700C2A30049
:0506EA00D2A300AF05E2
:0106EF0022E8
:1005EE007BFF7A087961E4FC120210FF1206BA74DE
:1005FE00212CF8A607740129F9E43AFA0CBC03E899
:10060E00E523C4540FF51AE523540FF51BE522C458
:10061E00540FF51CE522540FF51DE521C4540FF5BA
:07062E001EE521540FF51F2A
:0106350022A2
:0E084C007F811206BAEF547FFD7F800207E025
:04086800D2A07F0596
:08086C0000AE071FEE70F92237
:0F083D00D2A1120868C2A17F0512086CC2A022C6
:0C087400C2A1120868D2A17F0502086C26
:02072000AD0723
:10072200E4FCC2A07F0512086CED30E704D2A18080
:1007320002C2A17F0512086CD2A0ED25E0FD7F0563
:0907420012086C0CBC08DBC2A01B
:01074B00228B
:0307CB00120720F2
:1007CE00120868A2A1E433FDC2A07F0512086CAF27
:0107DE000515
:0107DF0022F7
:10081A00AD071FED600BE4FEEEC3947050F20E803C
:01082A00F7D6
:01082B0022AA
:10077400AB05AA0712083D7FA01207CBAF021207F0
:10078400CBAF031207201207CE1208747F0A0208A7
:010794001A4A
:0906F00001290001270001280086
:03089A00AF292261
:040896007529FF229F
:0800030075B00FC2C2C2C42295
:0808800075B0F0D2C2D2C4220F
:10079500E5B0543FFF30C20543074080035307BF10
:0B07A50030C405430780800353077F2A
:0107B0002226
:10039A00E52814602214604C14700302042E24030E
:1003AA00600302043A120880120795EF64F07003A2
:1003BA0002043A75280122120880120795EF249048
:1003CA00601B24C0601224E0600924F0705F752766
:1003DA0004800D752703800875270280037527019D
:1003EA0075280222120003120795EF24F9601C24D3
:1003FA00FC601224FE600814701CE527148010E5C6
:10040A00272403800AE52724078004E527240BF51F
:10041A00297528038003E4F528E529D3940F4010B1
:10042A007529FF22120003120795BF0F03E4F5286E
:01043A00229F
:10082C00C0F9A4B0999282F88090FF8CC6C888BF9A
:01083C008635
:1006F90008090A0A0A0A0A0A0A0A0111FF01080076
:07088F007B007A00790922C9
:100546007580FFE5A0541F44E0F5A053A01FAF0837
:100556007401A807088002C333D8FCF580E5A054CF
:100566001F44C0F5A053A01FE508B5110C2409F8D7
:10057600E690082C93547F800A74092508F8E690C3
:10058600082C93F580E5A0541F44E0F5A053A01F66
:0A0596000508E508B40803E4F508C1
:0105A0002238
:04070900022A0000C0
:10080700438E805389F0758A40758CA2C28DD28C35
:03081700D2A92241
:100636007580FFE5A0541F4480F5A053A01FE4F584
:1006460080E5A0541F44A0F5A053A01F120807126E
:10065600084CD2AFE52AB41406E4F52A12039AE54B
:100666002BB46409E4F52B1205EE12074C120116A1
:050676001207B180DF56
:03000B000205A14A
:1005A100C0E0C0F0C083C082C0D075D000C000C020
:1005B10001C002C003C004C005C006C007E52AC3CC
:1005C10094145002052AE52BC394645002052B12A2
:1005D1000546D007D006D005D004D003D002D00103
:0D05E100D000D0D0D082D083D0F0D0E03256
:10070D000217FFFF011600C101011900C1000212FD
:02071D000000DA
:0602F1008B218A22892303
:1002F70012088F8B248A258926AB21AA22A92312CB
:100307000210AB24AA25A926120256AB21AA22A9BC
:1003170023900001120229AB24AA25A926900001E7
:10032700120268900002740F120268AB21AA22A978
:1003370023900002120229AB24AA25A926900003C4
:10034700120268AB21AA22A923900003120229AB4B
:1003570024AA25A926900004120268900005740FAC
:10036700120268AB21AA22A923900004120229AB2A
:1003770024AA25A926900006120268AB21AA22A961
:1003870023900005120229AB24AA25A9269000076D
:03039700020268F7
:1004C70012088F7410120256900001740A12026803
:1004D700900002740A12026830003BE51475F00AB6
:1004E70084900003120268E51475F00A84900004F2
:1004F700E5F0120268900005740F120268E51575A1
:10050700F00A84900006120268E51575F00A8490D7
:100517000007E5F08025900003740A120268900036
:1005270004740A120268900005740A1202689000A7
:0E05370006740A120268900007740A12026825
:010545002293
:04000E008E218F228E
:1000120012088F8B238A248925740C120256AB2373
:10002200AA24A925900001740A12026890000274A1
:100032000A120268900003740A120268E522B4FFF1
:100042002BE521B4FF26AB23AA24A9259000047432
:100052000A120268900005740A120268900006747F
:100062000A120268900007740A020112D3E5229470
:10007200E7E5219403400DAE21AF227C037DE81217
:10008200029C80027F0AAB23AA24A925900004EFD8
:10009200120268D3E5229463E5219400401AAE214E
:1000A200AF227C037DE812029C7E007F64CFCDCF1D
:1000B200CECCCE12029C80027F0AAB23AA24A925B1
:1000C200900005EF120268D3E5229409E52194001D
:1000D200401AAE21AF227C007D6412029C7E007F1A
:1000E2000ACFCDCFCECCCE12029C80027F0AAB23A8
:1000F200AA24A925900006EF120268AE21AF227C45
:10010200007D0A12029CAB23AA24A925900007EDC8
:030112001202686E
:0101150022C7
:1007B100120888E51970030202F1E519B40107AFC7
:0907C10018AE1702000E1204C765
:0107CA00220C
:10067B00BF04037F0022BF05037F0122BF06037F58
:10068B000222BF07037F0322BF09037F0422BF0A95
:10069B00037F0522BF0B037F0622BF0D037F0722BB
:0F06AB00BF0E037F0822BF0F037F09227FFF22AC
:10011600E4F5211208888B228A23892412089ABFC3
:100126000C0D0519E519B40303E4F519120896E553
:10013600196401707CC20012089A12067B8F21E5B1
:1001460021D3940A505CE518F47003E517F4702F78
:10015600F517F518AB22AA23A9249000011202294B
:10016600FF12021075F00AA42FF514900002120275
:100176002975F00AA4FF9000031202292FF515D362
:10018600E51894E7E517648094835022AE17AF18FC
:100196007C007D0A12028AEF2521F518EC3EF51740
:1001A600800C12089ABF080674FFF517F518120896
:1001B60096E51964027052E518F47003E517F460C9
:1001C60048D3E5189513E5126480F8E5176480981E
:1001D6004003D38001C39201D200851712851813FC
:1001E60074FFF517F518AD14E4FF120774AD157F0B
:1001F60001120774E512FF3395E0AD077F0212077F
:0902060074E513FD7F0312077477
:01020F0022CC
:10074C00AF197401A807088002C333D8FCF4FF303A
:10075C0001055307F780034307088F80E5A0541F5A
:07076C004480F5A053A01F1B
:010773002263
:0300000002043BBC
:0C043B00787FE4F6D8FD75812B02048266
:10021000BB010689828A83E0225002E722BBFE02EC
:09022000E32289828A83E493221F
:10022900BB010CE58229F582E5833AF583E022508A
:1002390006E92582F8E622BBFE06E92582F8E222D4
:0D024900E58229F582E5833AF583E49322EE
:10025600BB010689828A83F0225002F722BBFE0187
:02026600F32281
:10026800F8BB010DE58229F582E5833AF583E8F0CC
:10027800225006E92582C8F622BBFE05E92582C878
:02028800F22260
:10028A00EF8DF0A4A8F0CF8CF0A428CE8DF0A42E88
:02029A00FE2242
:10029C00BC000BBE0029EF8DF084FFADF022E4CC46
:1002AC00F875F008EF2FFFEE33FEEC33FCEE9DEC0F
:1002BC00984005FCEE9DFE0FD5F0E9E4CEFD22ED55
:1002CC00F8F5F0EE8420D21CFEADF075F008EF2F9F
:1002DC00FFED33FD4007985006D5F0F222C398FD90
:0502EC000FD5F0EA222D
:10044700020636E493A3F8E493A34003F68001F28F
:1004570008DFF48029E493A3F85407240CC8C333B6
:10046700C4540F4420C8834004F456800146F6DF85
:10047700E4800B01020408102040809006F0E47E1F
:10048700019360BCA3FF543F30E509541FFEE4937A
:10049700A360010ECF54C025E060A840B8E493A341
:1004A700FAE493A3F8E493A3C8C582C8CAC583CA6C
:1004B700F0A3C8C582C8CAC583CADFE9DEE780BE24
:01071F0000D9
:00000001FF
