:1025CA007580FFE5A0541F4480F5A053A01FE4F5D1
:0D25DA0080E5A0541F44A0F5A053A01F22CF
:10266500538EBF53890F758DFC758B18D2ABD2AFC6
:05267500C28FD28E228D
:1026ED00538E7F438904E4F58CF58AC28DD28C22FA
:1026FD00EFF4F580E5A0541F4480F5A053A01F22F0
:0B14BC009000AAEBF0A3EAF0A3E9F017
:1014C700E49000B1F09000B0F09000B0E0FFC3945A
:1014D7000840030217039000AAE0FBA3E0FAA3E089
:1014E700F99000B1E0F582758300120655120827BE
:1014F70016152D16B32E153130154631155D3215DB
:101507007433158B3415A23515B93615D03715E751
:101517003815FE39169D41162C43168745165A462F
:10152700164348167150000016DD9000ADE0FBA38E
:10153700E0FAA3E0F98F8275830074C00216F19078
:1015470000ADE0FBA3E0FAA3E0F9A3E0F582758321
:101557000074F90216F19000ADE0FBA3E0FAA3E0F6
:10156700F9A3E0F58275830074A40216F19000AD2B
:10157700E0FBA3E0FAA3E0F9A3E0F582758300742A
:10158700B00216F19000ADE0FBA3E0FAA3E0F9A3E7
:10159700E0F58275830074990216F19000ADE0FBC7
:1015A700A3E0FAA3E0F9A3E0F58275830074920241
:1015B70016F19000ADE0FBA3E0FAA3E0F9A3E0F594
:1015C7008275830074820216F19000ADE0FBA3E000
:1015D700FAA3E0F9A3E0F58275830074F80216F127
:1015E7009000ADE0FBA3E0FAA3E0F9A3E0F5827574
:1015F700830074800216F19000ADE0FBA3E0FAA32C
:10160700E0F9A3E0F58275830074900216F190006B
:10161700ADE0FBA3E0FAA3E0F9A3E0F58275830050
:1016270074BF0216F19000ADE0FBA3E0FAA3E0F966
:10163700A3E0F58275830074C60216F19000ADE051
:10164700FBA3E0FAA3E0F9A3E0F5827583007489B0
:101657000216F19000ADE0FBA3E0FAA3E0F9A3E0E6
:10166700F582758300748E0216F19000ADE0FBA33E
:10167700E0FAA3E0F9A3E0F582758300748C806A31
:101687009000ADE0FBA3E0FAA3E0F9A3E0F58275D3
:101697008300748680549000ADE0FBA3E0FAA3E0DA
:1016A700F9A3E0F5827583007488803E9000B0E06E
:1016B700D394004003E014F09000ADE0FBA3E0FA00
:1016C700A3E0F9A3E0FFE92FF9E43AFA12063C5444
:1016D7007F12068280179000ADE0FBA3E0FAA3E03B
:1016E700F9A3E0F58275830074FF1206949000B1A8
:0C16F700E004F09000B0E004F00214D019
:0117030022C3
:102426007580FFE5A0541F44E0F5A053A01F74017A
:10243600A805088002C333D8FCF580E5A0541F44E4
:10244600C0F5A053A01FAF058F82758300120655F5
:0E245600F580E5A0541F44E0F5A053A01F221E
:05234F009000ACEFF06E
:10235400900043E0FCA3E0FDA3E0FEA3E0FF9000B7
:10236400AD1207AA9000ADE0F8A3E0F9A3E0FAA348
:10237400E0FB900043E0FCA3E0FDA3E0FEA3E0C388
:102384009BFBEE9AFAED99F9EC98F89000ACE0FF1B
:0A239400E4FCFDFEC312074A40CA34
:01239E00221C
:10263800759850438E01438E0475D7C775D6FE43EF
:072648008E10D2AFD2AC22CC
:0B2499009000B6EBF0A3EAF0A3E9F01E
:1024A400E4FF9000B6E0FBA3E0FAA3E0F98F8275A5
:1024B4008300120655600AF5993099FDC2990F8080
:0124C400E136
:0124C50022F4
:10205600E49000ABF0C2C4D2C2E5B0540F9000AA1F
:10206600F0D2C4C2C2E0C454F0FFE5B0540F4FF042
:10207600E0B40F037F00227F0A12234FC2C4D2C2EC
:10208600E5B0540FD2C4C2C2C454F0FFE5B0540F39
:102096004FFF9000AAE06F7065EFF4146053146070
:1020A6004824FE603C24FC603024F8602424F06060
:1020B6001824E0600C24C070409000AB7404F080DB
:1020C6003D9000AB7405F080359000AB7406F0804F
:1020D6002D9000AB7407F080259000AB7408F0805B
:1020E6001D9000AB7409F080159000AB740AF08067
:1020F6000D9000AB740BF08005E49000ABF09000FF
:03210600ABE0FF4C
:0121090022B3
:04261E007F057E00B6
:10262200EF1FAA0670011E4A600BE4FDEDC3940C75
:0526320050EE0D80F7E1
:012637002280
:02258D00A9079C
:10258F00E4FBC294E913929412261ED294E9C3136A
:0D259F00F90BEBB408EC7F057E000226224C
:10260300E4FBC294ECC313FCD2943094034480FCE7
:0A26130012261E0BEBB408EAAF0418
:01261D00229A
:10251B00C20CD2947F0C7E00122622C2947F507E76
:10252B0000122622D2947F0A7E00122622A29492B7
:06253B000C12261EA20C8A
:012541002277
:1026DC00C20B12251B920B7FCC12258D7F44022539
:0126EC008D60
:10256900C20B12251B920B7FCC12258D7FBE122523
:102579008D122603A907122603EFFE7C00E429FF2A
:03258900EC3EFE27
:01258C00222C
:10267A00E4FEC297EF1392A3EFC313FFD2970EEEB5
:03268A00B408EFA2
:01268D00222A
:0825E70075F00A84EE25F0FDF9
:1025EF00C29300C29700D2930012267AAF0512262B
:0425FF007AC29322E7
:10246400E4FDC29300C29700D2930012267AE4FFDF
:10247400C297EDC313FD30A3034480FDD2970FEF41
:10248400B408EDC29300C29700D29700C2A300D251
:04249400A300AF05ED
:012498002221
:1022FD00E4FD7F8E1225EF12063CFF75F00A84C4B3
:10230D0054F0FEEF7F841225E7900001120655FF71
:10231D0075F00A84C454F0FEEF7F821225E7900019
:10232D0002120655FF75F00A84C454F0FEEF75F0E5
:10233D000A84EE25F0FD7F801225EF7D807F8E02D1
:02234D0025EF7A
:10239F007F85122464EFC4540F75F00AA4FEEF5426
:1023AF000F2E1206827F83122464EFC4540F75F030
:1023BF000AA4FEEF540F2E9000011206947F811293
:1023CF002464EFC4540F75F00AA4FEEF540F2E903F
:0523DF0000020206945B
:04264F00D2A07F0591
:10265300000000000000000000000000000000DF98
:02266300EF2264
:0F270D00D2A112264FC2A17F05122653C2A022CD
:0C271C00C2A112264FD2A17F0502265355
:0224C600AE075F
:1024C800E4FDC2A07F05122653EE30E704D2A180B6
:1024D80002C2A17F05122653D2A0EE25E0FE7F0599
:0A24E8001226530DEDB408DAC2A06D
:0124F20022C7
:1025AC00E4FD12264FEE25E0FE30A1034401FEC2ED
:0D25BC00A07F051226530DEDB408E7AF0611
:0125C90022EF
:03268E001224C64D
:1026910012264FA2A1E433FEC2A07F05122653FFEA
:0126A1002216
:10000300C2A0EF24FF92A17F0512265312264FC2EE
:08001300A0D2A17F05022653D3
:1024F30012270D7F9012268E7F4112268E12270DF2
:102503007F911224C61226911225ACAE077F0112C9
:07251300000312271CAF06B4
:01251A00229E
:101F95004560602532752D414100456060253275EB
:101FA5002D25327500253032752D253032752D25BC
:101FB5003032750043602532752D25342E3166008B
:101FC50043606060606060600048602532752D2563
:101FD500342E3166004860606060606060004625B0
:101FE500303275253032752D253032750046253055
:101FF50032756060606060004560606060602532D9
:10200500750025750D0A00414C4C5F434C45414E0A
:102015000D0A00504152415F5345540D0A0050418D
:1020250052415F4552524F0D0A004E756D0D0A0023
:10203500436C720D0A005061726125326425632577
:1020450063000A3B2D0000000000000000000000B6
:01205500008A
:101BF40041005800410035004100360041003800E2
:101C040044004300000000410055004100710041C0
:101C140000520041006E004C005D3233323332001A
:101C240000000000000048004A000000000000001E
:101C3400004100740041006B004100370041003254
:101C440000410073004100720041002F0041002E4A
:101C54000041003D0041006D004200690000420067
:101C64006F00004200530000420048012C42003340
:101C740000004200560000420039000042003000DB
:101C8400004400590000000044003F0000000041EF
:101C9400003E0043002B00000042003B00004100D6
:101CA4006C004100470044000000000000440004B0
:101CB40000000000410008004100090041000A0042
:101CC40044000B0000000041000F004100100044DC
:101CD4000011000000004900150000000000000091
:101CE400000041001E0044001F00000000440023C7
:0B1CF40000000000440027000000007A
:1023E40078A77C007D017BFF7A2079477E007F03FC
:1023F4001206167B017A0079A71222FD1225CA1251
:1024040026651226ED1226381221BE12186E121EEF
:10241400D21226CA1217041211DD1219A312210AAC
:0224240080E650
:1011DD0090006BE070030214BBE4F0900073E070BC
:1011ED000F900072E0700990002FE070030212CA98
:1011FD00900072E0701A900043E0FCA3E0FDA3E0C4
:10120D00FEA3E0FF9000001207AA9000727401F097
:10121D0090006EE09000B9701F74FFF0A3741FF082
:10122D00A37495F0900069E0FEA3E0FF7C007D0AB9
:10123D001206C89000BC803474FFF0A3741FF0A395
:10124D00749FF0900069E0FEA3E0FF7C007D0A1220
:10125D0006C89000BCEEF0A3EFF0900033E0FEA3C3
:10126D00E0FF7C007D0A1206C89000BEEEF0A3EFF1
:10127D00F07B017A00795D120A65900000E0F8A319
:10128D00E0F9A3E0FAA3E0FB900043E0FCA3E0FD4E
:10129D00A3E0FEA3E0C39BFFEE9AFEED99FDEC9853
:1012AD00FCE47BB87A0BF9F8C312074A4003021429
:1012BD00A4E4900072F090002FF00214A490003777
:1012CD00E0146040147003021476240260030214CB
:1012DD00A49000B974FFF0A3741FF0A374AAF0904A
:1012ED00002BE0FF9000BCE4F0A3EFF090002CE0A9
:1012FD00FF9000BEE4F0A3EFF090002DE0FF900012
:10130D00C002146F900032E01470030213AA14701F
:10131D000302142A240260030214A4900052E090E8
:10132D0000B9606B74FFF0A3741FF0A374B9F09053
:10133D000053E0FEA3E0FF7C007D0A1206C890007A
:10134D00BCEEF0A3EFF0900059E0FCA3E0FDA3E0AC
:10135D00FEA3E0FFE41202C4E4FBFA792078411207
:10136D000227C004C005C006C007900052E0FCE48F
:10137D001202CEA804A905AA06AB07D007D006D045
:10138D0005D0041202279000BE1207AA02149B7406
:10139D00FFF0A3741FF0A374C5F002149B900052CC
:1013AD00E09000B9606A74FFF0A3741FF0A374CECF
:1013BD00F0900039E0FEA3E0FF7C007D0A1206C824
:1013CD009000BCEEF0A3EFF090003FE0FCA3E0FD39
:1013DD00A3E0FEA3E0FFE41202C4E4FBFA79207857
:1013ED0041120227C004C005C006C007900052E09C
:1013FD00FCE41202CEA804A905AA06AB07D007D0BB
:10140D0006D005D0041202279000BE1207AA800B49
:10141D0074FFF0A3741FF0A374DAF0807190005282
:10142D00E0FF9000B9602874FFF0A3741FF0A3745F
:10143D00E3F0A3E4F0A3EFF090003BE0FF9000BEDB
:10144D00E4F0A3EFF090003CE0FF9000C080137437
:10145D00FFF0A3741FF0A374F2F0900052E0FF9020
:10146D0000BCE4F0A3EFF080259000B974FFF0A369
:10147D00741FF0A374FDF0900048E0FEA3E0FF7C24
:10148D00007D0A1206C89000BCEEF0A3EFF07B01C0
:10149D007A00795D120A659000AD7401F0A37400B5
:0E14AD00F0A3744AF07B017A00795D1214BC42
:0114BB00220E
:10186E00E4FB122056AB07900008E06B70030219E0
:10187E0059900043E0FCA3E0FDA3E0FEA3E0FF903F
:10188E0000041207AAEB24FC604D14604F24FD6087
:10189E006214700302192B2409600302195490007C
:1018AE0009E07003021954E4F09000591207B600D3
:1018BE00000000E4900053F0A3F0900039F0A3F084
:1018CE0090003F1207B600000000E4900052F09026
:1018DE00003BF0A3F0806F900037800B900037E054
:1018EE0064017062900032E004F075F00384E5F05C
:1018FE00F08053900048E0B4030CA3E0B4DE07E49C
:10190E00900048F0A3F0900037E0B40239900049FF
:10191E00E0240AF0900048E03400F080299000485E
:10192E00E07002A3E0700A9000487403F0A374DE26
:10193E00F0900037E0B4020E900049E024F6F090EB
:10194E000048E034FFF0900008EBF0900004E0F85F
:10195E00A3E0F9A3E0FAA3E0FB900043E0FCA3E0D0
:10196E00FDA3E0FEA3E0C39BFFEE9AFEED99FDEC16
:10197E0098FCE47BD07A07F9F8C312074A50159009
:10198E000008E024F7700D900037E0B401069000D7
:04199E00097401F0D7
:0119A2002222
:1019A300900058E0FF900037E0FE7401A80608801D
:1019B30002C333D8FCFE4FFF900058F0EE44F85FAB
:1019C300F090002EE0606790000BE0F8A3E0F9A32D
:1019D300E0FAA3E0FB900043E0FCA3E0FDA3E0FEFC
:1019E300A3E0C39BFFEE9AFEED99FDEC98FCE47B2C
:1019F30064FAF9F8C312074A5025900043E0FCA3A8
:101A0300E0FDA3E0FEA3E0FF90000B1207AA900005
:101A130035E070047F0180027F00900035EFF09085
:101A23000035E09000586009E04408F0800790001A
:101A330058E054F7F0900036E06015E4F090006E43
:101A4300E09000586006E054EFF08004E04410F0AA
:101A5300900038E06063E4F0900052E0D3940140DA
:101A630033900056E0FEA3E0FFD3900034E09F9054
:101A73000033E09E401E90006FE0FEA3E0FFD39092
:101A8300006AE09F900069E09E4009900058E0449E
:101A930020F08007900058E054DFF0900069E0FFE9
:101AA300A3E090006FCFF0A3EFF0900033E0FFA32B
:101AB300E0900056CFF0A3EFF0900058E0FF9000C5
:0A1AC3000AE06F6005EFF01226FD47
:011ACD0022F6
:1021BE00900055E07003022270E4F01224F3AC0795
:1021CE00E41202CEE4FBFA79A0784012011EE4FB81
:1021DE00FA797F78431202279000AA1207AAE4FF29
:1021EE00FE7D207C419000AAE0F8A3E0F9A3E0FA7E
:1021FE00A3E0FB12011E120302C3EF940AEE940039
:10220E00504F9000717401F090000FE0704C9000F0
:10221E002F04F0900036F0900038F090006EE060E1
:10222E0029900072E07023A304F090006DF09000EE
:10223E003DF0900052E004F090002BE090003BF057
:10224E0090002CE090003CF08010E4900073F08041
:10225E0009E4900073F0900071F0900071E090002E
:02226E000FF06F
:01227000224B
:1026CA0090003EE0600BE4F07B017A00792B122344
:0226DA009F223D
:10170400E49000AAF0A3F0900010E014602D14708F
:10171400030217C3240260030217FB1226DC9000A5
:10172400107401F0900043E0FCA3E0FDA3E0FEA3ED
:10173400E0FF9000111207AA0217FB900011E0F8D5
:10174400A3E0F9A3E0FAA3E0FB900043E0FCA3E0EC
:10175400FDA3E0FEA3E0C39BFFEE9AFEED99FDEC32
:1017640098FCE47B207A03F9F8C312074A40030289
:1017740017FB1225699000AAEEF0A3EFF0FDAC066A
:10178400EC1202C9E4FBFA79807841120227E4FBE7
:10179400FA7920784112011E120302900069EEF0DA
:1017A400A3EFF0900043E0FCA3E0FDA3E0FEA3E080
:1017B400FF9000111207AA9000107402F080389074
:1017C4000011E0F8A3E0F9A3E0FAA3E0FB900043E2
:1017D400E0FCA3E0FDA3E0FEA3E0C39BFFEE9AFEC2
:1017E400ED99FDEC98FCE47B05FAF9F8C312074A7D
:1017F4005005E4900010F090006DE0604BE4F09030
:101804000059E0F8A3E0F9A3E0FAA3E0FB90006933
:10181400E0FEA3E0FFE4FCFDEB2FFFEA3EFEED3922
:10182400FDEC38FC9000591207AA900053E0FEA387
:10183400E0FF900069E0FCA3E0FDD39FEC9E40082C
:10184400900053ECF0A3EDF0900048E0FEA3E0FF1D
:10185400D390006AE09F900069E09E400790002EBC
:091864007401F022E490002EF062
:01186D002258
:101ED200900030E0FEA3E0FFC394C8EE94005003EC
:101EE200021F89D3EF94D0EE94074003021F89901A
:101EF200003DE07003021F82E4F0900030E0FCA39A
:101F0200E0FDE41202C9E4FBFAF9784012011EE492
:101F1200FBFA793478421202277BE47A38798E7898
:101F22003F12002DE4FBFA7920784112011E1203C0
:101F320002900033EEF0A3EFF0C390003AE09F90DE
:101F42000039E09E500F900033E0FFA3E09000398B
:101F5200CFF0A3EFF090003FE0F8A3E0F9A3E0FA9E
:101F6200A3E0FB900033E0FEA3E0FFE4FCFDEB2FD7
:101F7200FFEA3EFEED39FDEC38FC90003F1207AA65
:101F820090006E7401F022E490006EF0900033F045
:031F9200A3F02297
:10210A0078AA7C007D017BFF7A20794A7E007F0CC9
:10211A0012061690006CE024FE60291460611460B7
:10212A006D240360030221B89000B974FFF0A37410
:10213A0020F0A37407F0900052E0FF9000BCE4F096
:10214A00A3EF80579000591207B600000000E490F0
:10215A000053F0A3F0900039F0A3F090003F12076B
:10216A00B600000000E4900052F090003BF0A3F0AB
:10217A009000B974FFF0A37420F0A3740C801C9033
:10218A0000B974FFF0A37420F0A37418800D9000B6
:10219A00B974FFF0A37420F0A37423F07B017A00D2
:1021AA0079AA120A657B017A0079AA122499E49025
:0321BA00006CF0C6
:0121BD0022FF
:03002300021ACEF0
:101ACE00C0E0C0F0C083C082C0D075D000C000C0DE
:0D1ADE0001C002C003C004C005C006C0075F
:101AEB00209803021BD9C29890001EE0FF04F074EB
:101AFB00152FF582E43400F583E599F090001EE094
:101B0B002415F582E43400F583E4F078157C007D30
:101B1B00017BFF7A20792F1209CBEF700690006CB6
:101B2B0004801778157C007D017BFF7A20793512B4
:101B3B0009CBEF700990006C7402F0021BD490007B
:101B4B001EE064086003021BD990007C74FFF0A3B5
:101B5B007420F0A3743BF0A37401F0A37400F0A302
:101B6B007475F0A37401F0A37400F0A37477F0A361
:101B7B007401F0A37400F0A37478F07B017A007900
:101B8B0015120F0CEF64034E703F900077E0B40D0D
:101B9B0032A3E0B40A2D900075E0FEA3E0FFC394DE
:101BAB0064EE9400501DC3EE940040177C007D0A38
:101BBB001206B6900048EEF0A3EFF090006C7403A1
:0E1BCB00F0800690006C7404F090001EE4F0B0
:101BD900D007D006D005D004D003D002D001D00060
:0B1BE900D0D0D082D083D0F0D0E0320A
:03001B00021D00C3
:101D0000C0E0C0F0C083C082C0D075D000C000C0A9
:0D1D100001C002C003C004C005C006C0072A
:101D1D00900043E0FCA3E0FDA3E0FEA3E02401FF5F
:101D2D00E43EFEE43DFDE43CFC9000431207AA9026
:101D3D00001F120775E47B0AFAF9F8C312074A70FF
:101D4D001090001F1207B60000000090006B740188
:101D5D00F0900023120775E47B64FAF9F8C31207BB
:101D6D004A70149000231207B60000000090005531
:101D7D007401F090003EF0900027120775E47BE8A7
:101D8D007A03F9F8C312074A70239000271207B699
:101D9D0000000000AF8CEFFFAD8AED900030CFF06A
:101DAD00A3EFF0C28C758A00758C00D28C7B017A02
:101DBD0000794A900074E0FD122426900074E0042E
:041DCD00F05407F0D7
:101DD100D007D006D005D004D003D002D001D00066
:0B1DE100D0D0D082D083D0F0D0E03210
:1000260002036EE86480F8E933E83360110460F097
:10003600ED33EC337009E8FCE9FDEAFEEBFF220440
:1000460060DED3EB9FEA9EE99DE8C2E78CF0C2F73B
:1000560095F0400CE8CCF8E9CDF9EACEFAEBCFFB07
:1000660012033985D0F05804700320D5B3E8047024
:10007600075002B2D502037892D5EC0460F7E4CCBF
:10008600C0E0C398F8603B94186008400DD0E0FBD0
:10009600020350E4FBFAC9FC8028E830E406E4C910
:1000A600FBE4CAFCE830E305E4C9CACBFCE8540724
:1000B6006010F8C3E913F9EA13FAEB13FBEC13FC2F
:1000C600D8F130F52FC3E49CFCEF9BFFEE9AFEEDD2
:1000D60099FDD0E0FBEF4E4D4C701222DB0302037C
:1000E60075EC2CFCEF33FFEE33FEED33FDED30E720
:1000F600EB020350EF2BFFEE3AFEED39FDD0E0FBAD
:1001060050130BBB0003020378ED13FDEE13FEEF55
:0801160013FFEC13FC0203507F
:10011E00EC4D6011E8497017ED33EC3304600DE4DB
:10012E00FCFFFEFD22E933E8330470F802036E1281
:10013E00033958046009E4CC248150062850090282
:10014E000378284003020375C0E0EB4A7044B9807F
:10015E0006D0E0FB020364EF4E701CBD8008EBFF7F
:10016E00EAFEE9FD80EBE98DF0A4FEE5F002020760
:10017E00E9CDF9EAFEEBFFEF89F0A4FCE5F0CE89BC
:10018E00F0A42EFFE435F0CD89F0A42DFEE435F079
:10019E008067EF4E7005BD80D780C3EF8BF0A4ACA7
:1001AE00F0EE8BF0A42CFCE435F0F8EF8AF0A42CE2
:1001BE00E5F038FCE433CB8DF0A42CFCE5F03BF8F5
:1001CE00EE8AF0A42CFCE5F038F8E433CF89F0A4E5
:1001DE002CFCE5F038CF3400CE89F0A42FFFE5F0EB
:1001EE003EFEE433C98DF0A42EFEE5F039CD8AF043
:1001FE00A42FFFE5F03EFEE43DFD33D0E0FB5007BB
:10020E000BBB000F020378EC2CFCEF33FFEE33FE3A
:06021E00ED33FD02035068
:10022400020378EC5D046005E85904700302036E70
:10023400120339580460F6EC4860F2EC7004FDFED9
:10024400FF22C860DB2481C85009C39860025006AD
:100254000203759850CAF582E9294B4A7005AB82AE
:1002640002036475F0007C1A7880C3EF9BEE9AED6C
:1002740099400DC3EF9BFFEE9AFEED99FDE842F025
:10028400DC23ACF0D0E0FFD0E0FED0E0FDAB822078
:10029400E7101BEB60BAEC2CFCEF33FFEE33FEED02
:1002A40033FD020350E803F830E705C0F075F000B1
:1002B400EF2FFFEE33FEED33FD40B830E7C280AAE6
:1002C40075F020800E75F010800575F0087D007EB5
:1002D400007F003392D530D50312073CEC33401035
:1002E400EF33FFEE33FEED33FDEC33FCD5F0ED22BE
:0E02F400E5F0247EA2D513CC92E7CDCEFF22FA
:10030200EDD2E7CD33EC3392D524814006E4FFFEF3
:10031200FDFC22FCE4CFCECDCC24E0501174FF8052
:10032200EDC3CC13CCCD13CDCE13CECF13CF0470EF
:07033200F030D5DE02073CAC
:100A0000E51324B9F582E43400F583E00513229060
:100A100000B63012039000B9E475F0011207F0023D
:100A2000063C200BE97F2ED20B8018EF540F249048
:100A3000D43440D4FF300F0BEF24BFB41A0050035E
:100A40002461FFE514600215140517E5177002050F
:100A50001630120E9000B6E475F0011207F0EF02A6
:100A600006820225427403D2128003E4C212F513F7
:100A70009000B612081EE4F514F516F517E514609B
:100A8000077F20120A4380F57515FFC20CC20BC206
:100A90000DC20EC210C211C213120A0FFF700D3028
:100AA00012057F00120A54AF17AE1622B4255FC29A
:100AB000D5C20F120A0FFF24D0B40A00501A75F0E5
:100AC0000A781430D50508B6FF0106C6A426F6201C
:100AD000D5047002D20E80D924CFB41A00EF50048E
:100AE000C2E5D20F020D46D20C80C6D20B80C0D216
:100AF0000D80BCD2D580BAD21080B47F20120A43B8
:100B0000200D077401B5140040F1120A00FF120A0B
:100B100043020A7DD213D2118095120A00FB120AF9
:100B200000FA120A00F94A4B700679447A0E7BFFEC
:100B3000200D2EE514602A7E008E82758300120639
:100B40005560060EEE651570F0C2D5EBC0E0EAC048
:100B5000E0E9C0E0EE120DA7D0E0F9D0E0FAD0E075
:100B6000FB12063CFF60AAEBC0E0EAC0E0E9C0E08F
:100B7000120A43D0E02401F9D0E03400FAD0E0FBBF
:100B8000E5150460DCD515D98087D20D80A2120D41
:100B90008960F7E515700104120383A915600DE55E
:100BA00015600914F515120E31EF60F3EA30E70213
:100BB000F404C3995079EAF425150430E701E404FC
:100BC000F515800D120D8960C1EA05152515120372
:100BD00083EA9000E5F030E701E4251504D515041B
:100BE00020100114120DA7E4C0E0120E319000E5B0
:100BF000E0601320E70714F0120A2B802204F0D0E3
:100C0000E014C0E07F00120A2BE5156007120A22EB
:100C10001515800B301003120A22D0E0020A7DD095
:100C2000E00480C4120D89609EE5150412038390D0
:100C300000E5EAF0E5152010026001042404120D1D
:010C4000A70C
:100C410074FF04C0E0120E31120A2BE515201002C8
:100C51006003120A22D0E0B515E87F45120A3590EB
:100C610000E5E07F2B30E7047F2DF404C0E0120A99
:100C710043D0E075F00A84C0F0120A2CD0E0120AC9
:100C81002C020A7D791080027908C211C2138008F2
:100C9100D2D5790A8004790AC2D5E515047002F526
:100CA10015E4FAFDFEFF120A00FC7B08200C13126A
:100CB1000A00FD7B10300B0A120A00FE120A00FF27
:100CC1007B20EC3382D592D55013C3E4300B069FC1
:100CD100FFE49EFEE4200C039DFDE49CFCE4CBF8C4
:100CE100C20CEC700CCFCECDCCE824F8F870F380B8
:100CF10017C3EF33FFEE33FEED33FDEC33FCEB3383
:100D0100FB994002FB0FD8E9EB300C05F8D0E0C4A9
:100D110048B20CC0E00AEC4D4E4F78207B0070C207
:100D2100EAB5150040BCC0E0120DA9D0F0D0E0201A
:100D31000C04C4C0E0C4B20CC0F0120A2CD0F0D52F
:100D4100F0EB020A7D1208270B1A530C85580AEBA7
:100D51004C0AE7420C894F0C91440C91490B00431A
:100D61000C97550BC4460C24450B8E470E64500A54
:100D7100EF2D0AF32E0B162B0AF7230B14200E4D21
:100D81002A0AAF4800000B0EE515B4FF03751506DE
:100D9100120A00FC120A00FD120A00FE120A00FFEC
:100DA1009000DE0203C0790AA2D5200E143010098A
:100DB100B910020404B9080104A2D520110250019E
:100DC10004200D68920DB514005034C0E07F20302E
:100DD1000E197F30A20D72117210500F120E00C247
:100DE1000DC211C210C2137F30800F301003E9C051
:100DF100E0120A43301003D0E0F9D0E0B514CC3052
:100E010010177F30B9100C120A437F58300F077F3B
:100E1100788003B90803120A43300D057F2D020AB9
:100E2100437F202013F87F2B2011F322920D80CFD6
:100E31007F00B40700500B24DEF582E43400F58313
:100E4100E0FF22286E756C6C2900D20C120A00306A
:100E51000CF8C20C781430D50108F6020AAF2D50F7
:100E6100434958120A002403B405004001E4900EDE
:100E71005F93120A34743A120A34D20E75140402C2
:020E81000C85DE
:100E8300E50830030104F82328247CF582E43400C8
:100E9300F5832290007930030390007CE475F00120
:100EA3001207F002063C60EAC50C7002150B14C56C
:100EB3000C200304FF02273290007974FFF5F0023F
:100EC3000807FF0226B6E5096006D509037F00225D
:100ED30020030F1226A2EF6008050CE50C70020533
:100EE3000B229000791207E712063CFF60E890009E
:100EF30079E475F0011207F080DC120ED3EFC0E045
:100F0300120EC5D0E040F3809DD2038002C203904D
:100F1300007912081EE4F50AF508F50BF50C7509BE
:100F230000C202C200C201C204120E96FF7005AFD6
:100F33000A7E0022B42530120E96FF24D0B40A0094
:100F4300500C75F00AC509A42509F50980E924CFD9
:100F5300B41A00EF5002C2E50211A9D20180D8D21F
:100F63000080D4D20480D0EF120EC55008120EFDBB
:100F7300EF600E80A9EFC0E0120ED3D0E06F609E49
:100F8300EF6074120EA980A7120ED3EF6069E50912
:100F9300700705098003120ED3EF601420040E12AC
:100FA3000E83E475F0011207F0EF120682D509E60D
:100FB3002004040508050A80BA120EC9EFC0E01226
:100FC3000EC5D0E05004120EA9E4FF20040E120E49
:100FD30083E475F0011207F0EF120682EF70DA2056
:100FE30004040508050A808BE50960020509120E51
:100FF300FD120EC9EF70C6300304E4120EA9E50A10
:101003006003020F327EFF7FFF22E50960020509BC
:10101300120EFDD206D205120EC9EF30060260D7BA
:10102300C0E0120EA9D0E0AC0DAD0EAE0FAF1012A2
:101033001DFF8C0D8D0E8E0F8F105007120ED3C215
:101043000580D4200410200502050A120E8312071E
:03105300E70508A6
:1010560012075B020F21D0E0809A7900800A79108E
:10106600800679088002790AD205E5096002050939
:10107600E9C0E0120EFDEF60DD120ED3BF2D04D2E3
:10108600028003BF2B09120EFDEF60CA120EC9D0F3
:10109600E0B40A028033B40802802EBF3027700203
:1010A6007408C205C0E0120EC9D0E0BF7802800302
:1010B600BF58160509D509028007D50904D205804F
:1010C6000B741080197002740ABF000AEFF8E4FC72
:1010D600FDFEFF02115CC0E0EF120EA9D0E0F9E4BC
:1010E600FCFDFEFFE9C0E0ECC0E0EDC0E0EEC0E0D4
:1010F600EFC0E0120EC9EFF8D0E0FFD0E0FED0E07E
:10110600FDD0E0FCD0F0E8604DB461004007B47B50
:10111600005002C2E524D0503DFA24F6500724F9C7
:101126005034240AFAEAB5F000502BCFA9F0A42FC8
:10113600FF92D5E9C5F0CEA4A2D53EFE92D5E9C56B
:10114600F0CDA4A2D53DFD92D5E9C5F0CCA4A2D59B
:101156003CFCC205808EE8C0E020042A2005080574
:101166000A30020312073C120E831207E705082015
:10117600000B20010DEE8FF012071D800912075B90
:101186008004EF120682D0E0120EA9020F2120047D
:1011960010120E831207E70508E50B850CF01207FF
:1011A6001D80E81208270FEB531064580F624C0F8E
:1011B6005E420F3A4810684F106C440F8B43106024
:1011C60049106C55100D46100D45100D470F662A37
:0711D60011944E00000F6AA6
:10033900E9D2E7C933E833F892D5EDD2E7CD33EC0A
:0703490033FC5002B2D52283
:10035000EC30E7100FBF000C0EBE00080DBD00040E
:100360000BEB6014A2D5EB13FCED92E7FD2274FFBA
:10037000FCFDFEFF22E480F8A2D574FF13FC7D8013
:03038000E480EF27
:10038300F920E73624F950037907E4F42402FBE566
:1003930082158270021583DBF6E024FB501BE960B3
:1003A30014E4F0E582158270021583E004F0B40AC8
:0D03B30008E4F0D9EE7401F00A22C2D52250
:1003C000ED33EC3392D5FA602AB4FF33EDC2E77B0C
:1003D000FF60067A0379E5E4227A0379EE20D504FA
:1003E0007A0379E9224E614E002B494E46002D4991
:1003F0004E4600E47A08F0A3DAFC7B00740722C0C2
:1004000083C082ECC0E0EDC0E0EEC0E0EFC0E0EA07
:1004100075F010A4CAABF075F04DA42BFBE435F0D9
:10042000FCEA2410FAEB34C5FBEC34D9FCEDC2E74E
:10043000FF75F056A4F42411C5F0F434C58FF0A470
:100440002AE5F03BE43CF020E714120506D0E0FF7B
:10045000D0E0FED0E0FDD0E0FC1202278014F404CE
:10046000120506D0E0FFD0E0FED0E0FDD0E0FC12A7
:10047000011ED082D083E0FAEDD2E7CD33EC3324F5
:1004800082FBE4C3CF33CFCE33CECD33CD33DBF3DA
:100490007B0775F00A846004F0A31B0AE5F0F0A363
:1004A0008FF0740AA4FFACF08EF0740AA42CFEAC9A
:1004B000F050010C8DF0740AA42CFDE435F0F0A38B
:0504C000DBDE740722E1
:101DEC00C207C208C209C20AF9E4F511F512FCFDDA
:101DFC00FEFFE91006EA20090CB42D04D209D32207
:101E0C00B42B02D32224D0504794095041240A30D9
:101E1C000A15F88512F0740AA42872E74051C5F02F
:101E2C00704D85F012D322D208C0E0E4FBFA792081
:101E3C00784112011EECF8EDF9EEFAEFFBD0E0FC64
:101E4C00E41202CE12002D3007B41511D322240A4D
:101E5C00200A20B4FE0720071AD207D32224EB60F5
:101E6C000424E0700EA2099207D20AC209D322C33D
:101E7C0002036EE4300A0BE512300902F404A207E7
:101E8C0092093008EA251120D2E5A2E7920A500205
:101E9C00F404B4260050D8CCC0E0EDC0E0EEC0E0B5
:101EAC00EFC0E0EC120506D0E0FFD0E0FED0E0FD84
:101EBC00D0E0FC200A0512011E8003120227300913
:061ECC00031204C5C3224D
:1004C500ED33EC33600A047003BD8004ECB2E7FC45
:0104D5002204
:1004D6003F8000004120000042C80000447A00002E
:1004E600461C400047C35000497424004B189680B0
:1004F6004CBEBC205A0E1BCA6753C21C749DC5AEA7
:10050600FB60065407601C2323120534EB54386045
:100516000912052012052F12011EECF8EDF9EEFA6C
:10052600EFCB22EB12052F80F1543803241C9004E4
:10053600D6FE93FC0EEE93FD0EEE930ECE93FF22A7
:0300000002227168
:0C227100787FE4F6D8FD7581220222B8C7
:10054600E709F608DFFA8046E709F208DFFA803E97
:1005560088828C83E709F0A3DFFA8032E309F60884
:10056600DFFA8078E309F208DFFA807088828C83EC
:10057600E309F0A3DFFA806489828A83E0A3F608A0
:10058600DFFA805889828A83E0A3F208DFFA804C7A
:1005960080D280FA80C680D4806980F28033801051
:1005A60080A680EA809A80A880DA80E280CA8033BA
:1005B60089828A83ECFAE493A3C8C582C8CCC58332
:1005C600CCF0A3C8C582C8CCC583CCDFE9DEE78002
:1005D6000D89828A83E493A3F608DFF9ECFAA9F081
:1005E600EDFB2289828A83ECFAE0A3C8C582C8CCD7
:1005F600C583CCF0A3C8C582C8CCC583CCDFEADEF0
:10060600E880DB89828A83E493A3F208DFF980CC51
:1006160088F0EF60010E4E60C388F0ED2402B4044A
:100626000050B9F582EB2402B4040050AF232345F1
:060636008223900596737B
:10063C00BB010689828A83E0225002E722BBFE02BC
:09064C00E32289828A83E49322EF
:10065500BB010CE58229F582E5833AF583E022505A
:1006650006E92582F8E622BBFE06E92582F8E222A4
:0D067500E58229F582E5833AF583E49322BE
:10068200BB010689828A83F0225002F722BBFE0157
:02069200F32251
:10069400F8BB010DE58229F582E5833AF583E8F09C
:1006A400225006E92582C8F622BBFE05E92582C848
:0206B400F22230
:1006B600EF8DF0A4A8F0CF8CF0A428CE8DF0A42E58
:0206C600FE2212
:1006C800BC000BBE0029EF8DF084FFADF022E4CC16
:1006D800F875F008EF2FFFEE33FEEC33FCEE9DECDF
:1006E800984005FCEE9DFE0FD5F0E9E4CEFD22ED25
:1006F800F8F5F0EE8420D21CFEADF075F008EF2F6F
:10070800FFED33FD4007985006D5F0F222C398FD5F
:050718000FD5F0EA22FC
:10071D00BB010A89828A83F0E5F0A3F0225006F727
:0F072D0009A7F01922BBFE06F3E5F009F3192224
:0E073C00C3E49FFFE49EFEE49DFDE49CFC22CE
:10074A00EB9FF5F0EA9E42F0E99D42F0E89C45F005
:01075A00227C
:10075B00BB010789828A830207AA5005E9F80209BF
:0A076B00E8BBFE05E9F80209F422DC
:100775007401FF3395E0FEFDFCA3A3A3E02FFFF07A
:10078500E582158270021583E03EFEF0E582158252
:1007950070021583E03DFDF0E58215827002158338
:0507A500E03CFCF02225
:0C07AA00ECF0A3EDF0A3EEF0A3EFF022C2
:1007B600A8828583F0D083D0821207CD1207CD128E
:1007C60007CD1207CDE473E493A3C583C5F0C583B3
:1007D600C8C582C8F0A3C583C5F0C583C8C582C88D
:0107E60022F0
:0907E700E0FBA3E0FAA3E0F92213
:1007F000F8E0FBA3A3E0F925F0F0E5821582700292
:070800001583E0FA38F02235
:10080700F8E0FBA3A3E025F0F9F0E582158270027A
:070817001583E038FAF0221E
:09081E00EBF0A3EAF0A3E9F022DB
:10082700D083D082F8E4937012740193700DA3A360
:1008370093F8740193F5828883E473740293686074
:06084700EFA3A3A380DF74
:10254200EFB40A07740D12254D740A309811A89938
:10255200B8130CC2983098FDA899C298B811F630F9
:0725620099FDC299F59922D1
:1026A20010140B122728BF0D027F0A022542900048
:0426B200E6E0FF223D
:082732009000E6EFF0D2142242
:1026B600EFC394094005EF940E4004EFB42003D312
:0426C6008001C322AA
:10084D00E3F5F009E208B5F06D606B80F3E3F5F0C8
:10085D0009E608B5F060605E80F387F009E608B53B
:10086D00F054605280F487F009E208B5F048604614
:10087D0080F488828C8387F009E0A3B5F038603668
:10088D0080F488828C8387F009E493A3B5F0276008
:10089D002580F388828C83E3F5F009E0A3B5F0168B
:1008AD00601480F388828C83E3F5F009E493A3B59B
:1008BD00F004600280F2020978808580E7808E80E6
:1008CD00D2803C8015806C807E809B80B5808B8033
:1008DD00A1804F8070803A02098489828A83ECFA64
:1008ED00E493F5F0A3C8C582C8CCC583CCE493A32B
:1008FD00C8C582C8CCC583CCB5F070606E80E18967
:10090D00828A83E493F5F0A3E208B5F05E605C8023
:10091D00F289828A83E0F5F0A3E608B5F04D604BCD
:10092D0080F389828A83E0F5F0A3E208B5F03C609C
:10093D003A80F389828A83E493F5F0A3E608B5F053
:10094D002A602880F2805389828A83ECFAE493F539
:10095D00F0A3C8C582C8CCC583CCE0A3C8C582C8E6
:10096D00CCC583CCB5F004600280E27FFFB5F00208
:10097D000F2240027F012289828A83ECFAE0F5F092
:10098D00A3C8C582C8CCC583CCE0A3C8C582C8CCDA
:10099D00C583CCB5F0D560D380E389828A83ECFA28
:1009AD00E0F5F0A3C8C582C8CCC583CCE493A3C839
:1009BD00C582C8CCC583CCB5F0B160AF80E288F0FC
:1009CD00ED2402B4040050A3F582EB2402B404001C
:0B09DD00509923234582239008C67325
:10227D000223E4E493A3F8E493A34003F68001F270
:10228D0008DFF48029E493A3F85407240CC8C33362
:10229D00C4540F4420C8834004F456800146F6DF31
:1022AD00E4800B0102040810204080901BF4E47EB2
:1022BD00019360BCA3FF543F30E509541FFEE49326
:1022CD00A360010ECF54C025E060A840B8E493A3ED
:1022DD00FAE493A3F8E493A3C8C582C8CAC583CA18
:1022ED00F0A3C8C582C8CAC583CADFE9DEE780BED0
:011CFF0000E4
:0C09E800ECF608EDF608EEF608EFF6223B
:0C09F400ECF208EDF208EEF208EFF2223F
:0A2728003098FDAF99C2987E0022A0
:00000001FF
