:101321007580FFE5A0541F4480F5A053A01FE4F58C
:0D13310080E5A0541F44A0F5A053A01F228A
:1013AF00EFF4F580E5A0541F4480F5A053A01F2251
:1013740053890F538EBF758DFC758B18C28FD2AFF6
:05138400D2ABD28E2265
:05105400900037EFF0F1
:10105900900013E0FCA3E0FDA3E0FEA3E0FF9000F5
:1010690038120561900038E0F8A3E0F9A3E0FAA38B
:10107900E0FB900013E0FCA3E0FDA3E0FEA3E0C3C6
:101089009BFBEE9AFAED99F9EC98F8900037E0FF9E
:0A109900E4FCFDFEC312051B40CA73
:0110A300222A
:0B0A8600900034EBF0A3EAF0A3E9F0CD
:100A9100E490003AF0A3F090003BE0FFC3940840DB
:100AA10003020C4C900034E0FBA3E0FAA3E0F990C0
:100AB100003AE0F58275830012049212059E0BDE66
:100AC1002D0AEA300AFF310B18320B31330B4A344D
:100AD1000B63350B7C360B95370BAE380BC6390BD8
:100AE100F6430C0E4500000C26900037E0FBA3E016
:100AF100FAA3E0F98F8275830074C0020C3C900068
:100B010037E0FBA3E0FAA3E0F990003BE0F5827542
:100B1100830074F9020C3C900037E0FBA3E0FAA3D8
:100B2100E0F990003BE0F58275830074A4020C3C6F
:100B3100900037E0FBA3E0FAA3E0F990003BE0F579
:100B41008275830074B0020C3C900037E0FBA3E097
:100B5100FAA3E0F990003BE0F582758300749902F5
:100B61000C3C900037E0FBA3E0FAA3E0F990003BD6
:100B7100E0F5827583007492020C3C900037E0FB33
:100B8100A3E0FAA3E0F990003BE0F58275830074DD
:100B910082020C3C900037E0FBA3E0FAA3E0F9905D
:100BA100003BE0F58275830074F8020C3C9000373D
:100BB100E0FBA3E0FAA3E0F990003BE0F582758346
:100BC1000074808076900037E0FBA3E0FAA3E0F99F
:100BD10090003BE0F5827583007490805E90003751
:100BE100E0FBA3E0FAA3E0F990003BE0F582758316
:100BF1000074BF8046900037E0FBA3E0FAA3E0F960
:100C010090003BE0F58275830074C6802E9000371A
:100C1100E0FBA3E0FAA3E0F990003BE0F5827583E5
:100C21000074868016900037E0FBA3E0FAA3E0F998
:100C310090003BE0F58275830074FF1204D19000AF
:0B0C41003AE004F0A3E004F0020A987F
:010C4C002285
:10117D007580FFE5A0541F44E0F5A053A01F740136
:10118D00A805088002C333D8FCF580E5A0541F44A0
:10119D00C0F5A053A01FAF058F8275830012049276
:0E11AD00F580E5A0541F44E0F5A053A01F22DA
:10089900E4900036F0C2C4D2C2D2B5D2B4E5B054A5
:1008A9000FFF900034E4F0A3EFF0D2C4C2C2D2B576
:1008B900D2B4E0C4F8540FC868FF900034E0C454BF
:1008C900F048FEE5B0540FFDEF4DFFEEF0A3EFF059
:1008D900D2C4D2C2C2B5D2B4E0C4F8540FC868FFBA
:1008E900900034E0C454F048FEE5B0540FFDEF4DDC
:1008F900FFEEF0A3EFF0D2C4D2C2D2B5C2B4E0C4C5
:10090900F8540FC868FF900034E0C454F048FEE57D
:10091900B0540FFDEF4DFFEEF0A3EFF0900034E07F
:10092900B4FF08A3E0B4FF037F00227F1412105420
:10093900C2C4D2C2D2B5D2B4E5B0540F7E00D2C47B
:10094900C2C2D2B5D2B4C4F8540FC868FFEEC454B9
:10095900F048FEE5B0540FFDEF4DD2C4D2C2C2B586
:10096900D2B4C4F8540FC868FFEEC454F048FEE589
:10097900B0540FFDEF4DD2C4D2C2D2B5C2B4C4F83F
:10098900540FC868FFEEC454F048FEE5B0540FFD9B
:10099900EF4DFF900034E06E7003A3E06F60030237
:1009A9000A80EFF4FFEEF4FEEF8EF01205C40A732D
:1009B90000010A6B00020A6300040A5B00080A537B
:1009C90000100A4B00200A4300400A3B00800A330A
:1009D90001000A2B02000A2304000A1B08000A135B
:1009E90010000A0B20000A03400009FB80000000E8
:1009F9000A7B9000367404F0807D9000367405F00F
:100A090080759000367406F0806D9000367407F09A
:100A190080659000367408F0805D9000367409F0A6
:100A29008055900036740AF0804D900036740BF0B2
:100A39008045900036740CF0803D900036740DF0BE
:100A49008035900036740EF0802D900036740FF0CA
:100A590080259000367410F0801D9000367411F0D6
:100A690080159000367412F0800D9000367413F0E2
:0C0A79008005E4900036F0900036E0FFAD
:010A8500224E
:10138900E4FEC297EF1392A3EFC313FFD2970EEEB9
:03139900B408EFA6
:01139C00222E
:08133E0075F00A84EE25F0FDB4
:10134600C29300C29700D29300121389AF051213FD
:0413560089C2932293
:1011BB00E4FDC29300C29700D29300121389E4FF9F
:1011CB00C297EDC313FD30A3034480FDD2970FEFFD
:1011DB00B408EDC29300C29700D29700C2A300D20D
:0411EB00A300AF05A9
:0111EF0022DD
:10100100E4FD7F8E121346900002120492FF75F0E8
:101011000A84C454F0FEEF7F8012133E9000011247
:101021000492FF75F00A8475F00AA4FEEF7F821224
:10103100133E120479FF75F00A84C454F0FEEF7573
:10104100F00A84EE25F0FD7F841213467D807F8EA9
:0310510002134641
:101138007F811211BBEFC4540F75F00AA4FEEF545F
:101148000F2E9000021204D17F831211BBEFC454FA
:101158000F75F00AA4FEEF540F2E9000011204D16F
:101168007F851211BBEFC4540F75F00AA4FEEF542B
:051178000F2E0204BF70
:04135A00D2A07F0A94
:10135E00000000000000000000000000000000AED1
:06136E00071FEE70EB22E8
:0F13BF00D2A112135AC2A17F0A12135EC2A0223A
:0C13CE00C2A112135AD2A17F0A02135EC2
:02128B00AD07AD
:10128D00E4FCC2A07F0A12135EED30E704D2A18008
:10129D0002C2A17F0A12135ED2A0ED25E0FD7F0AE6
:0A12AD0012135E0CECB408DAC2A0C4
:0112B7002214
:10130300E4FC12135AED25E0FD30A1034401FDC2B4
:0D131300A07F0A12135E0CECB408E7AF05D2
:0113200022AA
:1012DF00EBF0A3EAF0A3E9F0AB051213BF7FA01266
:0212EF00128B60
:1012F10012135AA2A1E433FDC2A07F0A12135EAFFA
:0113010005E6
:0113020022C8
:10000300C2A0EF24FF92A17F0A12135E12135AC2F9
:08001300A0D2A17F0A02135ED6
:1010A4009000371212DFAF0312128B1212F11213D7
:1010B400BF7FA112128B1212F190003BE0FF14F0DB
:1010C400EF6028121303900037E0FBA3E475F001EE
:1010D400120505A9F0FAEF1204BF90003BE060048A
:0E10E400E4FF80027F0112000380CE0213CED3
:101225009000371212DFAF03801E90003BE0FF14E1
:10123500F0EF601C900037E0FBA3E475F0011205A8
:1012450005A9F0FA120479FF12128B1212F180DA55
:031255000213CEB3
:1011F000253032752D253032752D2530327500435E
:10120000606060253475004360606060606060000D
:10121000456060253032752D25303275002530341B
:0512200078000C3B2DDD
:100F43004100220041003000440013000000004A29
:100F530000233231333400000000000048001A003F
:100F63000000000000000041002E0041001100417C
:100F730000120041002D0045000A0000000000425D
:100F8300000F00004300070000004200170000416B
:100F9300002F004100190041000000420001000041
:070FA3004400030000000000
:1012580078317C007D017BFF7A1279227E007F0342
:101268001204537B017A00793112100112132112F2
:10127800137412061112139D120D5C120FAB120C8F
:031288004D80EFA7
:100D5C0090002DE07003020E22E4F0900011E014DC
:100D6C00603C14606924026003020E0B90003A741C
:100D7C00FFF0A37411F0A374F0F0900007E0FF9063
:100D8C00003DE4F0A3EFF0900008E0FF90003FE49A
:100D9C00F0A3EFF0900009E0FF9000418053900029
:100DAC0019E090003A601B74FFF0A37411F0A37467
:100DBC00FFF090000FE0FFA3E090003DCFF0A3EF19
:100DCC00803374FFF0A37412F0A374078027900093
:100DDC003A74FFF0A37412F0A37410F0900017E0B3
:100DEC00FF90003DE4F0A3EFF0900018E0FF9000BE
:100DFC003FE4F0A3EFF07B017A007923120083909B
:100E0C0000377401F0A37400F0A3741AF07B017A1C
:070E1C00007923120A86226F
:10061100120899AB07900000E06B7003020898EB99
:1006210024FCB40F00400302089390063975F003CF
:10063100A4C58325F0C583730206660206930206EC
:10064100AF0208930208080207720206DC0208934F
:100651000208360207A402070E020893020861028B
:1006610007D6020740900011E004F075F00384E51D
:10067100F0F0E0FFB4010BE490000FF0A3F0900064
:1006810019F0EF6402600302089390001204F00273
:100691000893900011E06401600302089390000F39
:1006A100F0A3F0900017F0A3F0A3F00208939000DC
:1006B10011E064016003020893900019E0D39403F0
:1006C100400302089390000FE0FEA3E0FF7C007D51
:1006D1000A1204F390000FEE020889900011E06401
:1006E100016003020893900019E0D39403400302D0
:1006F100089390000FE0FEA3E0FF7C007D0A120446
:10070100F3EF2401FFE43E90000F020889900011ED
:10071100E064016003020893900019E0D394034060
:100721000302089390000FE0FEA3E0FF7C007D0A26
:100731001204F3EF2402FFE43E90000F02088990B7
:100741000011E064016003020893900019E0D39462
:1007510003400302089390000FE0FEA3E0FF7C003A
:100761007D0A1204F3EF2403FFE43E90000F020818
:1007710089900011E064016003020893900019E080
:10078100D39403400302089390000FE0FEA3E0FF1F
:100791007C007D0A1204F3EF2404FFE43E90000F75
:1007A100020889900011E06401600302089390003F
:1007B10019E0D39403400302089390000FE0FEA3D5
:1007C100E0FF7C007D0A1204F3EF2405FFE43E9074
:1007D100000F020889900011E06401600302089390
:1007E100900019E0D39403400302089390000FE0B6
:1007F100FEA3E0FF7C007D0A1204F3EF2406FFE470
:100801003E90000F020889900011E064016003022C
:100811000893900019E0D39403507790000FE0FE05
:10082100A3E0FF7C007D0A1204F3EF2407FFE43EFE
:1008310090000F8053900011E064017055900019F1
:10084100E0D39403504C90000FE0FEA3E0FF7C0046
:100851007D0A1204F3EF2408FFE43E90000F802884
:10086100900011E0B4012B900019E0D394035022C1
:1008710090000FE0FEA3E0FF7C007D0A1204F3EF7D
:100881002409FFE43E90000FF0A3EFF0900019E07F
:0708910004F0900000EBF001
:01089800223D
:0D10F200E0FF1210FFEFC454F0FDA3E0FF7B
:1010FF00E4FEEFC39430400CEFD394395006EF2445
:10110F00D0FE8022EFC39441400CEFD3944650069B
:10111F00EF24C9FE8010EFC39461400AEFD39466A9
:08112F005004EF24A9FEAF06F5
:011137002295
:10139D0090002FE0600BE4F07B017A0079071211C9
:0213AD003822E4
:100C4D00E4900035F0A3F0900012E07003020D5B0C
:100C5D00E4F0900007E0900017F0900008E090009D
:100C6D0018F07B017A00793490003B7401F07D021D
:100C7D001210A4900034E0A3F0A3E4F07B017A00FD
:100C8D00793490003B04F07D031210A4900034E001
:100C9D00FFA3E0F0A3E04FF090000FE0FEA3E0FF14
:100CAD004E601A900035E0FCA3E0FDD3EF9DEE9C65
:100CBD0040047F0180027F00900030EFF090003AF9
:100CCD0074FFF0A37412F0A3741DF090000FE0FFF9
:100CDD00A3E090003DCFF0A3EFF07B017A00790AFD
:100CED00120083900017E0900034F07B017A0079B8
:100CFD003490003B7401F0E4FD121225900018E0D1
:100D0D00900034F07B017A00793490003B7401F04F
:100D1D00FD12122590000A1210F2EF4D900034F0E2
:100D2D007B017A00793490003B7401F07D02121240
:100D3D002590000C1210F2EF4D900034F07B017AEB
:0E0D4D0000793490003B7401F07D03121225F2
:010D5B002275
:100FAB00900022E0FF900011E0FE7401A80608807B
:100FBB0002C333D8FCFE4FFF900022F0EE44F85FE3
:100FCB00F0900030E09000226006E04408F08004CE
:100FDB00E054F7F0900022E0FFFD900001E0700379
:100FEB00A3E06D60101213AF900022E0FF900001A0
:050FFB00E4F0A3EFF09B
:0110000022CD
:03001B00020E23AF
:100E2300C0E0C0F0C083C082C0D075D000C000C095
:0D0E330001C002C003C004C005C006C00716
:100E4000900013E0FCA3E0FDA3E0FEA3E02401FF7B
:100E5000E43EFEE43DFDE43CFC900013120561908D
:100E6000000312052CE47B64FAF9F8C312051B7029
:100E70001490000312056D0000000090002D740115
:100E8000F090002FF07B017A00791A90002EE0FD9F
:0C0E900012117D90002EE004F05407F0D9
:100E9C00D007D006D005D004D003D002D001D000AA
:0B0EAC00D0D0D082D083D0F0D0E03254
:03000000020EB736
:0C0EB700787FE4F6D8FD758121020EFE64
:10038300E709F608DFFA8046E709F208DFFA803E5C
:1003930088828C83E709F0A3DFFA8032E309F60849
:1003A300DFFA8078E309F208DFFA807088828C83B1
:1003B300E309F0A3DFFA806489828A83E0A3F60865
:1003C300DFFA805889828A83E0A3F208DFFA804C3F
:1003D30080D280FA80C680D4806980F28033801016
:1003E30080A680EA809A80A880DA80E280CA80337F
:1003F30089828A83ECFAE493A3C8C582C8CCC583F7
:10040300CCF0A3C8C582C8CCC583CCDFE9DEE780C6
:100413000D89828A83E493A3F608DFF9ECFAA9F045
:10042300EDFB2289828A83ECFAE0A3C8C582C8CC9B
:10043300C583CCF0A3C8C582C8CCC583CCDFEADEB4
:10044300E880DB89828A83E493A3F208DFF980CC16
:1004530088F0EF60010E4E60C388F0ED2402B4040F
:100463000050B9F582EB2402B4040050AF232345B6
:0604730082239003D37305
:10047900BB010689828A83E0225002E722BBFE0281
:09048900E32289828A83E49322B4
:10049200BB010CE58229F582E5833AF583E022501F
:1004A20006E92582F8E622BBFE06E92582F8E22269
:0D04B200E58229F582E5833AF583E4932283
:1004BF00BB010689828A83F0225002F722BBFE011C
:0204CF00F32216
:1004D100F8BB010DE58229F582E5833AF583E8F061
:1004E100225006E92582C8F622BBFE05E92582C80D
:0204F100F222F5
:1004F300EF8DF0A4A8F0CF8CF0A428CE8DF0A42E1D
:02050300FE22D6
:10050500A3F8E0C5F025F0F0E582158270021583A9
:06051500E0C838F0E82206
:10051B00EB9FF5F0EA9E42F0E99D42F0E89C45F036
:01052B0022AD
:10052C007401FF3395E0FEFDFCA3A3A3E02FFFF0C5
:10053C00E582158270021583E03EFEF0E58215829D
:10054C0070021583E03DFDF0E58215827002158383
:05055C00E03CFCF02270
:0C056100ECF0A3EDF0A3EEF0A3EFF0220D
:10056D00A8828583F0D083D082120584120584126F
:10057D000584120584E473E493A3C583C5F0C58394
:10058D00C8C582C8F0A3C583C5F0C583C8C582C8D8
:01059D00223B
:10059E00D083D082F8E4937012740193700DA3A3EC
:1005AE0093F8740193F5828883E473740293686000
:0605BE00EFA3A3A380DF00
:1005C400D083D082F8E4937012740193700DA3A3C6
:1005D40093F8740193F5828883E473740293B5F0FD
:0D05E400067403936860E9A3A3A3A380D865
:10001E00E508243AF582E43400F583E005082290E1
:10002E00003730070390003AE475F0011205F10233
:10003E0004792000E97F2ED2008018EF540F24900F
:10004E00D43440D4FF30040BEF24BFB41A00500355
:10005E002461FFE50960021509050CE50C70020527
:10006E000B30070E900037E475F0011205F1EF0228
:10007E0004BF0212B87403D2078003E4C207F50866
:10008E00900037120608E4F509F50BF50CE509604A
:10009E00077F2012006180F5750AFFC201C200C2FF
:1000AE0002C203C205C206C20812002DFF700D3037
:1000BE0007057F00120072AF0CAE0B22B4255FC293
:1000CE00D5C20412002DFF24D0B40A00501A75F0C8
:1000DE000A780930D50508B6FF0106C6A426F62013
:1000EE00D5047002D20380D924CFB41A00EF500485
:1000FE00C2E5D204020273D20180C6D20080C0D201
:10010E000280BCD2D580BAD20580B47F20120061A5
:10011E002002077401B5090040F112001EFF120003
:10012E006102009BD208D206809512001EFB1200BF
:10013E001EFA12001EF94A4B700679447A037BFFB1
:10014E0020022EE509602A7E008E8275830012043D
:10015E009260060EEE650A70F0C2D5EBC0E0EAC002
:10016E00E0E9C0E0EE1202BAD0E0F9D0E0FAD0E059
:10017E00FB120479FF60AAEBC0E0EAC0E0E9C0E040
:10018E00120061D0E02401F9D0E03400FAD0E0FB97
:10019E00E50A0460DCD50AD980877BFF7A0279B63E
:1001AE00D202809C791080027908C206C2088008AB
:1001BE00D2D5790A8004790AC2D5E50A047002F50F
:1001CE000AE4FAFDFEFF12001EFC7B08200113124A
:1001DE00001EFD7B1030000A12001EFE12001EFFD4
:1001EE007B20EC3382D592D55013C3E43000069FAA
:1001FE00FFE49EFEE42001039DFDE49CFCE4CBF8AD
:10020E00C201EC700CCFCECDCCE824F8F870F380A0
:10021E0017C3EF33FFEE33FEED33FDEC33FCEB3360
:10022E00FB994002FB0FD8E9EB300105F8D0E0C492
:10023E0048B201C0E00AEC4D4E4F78207B0070C2F0
:10024E00EAB50A0040BCC0E01202BCD0F0D0E020FB
:10025E000104C4C0E0C4B201C0F012004AD0F0D50F
:10026E00F0EB02009B12059E01385301B2580109B2
:10027E004C01054201B64F01BE4401BE49011E4369
:08028E0001C45501A84601A8B6
:100296004501A847036450010D2D01112E01342B91
:1002A600011523013220034D2A00CD480000012C00
:1002B6003F3F3F00790AA2D5200314300509B91043
:1002C600020404B9080104A2D52006025001042044
:1002D60002689202B509005034C0E07F203003194D
:1002E6007F30A20272067205500F120313C202C2B9
:1002F60006C205C2087F30800F300503E9C0E01250
:100306000061300503D0E0F9D0E0B509CC3005171F
:100316007F30B9100C1200617F583004077F788057
:1003260003B908031200613002057F2D0200617FC8
:10033600202008F87F2B2006F322920280CF286E19
:10034600756C6C2900D20112001E3001F8C20178CA
:100356000930D50108F60200CD2D50434958120048
:100366001E2403B405004001E490035F931200527B
:0D037600743A120052D2037509040201B25C
:100EC300021258E493A3F8E493A34003F68001F2DB
:100ED30008DFF48029E493A3F85407240CC8C33330
:100EE300C4540F4420C8834004F456800146F6DFFF
:100EF300E4800B0102040810204080900F43E47E3D
:100F0300019360BCA3FF543F30E509541FFEE493F3
:100F1300A360010ECF54C025E060A840B8E493A3BA
:100F2300FAE493A3F8E493A3C8C582C8CAC583CAE5
:100F3300F0A3C8C582C8CAC583CADFE9DEE780BE9D
:010FAA000046
:1005F100F8E0FBA3A3E0F925F0F0E5821582700293
:070601001583E0FA38F02236
:09060800EBF0A3EAF0A3E9F022F3
:1012B800EFB40A07740D1212C3740A309811A89972
:1012C800B8130CC2983098FDA899C298B811F63096
:0712D80099FDC299F599226E
:00000001FF
