:1012EE007580FFE5A0541F4480F5A053A01FE4F5C0
:0D12FE0080E5A0541F44A0F5A053A01F22BE
:10137C00EFF4F580E5A0541F4480F5A053A01F2284
:1013410053890F538EBF758DFC758B18C28FD2AF29
:05135100D2ABD28E2298
:05102100900039EFF022
:10102600900015E0FCA3E0FDA3E0FEA3E0FF900026
:101036003A12056190003AE0F8A3E0F9A3E0FAA3BA
:10104600E0FB900015E0FCA3E0FDA3E0FEA3E0C3F7
:101056009BFBEE9AFAED99F9EC98F8900039E0FFCF
:0A106600E4FCFDFEC312051B40CAA6
:01107000225D
:0B0A8600900036EBF0A3EAF0A3E9F0CB
:100A9100E490003CF0A3F090003DE0FFC3940840D7
:100AA10003020C4C900036E0FBA3E0FAA3E0F990BE
:100AB100003CE0F58275830012049212059E0BDE64
:100AC1002D0AEA300AFF310B18320B31330B4A344D
:100AD1000B63350B7C360B95370BAE380BC6390BD8
:100AE100F6430C0E4500000C26900039E0FBA3E014
:100AF100FAA3E0F98F8275830074C0020C3C900068
:100B010039E0FBA3E0FAA3E0F990003DE0F582753E
:100B1100830074F9020C3C900039E0FBA3E0FAA3D6
:100B2100E0F990003DE0F58275830074A4020C3C6D
:100B3100900039E0FBA3E0FAA3E0F990003DE0F575
:100B41008275830074B0020C3C900039E0FBA3E095
:100B5100FAA3E0F990003DE0F582758300749902F3
:100B61000C3C900039E0FBA3E0FAA3E0F990003DD2
:100B7100E0F5827583007492020C3C900039E0FB31
:100B8100A3E0FAA3E0F990003DE0F58275830074DB
:100B910082020C3C900039E0FBA3E0FAA3E0F9905B
:100BA100003DE0F58275830074F8020C3C90003939
:100BB100E0FBA3E0FAA3E0F990003DE0F582758344
:100BC1000074808076900039E0FBA3E0FAA3E0F99D
:100BD10090003DE0F5827583007490805E9000394D
:100BE100E0FBA3E0FAA3E0F990003DE0F582758314
:100BF1000074BF8046900039E0FBA3E0FAA3E0F95E
:100C010090003DE0F58275830074C6802E90003916
:100C1100E0FBA3E0FAA3E0F990003DE0F5827583E3
:100C21000074868016900039E0FBA3E0FAA3E0F996
:100C310090003DE0F58275830074FF1204D19000AD
:0B0C41003CE004F0A3E004F0020A987D
:010C4C002285
:10114A007580FFE5A0541F44E0F5A053A01F740169
:10115A00A805088002C333D8FCF580E5A0541F44D3
:10116A00C0F5A053A01FAF058F82758300120492A9
:0E117A00F580E5A0541F44E0F5A053A01F220D
:10089900E4900038F0C2C4D2C2D2B5D2B4E5B054A3
:1008A9000FFF900036E4F0A3EFF0D2C4C2C2D2B574
:1008B900D2B4E0C4F8540FC868FF900036E0C454BD
:1008C900F048FEE5B0540FFDEF4DFFEEF0A3EFF059
:1008D900D2C4D2C2C2B5D2B4E0C4F8540FC868FFBA
:1008E900900036E0C454F048FEE5B0540FFDEF4DDA
:1008F900FFEEF0A3EFF0D2C4D2C2D2B5C2B4E0C4C5
:10090900F8540FC868FF900036E0C454F048FEE57B
:10091900B0540FFDEF4DFFEEF0A3EFF0900036E07D
:10092900B4FF08A3E0B4FF037F00227F1412102153
:10093900C2C4D2C2D2B5D2B4E5B0540F7E00D2C47B
:10094900C2C2D2B5D2B4C4F8540FC868FFEEC454B9
:10095900F048FEE5B0540FFDEF4DD2C4D2C2C2B586
:10096900D2B4C4F8540FC868FFEEC454F048FEE589
:10097900B0540FFDEF4DD2C4D2C2D2B5C2B4C4F83F
:10098900540FC868FFEEC454F048FEE5B0540FFD9B
:10099900EF4DFF900036E06E7003A3E06F60030235
:1009A9000A80EFF4FFEEF4FEEF8EF01205C40A732D
:1009B90000010A6B00020A6300040A5B00080A537B
:1009C90000100A4B00200A4300400A3B00800A330A
:1009D90001000A2B02000A2304000A1B08000A135B
:1009E90010000A0B20000A03400009FB80000000E8
:1009F9000A7B9000387404F0807D9000387405F00B
:100A090080759000387406F0806D9000387407F096
:100A190080659000387408F0805D9000387409F0A2
:100A29008055900038740AF0804D900038740BF0AE
:100A39008045900038740CF0803D900038740DF0BA
:100A49008035900038740EF0802D900038740FF0C6
:100A590080259000387410F0801D9000387411F0D2
:100A690080159000387412F0800D9000387413F0DE
:0C0A79008005E4900038F0900038E0FFA9
:010A8500224E
:10135600E4FEC297EF1392A3EFC313FFD2970EEEEC
:03136600B408EFD9
:011369002261
:08130B0075F00A84EE25F0FDE7
:10131300C29300C29700D29300121356AF05121363
:0413230056C29322F9
:10118800E4FDC29300C29700D29300121356E4FF05
:10119800C297EDC313FD30A3034480FDD2970FEF30
:1011A800B408EDC29300C29700D29700C2A300D240
:0411B800A300AF05DC
:0111BC002210
:100FCE00E4FD7F8E121313900002120492FF75F04F
:100FDE000A84C454F0FEEF7F8012130B90000112AE
:100FEE000492FF75F00A8475F00AA4FEEF7F821258
:100FFE00130B120479FF75F00A84C454F0FEEF75DA
:10100E00F00A84EE25F0FD7F841213137D807F8E0F
:03101E00021313A7
:101105007F81121188EFC4540F75F00AA4FEEF54C5
:101115000F2E9000021204D17F83121188EFC45460
:101125000F75F00AA4FEEF540F2E9000011204D1A2
:101135007F85121188EFC4540F75F00AA4FEEF5491
:051145000F2E0204BFA3
:04132700D2A07F0AC7
:10132B00000000000000000000000000000000AE04
:06133B00071FEE70EB221B
:0F138C00D2A1121327C2A17F0A12132BC2A022D3
:0C139B00C2A1121327D2A17F0A02132B5B
:02125800AD07E0
:10125A00E4FCC2A07F0A12132BED30E704D2A1806E
:10126A0002C2A17F0A12132BD2A0ED25E0FD7F0A4C
:0A127A0012132B0CECB408DAC2A02A
:011284002247
:1012D000E4FC121327ED25E0FD30A1034401FDC21B
:0D12E000A07F0A12132B0CECB408E7AF0539
:0112ED0022DE
:1012AC00EBF0A3EAF0A3E9F0AB0512138C7FA012CC
:0212BC001258C6
:1012BE00121327A2A1E433FDC2A07F0A12132BAF93
:0112CE00051A
:0112CF0022FC
:10000300C2A0EF24FF92A17F0A12132B121327C25F
:08001300A0D2A17F0A02132B09
:1010710090005F1212ACAF031212581212BE12137B
:101081008C7FA11212581212BE900063E0FF14F07F
:10109100EF60281212D090005FE0FBA3E475F0012D
:1010A100120505A9F0FAEF1204BF900063E0600495
:0E10B100E4FF80027F0112000380CE02139B39
:1011F2009000371212ACAF03801E90003BE0FF1448
:10120200F0EF601C900037E0FBA3E475F0011205DB
:1012120005A9F0FA120479FF1212581212BE80DAEE
:0312220002139B19
:1011BD00253032752D253032752D25303275004391
:1011CD006060602534750043606060606060600041
:1011DD00456060253032752D25303275002530344F
:0511ED0078000C3B2D11
:100F0B004100240041003200440015000000004A5B
:100F1B0000253231333400000000000048001C0073
:100F2B0000000000000000410030004100130041B0
:100F3B0000140041002F0045000C0000000000428F
:100F4B00001100004300090000004200190000419D
:100F5B0000310041001B0041000000420001000075
:0C0F6B00420003000044000500000000EC
:1012250078337C007D017BFF7A1179EF7E007F03A7
:101235001204537B017A007933120FCE1212EE128B
:10124500134112061112136A120D24120F78120C93
:031255004D80EFDA
:100D240090002FE07003020DEAE4F0900013E01449
:100D3400603C14606924026003020DD390003A748D
:100D4400FFF0A37411F0A374BDF0900009E0FF90CC
:100D5400003DE4F0A3EFF090000AE0FF90003FE4D0
:100D6400F0A3EFF090000BE0FF900041805390005F
:100D74001BE090003A601B74FFF0A37411F0A3749D
:100D8400CCF0900011E0FFA3E090003DCFF0A3EF82
:100D9400803374FFF0A37411F0A374D480279000FF
:100DA4003A74FFF0A37411F0A374DDF0900019E01D
:100DB400FF90003DE4F0A3EFF090001AE0FF9000F4
:100DC4003FE4F0A3EFF07B017A00792512008390D1
:100DD40000397401F0A37400F0A3741CF07B017A51
:070DE400007925120A8622A6
:10061100120899AB07900000E06B7003020898EB99
:1006210024FCB40F00400302089390063975F003CF
:10063100A4C58325F0C583730206660206930206EC
:10064100AF0208930208080207720206DC0208934F
:100651000208360207A402070E020893020861028B
:1006610007D6020740900013E004F075F00384E51B
:10067100F0F0E0FFB4010BE4900011F0A3F0900062
:100681001BF0EF6402600302089390001404F0026F
:100691000893900013E06401600302089390001135
:1006A100F0A3F0900019F0A3F0A3F00208939000DA
:1006B10013E06401600302089390001BE0D39403EC
:1006C1004003020893900011E0FEA3E0FF7C007D4F
:1006D1000A1204F3900011EE020889900013E064FD
:1006E10001600302089390001BE0D39403400302CE
:1006F1000893900011E0FEA3E0FF7C007D0A120444
:10070100F3EF2401FFE43E900011020889900013E9
:10071100E06401600302089390001BE0D39403405E
:1007210003020893900011E0FEA3E0FF7C007D0A24
:100731001204F3EF2402FFE43E90001102088990B5
:100741000013E06401600302089390001BE0D3945E
:10075100034003020893900011E0FEA3E0FF7C0038
:100761007D0A1204F3EF2403FFE43E900011020816
:1007710089900013E06401600302089390001BE07C
:10078100D394034003020893900011E0FEA3E0FF1D
:100791007C007D0A1204F3EF2404FFE43E90001173
:1007A100020889900013E06401600302089390003D
:1007B1001BE0D394034003020893900011E0FEA3D1
:1007C100E0FF7C007D0A1204F3EF2405FFE43E9074
:1007D1000011020889900013E0640160030208938C
:1007E10090001BE0D394034003020893900011E0B2
:1007F100FEA3E0FF7C007D0A1204F3EF2406FFE470
:100801003E900011020889900013E0640160030228
:10081100089390001BE0D394035077900011E0FE01
:10082100A3E0FF7C007D0A1204F3EF2407FFE43EFE
:100831009000118053900013E06401705590001BEB
:10084100E0D39403504C900011E0FEA3E0FF7C0044
:100851007D0A1204F3EF2408FFE43E900011802882
:10086100900013E0B4012B90001BE0D394035022BD
:10087100900011E0FEA3E0FF7C007D0A1204F3EF7B
:100881002409FFE43E900011F0A3EFF090001BE07B
:0708910004F0900000EBF001
:01089800223D
:0D10BF00E0FF1210CCEFC454F0FDA3E0FFE1
:1010CC00E4FEEFC39430400CEFD394395006EF2478
:1010DC00D0FE8022EFC39441400CEFD394465006CF
:1010EC00EF24C9FE8010EFC39461400AEFD39466DD
:0810FC005004EF24A9FEAF0629
:0111040022C8
:10136A00900031E0600BE4F07B017A0079091211F8
:02137A0005224A
:100C4D00900014E07003020D23E4F0900009E09091
:100C5D000019F090000AE090001AF0900001E0FEFB
:100C6D00A3E0FF4E6018D3900012E09F900011E0BA
:100C7D009E40047F0180027F00900032EFF09000D3
:100C8D0011E0FEA3E0FF900001EEF0A3EFF0900065
:100C9D003A74FFF0A37411F0A374EAF0A3EEF0A37D
:100CAD00EFF07B017A00790C120083900019E0902F
:100CBD000036F07B017A00793690003B7401F0E448
:100CCD00FD1211F290001AE0900036F07B017A00CF
:100CDD00793690003B7401F0FD1211F290000C1268
:100CED0010BFEF4D900036F07B017A007936900001
:100CFD003B7401F07D021211F290000E1210BFEF45
:100D0D004D900036F07B017A00793690003B7401EE
:060D1D00F07D031211F24B
:010D230022AD
:100F7800900024E0FF900013E0FE7401A8060880AA
:100F880002C333D8FCFE4FFF900024F0EE44F85F14
:100F9800F0900032E09000246006E04408F08004FD
:100FA800E054F7F0900024E0FFFD900003E07003A8
:100FB800A3E06D601012137C900024E0FF90000302
:050FC800E4F0A3EFF0CE
:010FCD002201
:03001B00020DEBE8
:100DEB00C0E0C0F0C083C082C0D075D000C000C0CE
:0D0DFB0001C002C003C004C005C006C0074F
:100E0800900015E0FCA3E0FDA3E0FEA3E02401FFB1
:100E1800E43EFEE43DFDE43CFC90001512056190C3
:100E2800000512052CE47B64FAF9F8C312051B705F
:100E38001490000512056D0000000090002F740149
:100E4800F0900031F07B017A00791C900030E0FDD1
:0C0E580012114A900030E004F05407F042
:100E6400D007D006D005D004D003D002D001D000E2
:0B0E7400D0D0D082D083D0F0D0E0328C
:03000000020E7F6E
:0C0E7F00787FE4F6D8FD758121020EC6D4
:10038300E709F608DFFA8046E709F208DFFA803E5C
:1003930088828C83E709F0A3DFFA8032E309F60849
:1003A300DFFA8078E309F208DFFA807088828C83B1
:1003B300E309F0A3DFFA806489828A83E0A3F60865
:1003C300DFFA805889828A83E0A3F208DFFA804C3F
:1003D30080D280FA80C680D4806980F28033801016
:1003E30080A680EA809A80A880DA80E280CA80337F
:1003F30089828A83ECFAE493A3C8C582C8CCC583F7
:10040300CCF0A3C8C582C8CCC583CCDFE9DEE780C6
:100413000D89828A83E493A3F608DFF9ECFAA9F045
:10042300EDFB2289828A83ECFAE0A3C8C582C8CC9B
:10043300C583CCF0A3C8C582C8CCC583CCDFEADEB4
:10044300E880DB89828A83E493A3F208DFF980CC16
:1004530088F0EF60010E4E60C388F0ED2402B4040F
:100463000050B9F582EB2402B4040050AF232345B6
:0604730082239003D37305
:10047900BB010689828A83E0225002E722BBFE0281
:09048900E32289828A83E49322B4
:10049200BB010CE58229F582E5833AF583E022501F
:1004A20006E92582F8E622BBFE06E92582F8E22269
:0D04B200E58229F582E5833AF583E4932283
:1004BF00BB010689828A83F0225002F722BBFE011C
:0204CF00F32216
:1004D100F8BB010DE58229F582E5833AF583E8F061
:1004E100225006E92582C8F622BBFE05E92582C80D
:0204F100F222F5
:1004F300EF8DF0A4A8F0CF8CF0A428CE8DF0A42E1D
:02050300FE22D6
:10050500A3F8E0C5F025F0F0E582158270021583A9
:06051500E0C838F0E82206
:10051B00EB9FF5F0EA9E42F0E99D42F0E89C45F036
:01052B0022AD
:10052C007401FF3395E0FEFDFCA3A3A3E02FFFF0C5
:10053C00E582158270021583E03EFEF0E58215829D
:10054C0070021583E03DFDF0E58215827002158383
:05055C00E03CFCF02270
:0C056100ECF0A3EDF0A3EEF0A3EFF0220D
:10056D00A8828583F0D083D082120584120584126F
:10057D000584120584E473E493A3C583C5F0C58394
:10058D00C8C582C8F0A3C583C5F0C583C8C582C8D8
:01059D00223B
:10059E00D083D082F8E4937012740193700DA3A3EC
:1005AE0093F8740193F5828883E473740293686000
:0605BE00EFA3A3A380DF00
:1005C400D083D082F8E4937012740193700DA3A3C6
:1005D40093F8740193F5828883E473740293B5F0FD
:0D05E400067403936860E9A3A3A3A380D865
:10001E00E508243AF582E43400F583E005082290E1
:10002E00003730070390003AE475F0011205F10233
:10003E0004792000E97F2ED2008018EF540F24900F
:10004E00D43440D4FF30040BEF24BFB41A00500355
:10005E002461FFE50960021509050CE50C70020527
:10006E000B30070E900037E475F0011205F1EF0228
:10007E0004BF0212857403D2078003E4C207F50899
:10008E00900037120608E4F509F50BF50CE509604A
:10009E00077F2012006180F5750AFFC201C200C2FF
:1000AE0002C203C205C206C20812002DFF700D3037
:1000BE0007057F00120072AF0CAE0B22B4255FC293
:1000CE00D5C20412002DFF24D0B40A00501A75F0C8
:1000DE000A780930D50508B6FF0106C6A426F62013
:1000EE00D5047002D20380D924CFB41A00EF500485
:1000FE00C2E5D204020273D20180C6D20080C0D201
:10010E000280BCD2D580BAD20580B47F20120061A5
:10011E002002077401B5090040F112001EFF120003
:10012E006102009BD208D206809512001EFB1200BF
:10013E001EFA12001EF94A4B700679447A037BFFB1
:10014E0020022EE509602A7E008E8275830012043D
:10015E009260060EEE650A70F0C2D5EBC0E0EAC002
:10016E00E0E9C0E0EE1202BAD0E0F9D0E0FAD0E059
:10017E00FB120479FF60AAEBC0E0EAC0E0E9C0E040
:10018E00120061D0E02401F9D0E03400FAD0E0FB97
:10019E00E50A0460DCD50AD980877BFF7A0279B63E
:1001AE00D202809C791080027908C206C2088008AB
:1001BE00D2D5790A8004790AC2D5E50A047002F50F
:1001CE000AE4FAFDFEFF12001EFC7B08200113124A
:1001DE00001EFD7B1030000A12001EFE12001EFFD4
:1001EE007B20EC3382D592D55013C3E43000069FAA
:1001FE00FFE49EFEE42001039DFDE49CFCE4CBF8AD
:10020E00C201EC700CCFCECDCCE824F8F870F380A0
:10021E0017C3EF33FFEE33FEED33FDEC33FCEB3360
:10022E00FB994002FB0FD8E9EB300105F8D0E0C492
:10023E0048B201C0E00AEC4D4E4F78207B0070C2F0
:10024E00EAB50A0040BCC0E01202BCD0F0D0E020FB
:10025E000104C4C0E0C4B201C0F012004AD0F0D50F
:10026E00F0EB02009B12059E01385301B2580109B2
:10027E004C01054201B64F01BE4401BE49011E4369
:08028E0001C45501A84601A8B6
:100296004501A847036450010D2D01112E01342B91
:1002A600011523013220034D2A00CD480000012C00
:1002B6003F3F3F00790AA2D5200314300509B91043
:1002C600020404B9080104A2D52006025001042044
:1002D60002689202B509005034C0E07F203003194D
:1002E6007F30A20272067205500F120313C202C2B9
:1002F60006C205C2087F30800F300503E9C0E01250
:100306000061300503D0E0F9D0E0B509CC3005171F
:100316007F30B9100C1200617F583004077F788057
:1003260003B908031200613002057F2D0200617FC8
:10033600202008F87F2B2006F322920280CF286E19
:10034600756C6C2900D20112001E3001F8C20178CA
:100356000930D50108F60200CD2D50434958120048
:100366001E2403B405004001E490035F931200527B
:0D037600743A120052D2037509040201B25C
:100E8B00021225E493A3F8E493A34003F68001F246
:100E9B0008DFF48029E493A3F85407240CC8C33368
:100EAB00C4540F4420C8834004F456800146F6DF37
:100EBB00E4800B0102040810204080900F0BE47EAD
:100ECB00019360BCA3FF543F30E509541FFEE4932C
:100EDB00A360010ECF54C025E060A840B8E493A3F3
:100EEB00FAE493A3F8E493A3C8C582C8CAC583CA1E
:100EFB00F0A3C8C582C8CAC583CADFE9DEE780BED6
:010F77000079
:1005F100F8E0FBA3A3E0F925F0F0E5821582700293
:070601001583E0FA38F02236
:09060800EBF0A3EAF0A3E9F022F3
:10128500EFB40A07740D121290740A309811A899D8
:10129500B8130CC2983098FDA899C298B811F630C9
:0712A50099FDC299F59922A1
:00000001FF
