:101CE2007580FFE5A0541F4480F5A053A01FE4F5C2
:0D1CF20080E5A0541F44A0F5A053A01F22C0
:101D6600538EBF53890F758DFC758B18D2ABD2AFCE
:051D7600C28FD28E2295
:101DC600538E7F438904E4F58CF58AC28DD28C222A
:101DD600EFF4F580E5A0541F4480F5A053A01F2220
:0B0F2B0090006CEBF0A3EAF0A3E9F0EB
:100F3600E4900073F0900072F0900072E0FFC394AA
:100F460008400302117290006CE0FBA3E0FAA3E0F4
:100F5600F9900073E0F58275830012063C1207A330
:100F660010842D11222E0FA0300FB5310FCC320F69
:100F7600E3330FFA34101135102836103F37105668
:100F860038106D39110C41109B4310F64510C946B7
:100F960010B24810E0500000114C90006FE0FBA327
:100FA600E0FAA3E0F98F8275830074C002116090A5
:100FB600006FE0FBA3E0FAA3E0F9A3E0F5827583F6
:100FC6000074F902116090006FE0FBA3E0FAA3E061
:100FD600F9A3E0F58275830074A402116090006F96
:100FE600E0FBA3E0FAA3E0F9A3E0F58275830074C1
:100FF600B002116090006FE0FBA3E0FAA3E0F9A352
:10100600E0F582758300749902116090006FE0FB31
:10101600A3E0FAA3E0F9A3E0F582758300749202D7
:10102600116090006FE0FBA3E0FAA3E0F9A3E0F5FE
:1010360082758300748202116090006FE0FBA3E06A
:10104600FAA3E0F9A3E0F58275830074F802116053
:1010560090006FE0FBA3E0FAA3E0F9A3E0F5827548
:101066008300748002116090006FE0FBA3E0FAA396
:10107600E0F9A3E0F5827583007490021160900098
:101086006FE0FBA3E0FAA3E0F9A3E0F58275830025
:1010960074BF02116090006FE0FBA3E0FAA3E0F9D1
:1010A600A3E0F58275830074C602116090006FE0BC
:1010B600FBA3E0FAA3E0F9A3E0F582758300748947
:1010C60002116090006FE0FBA3E0FAA3E0F9A3E051
:1010D600F582758300748E02116090006FE0FBA3A9
:1010E600E0FAA3E0F9A3E0F582758300748C806AC8
:1010F60090006FE0FBA3E0FAA3E0F9A3E0F58275A8
:1011060083007486805490006FE0FBA3E0FAA3E0AE
:10111600F9A3E0F5827583007488803E900072E042
:10112600D394004003E014F090006FE0FBA3E0FAD4
:10113600A3E0F9A3E0FFE92FF9E43AFA12062354F3
:101146007F120669801790006FE0FBA3E0FAA3E028
:10115600F9A3E0F58275830074FF12067B90007395
:0C116600E004F0900072E004F0020F3F83
:01117200225A
:101B2F007580FFE5A0541F44E0F5A053A01F74017A
:101B3F00A805088002C333D8FCF580E5A0541F44E4
:101B4F00C0F5A053A01FAF058F8275830012063C0E
:0E1B5F00F580E5A0541F44E0F5A053A01F221E
:051A9A0090006EEFF06A
:101A9F00900039E0FCA3E0FDA3E0FEA3E0FF90007F
:101AAF006F12074690006FE0F8A3E0F9A3E0FAA3E6
:101ABF00E0FB900039E0FCA3E0FDA3E0FEA3E0C350
:101ACF009BFBEE9AFAED99F9EC98F890006EE0FF17
:0A1ADF00E4FCFDFEC312070040CA3C
:011AE90022DA
:1017E000E490006DF0C2C4D2C2E5B0540F90006C1A
:1017F000F0D2C4C2C2E0C454F0FFE5B0540F4FF0C1
:10180000E0B40F037F00227F0A121A9AC2C4D2C228
:10181000E5B0540FD2C4C2C2C454F0FFE5B0540FB7
:101820004FFF90006CE06F7065EFF414605314602C
:101830004824FE603C24FC603024F8602424F060DE
:101840001824E0600C24C0704090006D7404F08097
:101850003D90006D7405F0803590006D7406F08049
:101860002D90006D7407F0802590006D7408F08055
:101870001D90006D7409F0801590006D740AF08061
:101880000D90006D740BF08005E490006DF09000F9
:031890006DE0FF09
:011893002232
:041D36007F057E00A7
:101D3A00EF1FAA0670011E4A600BE4FDEDC3940C66
:051D4A0050EE0D80F7D2
:011D4F002271
:021CA500A9078D
:101CA700E4FBC294E9139294121D36D294E9C3134C
:0D1CB700F90BEBB408EC7F057E00021D3A2E
:101D1B00E4FBC294ECC313FCD2943094034480FCD8
:0A1D2B00121D360BEBB408EAAF04FA
:011D3500228B
:101C3300C201D2947F0C7E00121D3AC2947F507E63
:101C430000121D3AD2947F0A7E00121D3AA294928A
:061C530001121D36A20182
:011C59002268
:101DB500C200121C3392007FCC121CA57F44021C6A
:011DC500A578
:101C8100C200121C3392007FCC121CA57FBE121C15
:101C9100A5121D1BA907121D1BEFFE7C00E429FFE5
:031CA100EC3EFE18
:011CA400221D
:041D5000D2A07F0599
:101D5400000000000000000000000000000000DFA0
:021D6400EF226C
:0F1DE600D2A1121D50C2A17F05121D54C2A0220E
:0C1DF500C2A1121D50D2A17F05021D5496
:021BDE00AE0750
:101BE000E4FDC2A07F05121D54EE30E704D2A180AF
:101BF00002C2A17F05121D54D2A0EE25E0FE7F0592
:0A1C0000121D540DEDB408DAC2A065
:011C0A0022B7
:101CC400E4FD121D50EE25E0FE30A1034401FEC2E6
:0D1CD400A07F05121D540DEDB408E7AF060A
:011CE10022E0
:031D7B00121BDE5A
:101D7E00121D50A2A1E433FEC2A07F05121D54FF16
:011D8E002232
:10000300C2A0EF24FF92A17F05121D54121D50C2FE
:08001300A0D2A17F05021D54DB
:101C0B00121DE67F90121D7B7F41121D7B121DE67C
:101C1B007F91121BDE121D7E121CC4AE077F0112B8
:071C2B000003121DF5AF06D6
:011C3200228F
:1019D3004560602532752D414100456060253275B3
:1019E3002D25327500253032752D253032752D2584
:1019F3003032750043602532752D25342E31660053
:101A030043606060606060600048602532752D252A
:101A1300342E316600486060606060606000462577
:101A2300303275253032752D25303275004625301C
:101A330032756060606060004560606060602532A0
:051A430075000A3B2DB7
:10153D0041004D0041002B0041002C0041002E00C8
:10154D004400390000000041004A0041006500419F
:10155D00004700410062004C0052323332333200FA
:10156D0000000000000048003F00000000000000E7
:10157D0000410068004100600041002D004100283D
:10158D000041006700410066004100250041002434
:10159D0000410033004100610042005E0000420046
:1015AD00630000420048000042003D012C4200292A
:1015BD00000042004B000042002F000042002600B8
:1015CD000044004E000000004400350000000041C2
:1015DD0000340043002100000042003100004400AF
:1015ED00000000000044000400000000410008005D
:1015FD004100090041000A0044000B0000000041B9
:10160D00000F0041001000440011000000004400D4
:10161D0015000000004400190000000044001D00EA
:03162D00000000BA
:101B6D0078697C007D017BFF7A1A79457E007F03C1
:101B7D001205FD7B017A007969121A48121CE212D6
:101B8D001D66121DC61218941212DD12171D121D9C
:0C1B9D00A3121173120C4C12141280E9F8
:100C4C00900060E07003020F2AE4F0900067E070FF
:100C5C000F900066E07009900025E07003020D39DA
:100C6C00900066E0701A900039E0FCA3E0FDA3E070
:100C7C00FEA3E0FF9000001207469000667401F09E
:100C8C00900062E090006F701F74FFF0A37419F075
:100C9C00A374D3F090005EE0FEA3E0FF7C007D0A1D
:100CAC0012069D900072803474FFF0A37419F0A3A7
:100CBC0074DDF090005EE0FEA3E0FF7C007D0A1284
:100CCC00069D900072EEF0A3EFF0900029E0FEA3D9
:100CDC00E0FF7C007D0A12069D900074EEF0A3EFFD
:100CEC00F07B017A00795212082E900000E0F8A3F4
:100CFC00E0F9A3E0FAA3E0FB900039E0FCA3E0FDEF
:100D0C00A3E0FEA3E0C39BFFEE9AFEED99FDEC98E9
:100D1C00FCE47BB87A0BF9F8C31207004003020F0E
:100D2C0013E4900066F0900025F0020F1390002D54
:100D3C00E0146040147003020EE524026003020FFD
:100D4C001390006F74FFF0A37419F0A374E8F09083
:100D5C000021E0FF900072E4F0A3EFF0900022E09D
:100D6C00FF900074E4F0A3EFF0900023E0FF9000FC
:100D7C0076020EDE900028E0147003020E19147037
:100D8C0003020E9924026003020F13900047E090B7
:100D9C00006F606B74FFF0A37419F0A374F7F090FC
:100DAC000048E0FEA3E0FF7C007D0A12069D900047
:100DBC0072EEF0A3EFF090004EE0FCA3E0FDA3E098
:100DCC00FEA3E0FFE41202BCE4FBFA7920784112A6
:100DDC00021FC004C005C006C007900047E0FCE439
:100DEC001202C6A804A905AA06AB07D007D006D0E4
:100DFC0005D00412021F900074120746020F0A74E9
:100E0C00FFF0A3741AF0A37403F0020F0A900047CA
:100E1C00E090006F606A74FFF0A3741AF0A3740C76
:100E2C00F090002FE0FEA3E0FF7C007D0A12069DEF
:100E3C00900072EEF0A3EFF0900035E0FCA3E0FD23
:100E4C00A3E0FEA3E0FFE41202BCE4FBFA792078F5
:100E5C004112021FC004C005C006C007900047E045
:100E6C00FCE41202C6A804A905AA06AB07D007D059
:100E7C0006D005D00412021F900074120746800B96
:100E8C0074FFF0A3741AF0A37418F08071900047EB
:100E9C00E0FF90006F602874FFF0A3741AF0A37445
:100EAC0021F0A3E4F0A3EFF0900031E0FF90007488
:100EBC00E4F0A3EFF0900032E0FF90007680137422
:100ECC00FFF0A3741AF0A37430F0900047E0FF9089
:100EDC000072E4F0A3EFF0802590006F74FFF0A394
:100EEC00741AF0A3743BF090003DE0FEA3E0FF7C8D
:100EFC00007D0A12069D900072EEF0A3EFF07B01CC
:100F0C007A00795212082E90006F7401F0A37400CD
:0E0F1C00F0A3743FF07B017A007952120F2B84
:010F2A0022A4
:1012DD00E4FB1217E0AB07900008E06B70030213FC
:1012ED00C8900039E0FCA3E0FDA3E0FEA3E0FF9071
:1012FD000004120746EB24FC604D14604F24FD6082
:10130D006214700302139A240960030213C3900040
:10131D0009E070030213C3E4F090004E120752006F
:10132D00000000E4900048F0A3F090002FF0A3F02F
:10133D0090003512075200000000E4900047F09035
:10134D000031F0A3F0806F90002D800B90002DE008
:10135D0064017062900028E004F075F00384E5F0FC
:10136D00F0805390003DE0B4030CA3E0B4DE07E43D
:10137D0090003DF0A3F090002DE0B4023990003EB6
:10138D00E0240AF090003DE03400F0802990003D0B
:10139D00E07002A3E0700A90003D7403F0A374DEC8
:1013AD00F090002DE0B4020E90003EE024F6F09097
:1013BD00003DE034FFF0900008EBF0900004E0F801
:1013CD00A3E0F9A3E0FAA3E0FB900039E0FCA3E071
:1013DD00FDA3E0FEA3E0C39BFFEE9AFEED99FDECAD
:1013ED0098FCE47BD07A07F9F8C3120700501590EA
:1013FD000008E024F7700D90002DE0B40106900078
:04140D00097401F06D
:0114110022B8
:1014120090004DE0FF90002DE0FE7401A8060880C8
:1014220002C333D8FCFE4FFF90004DF0EE44F85F4C
:10143200F0900024E0606790000BE0F8A3E0F9A3CD
:10144200E0FAA3E0FB900039E0FCA3E0FDA3E0FE9C
:10145200A3E0C39BFFEE9AFEED99FDEC98FCE47BC2
:1014620064FAF9F8C31207005025900039E0FCA392
:10147200E0FDA3E0FEA3E0FF90000B120746900000
:101482002BE070047F0180027F0090002BEFF09030
:10149200002BE090004D6009E04408F080079000C6
:1014A2004DE054F7F090002CE06015E4F0900062FB
:1014B200E090004D6006E054EFF08004E04410F04C
:1014C20090002EE06063E4F0900047E0D394014086
:1014D2003390004BE0FEA3E0FFD390002AE09F9000
:1014E2000029E09E401E900063E0FEA3E0FFD3903F
:1014F200005FE09F90005EE09E400990004DE04456
:1015020020F0800790004DE054DFF090005EE0FF95
:10151200A3E0900063CFF0A3EFF0900029E0FFA3D7
:10152200E090004BCFF0A3EFF090004DE0FF900071
:0A1532000AE06F6005EFF0121DD60D
:01153C00228C
:1018940090004AE07003021946E4F0121C0BAC07F6
:1018A400E41202C6E4FBFA79A07840120116E4FBC4
:1018B400FA797F784312021F90006C120746E4FF06
:1018C400FE7D207C4190006CE0F8A3E0F9A3E0FAEF
:1018D400A3E0FB1201161202FAC3EF940AEE94007D
:1018E400504F9000657401F090000FE0704C900030
:1018F4002504F090002CF090002EF0900062E0603F
:1019040029900066E07023A304F0900061F0900039
:1019140033F0900047E004F0900021E0900031F0B3
:10192400900022E0900032F08010E4900067F08094
:1019340009E4900067F0900065F0900065E0900085
:021944000FF0A2
:01194600227E
:101DA300900034E0600BE4F07B017A007921121A91
:021DB300EA2222
:10117300E490006CF0A3F0900010E014602D147064
:10118300030212322402600302126A121DB5900098
:10119300107401F0900039E0FCA3E0FDA3E0FEA38E
:1011A300E0FF90001112074602126A900011E0F866
:1011B300A3E0F9A3E0FAA3E0FB900039E0FCA3E08D
:1011C300FDA3E0FEA3E0C39BFFEE9AFEED99FDECC9
:1011D30098FCE47B207A03F9F8C31207004003026A
:1011E300126A121C8190006CEEF0A3EFF0FDAC06C6
:1011F300EC1202C1E4FBFA7980784112021FE4FB8E
:10120300FA792078411201161202FA90005EEEF08C
:10121300A3EFF0900039E0FCA3E0FDA3E0FEA3E020
:10122300FF9000111207469000107402F08038906E
:101233000011E0F8A3E0F9A3E0FAA3E0FB90003982
:10124300E0FCA3E0FDA3E0FEA3E0C39BFFEE9AFE58
:10125300ED99FDEC98FCE47B05FAF9F8C31207005D
:101263005005E4900010F0900061E0604BE4F090D2
:10127300004EE0F8A3E0F9A3E0FAA3E0FB90005EE0
:10128300E0FEA3E0FFE4FCFDEB2FFFEA3EFEED39B9
:10129300FDEC38FC90004E120746900048E0FEA398
:1012A300E0FF90005EE0FCA3E0FDD39FEC9E4008CE
:1012B300900048ECF0A3EDF090003DE0FEA3E0FFCA
:1012C300D390005FE09F90005EE09E400790002473
:0912D3007401F022E4900024F003
:0112DC0022EF
:10171D00900026E0FEA3E0FFC394C8EE94005003B2
:10172D000217D4D3EF94D0EE940740030217D49050
:10173D000033E070030217CDE4F0900026E0FCA327
:10174D00E0FDE41202C1E4FBFAF97840120116E45F
:10175D00FBFA7934784212021F7BE47A38798E785D
:10176D003F120025E4FBFA7920784112011612028E
:10177D00FA900029EEF0A3EFF0C3900030E09F90B7
:10178D00002FE09E500F900029E0FFA3E090002F66
:10179D00CFF0A3EFF0900035E0F8A3E0F9A3E0FA65
:1017AD00A3E0FB900029E0FEA3E0FFE4FCFDEB2F9E
:1017BD00FFEA3EFEED39FDEC38FC90003512074690
:1017CD009000627401F022E4900062F0900029F024
:0317DD00A3F02254
:03001B0002163199
:10163100C0E0C0F0C083C082C0D075D000C000C07F
:0D16410001C002C003C004C005C006C00700
:10164E00900039E0FCA3E0FDA3E0FEA3E02401FF3F
:10165E00E43EFEE43DFDE43CFC900039120746906A
:10166E000015120711E47B0AFAF9F8C3120700708D
:10167E0010900015120752000000009000607401D7
:10168E00F0900019120711E47B64FAF9F8C31207FF
:10169E000070149000191207520000000090004ACA
:1016AE007401F0900034F090001D120711E47BE8F5
:1016BE007A03F9F8C3120700702390001D12075227
:1016CE0000000000AF8CEFFFAD8AED900026CFF04A
:1016DE00A3EFF0C28C758A00758C00D28C7B017AD8
:1016EE0000793F900068E0FD121B2F900068E00427
:0416FE00F05407F0AD
:10170200D007D006D005D004D003D002D001D0003B
:0B171200D0D0D082D083D0F0D0E032E5
:101D8F00E4FEC297EF1392A3EFC313FFD2970EEEA9
:031D9F00B408EF96
:011DA200221E
:081CFF0075F00A84EE25F0FDEA
:101D0700C29300C29700D29300121D8FAF05121D18
:041D17008FC29322C2
:101BA900E4FDC29300C29700D29300121D8FE4FF97
:101BB900C297EDC313FD30A3034480FDD2970FEF05
:101BC900B408EDC29300C29700D29700C2A300D215
:041BD900A300AF05B1
:011BDD0022E5
:101A4800E4FD7F8E121D07120623FF75F00A84C479
:101A580054F0FEEF7F84121CFF90000112063CFF39
:101A680075F00A84C454F0FEEF7F82121CFF9000C8
:101A78000212063CFF75F00A84C454F0FEEF75F0BC
:101A88000A84EE25F0FD7F80121D077D807F8E027F
:021A98001D0728
:101AEA007F85121BA9EFC4540F75F00AA4FEEF54A8
:101AFA000F2E1206697F83121BA9EFC4540F75F0CB
:101B0A000AA4FEEF540F2E90000112067B7F811269
:101B1A001BA9EFC4540F75F00AA4FEEF540F2E90C0
:051B2A00000202067B31
:10001E00020366E86480F8E933E83360110460F0A7
:10002E00ED33EC337009E8FCE9FDEAFEEBFF220448
:10003E0060DED3EB9FEA9EE99DE8C2E78CF0C2F743
:10004E0095F0400CE8CCF8E9CDF9EACEFAEBCFFB0F
:10005E0012033185D0F05804700320D5B3E8047034
:10006E00075002B2D502037092D5EC0460F7E4CCCF
:10007E00C0E0C398F8603B94186008400DD0E0FBD8
:10008E00020348E4FBFAC9FC8028E830E406E4C920
:10009E00FBE4CAFCE830E305E4C9CACBFCE854072C
:1000AE006010F8C3E913F9EA13FAEB13FBEC13FC37
:1000BE00D8F130F52FC3E49CFCEF9BFFEE9AFEEDDA
:1000CE0099FDD0E0FBEF4E4D4C701222DB03020384
:1000DE006DEC2CFCEF33FFEE33FEED33FDED30E730
:1000EE00EB020348EF2BFFEE3AFEED39FDD0E0FBBD
:1000FE0050130BBB0003020370ED13FDEE13FEEF66
:08010E0013FFEC13FC0203488F
:10011600EC4D6011E8497017ED33EC3304600DE4E3
:10012600FCFFFEFD22E933E8330470F80203661291
:10013600033158046009E4CC248150062850090292
:10014600037028400302036DC0E0EB4A7044B98097
:1001560006D0E0FB02035CEF4E701CBD8008EBFF8F
:10016600EAFEE9FD80EBE98DF0A4FEE5F00201FF71
:10017600E9CDF9EAFEEBFFEF89F0A4FCE5F0CE89C4
:10018600F0A42EFFE435F0CD89F0A42DFEE435F081
:100196008067EF4E7005BD80D780C3EF8BF0A4ACAF
:1001A600F0EE8BF0A42CFCE435F0F8EF8AF0A42CEA
:1001B600E5F038FCE433CB8DF0A42CFCE5F03BF8FD
:1001C600EE8AF0A42CFCE5F038F8E433CF89F0A4ED
:1001D6002CFCE5F038CF3400CE89F0A42FFFE5F0F3
:1001E6003EFEE433C98DF0A42EFEE5F039CD8AF04B
:1001F600A42FFFE5F03EFEE43DFD33D0E0FB5007C3
:100206000BBB000F020370EC2CFCEF33FFEE33FE4A
:06021600ED33FD02034878
:10021C00020370EC5D046005E85904700302036688
:10022C00120331580460F6EC4860F2EC7004FDFEE9
:10023C00FF22C860DB2481C85009C39860025006B5
:10024C0002036D9850CAF582E9294B4A7005AB82BE
:10025C0002035C75F0007C1A7880C3EF9BEE9AED7C
:10026C0099400DC3EF9BFFEE9AFEED99FDE842F02D
:10027C00DC23ACF0D0E0FFD0E0FED0E0FDAB822080
:10028C00E7101BEB60BAEC2CFCEF33FFEE33FEED0A
:10029C0033FD020348E803F830E705C0F075F000C1
:1002AC00EF2FFFEE33FEED33FD40B830E7C280AAEE
:1002BC0075F020800E75F010800575F0087D007EBD
:1002CC00007F003392D530D5031206F2EC33401088
:1002DC00EF33FFEE33FEED33FDEC33FCD5F0ED22C6
:0E02EC00E5F0247EA2D513CC92E7CDCEFF2202
:1002FA00EDD2E7CD33EC3392D524814006E4FFFEFC
:10030A00FDFC22FCE4CFCECDCC24E0501174FF805A
:10031A00EDC3CC13CCCD13CDCE13CECF13CF0470F7
:07032A00F030D5DE0206F2FF
:1007C900E508246FF582E43400F583E005082290FA
:1007D900006C30070390006FE475F0011207830283
:1007E90006232000E97F2ED2008018EF540F2490B1
:1007F900D43440D4FF30040BEF24BFB41A005003A3
:100809002461FFE50960021509050CE50C70020574
:100819000B30070E90006CE475F001120783EF02AC
:100829000669021C5A7403D2078003E4C207F5085B
:1008390090006C12079AE4F509F50BF50CE50960CF
:10084900077F2012080C80F5750AFFC201C200C299
:1008590002C203C205C206C2081207D8FF700D30D2
:1008690007057F0012081DAF0CAE0B22B4255FC22D
:10087900D5C2041207D8FF24D0B40A00501A75F063
:100889000A780930D50508B6FF0106C6A426F62060
:10089900D5047002D20380D924CFB41A00EF5004D2
:1008A900C2E5D204020B0FD20180C6D20080C0D2A9
:1008B9000280BCD2D580BAD20580B47F2012080C40
:1008C9002002077401B5090040F11207C9FF120897
:1008D9000C020846D208D20680951207C9FB1207F6
:1008E900C9FA1207C9F94A4B7006790D7A0C7BFFD0
:1008F90020022EE509602A7E008E82758300120689
:100909003C60060EEE650A70F0C2D5EBC0E0EAC0A5
:10091900E0E9C0E0EE120B70D0E0F9D0E0FAD0E0E7
:10092900FB120623FF60AAEBC0E0EAC0E0E9C0E0E1
:1009390012080CD0E02401F9D0E03400FAD0E0FB31
:10094900E50A0460DCD50AD98087D20280A2120B9D
:100959005260F7E50A70010412037BA90A600DE5EC
:100969000A600914F50A120BFAEF60F3EA30E7029C
:10097900F404C3995079EAF4250A0430E701E40440
:10098900F50A800D120B5260C1EA050A250A120305
:100999007BEA90009BF030E701E4250A04D50A04BC
:1009A90020050114120B70E4C0E0120BFA90009BB1
:1009B900E0601320E70714F01207F4802204F0D056
:1009C900E014C0E07F001207F4E50A60071207EBA4
:1009D900150A800B3005031207EBD0E0020846D058
:1009E900E00480C4120B52609EE50A0412037B9056
:1009F900009BEAF0E50A2005026001042404120BB9
:010A0900707C
:100A0A0074FF04C0E0120BFA1207F4E50A2005028B
:100A1A0060031207EBD0E0B50AE87F451207FE90A3
:100A2A00009BE07F2B30E7047F2DF404C0E012081E
:100A3A000CD0E075F00A84C0F01207F5D0E0120776
:100A4A00F5020846791080027908C206C2088008B1
:100A5A00D2D5790A8004790AC2D5E50A047002F56A
:100A6A000AE4FAFDFEFF1207C9FC7B0820011312F3
:100A7A0007C9FD7B1030000A1207C9FE1207C9FF19
:100A8A007B20EC3382D592D55013C3E43000069F05
:100A9A00FFE49EFEE42001039DFDE49CFCE4CBF808
:100AAA00C201EC700CCFCECDCCE824F8F870F380FC
:100ABA0017C3EF33FFEE33FEED33FDEC33FCEB33BC
:100ACA00FB994002FB0FD8E9EB300105F8D0E0C4EE
:100ADA0048B201C0E00AEC4D4E4F78207B0070C24C
:100AEA00EAB50A0040BCC0E0120B72D0F0D0E02098
:100AFA000104C4C0E0C4B201C0F01207F5D0F0D5B9
:100B0A00F0EB0208461207A308E3530A4E5808B44A
:100B1A004C08B0420A524F0A5A440A5A4908C94371
:100B2A000A6055098D4609ED450957470C2D5008AD
:100B3A00B82D08BC2E08DF2B08C02308DD200C16B0
:100B4A002A087848000008D7E50AB4FF03750A06A0
:100B5A001207C9FC1207C9FD1207C9FE1207C9FF0D
:100B6A009000940203B8790AA2D52003143005092B
:100B7A00B910020404B9080104A2D52006025001E2
:100B8A00042002689202B509005034C0E07F203088
:100B9A0003197F30A20272067205500F120BC9C2E6
:100BAA0002C206C205C2087F30800F300503E9C0C1
:100BBA00E012080C300503D0E0F9D0E0B509CC30DA
:100BCA0005177F30B9100C12080C7F583004077FC4
:100BDA00788003B9080312080C3002057F2D020839
:100BEA000C7F202008F87F2B2006F322920280CF68
:100BFA007F00B40700500B2494F582E43400F58397
:100C0A00E0FF22286E756C6C2900D2011207C930E8
:100C1A0001F8C201780930D50108F60208782D508A
:100C2A004349581207C92403B405004001E4900C53
:100C3A0028931207FD743A1207FDD20375090402BC
:020C4A000A4E50
:10033100E9D2E7C933E833F892D5EDD2E7CD33EC12
:0703410033FC5002B2D5228B
:10034800EC30E7100FBF000C0EBE00080DBD000416
:100358000BEB6014A2D5EB13FCED92E7FD2274FFC2
:10036800FCFDFEFF22E480F8A2D574FF13FC7D801B
:03037800E480EF2F
:10037B00F920E73624F950037907E4F42402FBE56E
:10038B0082158270021583DBF6E024FB501BE960BB
:10039B0014E4F0E582158270021583E004F0B40AD0
:0D03AB0008E4F0D9EE7401F00A22C2D52258
:1003B800ED33EC3392D5FA602AB4FF33EDC2E77B14
:1003C800FF60067A0379DDE4227A0379E620D50412
:1003D8007A0379E1224E614E002B494E46002D49A1
:1003E8004E4600E47A08F0A3DAFC7B00740722C0CA
:1003F80083C082ECC0E0EDC0E0EEC0E0EFC0E0EA10
:1004080075F010A4CAABF075F04DA42BFBE435F0E1
:10041800FCEA2410FAEB34C5FBEC34D9FCEDC2E756
:10042800FF75F056A4F42411C5F0F434C58FF0A478
:100438002AE5F03BE43CF020E7141204EDD0E0FF9D
:10044800D0E0FED0E0FDD0E0FC12021F8014F404DE
:100458001204EDD0E0FFD0E0FED0E0FDD0E0FC12C9
:100468000116D082D083E0FAEDD2E7CD33EC332405
:1004780082FBE4C3CF33CFCE33CECD33CD33DBF3E2
:100488007B0775F00A846004F0A31B0AE5F0F0A36B
:100498008FF0740AA4FFACF08EF0740AA42CFEACA2
:1004A800F050010C8DF0740AA42CFDE435F0F0A393
:0504B800DBDE740722E9
:1004BD003F8000004120000042C80000447A000047
:1004CD00461C400047C35000497424004B189680C9
:1004DD004CBEBC205A0E1BCA6753C21C749DC5AEC0
:1004ED00FB60065407601C232312051BEB54386078
:1004FD0009120507120516120116ECF8EDF9EEFAC0
:10050D00EFCB22EB12051680F1543803241C900416
:10051D00BDFE93FC0EEE93FD0EEE930ECE93FF22D9
:030000000219479B
:0C194700787FE4F6D8FD75812102198E2E
:10052D00E709F608DFFA8046E709F208DFFA803EB0
:10053D0088828C83E709F0A3DFFA8032E309F6089D
:10054D00DFFA8078E309F208DFFA807088828C8305
:10055D00E309F0A3DFFA806489828A83E0A3F608B9
:10056D00DFFA805889828A83E0A3F208DFFA804C93
:10057D0080D280FA80C680D4806980F2803380106A
:10058D0080A680EA809A80A880DA80E280CA8033D3
:10059D0089828A83ECFAE493A3C8C582C8CCC5834B
:1005AD00CCF0A3C8C582C8CCC583CCDFE9DEE7801B
:1005BD000D89828A83E493A3F608DFF9ECFAA9F09A
:1005CD00EDFB2289828A83ECFAE0A3C8C582C8CCF0
:1005DD00C583CCF0A3C8C582C8CCC583CCDFEADE09
:1005ED00E880DB89828A83E493A3F208DFF980CC6B
:1005FD0088F0EF60010E4E60C388F0ED2402B40464
:10060D000050B9F582EB2402B4040050AF2323450A
:06061D00822390057D73AD
:10062300BB010689828A83E0225002E722BBFE02D5
:09063300E32289828A83E4932208
:10063C00BB010CE58229F582E5833AF583E0225073
:10064C0006E92582F8E622BBFE06E92582F8E222BD
:0D065C00E58229F582E5833AF583E49322D7
:10066900BB010689828A83F0225002F722BBFE0170
:02067900F3226A
:10067B00F8BB010DE58229F582E5833AF583E8F0B5
:10068B00225006E92582C8F622BBFE05E92582C861
:02069B00F22249
:10069D00BC000BBE0029EF8DF084FFADF022E4CC41
:1006AD00F875F008EF2FFFEE33FEEC33FCEE9DEC0A
:1006BD00984005FCEE9DFE0FD5F0E9E4CEFD22ED50
:1006CD00F8F5F0EE8420D21CFEADF075F008EF2F9A
:1006DD00FFED33FD4007985006D5F0F222C398FD8B
:0506ED000FD5F0EA2228
:0E06F200C3E49FFFE49EFEE49DFDE49CFC2219
:10070000EB9FF5F0EA9E42F0E99D42F0E89C45F04F
:0107100022C6
:100711007401FF3395E0FEFDFCA3A3A3E02FFFF0DE
:10072100E582158270021583E03EFEF0E5821582B6
:1007310070021583E03DFDF0E5821582700215839C
:05074100E03CFCF02289
:0C074600ECF0A3EDF0A3EEF0A3EFF02226
:10075200A8828583F0D083D08212076912076912BA
:100762000769120769E473E493A3C583C5F0C583DF
:10077200C8C582C8F0A3C583C5F0C583C8C582C8F1
:010782002254
:10078300F8E0FBA3A3E0F925F0F0E58215827002FF
:070793001583E0FA38F022A3
:09079A00EBF0A3EAF0A3E9F02260
:1007A300D083D082F8E4937012740193700DA3A3E5
:1007B30093F8740193F5828883E4737402936860F9
:0607C300EFA3A3A380DFF9
:101C5A00EFB40A07740D121C65740A309811A8991A
:101C6A00B8130CC2983098FDA899C298B811F630EA
:071C7A0099FDC299F59922C2
:10195300021B6DE493A3F8E493A34003F68001F222
:1019630008DFF48029E493A3F85407240CC8C33395
:10197300C4540F4420C8834004F456800146F6DF64
:10198300E4800B010204081020408090153DE47EA2
:10199300019360BCA3FF543F30E509541FFEE49359
:1019A300A360010ECF54C025E060A840B8E493A320
:1019B300FAE493A3F8E493A3C8C582C8CAC583CA4B
:1019C300F0A3C8C582C8CAC583CADFE9DEE780BE03
:0116300000B9
:00000001FF
