:0415EA00D2A07F0507
:1015EE00000000000000000000000000000000AE3F
:0615FE00071FEE70EB2256
:0F163900D2A11215EAC2A17F051215EEC2A0229E
:0C164800C2A11215EAD2A17F050215EE26
:0714F700AB051216397FA0BE
:0214FE00AD0738
:10150000E4FCC2A07F051215EEED30E704D2A18005
:1015100002C2A17F051215EED2A0ED25E0FD7F05E8
:091520001215EE0CBC08DBC2A0A0
:01152900229F
:1015B000E4FC1215EAED25E0FD30A103430501C26C
:0C15C000A07F051215EE0CBC08E8AF057A
:0115CC0022FC
:101551001216397F901214FE1215617F431214FE88
:101561001215EAA2A1E433FDC2A07F051215EEAF68
:011571000574
:011572002256
:10000300C2A0EF24FF92A17F051215EE1215EAC2DA
:08001300A0D2A17F050215EE49
:1014C3008B5C8A5D895E1214F7121561AF03801974
:1014D300AF601560EF601AAB5C055EE55EAA5D70F8
:1014E30002055D14F912051DFF1214FE1215618029
:0414F300DF021648B6
:1013BC008B5A8A5B895C1214F7121561AF031214F5
:1013CC00FE1215611216397FA11214FE121561AFAF
:1013DC005E155EEF60241215B0AB5A055CE55CAA95
:1013EC005B7002055B14F9EF120563E55E6004E4C3
:0D13FC00FF80027F0112000380D502164819
:10161900AB07121551AF031214FE121561021648D9
:101592001215511216397F911214FE12156112158D
:0D15A200B0AD077F01120003121648AF051F
:0115AF002219
:10157300552020202025342E3266005020202020A4
:0F15830025342E3266004E2020202025327500A0
:101363000157000150000453000000000A413132CC
:101373002033343536370000083700000000000002
:101383000000014000044C00000000043100000094
:1013930000013500012F00022D0002013F00025819
:1013A300000001360201220004230000000002278E
:0813B300000004290000000005
:101409001215CD1216047B007A007936755E01E457
:10141900FD1213BCE536D394324003E4F536E536C4
:1014290075F00AA485F02DF52E7B007A00793675C2
:101439006001E4FD1214C3120F9E1211BC121116A1
:051449001212E780F221
:03001B000210626E
:10106200C0E0C0F0C083C082C0D075D000C000C054
:1010720001C002C003C004C005C006C007AF4FAE26
:101082004EAD4DAC4CEF2401F54FE43EF54EE43D40
:10109200F54DE43CF54C7B007A007937AD401214F3
:1010A2004E0540E540B40803754000E47B0AFAF9B6
:1010B200F8AF4FAE4EAD4DAC4C120658AC00AD0180
:1010C200AE02AF03E4FBFAF9F8C31206F87015E5B5
:1010D200342401F534E43533F533E43532F532E4C2
:1010E2003531F5310559E5597002055864644558A2
:1010F2007007F558F559753F01D007D006D005D0D5
:1011020004D003D002D001D000D0D0D082D083D07E
:04111200F0D0E03207
:100F9E00120E1A8F5AE55A65227003021061E55A35
:100FAE00700302105324F6603B24FD604314606806
:100FBE002405600302104D0535E53575F003848573
:100FCE00F035E535B4021BAE2DAF2E7C007D0A1236
:100FDE0005978F367B007A007936756001E4FD1235
:100FEE0014C38056E5356402705BF54BF52F8055C2
:100FFE00E535B4010D7432252EF52EE4352DF52D83
:10100E008038D3E52E94F4E52D648094814036E447
:10101E00F52DF52EF52F802DE535B4010E74CE2568
:10102E002EF52E74FF352DF52D800FC3E52D648022
:10103E0094805011752D01752EF4E4F52F8006AFB6
:10104E002F052F8F5B855A22E55BB52F04E4F53013
:03105E0022053038
:01106100226C
:1011BC00AF34AE33AD32AC31AB26AA25A924A8236B
:1011CC00C31206F8700302125A853426853325851E
:1011DC003224853123E5357024755DFF755E1575F8
:1011EC005F73AC51AD521202C1E4FBFA79C878427C
:1011FC0012021F8F638E628D618C608036E535B470
:10120C000125755DFF755E15755F7EAC2DAD2EEC01
:10121C001202C1E4FBFA79C8784212021F8F638E66
:10122C00628D618C60800C755DFF755E15755F89D4
:10123C00854B607B007A00794112081D755D007545
:0E124C005E00755F377B007A007941120C302E
:01125A002271
:10111600E53F70030211BBE4F53F121592AC07E4FC
:101126001202C6E4FBFA79A07840120116E4FBFA33
:10113600797F784312021F8F5D8E5C8D5B8C5AE43B
:10114600FFFE7DC87C42AB5DAA5CA95BA85A120172
:1011560016E4FBFAF9783F1200251202FA8E518F37
:1011660052D3E528952EE527952D400DD3E55295CA
:101176002EE551952D5002054BC3E528952EE52702
:10118600952D401DE552952EE551952D5013755020
:1011960001AF4FAE4EAD4DAC4C8F568E558D548C27
:1011A60053C3E552952EE551952D4003E4F5508540
:0511B6005127855228BD
:0111BB002211
:1012E700AF34AE33AD32AC31AB2CAA2BA92AA82927
:1012F700C31206F8606185342C85332B85322A8525
:101307003129E5506034E47F0AFEFDFCAB2CAA2BA3
:10131700A92AA8291205CDC3EF9556FFEE9555FECC
:10132700ED9554FDEC9553FCE47B887A13F9F8D3DB
:101337001206F850054357018000E54B30E005439E
:1013470057028003755700E530B40308435704E498
:0C135700F5308003755700AF57021629CF
:10162900EFF4F580E5A0541F4480F5A053A01F22D4
:1015CD007580FFE5A0541F4480F5A053A01F7580C2
:0D15DD0040E5A0541F44A0F5A053A01F221C
:04148C008F828E833A
:10149000AF4FAE4EAD4DAC4C8F628E618D608C5FA8
:1014A000C3E54F9562FFE54E9561FEE54D9560FD04
:1014B000E54C955FFCAB82AA83E4F9F8D31206F8F9
:0214C00050DEFC
:0114C2002207
:060C30008B5A8A5B895C0F
:100C3600E4F560F561AB5AAA5BA95C8560827583B1
:100C4600001205361207190DE1200DD12D0DF12EDA
:100C56000C93300CA4310CB5320CC6330CD7340CC3
:100C6600E8350CF9360D0A370D1B380D2C390D3DBC
:100C7600410D4E420D5F430D70440D81450D914669
:100C86000DC14E0DB1500DA15500000DE1AB5DAA91
:100C96005EA95F85618275830074C0020E08AB5D34
:100CA600AA5EA95F85618275830074F9020E08AB9E
:100CB6005DAA5EA95F85618275830074A4020E0831
:100CC600AB5DAA5EA95F85618275830074B0020E72
:100CD60008AB5DAA5EA95F8561827583007499027F
:100CE6000E08AB5DAA5EA95F85618275830074926A
:100CF600020E08AB5DAA5EA95F85618275830074EA
:100D060082020E08AB5DAA5EA95F856182758300CB
:100D160074F8020E08AB5DAA5EA95F8561827583D1
:100D2600007480020E08AB5DAA5EA95F85618275BC
:100D360083007490020E08AB5DAA5EA95F8561828E
:100D46007583007488020E08AB5DAA5EA95F856193
:100D5600827583007483020E08AB5DAA5EA95F8567
:100D6600618275830074C6020E08AB5DAA5EA95F38
:100D760085618275830074A1020E08AB5DAA5EA927
:100D86005F85618275830074868077AB5DAA5EA9F4
:100D96005F856182758300748E8067AB5DAA5EA9EC
:100DA6005F85618275830074C18057AB5DAA5EA9B9
:100DB6005F856182758300748C8047AB5DAA5EA9EE
:100DC6005F85618275830074AB8037AB5DAA5EA9CF
:100DD6005F85618275830074BF8027AB5DAA5EA9BB
:100DE6005F85618275830074FF80171561AB5DE5D1
:100DF6005F2561F9E4355EFA12051D547F1205631D
:100E0600800312057505600561E561C3940850030A
:030E1600020C3B90
:010E190022B6
:10144E007580FFE5A0541F44E0F5A053A01F740162
:10145E00A805088002C333D8FCF580E5A0541F44CC
:10146E00C0F5A053A01FAF058F82758300120536FD
:0E147E00F580E5A0541F44E0F5A053A01F2206
:10160400758DFC758B1853890F538EBFC28FD2AB67
:05161400D2AFD28E22CE
:100E1A00E4F55EC2C4D2C2D2B5D2B4E5B0540F75FD
:100E2A005C00F55DD2C4C2C2C4F8540FC868FFE5BD
:100E3A005CC454F048FEE5B0540FFDEEF55CEF4D8E
:100E4A00F55DD2C2C2B5C4F8540FC868FFE55CC4E8
:100E5A0054F048FEE5B0540FFDEEF55CEF4DF55D3C
:100E6A00D2B5C2B4C4F8540FC868FFE55CC454F0E4
:100E7A0048FEE5B0540FFDEEF55CEF4DF55DB4FFAD
:100E8A0008E55CB4FF037F00227F0A7E0012148CFF
:100E9A00C2C4D2C2D2B5D2B4E5B0540F7E00D2C415
:100EAA00C2C2C4F8540FC868FFEEC454F048FEE545
:100EBA00B0540FFDEF4DD2C2C2B5C4F8540FC86882
:100ECA00FFEEC454F048FEE5B0540FFDEF4DD2B525
:100EDA00C2B4C4F8540FC868FFEEC454F048FEE523
:100EEA00B0540FFDEF4DFF655D7003E55C6E600366
:100EFA007F0022EFF4FFEEF4FEEF8EF012073F0FB1
:100F0A009800010F9300020F8E00040F8900080F4A
:100F1A008400100F7F00200F7A00400F7500800FA9
:100F2A007001000F6B02000F6604000F6108000FCA
:100F3A005C10000F5720000F5240000F4D80000038
:100F4A00000F9B755E018049755E028044755E03E1
:100F5A00803F755E04803A755E058035755E068051
:100F6A0030755E07802B755E088026755E098021C4
:100F7A00755E0A801C755E0B8017755E0C80127593
:100F8A005E0D800D755E0E8008755E0F8003755EBE
:030F9A0010AF5E37
:010F9D002231
:10001E00020366E86480F8E933E83360110460F0A7
:10002E00ED33EC337009E8FCE9FDEAFEEBFF220448
:10003E0060DED3EB9FEA9EE99DE8C2E78CF0C2F743
:10004E0095F0400CE8CCF8E9CDF9EACEFAEBCFFB0F
:10005E0012033185D0F05804700320D5B3E8047034
:10006E00075002B2D502037092D5EC0460F7E4CCCF
:10007E00C0E0C398F8603B94186008400DD0E0FBD8
:10008E00020348E4FBFAC9FC8028E830E406E4C920
:10009E00FBE4CAFCE830E305E4C9CACBFCE854072C
:1000AE006010F8C3E913F9EA13FAEB13FBEC13FC37
:1000BE00D8F130F52FC3E49CFCEF9BFFEE9AFEEDDA
:1000CE0099FDD0E0FBEF4E4D4C701222DB03020384
:1000DE006DEC2CFCEF33FFEE33FEED33FDED30E730
:1000EE00EB020348EF2BFFEE3AFEED39FDD0E0FBBD
:1000FE0050130BBB0003020370ED13FDEE13FEEF66
:08010E0013FFEC13FC0203488F
:10011600EC4D6011E8497017ED33EC3304600DE4E3
:10012600FCFFFEFD22E933E8330470F80203661291
:10013600033158046009E4CC248150062850090292
:10014600037028400302036DC0E0EB4A7044B98097
:1001560006D0E0FB02035CEF4E701CBD8008EBFF8F
:10016600EAFEE9FD80EBE98DF0A4FEE5F00201FF71
:10017600E9CDF9EAFEEBFFEF89F0A4FCE5F0CE89C4
:10018600F0A42EFFE435F0CD89F0A42DFEE435F081
:100196008067EF4E7005BD80D780C3EF8BF0A4ACAF
:1001A600F0EE8BF0A42CFCE435F0F8EF8AF0A42CEA
:1001B600E5F038FCE433CB8DF0A42CFCE5F03BF8FD
:1001C600EE8AF0A42CFCE5F038F8E433CF89F0A4ED
:1001D6002CFCE5F038CF3400CE89F0A42FFFE5F0F3
:1001E6003EFEE433C98DF0A42EFEE5F039CD8AF04B
:1001F600A42FFFE5F03EFEE43DFD33D0E0FB5007C3
:100206000BBB000F020370EC2CFCEF33FFEE33FE4A
:06021600ED33FD02034878
:10021C00020370EC5D046005E85904700302036688
:10022C00120331580460F6EC4860F2EC7004FDFEE9
:10023C00FF22C860DB2481C85009C39860025006B5
:10024C0002036D9850CAF582E9294B4A7005AB82BE
:10025C0002035C75F0007C1A7880C3EF9BEE9AED7C
:10026C0099400DC3EF9BFFEE9AFEED99FDE842F02D
:10027C00DC23ACF0D0E0FFD0E0FED0E0FDAB822080
:10028C00E7101BEB60BAEC2CFCEF33FFEE33FEED0A
:10029C0033FD020348E803F830E705C0F075F000C1
:1002AC00EF2FFFEE33FEED33FD40B830E7C280AAEE
:1002BC0075F020800E75F010800575F0087D007EBD
:1002CC00007F003392D530D5031206EAEC33401090
:1002DC00EF33FFEE33FEED33FDEC33FCD5F0ED22C6
:0E02EC00E5F0247EA2D513CC92E7CDCEFF2202
:1002FA00EDD2E7CD33EC3392D524814006E4FFFEFC
:10030A00FDFC22FCE4CFCECDCC24E0501174FF805A
:10031A00EDC3CC13CCCD13CDCE13CECF13CF0470F7
:07032A00F030D5DE0206EA07
:1007C100E571245DF8E6057122785A300702785DFB
:1007D100E475F00112070902051D2000EB7F2ED2FE
:1007E100008018EF540F2490D43440D4FF30040B10
:1007F100EF24BFB41A0050032461FFE572600215B3
:10080100720575E5757002057430070D785AE47547
:10081100F001120709EF02056302152A7403D207DA
:100821008003E4C207F5718B5A8A5B895CE4F57237
:10083100F574F575E57260077F201207FC80F57588
:1008410073FFC201C200C202C203C205C206C208CE
:100851001207CAFF700D3007057F0012080DAF7532
:10086100AE7422B4255FC2D5C2041207CAFF24D0D8
:10087100B40A00501A75F00A787230D50508B6FF2F
:100881000106C6A426F620D5047002D20380D9241D
:10089100CFB41A00EF5004C2E5D204020AFAD20121
:1008A10080C6D20080C0D20280BCD2D580BAD20527
:1008B10080B47F201207FC2002077401B57200404A
:1008C100F11207C1FF1207FC020835D208D20680D7
:1008D100951207C1FB1207C1FA1207C1F94A4B7001
:1008E1000679F17A0B7BFF20022EE572602A7E00E9
:1008F1008E8275830012053660060EEE657370F008
:10090100C2D5EBC0E0EAC0E0E9C0E0EE120B5AD07C
:10091100E0F9D0E0FAD0E0FB12051DFF60AAEBC0C0
:10092100E0EAC0E0E9C0E01207FCD0E02401F9D020
:10093100E03400FAD0E0FBE5730460DCD573D980C4
:1009410087D20280A2120B3D60F7E5737001041299
:10095100037BA973600DE573600914F573120BE451
:10096100EF60F3EA30E702F404C3995077EAF42523
:10097100730430E701E404F573800D120B3D60C18F
:10098100EA0573257312037BEA7870F630E701E418
:10099100257304D5730420050114120B5AE4C0E039
:1009A100120BE47870E6601320E70714F61207E4EF
:1009B100802204F6D0E014C0E07F001207E4E57362
:1009C10060071207DB1573800B3005031207DBD0BC
:1009D100E0020835D0E00480C5120B3D60A0E5734C
:1009E1000412037B7870EAF6E573200502600104C6
:0509F1002404120B5A62
:1009F60074FF04C0E0120BE41207E4E5732005025D
:100A060060031207DBD0E0B573E87F451207EE7886
:100A160070E67F2B30E7047F2DF404C0E01207FC5C
:100A2600D0E075F00A84C0F01207E5D0E01207E5C1
:100A3600020835791080027908C206C2088008D2F9
:100A4600D5790A8004790AC2D5E573047002F57374
:100A5600E4FAFDFEFF1207C1FC7B08200113120712
:100A6600C1FD7B1030000A1207C1FE1207C1FF7BD1
:100A760020EC3382D592D55013C3E43000069FFF95
:100A8600E49EFEE42001039DFDE49CFCE4CBF8C259
:100A960001EC700CCFCECDCCE824F8F870F38017BB
:100AA600C3EF33FFEE33FEED33FDEC33FCEB33FBEC
:100AB600994002FB0FD8E9EB300105F8D0E0C448B5
:100AC600B201C0E00AEC4D4E4F78207B0070C2EABE
:100AD600B5730040BCC0E0120B5CD0F0D0E0200142
:100AE60004C4C0E0C4B201C0F01207E5D0F0D5F0EE
:100AF600EB02083512071908D2530A395808A34CD5
:100B0600089F420A3D4F0A45440A454908B8430A28
:100B16004B55097C4609DA450946470C115008A78A
:100B26002D08AB2E08CE2B08AF2308CC200BFA2AB3
:100B3600086748000008C6E573B4FF03757306121C
:100B460007C1FC1207C1FD1207C1FE1207C1FF78DB
:100B5600690203AA790AA2D5200314300509B9103F
:100B6600020404B9080104A2D5200602500104209B
:100B760002689202B572005034C0E07F203003193B
:100B86007F30A20272067205500F120BB3C202C268
:100B960006C205C2087F30800F300503E9C0E012A7
:100BA60007FC300503D0E0F9D0E0B572CC3005176C
:100BB6007F30B9100C1207FC7F583004077F78800D
:100BC60003B908031207FC3002057F2D0207FC7FDC
:100BD600202008F87F2B2006F322920280CF7F0088
:100BE600B4070050052469F8E6FF22286E756C6C80
:100BF6002900D2011207C13001F8C201787230D53E
:100C06000108F60208672D504349581207C124030C
:100C1600B405004001E4900C0C931207ED743A12EF
:0A0C260007EDD203757204020A39CB
:10033100E9D2E7C933E833F892D5EDD2E7CD33EC12
:0703410033FC5002B2D5228B
:10034800EC30E7100FBF000C0EBE00080DBD000416
:100358000BEB6014A2D5EB13FCED92E7FD2274FFC2
:10036800FCFDFEFF22E480F8A2D574FF13FC7D801B
:03037800E480EF2F
:10037B00F920E72824F950037907E4F42402FB1849
:10038B00DBFDE624FB5014E9600DE4F618E604F6F9
:0F039B00B40A08E4F6D9F57401F60A22C2D52295
:1003AA00ED33EC3392D5FA602AB4FF33EDC2E77B22
:1003BA00FF60067A0379CFE4227A0379D820D5043C
:1003CA007A0379D3224E614E002B494E46002D49BD
:1003DA004E4600E47A08F608DAFC7B00740722E845
:1003EA00C0E0ECC0E0EDC0E0EEC0E0EFC0E0EA75CE
:1003FA00F010A4CAABF075F04DA42BFBE435F0FC69
:10040A00EA2410FAEB34C5FBEC34D9FCEDC2E7FF61
:10041A0075F056A4F42411C5F0F434C58FF0A42A5B
:10042A00E5F03BE43CF620E7141204DDD0E0FFD00F
:10043A00E0FED0E0FDD0E0FC12021F8014F40412AA
:10044A0004DDD0E0FFD0E0FED0E0FDD0E0FC1201F8
:10045A0016D0E0F8E6FAEDD2E7CD33EC332482FB8E
:10046A00E4C3CF33CFCE33CECD33CD33DBF37B07EB
:10047A0075F00A846004F6081B0AE5F0F6088FF0A6
:10048A00740AA4FFACF08EF0740AA42CFEACF050EF
:10049A00010C8DF0740AA42CFDE435F0F608DBDEBD
:0304AA00740722B2
:1004AD003F8000004120000042C80000447A000057
:1004BD00461C400047C35000497424004B189680D9
:1004CD004CBEBC205A0E1BCA6753C21C749DC5AED0
:1004DD00FB60065407601C232312050BEB54386098
:1004ED00091204F7120506120116ECF8EDF9EEFAF1
:1004FD00EFCB22EB12050680F1543803241C900437
:10050D00ADFE93FC0EEE93FD0EEE930ECE93FF22F9
:0300000002125B8E
:0C125B00787FE4F6D8FD7581750212A2C0
:10051D00BB010689828A83E0225002E722BBFE02DC
:09052D00E32289828A83E493220F
:10053600BB010CE58229F582E5833AF583E022507A
:1005460006E92582F8E622BBFE06E92582F8E222C4
:0D055600E58229F582E5833AF583E49322DE
:10056300BB010689828A83F0225002F722BBFE0177
:02057300F32271
:10057500F8BB010DE58229F582E5833AF583E8F0BC
:10058500225006E92582C8F622BBFE05E92582C868
:02059500F22250
:10059700C2D5EC30E709B2D5E4C39DFDE49CFCEE7F
:1005A70030E715B2D5E4C39FFFE49EFE12076CC384
:1005B700E49DFDE49CFC800312076C30D507C3E47F
:0605C7009FFFE49EFE22EE
:1005CD00E88FF0A4CC8BF0A42CFCE98EF0A42CFCCD
:1005DD008AF0EDA42CFCEA8EF0A4CDA8F08BF0A44B
:1005ED002DCC3825F0FDE98FF0A42CCD35F0FCEBAA
:1005FD008EF0A4FEA9F0EB8FF0A4CFC5F02ECD396F
:0F060D00FEE43CFCEAA42DCE35F0FDE43CFC22DB
:10061C0075F008758200EF2FFFEE33FECD33CDCC95
:10062C0033CCC58233C5829BED9AEC99E582984018
:10063C000CF582EE9BFEED9AFDEC99FC0FD5F0D6F5
:10064C00E4CEFBE4CDFAE4CCF9A88222B800C1B91F
:10065C000059BA002DEC8BF084CFCECDFCE5F0CB5D
:10066C00F97818EF2FFFEE33FEED33FDEC33FCEB96
:10067C0033FB10D703994004EB99FB0FD8E5E4F951
:10068C00FA227818EF2FFFEE33FEED33FDEC33FC3E
:10069C00C933C910D7059BE99A4007EC9BFCE99A32
:1006AC00F90FD8E0E4C9FAE4CCFB2275F010EF2F77
:1006BC00FFEE33FEED33FDCC33CCC833C810D70777
:1006CC009BEC9AE899400AED9BFDEC9AFCE899F8B2
:0E06DC000FD5F0DAE4CDFBE4CCFAE4C8F92245
:0E06EA00C3E49FFFE49EFEE49DFDE49CFC2221
:1006F800EB9FF5F0EA9E42F0E99D42F0E89C45F058
:0107080022CE
:10070900FAE6FB0808E6F925F0F618E6CA3AF622F1
:10071900D083D082F8E4937012740193700DA3A36F
:1007290093F8740193F5828883E473740293686083
:06073900EFA3A3A380DF83
:10073F00D083D082F8E4937012740193700DA3A349
:10074F0093F8740193F5828883E473740293B5F080
:0D075F00067403936860E9A3A3A3A380D8E8
:10152A00EFB40A07740D121535740A309811A89988
:10153A00B8130CC2983098FDA899C298B811F63021
:07154A0099FDC299F59922F9
:10126700021409E493A3F8E493A34003F68001F280
:1012770008DFF48029E493A3F85407240CC8C33388
:10128700C4540F4420C8834004F456800146F6DF57
:10129700E4800B0102040810204080901363E47E71
:1012A700019360BCA3FF543F30E509541FFEE4934C
:1012B700A360010ECF54C025E060A840B8E493A313
:1012C700FAE493A3F8E493A3C8C582C8CAC583CA3E
:1012D700F0A3C8C582C8CAC583CADFE9DEE780BEF6
:0113BB000031
:10076C00BC000BBE0029EF8DF084FFADF022E4CC71
:10077C00F875F008EF2FFFEE33FEEC33FCEE9DEC3A
:10078C00984005FCEE9DFE0FD5F0E9E4CEFD22ED80
:10079C00F8F5F0EE8420D21CFEADF075F008EF2FCA
:1007AC00FFED33FD4007985006D5F0F222C398FDBB
:0507BC000FD5F0EA2258
:00000001FF
