:10129800EFF4F580E5A0541F4480F5A053A01F2269
:1011EF007580FFE5A0541F4480F5A053A01FE4F5C0
:0D11FF0080E5A0541F44A0F5A053A01F22BE
:1012710053890F538EBF758DFC758B18C28FD2AFFA
:05128100D2ABD28E2269
:1012A800438940538E7FE4F58CF58AC28DD28C2217
:060B29008B548A55895629
:100B2F00E4F55AF55BAB54AA55A956855A827583DD
:100B3F00001205361205C60C4F2D0C5F2E0B7730A9
:100B4F000B88310B99320BAA330BBB340BCC350B03
:100B5F00DD360BEE370BFF380C0F390C1F460C2F01
:100B6F004E0C3F5500000C7DAB57AA58A959855B19
:100B7F008275830074C0020C8BAB57AA58A9598594
:100B8F005B8275830074F9020C8BAB57AA58A95975
:100B9F00855B8275830074A4020C8BAB57AA58A98E
:100BAF0059855B8275830074B0020C8BAB57AA58C2
:100BBF00A959855B827583007499020C8BAB57AA78
:100BCF0058A959855B827583007492020C8BAB57C1
:100BDF00AA58A959855B827583007482020C8BAB6E
:100BEF0057AA58A959855B8275830074F8020C8B3C
:100BFF00AB57AA58A959855B827583007480807C96
:100C0F00AB57AA58A959855B827583007490806C85
:100C1F00AB57AA58A959855B82758300748E805C87
:100C2F00AB57AA58A959855B8275830074C8804C4D
:100C3F00AB57AA58A959855B8275830074C1803C54
:100C4F00AB57AA58A959855B8275830074BF802C56
:100C5F00E55BD394004002155BAB57E559255BF973
:100C6F00E43558FA12051D547F1205638011AB57F6
:100C7F00AA58A959855B8275830074FF1205750503
:0D0C8F005A055BE55BC394085003020B346B
:010C9C002235
:1010EF007580FFE5A0541F44E0F5A053A01F7401C5
:1010FF00A805088002C333D8FCF580E5A0541F442F
:10110F00C0F5A053A01FAF058F827583001205365F
:0E111F00F580E5A0541F44E0F5A053A01F2268
:021168008F579F
:10116A00AF34AE33AD32AC318F5B8E5A8D598C5859
:10117A00C3E534955BFBE533955AFAE5329559F99F
:10118A00E5319558F8AF57E4FCFDFEC31205A540BA
:01119A00DF75
:01119B002231
:10106100E4F556E5B0540FF555B40F037F00227F28
:1010710014121168E5B0540FFF655560037F00221B
:10108100EFF414601A14601224FE600924FC701439
:101091007556048012755605800D755606800875C3
:0910A10056078003E4F556AF5632
:0110AA002223
:04122900D2A07F05CB
:10122D00000000000000000000000000000000AE03
:06123D00071FEE70EB221A
:0F12B800D2A1121229C2A17F0512122DC2A022AB
:0C12C700C2A1121229D2A17F0502122D33
:02119C00AD079D
:10119E00E4FCC2A07F0512122DED30E704D2A1802F
:1011AE0002C2A17F0512122DD2A0ED25E0FD7F0512
:0911BE0012122D0CBC08DBC2A0CA
:0111C7002205
:10120C00E4FC121229ED25E0FD30A103430501C2D7
:0C121C00A07F0512122D0CBC08E8AF05E5
:0112280022A3
:10128600121229A2A1E433FDC2A07F0512122DAFCE
:011296000552
:011297002234
:10000300C2A0EF24FF92A17F0512122D121229C262
:08001300A0D2A17F0502122D0D
:02112D00AB070E
:10112F00E4FD1212B87F9012119C121286EB24402C
:10113F00FF12119C1212861212B87F9112119C127B
:10114F00120CAD07E4FF12000312120CAD077F0162
:08115F001200031212C7AF05D4
:011167002265
:10125A0046253775004E25377500552D25316460B2
:07126A006025332E326600FF
:100FB8000142000143010431000000000A443132BB
:100FC8003334000000000000083A00000000000070
:100FD8000000015100015000012E00022F00000204
:100FE800350000013700012D0102520000023800CF
:100FF800000422000000000126000127000128004B
:0810080002290000022B000088
:101243001211EF1212711212A8120E0A120E9C1230
:071253000C9D12101180F246
:100C9D00E5507003020D60E4F550E52E14601B1451
:100CAD00604024026003020D4E7557FF7558127592
:100CBD00595A852F5A85305B807E7557FF755812AE
:100CCD0075595FAE2FAF30AB07AA06E4F9F87F4038
:100CDD007E427D0FFC1210AB8F5D8E5C8D5B8C5A4E
:100CED008056E52DB401277557FF75581275596457
:100CFD00F55AAC52AD53E41202C1E4FBFA79C8784F
:100D0D004212021F8F5E8E5D8D5C8C5B802AE52DFD
:100D1D00B4032E7557FF755812755964F55AAC38D2
:100D2D00AD39E41202C1E4FBFA79C8784212021F10
:100D3D008F5E8E5D8D5C8C5B7B007A007944120733
:100D4D001675570075580075593A7B007A0079442D
:040D5D00120B29222A
:100E0A00E4F5541210618F54E5266554605985340F
:100E1A0025853324853223853122E55424FC601F3D
:100E2A0014602914603014603524077037E5276090
:100E3A0033E54370047F0180027F008F43802505DC
:100E4A002EE52E75F0038485F02E8018E52D2402F8
:100E5A005403F52D800E85384E85394F8006852F2F
:100E6A0035853036855426C3E5349525FFE5339517
:100E7A0024FEE5329523FDE5319522FCE47BE87AF0
:100E8A0003F9F8D31205A55008E554B407037527EA
:010E9A000156
:010E9B002234
:100E9C00E4F558F557F556F555E5377003020F2B69
:100EAC00E4F537AF2D12112D8F54E52D75F0038419
:100EBC00E5F0AC546035E41202C6E4FBFA79A07894
:100ECC0040120116E4FBFA797F784312021F7B0A69
:100EDC007AD779A3783B120025E4FBFA79C87842DB
:100EEC001201161202FA8E528F5322E41202C6E439
:100EFC00FBFA79A07840120116E4FBFA797F78436B
:100F0C0012021F7B0A7AD779A3783B120025E4FBE7
:0F0F1C00FA79C878421201161202FA8E388F390C
:010F2B0022A3
:10101100E543604BE52E2402FF7401A80708800216
:10102100C333D8FC4242F444035242D3E539954FCD
:10103100E538954E400543420180035342FED3E516
:10104100309536E52F9535400543420280035342E2
:0F105100FDE52865426008854228AF42121298DB
:01106000226D
:03001B00020D6172
:100D6100C0E0C0F0C083C082C0D075D000C000C058
:0D0D710001C002C003C004C005C006C007D9
:100D7E00E5342401F534E43533F533E43532F53218
:100D8E00E43531F531052AE52A70020529640A4554
:100D9E0029700AF529F52A755001753701052CE5DC
:100DAE002C7002052BFFAE2BBE0323BFE820752B44
:100DBE0000752C00AF8CEFFEAD8A7C00E42DF53073
:100DCE00EC3EF52FC28C758C00758A00D28C7B00A0
:100DDE007A00793AAD511210EF0551E5515407F5ED
:010DEE0051B3
:100DEF00D007D006D005D004D003D002D001D00058
:0B0DFF00D0D0D082D083D0F0D0E03202
:10001E00020366E86480F8E933E83360110460F0A7
:10002E00ED33EC337009E8FCE9FDEAFEEBFF220448
:10003E0060DED3EB9FEA9EE99DE8C2E78CF0C2F743
:10004E0095F0400CE8CCF8E9CDF9EACEFAEBCFFB0F
:10005E0012033185D0F05804700320D5B3E8047034
:10006E00075002B2D502037092D5EC0460F7E4CCCF
:10007E00C0E0C398F8603B94186008400DD0E0FBD8
:10008E00020348E4FBFAC9FC8028E830E406E4C920
:10009E00FBE4CAFCE830E305E4C9CACBFCE854072C
:1000AE006010F8C3E913F9EA13FAEB13FBEC13FC37
:1000BE00D8F130F52FC3E49CFCEF9BFFEE9AFEEDDA
:1000CE0099FDD0E0FBEF4E4D4C701222DB03020384
:1000DE006DEC2CFCEF33FFEE33FEED33FDED30E730
:1000EE00EB020348EF2BFFEE3AFEED39FDD0E0FBBD
:1000FE0050130BBB0003020370ED13FDEE13FEEF66
:08010E0013FFEC13FC0203488F
:10011600EC4D6011E8497017ED33EC3304600DE4E3
:10012600FCFFFEFD22E933E8330470F80203661291
:10013600033158046009E4CC248150062850090292
:10014600037028400302036DC0E0EB4A7044B98097
:1001560006D0E0FB02035CEF4E701CBD8008EBFF8F
:10016600EAFEE9FD80EBE98DF0A4FEE5F00201FF71
:10017600E9CDF9EAFEEBFFEF89F0A4FCE5F0CE89C4
:10018600F0A42EFFE435F0CD89F0A42DFEE435F081
:100196008067EF4E7005BD80D780C3EF8BF0A4ACAF
:1001A600F0EE8BF0A42CFCE435F0F8EF8AF0A42CEA
:1001B600E5F038FCE433CB8DF0A42CFCE5F03BF8FD
:1001C600EE8AF0A42CFCE5F038F8E433CF89F0A4ED
:1001D6002CFCE5F038CF3400CE89F0A42FFFE5F0F3
:1001E6003EFEE433C98DF0A42EFEE5F039CD8AF04B
:1001F600A42FFFE5F03EFEE43DFD33D0E0FB5007C3
:100206000BBB000F020370EC2CFCEF33FFEE33FE4A
:06021600ED33FD02034878
:10021C00020370EC5D046005E85904700302036688
:10022C00120331580460F6EC4860F2EC7004FDFEE9
:10023C00FF22C860DB2481C85009C39860025006B5
:10024C0002036D9850CAF582E9294B4A7005AB82BE
:10025C0002035C75F0007C1A7880C3EF9BEE9AED7C
:10026C0099400DC3EF9BFFEE9AFEED99FDE842F02D
:10027C00DC23ACF0D0E0FFD0E0FED0E0FDAB822080
:10028C00E7101BEB60BAEC2CFCEF33FFEE33FEED0A
:10029C0033FD020348E803F830E705C0F075F000C1
:1002AC00EF2FFFEE33FEED33FD40B830E7C280AAEE
:1002BC0075F020800E75F010800575F0087D007EBD
:1002CC00007F003392D530D503120597EC334010E4
:1002DC00EF33FFEE33FEED33FDEC33FCD5F0ED22C6
:0E02EC00E5F0247EA2D513CC92E7CDCEFF2202
:1002FA00EDD2E7CD33EC3392D524814006E4FFFEFC
:10030A00FDFC22FCE4CFCECDCC24E0501174FF805A
:10031A00EDC3CC13CCCD13CDCE13CECF13CF0470F7
:07032A00F030D5DE0205975B
:1006BA00E56B2457F8E6056B227854300702785721
:1006CA00E475F0011205B602051D2000EB7F2ED25B
:1006DA00008018EF540F2490D43440D4FF30040B18
:1006EA00EF24BFB41A0050032461FFE56C600215C1
:1006FA006C056FE56F7002056E30070D7854E4756E
:10070A00F0011205B6EF0205630211C87403D2079D
:10071A008003E4C207F56B8B548A558956E4F56C5D
:10072A00F56EF56FE56C60077F201206F580F575AA
:10073A006DFFC201C200C202C203C205C206C208DC
:10074A001206C3FF700D3007057F00120706AF6F50
:10075A00AE6E22B4255FC2D5C2041206C3FF24D0EE
:10076A00B40A00501A75F00A786C30D50508B6FF3D
:10077A000106C6A426F620D5047002D20380D92425
:10078A00CFB41A00EF5004C2E5D2040209F3D20131
:10079A0080C6D20080C0D20280BCD2D580BAD2052F
:1007AA0080B47F201206F52002077401B56C004060
:1007BA00F11206BAFF1206F502072ED208D20680F7
:1007CA00951206BAFB1206BAFA1206BAF94A4B7021
:1007DA000679EA7A0A7BFF20022EE56C602A7E00FF
:1007EA008E8275830012053660060EEE656D70F016
:1007FA00C2D5EBC0E0EAC0E0E9C0E0EE120A53D08D
:10080A00E0F9D0E0FAD0E0FB12051DFF60AAEBC0C8
:10081A00E0EAC0E0E9C0E01206F5D0E02401F9D030
:10082A00E03400FAD0E0FBE56D0460DCD56DD980D8
:10083A0087D20280A2120A3660F7E56D70010412AF
:10084A00037BA96D600DE56D600914F56D120ADD73
:10085A00EF60F3EA30E702F404C3995077EAF4252B
:10086A006D0430E701E404F56D800D120A3660C1AB
:10087A00EA056D256D12037BEA786AF630E701E432
:10088A00256D04D56D0420050114120A53E4C0E055
:10089A00120ADD786AE6601320E70714F61206DD0D
:1008AA00802204F6D0E014C0E07F001206DDE56D78
:1008BA0060071206D4156D800B3005031206D4D0DA
:1008CA00E002072ED0E00480C5120A3660A0E56D6A
:1008DA000412037B786AEAF6E56D200502600104DA
:0508EA002404120A5372
:1008EF0074FF04C0E0120ADD1206DDE56D2005027B
:1008FF0060031206D4D0E0B56DE87F451206E778A5
:10090F006AE67F2B30E7047F2DF404C0E01206F572
:10091F00D0E075F00A84C0F01206DED0E01206DED9
:10092F0002072E791080027908C206C2088008D209
:10093F00D5790A8004790AC2D5E56D047002F56D88
:10094F00E4FAFDFEFF1206BAFC7B08200113120623
:10095F00BAFD7B1030000A1206BAFE1206BAFF7BF0
:10096F0020EC3382D592D55013C3E43000069FFF9D
:10097F00E49EFEE42001039DFDE49CFCE4CBF8C261
:10098F0001EC700CCFCECDCCE824F8F870F38017C3
:10099F00C3EF33FFEE33FEED33FDEC33FCEB33FBF4
:1009AF00994002FB0FD8E9EB300105F8D0E0C448BD
:1009BF00B201C0E00AEC4D4E4F78207B0070C2EAC6
:1009CF00B56D0040BCC0E0120A55D0F0D0E0200158
:1009DF0004C4C0E0C4B201C0F01206DED0F0D5F0FE
:1009EF00EB02072E1205C607CB53093258079C4C52
:1009FF0007984209364F093E44093E4907B143095A
:100A0F00445508754608D345083F470B0A5007A0C1
:100A1F002D07A42E07C72B07A82307C5200AF32AE3
:100A2F00076048000007BFE56DB4FF03756D061240
:100A3F0006BAFC1206BAFD1206BAFE1206BAFF7803
:100A4F00630203AA790AA2D5200314300509B9104D
:100A5F00020404B9080104A2D520060250010420A3
:100A6F0002689202B56C005034C0E07F2030031949
:100A7F007F30A20272067205500F120AACC202C278
:100A8F0006C205C2087F30800F300503E9C0E012AF
:100A9F0006F5300503D0E0F9D0E0B56CCC30051782
:100AAF007F30B9100C1206F57F583004077F78801D
:100ABF0003B908031206F53002057F2D0206F57FF4
:100ACF00202008F87F2B2006F322920280CF7F0090
:100ADF00B4070050052463F8E6FF22286E756C6C8E
:100AEF002900D2011206BA3001F8C201786C30D554
:100AFF000108F60207602D504349581206BA240325
:100B0F00B405004001E4900B05931206E6743A1207
:0A0B1F0006E6D203756C04020932E9
:10033100E9D2E7C933E833F892D5EDD2E7CD33EC12
:0703410033FC5002B2D5228B
:10034800EC30E7100FBF000C0EBE00080DBD000416
:100358000BEB6014A2D5EB13FCED92E7FD2274FFC2
:10036800FCFDFEFF22E480F8A2D574FF13FC7D801B
:03037800E480EF2F
:10037B00F920E72824F950037907E4F42402FB1849
:10038B00DBFDE624FB5014E9600DE4F618E604F6F9
:0F039B00B40A08E4F6D9F57401F60A22C2D52295
:1003AA00ED33EC3392D5FA602AB4FF33EDC2E77B22
:1003BA00FF60067A0379CFE4227A0379D820D5043C
:1003CA007A0379D3224E614E002B494E46002D49BD
:1003DA004E4600E47A08F608DAFC7B00740722E845
:1003EA00C0E0ECC0E0EDC0E0EEC0E0EFC0E0EA75CE
:1003FA00F010A4CAABF075F04DA42BFBE435F0FC69
:10040A00EA2410FAEB34C5FBEC34D9FCEDC2E7FF61
:10041A0075F056A4F42411C5F0F434C58FF0A42A5B
:10042A00E5F03BE43CF620E7141204DDD0E0FFD00F
:10043A00E0FED0E0FDD0E0FC12021F8014F40412AA
:10044A0004DDD0E0FFD0E0FED0E0FDD0E0FC1201F8
:10045A0016D0E0F8E6FAEDD2E7CD33EC332482FB8E
:10046A00E4C3CF33CFCE33CECD33CD33DBF37B07EB
:10047A0075F00A846004F6081B0AE5F0F6088FF0A6
:10048A00740AA4FFACF08EF0740AA42CFEACF050EF
:10049A00010C8DF0740AA42CFDE435F0F608DBDEBD
:0304AA00740722B2
:1004AD003F8000004120000042C80000447A000057
:1004BD00461C400047C35000497424004B189680D9
:1004CD004CBEBC205A0E1BCA6753C21C749DC5AED0
:1004DD00FB60065407601C232312050BEB54386098
:1004ED00091204F7120506120116ECF8EDF9EEFAF1
:1004FD00EFCB22EB12050680F1543803241C900437
:10050D00ADFE93FC0EEE93FD0EEE930ECE93FF22F9
:03000000020F2CC0
:0C0F2C00787FE4F6D8FD75816F020F732A
:10051D00BB010689828A83E0225002E722BBFE02DC
:09052D00E32289828A83E493220F
:10053600BB010CE58229F582E5833AF583E022507A
:1005460006E92582F8E622BBFE06E92582F8E222C4
:0D055600E58229F582E5833AF583E49322DE
:10056300BB010689828A83F0225002F722BBFE0177
:02057300F32271
:10057500F8BB010DE58229F582E5833AF583E8F0BC
:10058500225006E92582C8F622BBFE05E92582C868
:02059500F22250
:1010AB00C2D5E830E70FB2D5E4C39BFBE49AFAE470
:1010BB0099F9E498F8EC30E717B2D51210E1120663
:1010CB0028E4C39BFBE49AFAE499F9E498F88003CB
:1010DB0012062830D50DE4C39FFFE49EFEE49DFD70
:0410EB00E49CFC2263
:0E059700C3E49FFFE49EFEE49DFDE49CFC2275
:1005A500EB9FF5F0EA9E42F0E99D42F0E89C45F0AC
:0105B5002223
:1005B600FAE6FB0808E6F925F0F618E6CA3AF62246
:1005C600D083D082F8E4937012740193700DA3A3C4
:1005D60093F8740193F5828883E4737402936860D8
:0605E600EFA3A3A380DFD8
:1011C800EFB40A07740D1211D3740A309811A89954
:1011D800B8130CC2983098FDA899C298B811F63087
:0711E80099FDC299F599225F
:100F3800021243E493A3F8E493A34003F68001F27A
:100F480008DFF48029E493A3F85407240CC8C333BA
:100F5800C4540F4420C8834004F456800146F6DF89
:100F6800E4800B0102040810204080900FB8E47E52
:100F7800019360BCA3FF543F30E509541FFEE4937E
:100F8800A360010ECF54C025E060A840B8E493A345
:100F9800FAE493A3F8E493A3C8C582C8CAC583CA70
:100FA800F0A3C8C582C8CAC583CADFE9DEE780BE28
:0110100000DF
:1005EC0075F008758200EF2FFFEE33FECD33CDCCC6
:1005FC0033CCC58233C5829BED9AEC99E582984049
:10060C000CF582EE9BFEED9AFDEC99FC0FD5F0D625
:10061C00E4CEFBE4CDFAE4CCF9A88222B800C1B94F
:10062C000059BA002DEC8BF084CFCECDFCE5F0CB8D
:10063C00F97818EF2FFFEE33FEED33FDEC33FCEBC6
:10064C0033FB10D703994004EB99FB0FD8E5E4F981
:10065C00FA227818EF2FFFEE33FEED33FDEC33FC6E
:10066C00C933C910D7059BE99A4007EC9BFCE99A62
:10067C00F90FD8E0E4C9FAE4CCFB2275F010EF2FA7
:10068C00FFEE33FEED33FDCC33CCC833C810D707A7
:10069C009BEC9AE899400AED9BFDEC9AFCE899F8E2
:0E06AC000FD5F0DAE4CDFBE4CCFAE4C8F92275
:00000001FF
