:10259300E4FEC297EF1392A3EFC313FFD2970EEE9D
:0325A300B408EF8A
:0125A6002212
:0824E50075F00A84EE25F0FDFC
:1024ED00C29300C29700D29300122593AF05122517
:0424FD0093C29322D1
:10229F00E4FDC29300C29700D29300122593E4FF8E
:1022AF00C297EDC313FD30A3034480FDD2970FEF08
:1022BF00B408EDC29300C29700D29700C2A300D218
:0422CF00A300AF05B4
:0122D30022E8
:1020EF00E4FD7F8E1224ED90000212055FFF75F064
:1020FF000A84C454F0FEEF7F801224E59000011291
:10210F00055FFF75F00A84C454F0FEEF7F8212243E
:10211F00E5120546FF75F00A84C454F0FEEF75F022
:10212F000A84EE25F0FD7F841224ED7D807F8E02E0
:02213F0024ED8D
:1021D9007F8112229FEFC4540F75F00AA4FEEF54B9
:1021E9000F2E90000212059E7F8312229FEFC45486
:1021F9000F75F00AA4FEEF540F2E90000112059EF0
:102209007F8512229FEFC4540F75F00AA4FEEF5484
:052219000F2E02058CF0
:04251C00D2A07F05C5
:10252000000000000000000000000000000000AEFD
:06253000071FEE70EB2214
:062569001222DB122455D2
:0F256F00D2A112251CC2A17F05122520C2A022D5
:0C262300C2A112251CD2A17F05022520B7
:0722D400AB0712256F7F909C
:0222DB00AD074D
:1022DD00E4FCC2A07F05122520ED30E704D2A180D9
:1022ED0002C2A17F05122520D2A0ED25E0FD7F05BC
:0A22FD001225200CECB408DAC2A090
:0123070022B3
:1024AA00E4FC12251CED25E0FD30A1034401FDC228
:0D24BA00A07F051225200CECB408E7AF054B
:0124C70022F2
:10244300EBF0A3EAF0A3E9F0AB0512256F7FA0122E
:0224530022DB8A
:1024550012251CA2A1E433FDC2A07F05122520AFE1
:012465000571
:012466002253
:10000300C2A0EF24FF92A17F0512252012251CC256
:08001300A0D2A17F0502252007
:10236C001222D4122455EB4440FF1225697F91129E
:10237C0022DB1224551224AAAD07E4FF120003122B
:0E238C0024AAAD077F01120003122623AF051D
:01239A002220
:102550001222D41224557F431222DB122455AF03DA
:092560001222DB1224550226238D
:102308009000A5122443AF03801E9000A9E0FF149B
:10231800F0EF601C9000A5E0FBA3E475F001120546
:10232800F6A9F0FA120546FF1222DB12245580DACC
:0323380002262357
:102191009000A4122443AF031225697FA11222DB10
:1021A1001224559000A8E0FF14F0EF60281224AA31
:1021B1009000A4E0FBA3E475F0011205F6A9F0FA82
:1021C100EF12058C9000A8E06004E4FF80027F011B
:0821D10012000380CE02262358
:042536007F057E009F
:10253A00EF1FAA0670011E4A600BE4FDEDC3940C5E
:05254A0050EE0D80F7CA
:01254F002269
:02248B00A9079F
:10248D00E4FBC294E9139294122536D294E9C31356
:0D249D00F90BEBB408EC7F057E0002253A38
:10250100E4FBC294ECC313FCD2943094034480FCEA
:0A2511001225360BEBB408EAAF0404
:01251B00229D
:1023F500C20CD2947F0C7E0012253AC2947F507E87
:102405000012253AD2947F0A7E0012253AA29492B0
:062415000C122536A20C9A
:01241B00229E
:1025E100C20B1223F5920B7FCC12248B7F44022461
:0125F1008B5E
:10246700C20B1223F5920B7FCC12248B7FBE122452
:102477008B122501A907122501EFFE7C00E429FF35
:03248700EC3EFE2A
:01248A00222F
:101FE1004625332E316660253375004625332E3163
:101FF10066604C4C004625332E326625322E316602
:1020010025322E3166005031606025346400503233
:10201100606025346400253032752D253032752DF0
:1020210025303275004846606060253375004841AF
:10203100253275253275253275004572726F725FD2
:1020410044004572726F725F4C004F4B0050574D08
:10205100253264256325630050313A2533642C50C1
:0A206100323A25336425632563003D
:101DBE0041003A004100630041006B0041006C009D
:101DCE00440064000000004C004D31323334343294
:101DDE00000000000000480042000000000000006B
:101DEE000041005F0041005D004100340041003EB3
:101DFE0000410035004100310041006D0042004AB3
:101E0E00006442003B0000420032000042003800F5
:101E1E001841004C00410030004600270000000031
:101E2E00000043003F00000043002D00000043006F
:101E3E00680C3B2D4100600041003D0041005E00FA
:101E4E004100610041006200440059000000004260
:101E5E00003600004400010000000041000900416E
:101E6E00000B0044000D00000000500011000000A7
:101E7E0000000000000000000000000000410021F2
:0C1E8E000041002200440023000000007E
:10206B001224C812257E1226031225F27B017A0058
:10207B0079681220EF7B017A0079369000A8740200
:10208B00F07D01122191900036E0FFD3943C400F7C
:10209B00EF94C8500A90004AE4F0A3EFF080099047
:1020AB00004AE4F0A37464F0900037E0FFD394E2AD
:1020BB007480947F4008EF941E5003E08005E490F9
:1020CB000037F090006DF012159B1225CF121AF706
:1020DB0012175C1218F61211B4121BE812233B12E2
:0420EB00221E80E34E
:1011B40090005DE070030213A7E4F0900034E014A3
:1011C40070030212BC1470030212FD1470030213A4
:1011D400342403600302139090003EE07075D390B2
:1011E400003CE0940090003BE0648094809000A771
:1011F40074FF4037F0A3741FF0A374E1F09000383B
:10120400E0FCA3E0FDE41202C9E4FBFA7920784192
:101214001202279000AA12069990003BE0FFA3E077
:101224009000AECFF0A3EFF0021387F0A3741FF089
:10123400A374ECF0900038E0FCA3E0FDE41202C9D2
:10124400E4FBFA792078411202279000AA12069949
:101254000213879000A774FFF0A3741FF0A374F621
:10126400F0900027E0FCA3E0FDE41202C9E4FBFADD
:1012740079C878421202279000AA12069990002990
:10128400E0FCA3E0FDE41202C9E4FBFA79C8784269
:101294001202279000AE12069990002BE0FCA3E006
:1012A400FDE41202C9E4FBFA79C8784212022790DD
:1012B40000B2120699021387900035E09000A770DF
:1012C4001B74FFF0A37420F0A37407F090004AE0AD
:1012D400FFA3E09000AACFF0A3EF801974FFF0A35E
:1012E4007420F0A3740FF090006DE0FE3395E0904D
:1012F40000AAF0A3CEF00213879000A774FFF0A316
:101304007420F0A37417F090003FE0FF9000AAE46B
:10131400F0A3EFF0900040E0FF9000ACE4F0A3EF06
:10132400F0900041E0FF9000AEE4F0A3EFF08053B2
:10133400900031E09000A7701874FFF0A37420F0BF
:10134400A37426F0900032E0FFA3E09000AACF80BF
:101354002E74FFF0A37420F0A3742FF090002DE0FE
:10136400FF9000AAE4F0A3EFF090002EE0FF9000BD
:10137400ACE4F0A3EFF090002FE0FF9000AEE4F0B7
:10138400A3EFF07B017A00794D12080E9000A77448
:1013940001F0A37400F0A37442F07B017A00794D4C
:0413A400120F86227C
:10159B00121E9B9000A4EFF0900000E0FE6F700312
:1015AB0002175B9000A4E024FC6039147003021650
:1015BB007724FD70030216C514700302170D24095E
:1015CB006003021753EE6404600302175390006428
:1015DB00E0FCA3E0FDA3E0FEA3E0FF9000011206F8
:1015EB0099021753900001E0F8A3E0F9A3E0FAA3E6
:1015FB00E0FB900064E0FCA3E0FDA3E0FEA3E0C3EE
:10160B009BFFEE9AFEED99FDEC98FCE47B2C7A01A6
:10161B00F9F8D31206395003021753E4FFFEFDFC11
:10162B00900001E0F8A3E0F9A3E0FAA3E0FB1206B7
:10163B00397003021753900034E004F05403F0E0C8
:10164B006402600302175390004AA3E0900036F047
:10165B0090006DE0900037F07B017A0079369000B6
:10166B00A97402F07D01122308021753900034E095
:10167B0014601F24FE602F24036003021753900095
:10168B003EE070047F0180027F0090003EEFF0028D
:10169B001753900035E070047F0180027F009000AB
:1016AB0035EFF0021753900031E070047F01800298
:1016BB007F00900031EFF0021753900034E0B4013B
:1016CB001BA3E0600990006DE0240AF0800E9000EF
:1016DB004BE02414F090004AE03400F0D390004B20
:1016EB00E094C890004AE0648094804006E4F0A344
:1016FB0074C8F090006DE0D36480949E404AE4F08F
:10170B008046900034E0B4011BA3E0600990006DAB
:10171B00E024F6F0800E90004BE024ECF090004AB1
:10172B00E034FFF0C390004BE0943C90004AE0643F
:10173B008094805006E4F0A3743CF090006DE0C3FD
:10174B00648094625002E4F09000A4E0900000F0FA
:01175B00226B
:1025CF00900060E0600BE4F07B017A00793F12210C
:0225DF00D922FF
:101AF700900009E014602B147003021BAF240260EE
:101B070003021BE71225E1900064E0FCA3E0FDA3BC
:101B1700E0FEA3E0FF90000512069990000974010A
:101B2700F022900005E0F8A3E0F9A3E0FAA3E0FBB8
:101B3700900064E0FCA3E0FDA3E0FEA3E0C39BFFED
:101B4700EE9AFEED99FDEC98FCE47B207A03F9F818
:101B5700C31206394003021BE7122467AD07AC0620
:101B6700EC1202C9E4FBFA798078411202277BCD97
:101B77007ACC794C783D12002DE4FBFA7920784134
:101B870012011E120302900038EEF0A3EFF090004E
:101B9700097402F0900064E0FCA3E0FDA3E0FEA35B
:101BA700E0FF900005020699900005E0F8A3E0F930
:101BB700A3E0FAA3E0FB900064E0FCA3E0FDA3E050
:101BC700FEA3E0C39BFFEE9AFEED99FDEC98FCE4C3
:101BD7007B05FAF9F8C31206395005E4900009F0BD
:011BE70022DB
:10175C0090004CE0606FE4F090000BE0FF900030E4
:10176C00B402057403F08002EFF0900030E0FF1239
:10177C00236CAC07E41202CEE4FBFA79A078401299
:10178C00011EE4FBFA797F78431202277B0A7AD791
:10179C0079A3783B12002DE4FBFA79C87842120148
:1017AC001E12030290000BE025E02427F582E4349E
:1017BC0000F583EEF0A3EFF090000BE004F075F071
:1017CC000384E5F0F0C390002AE09464900029E0D3
:1017DC00940050089000637401F08005E49000635D
:1017EC00F090003BE0FEA3E0FFD39400EE64809405
:1017FC008050030218F5D3EF9428EE648094805047
:10180C000990000A7433F00218ED90004AE0FEA330
:10181C00E0FF90003BE0FCA3E0FDC39FEE6480F88A
:10182C00EC648098400990000A74FFF00218EDEC0B
:10183C001202C9E4FBFA7980784012011EC004C080
:10184C0005C006C00790004BE024D8FD90004AE08C
:10185C0034FFFC1202C9A804A905AA06AB07D007DD
:10186C00D006D005D004120227C004C005C006C0A3
:10187C000790004BE024D8FD90004AE034FFFC12A6
:10188C0002C9A804A905AA06AB07E4FFFE7D207CCB
:10189C0043120227A804A905AA06AB07D007D00655
:1018AC00D005D004120029E4FBFA7980783F1200AD
:1018BC002D9000A4120699E4FFFE7D7F7C439000DE
:1018CC00A4E0F8A3E0F9A3E0FAA3E0FB12011EE404
:1018DC00FBFA79A0784012022712030290000AEF5B
:0918EC00F090000AE0FF12255003
:0118F50022D0
:1018F6007F04900062E070030219FCE4F0C28C756C
:101906008AF3758CFFC28DD28CAE071FEE600C3049
:101916008DFDC28DA290B3929080EEC28CE4F58AC2
:10192600F58CC28DD28C208D032091FAC28C308D1D
:101936001A90006DE0FF3395E0FEEF24FFFFE43ED2
:1019460090003BF0A3EFF0C28D8046AF8CEFFEAD6A
:101956008A7C00E42DFFEC3EFEAD07FCE41202C9D2
:101966007B967A43798B783C12011EC004C005C071
:1019760006C00790006DE0FC1202CED003D002D064
:1019860001D00012002D12030290003BEEF0A3EFEF
:10199600F0D390003CE094FF90003BE0648094809C
:1019A6004006E4F0A374FFF0C390003BE06480942B
:1019B60080500774FFF0A374F6F0900032E0FEA3A7
:1019C600E0FF90003BE0FCA3E0FDD39FEE6480F8CF
:1019D600EC6480984020900032ECF0A3EDF090008B
:1019E6003FE090002DF0900040E090002EF0900037
:0619F60041E090002FF01B
:0119FC0022C8
:101BE800900063E090003A6006E04480F08004E0F2
:101BF800547FF090000DE0F8A3E0F9A3E0FAA3E029
:101C0800FB900064E0FCA3E0FDA3E0FEA3E0C39B1F
:101C1800FFEE9AFEED99FDEC98FCE47BC8FAF9F822
:101C2800C31206395034900064E0FCA3E0FDA3E041
:101C3800FEA3E0FF90000D12069990006BE070047F
:101C48007F0180027F0090006BEFF0A3E070047FBB
:101C58000180027F0090006CEFF0900034E0600596
:101C680090003A800F90006BE090003A6006E044E4
:101C780001F08004E054FEF090003BE0FCA3E0FD9E
:101C8800C3EC64809480500590003A802390004A09
:101C9800E0FEA3E0FFD3ED9FEE6480F8EC6480984B
:101CA800500590003A800F90006CE090003A600672
:101CB800E04402F08004E054FDF090000CE0FF9056
:0F1CC800003AE06F6009E0FF90000CF012261365
:011CD70022EA
:10221E00900063E0603C90004AE0FEA3E0FFD390A4
:10222E00003CE09FEE6480F890003BE064809840B4
:10223E00047D018002E4FD7F011223C8C390003BA0
:10224E00E06480948050057D01E48002E4FDFF127D
:03225E0023C82270
:10233B0090003DE0FF602924FE600F14601424021E
:10234B0070197BFF7A20793B800E7BFF7A207943D3
:10235B0080067BFF7A20794B12239BE490003DF0A3
:01236B00224F
:030023000213A81D
:1013A800C0E0C0F0C083C082C0D075D000C000C00B
:0D13B80001C002C003C004C005C006C0078C
:1013C500209803021580C298900021E0FF04F07474
:1013D500112FF582E43400F583E599F0900021E0C2
:1013E500FF2411F582E43400F583E4F0EF6407602F
:1013F5000302149D90007974FFF0A37420F0A37488
:101405004EF0A37401F0A37400F0A37472F0A374FA
:1014150001F0A37400F0A37470F0A37401F0A37439
:1014250000F0A37471F07B017A007911120CB5906C
:10143500006EEEF0A3EFF064034E6003021580A387
:10144500E0640D7050A3E0640A704AA3E0FEA3E0D7
:10145500FFD39400EE64809480403A7C007D0A12AC
:1014650005C0ED4C702F90006104F0900064E0FC25
:10147500A3E0FDA3E0FEA3E0FF90005912069990BA
:101485000072E0FEA3E0FF7C007D0A1205C090001B
:101495005EEF021557021565900021E0640F6003A9
:1014A50002156C90007974FFF0A37420F0A37459B1
:1014B500F0A37401F0A37400F0A37472F0A3740197
:1014C500F0A37400F0A37474F0A37401F0A3740086
:1014D500F0A37470F0A37401F0A37400F0A3747109
:1014E500F07B017A007911120CB590006EEEF0A335
:1014F500EFF064044E6003021580A3E0640D706094
:10150500A3E0640A705AA3E0FEA3E0FFC3943CEE97
:1015150064809480404AD3EF94C8EE6480948050F0
:101525003FA3E0FEA3E0FF941EEE6480948050305C
:10153500C3EF94E2EE6480947F4025900072E0FF53
:10154500A3E090004ACFF0A3EFF0900074A3E090E1
:10155500006DF0900021E4F090003D7403F0801BD5
:1015650090003D7401800E900021E0D3940F400B54
:0B15750090003D7402F0900021E4F0B3
:10158000D007D006D005D004D003D002D001D000BF
:0B159000D0D0D082D083D0F0D0E03269
:03001B000219FDCA
:1019FD00C0E0C0F0C083C082C0D075D000C000C0B0
:0D1A0D0001C002C003C004C005C006C00730
:101A1A00900064E0FCA3E0FDA3E0FEA3E02401FF44
:101A2A00E43EFEE43DFDE43CFC900064120699901D
:101A3A000023120664E47B64FAF9F8C312063970CB
:101A4A001C9000231206A50000000090005D74019E
:101A5A00F090004CF0900060F0900062F09000610D
:101A6A00E06058900059E0F8A3E0F9A3E0FAA3E097
:101A7A00FB900064E0FCA3E0FDA3E0FEA3E0C39BAF
:101A8A00FFEE9AFEED99FDEC98FCE47B887A13F957
:101A9A00F8D3120639401F900022E004F0B40A0677
:101AAA00E4F0C2B4801590005EE0FF900022E0B539
:101ABA000709D2B48005900061E4F07B017A0079CD
:101ACA004290005FE0FD12226190005FE004F05452
:021ADA0007F013
:101ADC00D007D006D005D004D003D002D001D0005E
:0B1AEC00D0D0D082D083D0F0D0E03208
:1024C8007580FFE5A0541F4480F5A053A01FE4F5D4
:0D24D80080E5A0541F44A0F5A053A01F22D2
:10257E0053890F538EBF758DFC758B18D2AFD2ABAE
:05258E00C28FD28E2275
:102603005389F0538E7FE4F58CF58AC28DC28C22F8
:10261300EFF4F580E5A0541F4480F5A053A01F22DA
:052141009000A7EFF083
:10214600900064E0FCA3E0FDA3E0FEA3E0FF9000A6
:10215600A81206999000A8E0F8A3E0F9A3E0FAA374
:10216600E0FB900064E0FCA3E0FDA3E0FEA3E0C377
:102176009BFBEE9AFAED99F9EC98F89000A7E0FF30
:0A218600E4FCFDFEC312063940CA56
:01219000222C
:0B0F86009000A4EBF0A3EAF0A3E9F058
:100F9100E49000ABF09000AAF09000AAE0FFC394A7
:100FA1000840030211B39000A4E0FBA3E0FAA3E020
:100FB100F99000ABE0F58275830012055F12071608
:100FC10010DC2D11632E0FF830100D31102432106A
:100FD1003B3310523410693510803610973710AEFC
:100FE1003810C53911374110F346112148114D4CC4
:100FF100110A500000118D9000A7E0FBA3E0FAA3B5
:10100100E0F98F8275830074C00211A19000A7E0FE
:10101100FBA3E0FAA3E0F9A3E0F58275830074F97C
:101021000211A19000A7E0FBA3E0FAA3E0F9A3E07D
:10103100F58275830074A40211A19000A7E0FBA3BF
:10104100E0FAA3E0F9A3E0F58275830074B0021120
:10105100A19000A7E0FBA3E0FAA3E0F9A3E0F582E9
:1010610075830074990211A19000A7E0FBA3E0FA37
:10107100A3E0F9A3E0F58275830074920211A190B7
:1010810000A7E0FBA3E0FAA3E0F9A3E0F5827583F2
:101091000074820211A19000A7E0FBA3E0FAA3E093
:1010A100F9A3E0F58275830074F80211A19000A7FD
:1010B100E0FBA3E0FAA3E0F9A3E0F58275830074F5
:1010C100800211A19000A7E0FBA3E0FAA3E0F9A33D
:1010D100E0F58275830074900211A19000A7E0FBF6
:1010E100A3E0FAA3E0F9A3E0F58275830074BF02DF
:1010F10011A19000A7E0FBA3E0FAA3E0F9A3E0F5BA
:1011010082758300748E0211A19000A7E0FBA3E019
:10111100FAA3E0F9A3E0F582758300748C0211A1B2
:101121009000A7E0FBA3E0FAA3E0F9A3E0F5827544
:1011310083007489806A9000A7E0FBA3E0FAA3E032
:10114100F9A3E0F582758300748880549000A7E0CC
:10115100FBA3E0FAA3E0F9A3E0F58275830074C76D
:10116100803E9000AAE0D394004003E014F0900088
:10117100A7E0FBA3E0FAA3E0F9A3E0FFE92FF9E47C
:101181003AFA120546547F12058C80179000A7E0A9
:10119100FBA3E0FAA3E0F9A3E0F58275830074FFF5
:1011A10012059E9000ABE004F09000AAE004F0026A
:0211B1000F9A93
:0111B3002219
:102261007580FFE5A0541F44E0F5A053A01F740141
:10227100A805088002C333D8FCF580E5A0541F44AB
:10228100C0F5A053A01FAF058F8275830012055FB3
:0E229100F580E5A0541F44E0F5A053A01F22E5
:101E9B00E49000A5F0FDA3F0D2C2C2C4E5B0540F8C
:101EAB009000A5F0C2C2D2C4E0C454F0FFE5B05418
:101EBB000F4FF0E0B4FF037F00227F14122141D2B9
:101ECB00C2C2C4E5B0540FC2C2D2C4C454F0FFE5C1
:101EDB00B0540F4FFD9000A5E06D60037F0022ED25
:101EEB00F414605314604824FE603C24FC603024DE
:101EFB00F8602424F0601824E0600C24C07040903B
:101F0B0000A67404F0803D9000A67405F080359017
:101F1B0000A67406F0802D9000A67407F080259023
:101F2B0000A67408F0801D9000A67409F08015902F
:101F3B0000A6740AF0800D9000A6740BF08005E4E7
:091F4B009000A6F09000A6E0FF52
:011F5400226A
:1025F20075985075D76475D6FF438E15D2AFD2AC9D
:0126020022B5
:0B239B009000A4EBF0A3EAF0A3E9F02F
:1023A600E4FF9000A4E0FBA3E0FAA3E0F98F8275B6
:1023B600830012055F600AF5993099FDC2990F8076
:0123C600E135
:0123C70022F3
:1023C800E4F58053A01FEF600DED60054380108099
:1023D800105380EF800BED600543808080035380AD
:0D23E8007FE5A0541F44A0F5A053A01F22C4
:1000260002036EE86480F8E933E83360110460F097
:10003600ED33EC337009E8FCE9FDEAFEEBFF220440
:1000460060DED3EB9FEA9EE99DE8C2E78CF0C2F73B
:1000560095F0400CE8CCF8E9CDF9EACEFAEBCFFB07
:1000660012033985D0F05804700320D5B3E8047024
:10007600075002B2D502037892D5EC0460F7E4CCBF
:10008600C0E0C398F8603B94186008400DD0E0FBD0
:10009600020350E4FBFAC9FC8028E830E406E4C910
:1000A600FBE4CAFCE830E305E4C9CACBFCE8540724
:1000B6006010F8C3E913F9EA13FAEB13FBEC13FC2F
:1000C600D8F130F52FC3E49CFCEF9BFFEE9AFEEDD2
:1000D60099FDD0E0FBEF4E4D4C701222DB0302037C
:1000E60075EC2CFCEF33FFEE33FEED33FDED30E720
:1000F600EB020350EF2BFFEE3AFEED39FDD0E0FBAD
:1001060050130BBB0003020378ED13FDEE13FEEF55
:0801160013FFEC13FC0203507F
:10011E00EC4D6011E8497017ED33EC3304600DE4DB
:10012E00FCFFFEFD22E933E8330470F802036E1281
:10013E00033958046009E4CC248150062850090282
:10014E000378284003020375C0E0EB4A7044B9807F
:10015E0006D0E0FB020364EF4E701CBD8008EBFF7F
:10016E00EAFEE9FD80EBE98DF0A4FEE5F002020760
:10017E00E9CDF9EAFEEBFFEF89F0A4FCE5F0CE89BC
:10018E00F0A42EFFE435F0CD89F0A42DFEE435F079
:10019E008067EF4E7005BD80D780C3EF8BF0A4ACA7
:1001AE00F0EE8BF0A42CFCE435F0F8EF8AF0A42CE2
:1001BE00E5F038FCE433CB8DF0A42CFCE5F03BF8F5
:1001CE00EE8AF0A42CFCE5F038F8E433CF89F0A4E5
:1001DE002CFCE5F038CF3400CE89F0A42FFFE5F0EB
:1001EE003EFEE433C98DF0A42EFEE5F039CD8AF043
:1001FE00A42FFFE5F03EFEE43DFD33D0E0FB5007BB
:10020E000BBB000F020378EC2CFCEF33FFEE33FE3A
:06021E00ED33FD02035068
:10022400020378EC5D046005E85904700302036E70
:10023400120339580460F6EC4860F2EC7004FDFED9
:10024400FF22C860DB2481C85009C39860025006AD
:100254000203759850CAF582E9294B4A7005AB82AE
:1002640002036475F0007C1A7880C3EF9BEE9AED6C
:1002740099400DC3EF9BFFEE9AFEED99FDE842F025
:10028400DC23ACF0D0E0FFD0E0FED0E0FDAB822078
:10029400E7101BEB60BAEC2CFCEF33FFEE33FEED02
:1002A40033FD020350E803F830E705C0F075F000B1
:1002B400EF2FFFEE33FEED33FD40B830E7C280AAE6
:1002C40075F020800E75F010800575F0087D007EB5
:1002D400007F003392D530D50312062BEC33401047
:1002E400EF33FFEE33FEED33FDEC33FCD5F0ED22BE
:0E02F400E5F0247EA2D513CC92E7CDCEFF22FA
:10030200EDD2E7CD33EC3392D524814006E4FFFEF3
:10031200FDFC22FCE4CFCECDCC24E0501174FF8052
:10032200EDC3CC13CCCD13CDCE13CECF13CF0470EF
:07033200F030D5DE02062BBE
:1007A900E51324A7F582E43400F583E005132290CC
:1007B90000A43012039000A7E475F0011206DF02CD
:1007C9000546200BE97F2ED20B8018EF540F249099
:1007D900D43440D4FF300F0BEF24BFB41A005003B8
:1007E9002461FFE514600215140517E51770020569
:1007F9001630120E9000A4E475F0011206DFEF0224
:10080900058C02241C7403D2128003E4C212F5136E
:100819009000A412070DE4F514F516F517E5146018
:10082900077F201207EC80F57515FFC20CC20BC2B9
:100839000DC20EC210C211C2131207B8FF700D30DB
:1008490012057F001207FDAF17AE1622B4255FC24D
:10085900D5C20F1207B8FF24D0B40A00501A75F098
:100869000A781430D50508B6FF0106C6A426F62075
:10087900D5047002D20E80D924CFB41A00EF5004E7
:10088900C2E5D20F020AEFD20C80C6D20B80C0D2C9
:100899000D80BCD2D580BAD21080B47F201207EC6B
:1008A900200D077401B5140040F11207A9FF1207C2
:1008B900EC020826D213D21180951207A9FB120760
:1008C900A9FA1207A9F94A4B700679ED7A0B7BFF51
:1008D900200D2EE514602A7E008E82758300120594
:1008E9005F60060EEE651570F0C2D5EBC0E0EAC098
:1008F900E0E9C0E0EE120B50D0E0F9D0E0FAD0E028
:10090900FB120546FF60AAEBC0E0EAC0E0E9C0E0DF
:100919001207ECD0E02401F9D0E03400FAD0E0FB72
:10092900E5150460DCD515D98087D20D80A2120B9C
:100939003260F7E515700104120383A915600DE50E
:1009490015600914F515120BDAEF60F3EA30E702C6
:10095900F404C3995079EAF425150430E701E40455
:10096900F515800D120B3260C1EA05152515120324
:1009790083EA9000D3F030E701E4251504D5150486
:1009890020100114120B50E4C0E0120BDA9000D3CE
:10099900E0601320E70714F01207D4802204F0D096
:1009A900E014C0E07F001207D4E51560071207CBF9
:1009B9001515800B3010031207CBD0E0020826D0A2
:1009C900E00480C4120B32609EE515041203839083
:1009D90000D3EAF0E5152010026001042404120B8B
:0109E90050BD
:1009EA0074FF04C0E0120BDA1207D4E515201002D6
:1009FA0060031207CBD0E0B515E87F451207DE90F9
:100A0A0000D3E07F2B30E7047F2DF404C0E0120707
:100A1A00ECD0E075F00A84C0F01207D5D0E01207D6
:100A2A00D5020826791080027908C211C2138008FB
:100A3A00D2D5790A8004790AC2D5E515047002F57F
:100A4A0015E4FAFDFEFF1207A9FC7B08200C13121D
:100A5A0007A9FD7B10300B0A1207A9FE1207A9FF8E
:100A6A007B20EC3382D592D55013C3E4300B069F1A
:100A7A00FFE49EFEE4200C039DFDE49CFCE4CBF81D
:100A8A00C20CEC700CCFCECDCCE824F8F870F38011
:100A9A0017C3EF33FFEE33FEED33FDEC33FCEB33DC
:100AAA00FB994002FB0FD8E9EB300C05F8D0E0C403
:100ABA0048B20CC0E00AEC4D4E4F78207B0070C261
:100ACA00EAB5150040BCC0E0120B52D0F0D0E020CD
:100ADA000C04C4C0E0C4B20CC0F01207D5D0F0D5E3
:100AEA00F0EB02082612071608C3530A2E58089478
:100AFA004C0890420A324F0A3A440A3A4908A94332
:100B0A000A4055096D4609CD450937470C0D50086D
:100B1A00982D089C2E08BF2B08A02308BD200BF691
:100B2A002A085848000008B7E515B4FF03751506EA
:100B3A001207A9FC1207A9FD1207A9FE1207A9FFAD
:100B4A009000CC0203C0790AA2D5200E14301009F5
:100B5A00B910020404B9080104A2D52011025001F7
:100B6A0004200D68920DB514005034C0E07F203087
:100B7A000E197F30A20D72117210500F120BA9C2FA
:100B8A000DC211C210C2137F30800F301003E9C0AA
:100B9A00E01207EC301003D0E0F9D0E0B514CC3005
:100BAA0010177F30B9100C1207EC7F58300F077FEF
:100BBA00788003B908031207EC300D057F2D020770
:100BCA00EC7F202013F87F2B2011F322920D80CF87
:100BDA007F00B40700500B24CCF582E43400F5837F
:100BEA00E0FF22286E756C6C2900D20C1207A9301E
:100BFA000CF8C20C781430D50108F60208582D50AA
:100C0A004349581207A92403B405004001E4900C93
:100C1A0008931207DD743A1207DDD20E7514040226
:020C2A000A2E90
:100C2C00E50830030104F823282479F582E4340024
:100C3C00F58322900076300303900079E475F0017F
:100C4C001206DF02054660EAC50C7002150B14C5CE
:100C5C000C200304FF02263990007674FFF5F00295
:100C6C0006F6FF0225BBE5096006D509037F0022C5
:100C7C0020030F1225A7EF6008050CE50C70020588
:100C8C000B229000761206D6120546FF60E8900003
:100C9C0076E475F0011206DF80DC120C7CEFC0E00C
:100CAC00120C6ED0E040F3809DD2038002C2039000
:100CBC00007612070DE4F50AF508F50BF50C75092D
:100CCC0000C202C200C201C204120C3FFF7005AF89
:100CDC000A7E0022B42530120C3FFF24D0B40A0047
:100CEC00500C75F00AC509A42509F50980E924CF33
:100CFC00B41A00EF5002C2E5020F52D20180D8D2D2
:100D0C000080D4D20480D0EF120C6E5008120CA6C6
:100D1C00EF600E80A9EFC0E0120C7CD0E06F609EFB
:100D2C00EF6074120C5280A7120C7CEF6069E5091D
:100D3C00700705098003120C7CEF601420040E125E
:100D4C000C2CE475F0011206DFEF12058CD509E6C8
:100D5C002004040508050A80BA120C72EFC0E012D8
:100D6C000C6ED0E05004120C52E4FF20040E120C56
:100D7C002CE475F0011206DFEF12058CEF70DA200F
:100D8C0004040508050A808BE50960020509120CAC
:100D9C00A6120C72EF70C6300304E4120C52E50A72
:100DAC006003020CDB7EFF7FFF22E5096002050970
:100DBC00120CA6D206D205120C72EF30060260D7C6
:100DCC00C0E0120C52D0E0AC0DAD0EAE0FAF101255
:100DDC001CEB8C0D8D0E8E0F8F105007120C7CC2DD
:100DEC000580D4200410200502050A120C2C1206D2
:030DFC00D6050811
:100DFF0012064A020CCAD0E0809A7900800A791054
:100E0F00800679088002790AD205E5096002050992
:100E1F00E9C0E0120CA6EF60DD120C7CBF2D04D2EE
:100E2F00028003BF2B09120CA6EF60CA120C72D0FE
:100E3F00E0B40A028033B40802802EBF302770025C
:100E4F007408C205C0E0120C72D0E0BF78028003B4
:100E5F00BF58160509D509028007D50904D20580A8
:100E6F000B741080197002740ABF000AEFF8E4FCCB
:100E7F00FDFEFF020F05C0E0EF120C52D0E0F9E4C7
:100E8F00FCFDFEFFE9C0E0ECC0E0EDC0E0EEC0E02D
:100E9F00EFC0E0120C72EFF8D0E0FFD0E0FED0E030
:100EAF00FDD0E0FCD0F0E8604DB461004007B47BAA
:100EBF00005002C2E524D0503DFA24F6500724F921
:100ECF005034240AFAEAB5F000502BCFA9F0A42F22
:100EDF00FF92D5E9C5F0CEA4A2D53EFE92D5E9C5C5
:100EEF00F0CDA4A2D53DFD92D5E9C5F0CCA4A2D5F5
:100EFF003CFCC205808EE8C0E020042A20050805CE
:100F0F000A30020312062B120C2C1206D6050820EB
:100F1F00000B20010DEE8FF012060C800912064A0D
:100F2F008004EF12058CD0E0120C52020CCA200480
:100F3F0010120C2C1206D60508E50B850CF01206C4
:100F4F000C80E81207160D94530E0D580D0B4C0D17
:100F5F0007420CE3480E114F0E15440D34430E0992
:100F6F00490E15550DB6460DB6450DB6470D0F2A50
:070F7F000F3D4E00000D13B1
:10033900E9D2E7C933E833F892D5EDD2E7CD33EC0A
:0703490033FC5002B2D52283
:10035000EC30E7100FBF000C0EBE00080DBD00040E
:100360000BEB6014A2D5EB13FCED92E7FD2274FFBA
:10037000FCFDFEFF22E480F8A2D574FF13FC7D8013
:03038000E480EF27
:10038300F920E73624F950037907E4F42402FBE566
:1003930082158270021583DBF6E024FB501BE960B3
:1003A30014E4F0E582158270021583E004F0B40AC8
:0D03B30008E4F0D9EE7401F00A22C2D52250
:1003C000ED33EC3392D5FA602AB4FF33EDC2E77B0C
:1003D000FF60067A0379E5E4227A0379EE20D504FA
:1003E0007A0379E9224E614E002B494E46002D4991
:1003F0004E4600E47A08F0A3DAFC7B00740722C0C2
:1004000083C082ECC0E0EDC0E0EEC0E0EFC0E0EA07
:1004100075F010A4CAABF075F04DA42BFBE435F0D9
:10042000FCEA2410FAEB34C5FBEC34D9FCEDC2E74E
:10043000FF75F056A4F42411C5F0F434C58FF0A470
:100440002AE5F03BE43CF020E714120506D0E0FF7B
:10045000D0E0FED0E0FDD0E0FC1202278014F404CE
:10046000120506D0E0FFD0E0FED0E0FDD0E0FC12A7
:10047000011ED082D083E0FAEDD2E7CD33EC3324F5
:1004800082FBE4C3CF33CFCE33CECD33CD33DBF3DA
:100490007B0775F00A846004F0A31B0AE5F0F0A363
:1004A0008FF0740AA4FFACF08EF0740AA42CFEAC9A
:1004B000F050010C8DF0740AA42CFDE435F0F0A38B
:0504C000DBDE740722E1
:101CD800C207C208C209C20AF9E4F511F512FCFDEF
:101CE800FEFFE91006EA20090CB42D04D209D3221C
:101CF800B42B02D32224D0504794095041240A30EF
:101D08000A15F88512F0740AA42872E74051C5F044
:101D1800704D85F012D322D208C0E0E4FBFA792096
:101D2800784112011EECF8EDF9EEFAEFFBD0E0FC79
:101D3800E41202CE12002D3007B41511D322240A62
:101D4800200A20B4FE0720071AD207D32224EB600A
:101D58000424E0700EA2099207D20AC209D322C352
:101D680002036EE4300A0BE512300902F404A207FC
:101D780092093008EA251120D2E5A2E7920A50021A
:101D8800F404B4260050D8CCC0E0EDC0E0EEC0E0CA
:101D9800EFC0E0EC120506D0E0FFD0E0FED0E0FD99
:101DA800D0E0FC200A0512011E8003120227300928
:061DB800031204C5C32262
:1004C500ED33EC33600A047003BD8004ECB2E7FC45
:0104D5002204
:1004D6003F8000004120000042C80000447A00002E
:1004E600461C400047C35000497424004B189680B0
:1004F6004CBEBC205A0E1BCA6753C21C749DC5AEA7
:10050600FB60065407601C2323120534EB54386045
:100516000912052012052F12011EECF8EDF9EEFA6C
:10052600EFCB22EB12052F80F1543803241C9004E4
:10053600D6FE93FC0EEE93FD0EEE930ECE93FF22A7
:03000000021F5587
:0C1F5500787FE4F6D8FD758122021F9C05
:10054600BB010689828A83E0225002E722BBFE02B3
:09055600E32289828A83E49322E6
:10055F00BB010CE58229F582E5833AF583E0225051
:10056F0006E92582F8E622BBFE06E92582F8E2229B
:0D057F00E58229F582E5833AF583E49322B5
:10058C00BB010689828A83F0225002F722BBFE014E
:02059C00F32248
:10059E00F8BB010DE58229F582E5833AF583E8F093
:1005AE00225006E92582C8F622BBFE05E92582C83F
:0205BE00F22227
:1005C000C2D5EC30E709B2D5E4C39DFDE49CFCEE56
:1005D00030E715B2D5E4C39FFFE49EFE12073CC38B
:1005E000E49DFDE49CFC800312073C30D507C3E486
:0605F0009FFFE49EFE22C5
:1005F600A3F8E0C5F025F0F0E582158270021583B8
:06060600E0C838F0E82214
:10060C00BB010A89828A83F0E5F0A3F0225006F739
:0F061C0009A7F01922BBFE06F3E5F009F3192236
:0E062B00C3E49FFFE49EFEE49DFDE49CFC22E0
:10063900EB9FF5F0EA9E42F0E99D42F0E89C45F017
:01064900228E
:10064A00BB010789828A830206995005E9F80207E5
:0A065A0091BBFE05E9F802079D229E
:100664007401FF3395E0FEFDFCA3A3A3E02FFFF08C
:10067400E582158270021583E03EFEF0E582158264
:1006840070021583E03DFDF0E5821582700215834A
:05069400E03CFCF02237
:0C069900ECF0A3EDF0A3EEF0A3EFF022D4
:1006A500A8828583F0D083D0821206BC1206BC12C4
:1006B50006BC1206BCE473E493A3C583C5F0C583E9
:1006C500C8C582C8F0A3C583C5F0C583C8C582C89F
:0106D5002202
:0906D600E0FBA3E0FAA3E0F92225
:1006DF00F8E0FBA3A3E0F925F0F0E58215827002A4
:0706EF001583E0FA38F02248
:1006F600F8E0FBA3A3E025F0F9F0E582158270028D
:070706001583E038FAF02230
:09070D00EBF0A3EAF0A3E9F022ED
:10071600D083D082F8E4937012740193700DA3A372
:1007260093F8740193F5828883E473740293686086
:06073600EFA3A3A380DF86
:10241C00EFB40A07740D122427740A309811A89986
:10242C00B8130CC2983098FDA899C298B811F63020
:07243C0099FDC299F59922F8
:1025A70010140B12262FBF0D027F0A02241C900065
:0425B700D4E0FF224B
:082639009000D4EFF0D214224E
:1025BB00EFC394094005EF940E4004EFB42003D30E
:0425CB008001C322A6
:101F610002206BE493A3F8E493A34003F68001F20B
:101F710008DFF48029E493A3F85407240CC8C33381
:101F8100C4540F4420C8834004F456800146F6DF50
:101F9100E4800B0102040810204080901DBEE47E05
:101FA100019360BCA3FF543F30E509541FFEE49345
:101FB100A360010ECF54C025E060A840B8E493A30C
:101FC100FAE493A3F8E493A3C8C582C8CAC583CA37
:101FD100F0A3C8C582C8CAC583CADFE9DEE780BEEF
:011E9A000047
:10073C00BC000BBE0029EF8DF084FFADF022E4CCA1
:10074C00F875F008EF2FFFEE33FEEC33FCEE9DEC6A
:10075C00984005FCEE9DFE0FD5F0E9E4CEFD22EDB0
:10076C00F8F5F0EE8420D21CFEADF075F008EF2FFA
:10077C00FFED33FD4007985006D5F0F222C398FDEB
:05078C000FD5F0EA2288
:0C079100ECF608EDF608EEF608EFF62294
:0C079D00ECF208EDF208EEF208EFF22298
:0A262F003098FDAF99C2987E00229A
:00000001FF
